{
  "_format": "hh-sol-artifact-1",
  "contractName": "BusinessCard",
  "sourceName": "contracts/BusinessCard.sol",
  "abi": [
    {
      "inputs": [
        {
          "internalType": "address",
          "name": "employeeIdAddress",
          "type": "address"
        }
      ],
      "stateMutability": "nonpayable",
      "type": "constructor"
    },
    {
      "inputs": [
        {
          "internalType": "address",
          "name": "sender",
          "type": "address"
        },
        {
          "internalType": "uint256",
          "name": "balance",
          "type": "uint256"
        },
        {
          "internalType": "uint256",
          "name": "needed",
          "type": "uint256"
        },
        {
          "internalType": "uint256",
          "name": "tokenId",
          "type": "uint256"
        }
      ],
      "name": "ERC1155InsufficientBalance",
      "type": "error"
    },
    {
      "inputs": [
        {
          "internalType": "address",
          "name": "approver",
          "type": "address"
        }
      ],
      "name": "ERC1155InvalidApprover",
      "type": "error"
    },
    {
      "inputs": [
        {
          "internalType": "uint256",
          "name": "idsLength",
          "type": "uint256"
        },
        {
          "internalType": "uint256",
          "name": "valuesLength",
          "type": "uint256"
        }
      ],
      "name": "ERC1155InvalidArrayLength",
      "type": "error"
    },
    {
      "inputs": [
        {
          "internalType": "address",
          "name": "operator",
          "type": "address"
        }
      ],
      "name": "ERC1155InvalidOperator",
      "type": "error"
    },
    {
      "inputs": [
        {
          "internalType": "address",
          "name": "receiver",
          "type": "address"
        }
      ],
      "name": "ERC1155InvalidReceiver",
      "type": "error"
    },
    {
      "inputs": [
        {
          "internalType": "address",
          "name": "sender",
          "type": "address"
        }
      ],
      "name": "ERC1155InvalidSender",
      "type": "error"
    },
    {
      "inputs": [
        {
          "internalType": "address",
          "name": "operator",
          "type": "address"
        },
        {
          "internalType": "address",
          "name": "owner",
          "type": "address"
        }
      ],
      "name": "ERC1155MissingApprovalForAll",
      "type": "error"
    },
    {
      "anonymous": false,
      "inputs": [
        {
          "indexed": true,
          "internalType": "address",
          "name": "account",
          "type": "address"
        },
        {
          "indexed": true,
          "internalType": "address",
          "name": "operator",
          "type": "address"
        },
        {
          "indexed": false,
          "internalType": "bool",
          "name": "approved",
          "type": "bool"
        }
      ],
      "name": "ApprovalForAll",
      "type": "event"
    },
    {
      "anonymous": false,
      "inputs": [
        {
          "indexed": true,
          "internalType": "address",
          "name": "operator",
          "type": "address"
        },
        {
          "indexed": true,
          "internalType": "address",
          "name": "from",
          "type": "address"
        },
        {
          "indexed": true,
          "internalType": "address",
          "name": "to",
          "type": "address"
        },
        {
          "indexed": false,
          "internalType": "uint256[]",
          "name": "ids",
          "type": "uint256[]"
        },
        {
          "indexed": false,
          "internalType": "uint256[]",
          "name": "values",
          "type": "uint256[]"
        }
      ],
      "name": "TransferBatch",
      "type": "event"
    },
    {
      "anonymous": false,
      "inputs": [
        {
          "indexed": true,
          "internalType": "address",
          "name": "operator",
          "type": "address"
        },
        {
          "indexed": true,
          "internalType": "address",
          "name": "from",
          "type": "address"
        },
        {
          "indexed": true,
          "internalType": "address",
          "name": "to",
          "type": "address"
        },
        {
          "indexed": false,
          "internalType": "uint256",
          "name": "id",
          "type": "uint256"
        },
        {
          "indexed": false,
          "internalType": "uint256",
          "name": "value",
          "type": "uint256"
        }
      ],
      "name": "TransferSingle",
      "type": "event"
    },
    {
      "anonymous": false,
      "inputs": [
        {
          "indexed": false,
          "internalType": "string",
          "name": "value",
          "type": "string"
        },
        {
          "indexed": true,
          "internalType": "uint256",
          "name": "id",
          "type": "uint256"
        }
      ],
      "name": "URI",
      "type": "event"
    },
    {
      "inputs": [
        {
          "internalType": "address",
          "name": "account",
          "type": "address"
        },
        {
          "internalType": "uint256",
          "name": "id",
          "type": "uint256"
        }
      ],
      "name": "balanceOf",
      "outputs": [
        {
          "internalType": "uint256",
          "name": "",
          "type": "uint256"
        }
      ],
      "stateMutability": "view",
      "type": "function"
    },
    {
      "inputs": [
        {
          "internalType": "address[]",
          "name": "accounts",
          "type": "address[]"
        },
        {
          "internalType": "uint256[]",
          "name": "ids",
          "type": "uint256[]"
        }
      ],
      "name": "balanceOfBatch",
      "outputs": [
        {
          "internalType": "uint256[]",
          "name": "",
          "type": "uint256[]"
        }
      ],
      "stateMutability": "view",
      "type": "function"
    },
    {
      "inputs": [
        {
          "internalType": "string",
          "name": "employeeName",
          "type": "string"
        },
        {
          "internalType": "string",
          "name": "departmentName",
          "type": "string"
        },
        {
          "internalType": "string",
          "name": "message",
          "type": "string"
        }
      ],
      "name": "generateSVG",
      "outputs": [
        {
          "internalType": "string",
          "name": "svg",
          "type": "string"
        }
      ],
      "stateMutability": "pure",
      "type": "function"
    },
    {
      "inputs": [
        {
          "internalType": "uint256",
          "name": "tokenId",
          "type": "uint256"
        }
      ],
      "name": "getBusinessCardInfo",
      "outputs": [
        {
          "internalType": "string",
          "name": "employeeName",
          "type": "string"
        },
        {
          "internalType": "string",
          "name": "departmentName",
          "type": "string"
        },
        {
          "internalType": "string",
          "name": "message",
          "type": "string"
        }
      ],
      "stateMutability": "view",
      "type": "function"
    },
    {
      "inputs": [
        {
          "internalType": "uint256",
          "name": "tokenId",
          "type": "uint256"
        }
      ],
      "name": "getCustomTokenURI",
      "outputs": [
        {
          "internalType": "string",
          "name": "",
          "type": "string"
        }
      ],
      "stateMutability": "view",
      "type": "function"
    },
    {
      "inputs": [
        {
          "internalType": "address",
          "name": "user",
          "type": "address"
        }
      ],
      "name": "getTokenIds",
      "outputs": [
        {
          "internalType": "uint256[]",
          "name": "",
          "type": "uint256[]"
        }
      ],
      "stateMutability": "view",
      "type": "function"
    },
    {
      "inputs": [
        {
          "internalType": "address",
          "name": "account",
          "type": "address"
        },
        {
          "internalType": "address",
          "name": "operator",
          "type": "address"
        }
      ],
      "name": "isApprovedForAll",
      "outputs": [
        {
          "internalType": "bool",
          "name": "",
          "type": "bool"
        }
      ],
      "stateMutability": "view",
      "type": "function"
    },
    {
      "inputs": [
        {
          "internalType": "uint256",
          "name": "tokenId",
          "type": "uint256"
        },
        {
          "internalType": "address[]",
          "name": "toAddresses",
          "type": "address[]"
        }
      ],
      "name": "mintExistingBusinessCardNFT",
      "outputs": [],
      "stateMutability": "nonpayable",
      "type": "function"
    },
    {
      "inputs": [
        {
          "internalType": "uint256",
          "name": "tokenId",
          "type": "uint256"
        },
        {
          "internalType": "string",
          "name": "employeeName",
          "type": "string"
        },
        {
          "internalType": "string",
          "name": "departmentName",
          "type": "string"
        },
        {
          "internalType": "string",
          "name": "message",
          "type": "string"
        }
      ],
      "name": "mintNewBusinessCardNFT",
      "outputs": [],
      "stateMutability": "nonpayable",
      "type": "function"
    },
    {
      "inputs": [
        {
          "internalType": "address",
          "name": "from",
          "type": "address"
        },
        {
          "internalType": "address",
          "name": "to",
          "type": "address"
        },
        {
          "internalType": "uint256[]",
          "name": "ids",
          "type": "uint256[]"
        },
        {
          "internalType": "uint256[]",
          "name": "values",
          "type": "uint256[]"
        },
        {
          "internalType": "bytes",
          "name": "data",
          "type": "bytes"
        }
      ],
      "name": "safeBatchTransferFrom",
      "outputs": [],
      "stateMutability": "nonpayable",
      "type": "function"
    },
    {
      "inputs": [
        {
          "internalType": "address",
          "name": "from",
          "type": "address"
        },
        {
          "internalType": "address",
          "name": "to",
          "type": "address"
        },
        {
          "internalType": "uint256",
          "name": "id",
          "type": "uint256"
        },
        {
          "internalType": "uint256",
          "name": "value",
          "type": "uint256"
        },
        {
          "internalType": "bytes",
          "name": "data",
          "type": "bytes"
        }
      ],
      "name": "safeTransferFrom",
      "outputs": [],
      "stateMutability": "nonpayable",
      "type": "function"
    },
    {
      "inputs": [
        {
          "internalType": "address",
          "name": "operator",
          "type": "address"
        },
        {
          "internalType": "bool",
          "name": "approved",
          "type": "bool"
        }
      ],
      "name": "setApprovalForAll",
      "outputs": [],
      "stateMutability": "nonpayable",
      "type": "function"
    },
    {
      "inputs": [
        {
          "internalType": "bytes4",
          "name": "interfaceId",
          "type": "bytes4"
        }
      ],
      "name": "supportsInterface",
      "outputs": [
        {
          "internalType": "bool",
          "name": "",
          "type": "bool"
        }
      ],
      "stateMutability": "view",
      "type": "function"
    },
    {
      "inputs": [
        {
          "internalType": "uint256",
          "name": "tokenId",
          "type": "uint256"
        },
        {
          "internalType": "string",
          "name": "newEmployeeName",
          "type": "string"
        },
        {
          "internalType": "string",
          "name": "newDepartmentName",
          "type": "string"
        },
        {
          "internalType": "string",
          "name": "newMessage",
          "type": "string"
        }
      ],
      "name": "updateEmployeeInfo",
      "outputs": [],
      "stateMutability": "nonpayable",
      "type": "function"
    },
    {
      "inputs": [
        {
          "internalType": "uint256",
          "name": "tokenId",
          "type": "uint256"
        }
      ],
      "name": "uri",
      "outputs": [
        {
          "internalType": "string",
          "name": "",
          "type": "string"
        }
      ],
      "stateMutability": "view",
      "type": "function"
    }
  ],
  "bytecode": "0x608060405260006004553480156200001657600080fd5b5060405162005a0938038062005a0983398181016040528101906200003c919062000125565b604051806020016040528060008152506200005d81620000a660201b60201c565b5080600360006101000a81548173ffffffffffffffffffffffffffffffffffffffff021916908373ffffffffffffffffffffffffffffffffffffffff16021790555050620004b8565b8060029081620000b79190620003d1565b5050565b600080fd5b600073ffffffffffffffffffffffffffffffffffffffff82169050919050565b6000620000ed82620000c0565b9050919050565b620000ff81620000e0565b81146200010b57600080fd5b50565b6000815190506200011f81620000f4565b92915050565b6000602082840312156200013e576200013d620000bb565b5b60006200014e848285016200010e565b91505092915050565b600081519050919050565b7f4e487b7100000000000000000000000000000000000000000000000000000000600052604160045260246000fd5b7f4e487b7100000000000000000000000000000000000000000000000000000000600052602260045260246000fd5b60006002820490506001821680620001d957607f821691505b602082108103620001ef57620001ee62000191565b5b50919050565b60008190508160005260206000209050919050565b60006020601f8301049050919050565b600082821b905092915050565b600060088302620002597fffffffffffffffffffffffffffffffffffffffffffffffffffffffffffffffff826200021a565b6200026586836200021a565b95508019841693508086168417925050509392505050565b6000819050919050565b6000819050919050565b6000620002b2620002ac620002a6846200027d565b62000287565b6200027d565b9050919050565b6000819050919050565b620002ce8362000291565b620002e6620002dd82620002b9565b84845462000227565b825550505050565b600090565b620002fd620002ee565b6200030a818484620002c3565b505050565b5b81811015620003325762000326600082620002f3565b60018101905062000310565b5050565b601f82111562000381576200034b81620001f5565b62000356846200020a565b8101602085101562000366578190505b6200037e62000375856200020a565b8301826200030f565b50505b505050565b600082821c905092915050565b6000620003a66000198460080262000386565b1980831691505092915050565b6000620003c1838362000393565b9150826002028217905092915050565b620003dc8262000157565b67ffffffffffffffff811115620003f857620003f762000162565b5b620004048254620001c0565b6200041182828562000336565b600060209050601f83116001811462000449576000841562000434578287015190505b620004408582620003b3565b865550620004b0565b601f1984166200045986620001f5565b60005b8281101562000483578489015182556001820191506020850194506020810190506200045c565b86831015620004a357848901516200049f601f89168262000393565b8355505b6001600288020188555050505b505050505050565b61554180620004c86000396000f3fe608060405234801561001057600080fd5b50600436106100f45760003560e01c8063a22cb46511610097578063d004b03611610066578063d004b036146102bb578063d07a6eda146102eb578063e985e9c514610307578063f242432a14610337576100f4565b8063a22cb46514610221578063ac6ebb341461023d578063bd45f0f514610259578063c66587c414610289576100f4565b80631222ed27116100d35780631222ed27146101895780632eb2c2d6146101b95780634e1273f4146101d557806356e496aa14610205576100f4565b8062fdd58e146100f957806301ffc9a7146101295780630e89341c14610159575b600080fd5b610113600480360381019061010e919061266b565b610353565b60405161012091906126ba565b60405180910390f35b610143600480360381019061013e919061272d565b6103ad565b6040516101509190612775565b60405180910390f35b610173600480360381019061016e9190612790565b61048f565b604051610180919061284d565b60405180910390f35b6101a3600480360381019061019e91906129a4565b6106de565b6040516101b0919061284d565b60405180910390f35b6101d360048036038101906101ce9190612bb4565b610715565b005b6101ef60048036038101906101ea9190612d46565b6107bd565b6040516101fc9190612e7c565b60405180910390f35b61021f600480360381019061021a9190612e9e565b6108cc565b005b61023b60048036038101906102369190612f85565b610ac5565b005b61025760048036038101906102529190612fc5565b610adb565b005b610273600480360381019061026e9190612790565b610c28565b604051610280919061284d565b60405180910390f35b6102a3600480360381019061029e9190612790565b610ccd565b6040516102b293929190613021565b60405180910390f35b6102d560048036038101906102d0919061306d565b610f0f565b6040516102e29190612e7c565b60405180910390f35b61030560048036038101906103009190612e9e565b611082565b005b610321600480360381019061031c919061309a565b611310565b60405161032e9190612775565b60405180910390f35b610351600480360381019061034c91906130da565b6113a4565b005b600080600083815260200190815260200160002060008473ffffffffffffffffffffffffffffffffffffffff1673ffffffffffffffffffffffffffffffffffffffff16815260200190815260200160002054905092915050565b60007fd9b67a26000000000000000000000000000000000000000000000000000000007bffffffffffffffffffffffffffffffffffffffffffffffffffffffff1916827bffffffffffffffffffffffffffffffffffffffffffffffffffffffff1916148061047857507f0e89341c000000000000000000000000000000000000000000000000000000007bffffffffffffffffffffffffffffffffffffffffffffffffffffffff1916827bffffffffffffffffffffffffffffffffffffffffffffffffffffffff1916145b8061048857506104878261144c565b5b9050919050565b60606000600560008481526020019081526020016000206040518060600160405290816000820180546104c1906131a0565b80601f01602080910402602001604051908101604052809291908181526020018280546104ed906131a0565b801561053a5780601f1061050f5761010080835404028352916020019161053a565b820191906000526020600020905b81548152906001019060200180831161051d57829003601f168201915b50505050508152602001600182018054610553906131a0565b80601f016020809104026020016040519081016040528092919081815260200182805461057f906131a0565b80156105cc5780601f106105a1576101008083540402835291602001916105cc565b820191906000526020600020905b8154815290600101906020018083116105af57829003601f168201915b505050505081526020016002820180546105e5906131a0565b80601f0160208091040260200160405190810160405280929190818152602001828054610611906131a0565b801561065e5780601f106106335761010080835404028352916020019161065e565b820191906000526020600020905b81548152906001019060200180831161064157829003601f168201915b505050505081525050905060006106b3610677856114b6565b61068e8460000151856020015186604001516106de565b60405160200161069f9291906133af565b604051602081830303815290604052611584565b9050806040516020016106c69190613456565b60405160208183030381529060405292505050919050565b606061070c8484846040516020016106f893929190614865565b604051602081830303815290604052611584565b90509392505050565b600061071f6116f6565b90508073ffffffffffffffffffffffffffffffffffffffff168673ffffffffffffffffffffffffffffffffffffffff161415801561076457506107628682611310565b155b156107a85780866040517fe237d92200000000000000000000000000000000000000000000000000000000815260040161079f9291906149ce565b60405180910390fd5b6107b586868686866116fe565b505050505050565b6060815183511461080957815183516040517f5b0599910000000000000000000000000000000000000000000000000000000081526004016108009291906149f7565b60405180910390fd5b6000835167ffffffffffffffff81111561082657610825612879565b5b6040519080825280602002602001820160405280156108545781602001602082028036833780820191505090505b50905060005b84518110156108c15761089161087982876117f690919063ffffffff16565b61088c838761180a90919063ffffffff16565b610353565b8282815181106108a4576108a3614a20565b5b602002602001018181525050806108ba90614a7e565b905061085a565b508091505092915050565b60006108d83386610353565b11610918576040517f08c379a000000000000000000000000000000000000000000000000000000000815260040161090f90614b12565b60405180910390fd5b3373ffffffffffffffffffffffffffffffffffffffff166007600086815260200190815260200160002060009054906101000a900473ffffffffffffffffffffffffffffffffffffffff1673ffffffffffffffffffffffffffffffffffffffff16146109b9576040517f08c379a00000000000000000000000000000000000000000000000000000000081526004016109b090614b7e565b60405180910390fd5b6040518060600160405280848152602001838152602001828152506005600086815260200190815260200160002060008201518160000190816109fc9190614d4a565b506020820151816001019081610a129190614d4a565b506040820151816002019081610a289190614d4a565b509050506000610a398484846106de565b90506000610a46866114b6565b82604051602001610a58929190614eda565b60405160208183030381529060405290506000610a7482611584565b9050600081604051602001610a899190613456565b604051602081830303815290604052905080600860008a81526020019081526020016000209081610aba9190614d4a565b505050505050505050565b610ad7610ad06116f6565b838361181e565b5050565b3373ffffffffffffffffffffffffffffffffffffffff166007600084815260200190815260200160002060009054906101000a900473ffffffffffffffffffffffffffffffffffffffff1673ffffffffffffffffffffffffffffffffffffffff1614610b7c576040517f08c379a0000000000000000000000000000000000000000000000000000000008152600401610b7390614fa7565b60405180910390fd5b6000610b883384610353565b11610bc8576040517f08c379a0000000000000000000000000000000000000000000000000000000008152600401610bbf90615039565b60405180910390fd5b60005b8151811015610c23576000828281518110610be957610be8614a20565b5b60200260200101519050610c0f818560016040518060200160405280600081525061198e565b508080610c1b90614a7e565b915050610bcb565b505050565b6060600860008381526020019081526020016000208054610c48906131a0565b80601f0160208091040260200160405190810160405280929190818152602001828054610c74906131a0565b8015610cc15780601f10610c9657610100808354040283529160200191610cc1565b820191906000526020600020905b815481529060010190602001808311610ca457829003601f168201915b50505050509050919050565b6060806060610cdb84611a27565b610d1a576040517f08c379a0000000000000000000000000000000000000000000000000000000008152600401610d11906150a5565b60405180910390fd5b600060056000868152602001908152602001600020604051806060016040529081600082018054610d4a906131a0565b80601f0160208091040260200160405190810160405280929190818152602001828054610d76906131a0565b8015610dc35780601f10610d9857610100808354040283529160200191610dc3565b820191906000526020600020905b815481529060010190602001808311610da657829003601f168201915b50505050508152602001600182018054610ddc906131a0565b80601f0160208091040260200160405190810160405280929190818152602001828054610e08906131a0565b8015610e555780601f10610e2a57610100808354040283529160200191610e55565b820191906000526020600020905b815481529060010190602001808311610e3857829003601f168201915b50505050508152602001600282018054610e6e906131a0565b80601f0160208091040260200160405190810160405280929190818152602001828054610e9a906131a0565b8015610ee75780601f10610ebc57610100808354040283529160200191610ee7565b820191906000526020600020905b815481529060010190602001808311610eca57829003601f168201915b5050505050815250509050806000015181602001518260400151935093509350509193909250565b60606000610f5a600660008573ffffffffffffffffffffffffffffffffffffffff1673ffffffffffffffffffffffffffffffffffffffff168152602001908152602001600020611a55565b67ffffffffffffffff811115610f7357610f72612879565b5b604051908082528060200260200182016040528015610fa15781602001602082028036833780820191505090505b50905060005b610fee600660008673ffffffffffffffffffffffffffffffffffffffff1673ffffffffffffffffffffffffffffffffffffffff168152602001908152602001600020611a55565b8110156110785761104681600660008773ffffffffffffffffffffffffffffffffffffffff1673ffffffffffffffffffffffffffffffffffffffff168152602001908152602001600020611a6a90919063ffffffff16565b82828151811061105957611058614a20565b5b602002602001018181525050808061107090614a7e565b915050610fa7565b5080915050919050565b3373ffffffffffffffffffffffffffffffffffffffff16600360009054906101000a900473ffffffffffffffffffffffffffffffffffffffff1673ffffffffffffffffffffffffffffffffffffffff16636352211e866040518263ffffffff1660e01b81526004016110f491906126ba565b602060405180830381865afa158015611111573d6000803e3d6000fd5b505050506040513d601f19601f8201168201806040525081019061113591906150da565b73ffffffffffffffffffffffffffffffffffffffff161461118b576040517f08c379a000000000000000000000000000000000000000000000000000000000815260040161118290615153565b60405180910390fd5b60006111973386610353565b146111d7576040517f08c379a00000000000000000000000000000000000000000000000000000000081526004016111ce906151e5565b60405180910390fd5b6111f3338560016040518060200160405280600081525061198e565b6040518060600160405280848152602001838152602001828152506005600086815260200190815260200160002060008201518160000190816112369190614d4a565b50602082015181600101908161124c9190614d4a565b5060408201518160020190816112629190614d4a565b50905050336007600086815260200190815260200160002060006101000a81548173ffffffffffffffffffffffffffffffffffffffff021916908373ffffffffffffffffffffffffffffffffffffffff16021790555061130984600660003373ffffffffffffffffffffffffffffffffffffffff1673ffffffffffffffffffffffffffffffffffffffff168152602001908152602001600020611a8490919063ffffffff16565b5050505050565b6000600160008473ffffffffffffffffffffffffffffffffffffffff1673ffffffffffffffffffffffffffffffffffffffff16815260200190815260200160002060008373ffffffffffffffffffffffffffffffffffffffff1673ffffffffffffffffffffffffffffffffffffffff16815260200190815260200160002060009054906101000a900460ff16905092915050565b60006113ae6116f6565b90508073ffffffffffffffffffffffffffffffffffffffff168673ffffffffffffffffffffffffffffffffffffffff16141580156113f357506113f18682611310565b155b156114375780866040517fe237d92200000000000000000000000000000000000000000000000000000000815260040161142e9291906149ce565b60405180910390fd5b6114448686868686611a9e565b505050505050565b60007f01ffc9a7000000000000000000000000000000000000000000000000000000007bffffffffffffffffffffffffffffffffffffffffffffffffffffffff1916827bffffffffffffffffffffffffffffffffffffffffffffffffffffffff1916149050919050565b6060600060016114c584611ba9565b01905060008167ffffffffffffffff8111156114e4576114e3612879565b5b6040519080825280601f01601f1916602001820160405280156115165781602001600182028036833780820191505090505b509050600082602001820190505b600115611579578080600190039150507f3031323334353637383961626364656600000000000000000000000000000000600a86061a8153600a858161156d5761156c615205565b5b04945060008503611524575b819350505050919050565b606060008251036115a6576040518060200160405280600081525090506116f1565b60006040518060600160405280604081526020016154cc60409139905060006003600285516115d59190615234565b6115df9190615268565b60046115eb9190615299565b67ffffffffffffffff81111561160457611603612879565b5b6040519080825280601f01601f1916602001820160405280156116365781602001600182028036833780820191505090505b50905060018201602082018586518701602081018051600082525b828410156116ac576003840193508351603f8160121c168701518653600186019550603f81600c1c168701518653600186019550603f8160061c168701518653600186019550603f8116870151865360018601955050611651565b80825260038a5106600181146116c957600281146116dc576116e4565b603d6001870353603d60028703536116e4565b603d60018703535b5050505050505080925050505b919050565b600033905090565b600073ffffffffffffffffffffffffffffffffffffffff168473ffffffffffffffffffffffffffffffffffffffff16036117705760006040517f57f447ce00000000000000000000000000000000000000000000000000000000815260040161176791906152db565b60405180910390fd5b600073ffffffffffffffffffffffffffffffffffffffff168573ffffffffffffffffffffffffffffffffffffffff16036117e25760006040517f01a835140000000000000000000000000000000000000000000000000000000081526004016117d991906152db565b60405180910390fd5b6117ef8585858585611cfc565b5050505050565b600060208202602084010151905092915050565b600060208202602084010151905092915050565b600073ffffffffffffffffffffffffffffffffffffffff168273ffffffffffffffffffffffffffffffffffffffff16036118905760006040517fced3e10000000000000000000000000000000000000000000000000000000000815260040161188791906152db565b60405180910390fd5b80600160008573ffffffffffffffffffffffffffffffffffffffff1673ffffffffffffffffffffffffffffffffffffffff16815260200190815260200160002060008473ffffffffffffffffffffffffffffffffffffffff1673ffffffffffffffffffffffffffffffffffffffff16815260200190815260200160002060006101000a81548160ff0219169083151502179055508173ffffffffffffffffffffffffffffffffffffffff168373ffffffffffffffffffffffffffffffffffffffff167f17307eab39ab6107e8899845ad3d59bd9653f200f220920489ca2b5937696c31836040516119819190612775565b60405180910390a3505050565b600073ffffffffffffffffffffffffffffffffffffffff168473ffffffffffffffffffffffffffffffffffffffff1603611a005760006040517f57f447ce0000000000000000000000000000000000000000000000000000000081526004016119f791906152db565b60405180910390fd5b600080611a0d8585611dae565b91509150611a1f600087848487611cfc565b505050505050565b600080600560008481526020019081526020016000206000018054611a4b906131a0565b9050119050919050565b6000611a6382600001611dde565b9050919050565b6000611a798360000183611def565b60001c905092915050565b6000611a96836000018360001b611e1a565b905092915050565b600073ffffffffffffffffffffffffffffffffffffffff168473ffffffffffffffffffffffffffffffffffffffff1603611b105760006040517f57f447ce000000000000000000000000000000000000000000000000000000008152600401611b0791906152db565b60405180910390fd5b600073ffffffffffffffffffffffffffffffffffffffff168573ffffffffffffffffffffffffffffffffffffffff1603611b825760006040517f01a83514000000000000000000000000000000000000000000000000000000008152600401611b7991906152db565b60405180910390fd5b600080611b8f8585611dae565b91509150611ba08787848487611cfc565b50505050505050565b600080600090507a184f03e93ff9f4daa797ed6e38ed64bf6a1f0100000000000000008310611c07577a184f03e93ff9f4daa797ed6e38ed64bf6a1f0100000000000000008381611bfd57611bfc615205565b5b0492506040810190505b6d04ee2d6d415b85acef81000000008310611c44576d04ee2d6d415b85acef81000000008381611c3a57611c39615205565b5b0492506020810190505b662386f26fc100008310611c7357662386f26fc100008381611c6957611c68615205565b5b0492506010810190505b6305f5e1008310611c9c576305f5e1008381611c9257611c91615205565b5b0492506008810190505b6127108310611cc1576127108381611cb757611cb6615205565b5b0492506004810190505b60648310611ce45760648381611cda57611cd9615205565b5b0492506002810190505b600a8310611cf3576001810190505b80915050919050565b611d0885858585611e8a565b600073ffffffffffffffffffffffffffffffffffffffff168473ffffffffffffffffffffffffffffffffffffffff1614611da7576000611d466116f6565b90506001845103611d96576000611d6760008661180a90919063ffffffff16565b90506000611d7f60008661180a90919063ffffffff16565b9050611d8f838989858589612238565b5050611da5565b611da48187878787876123ec565b5b505b5050505050565b60608060405191506001825283602083015260408201905060018152826020820152604081016040529250929050565b600081600001805490509050919050565b6000826000018281548110611e0757611e06614a20565b5b9060005260206000200154905092915050565b6000611e2683836125a0565b611e7f578260000182908060018154018082558091505060019003906000526020600020016000909190919091505582600001805490508360010160008481526020019081526020016000208190555060019050611e84565b600090505b92915050565b8051825114611ed457815181516040517f5b059991000000000000000000000000000000000000000000000000000000008152600401611ecb9291906149f7565b60405180910390fd5b6000611ede6116f6565b905060005b83518110156120f3576000611f01828661180a90919063ffffffff16565b90506000611f18838661180a90919063ffffffff16565b9050600073ffffffffffffffffffffffffffffffffffffffff168873ffffffffffffffffffffffffffffffffffffffff161461204557600080600084815260200190815260200160002060008a73ffffffffffffffffffffffffffffffffffffffff1673ffffffffffffffffffffffffffffffffffffffff16815260200190815260200160002054905081811015611fed57888183856040517f03dee4c5000000000000000000000000000000000000000000000000000000008152600401611fe494939291906152f6565b60405180910390fd5b81810360008085815260200190815260200160002060008b73ffffffffffffffffffffffffffffffffffffffff1673ffffffffffffffffffffffffffffffffffffffff16815260200190815260200160002081905550505b600073ffffffffffffffffffffffffffffffffffffffff168773ffffffffffffffffffffffffffffffffffffffff16146120e0578060008084815260200190815260200160002060008973ffffffffffffffffffffffffffffffffffffffff1673ffffffffffffffffffffffffffffffffffffffff16815260200190815260200160002060008282546120d89190615234565b925050819055505b5050806120ec90614a7e565b9050611ee3565b5060018351036121b257600061211360008561180a90919063ffffffff16565b9050600061212b60008561180a90919063ffffffff16565b90508573ffffffffffffffffffffffffffffffffffffffff168773ffffffffffffffffffffffffffffffffffffffff168473ffffffffffffffffffffffffffffffffffffffff167fc3d58168c5ae7397731d063d5bbf3d657854427343f4c083240f7aacaa2d0f6285856040516121a39291906149f7565b60405180910390a45050612231565b8373ffffffffffffffffffffffffffffffffffffffff168573ffffffffffffffffffffffffffffffffffffffff168273ffffffffffffffffffffffffffffffffffffffff167f4a39dc06d4c0dbc64b70af90fd698a233a518aa5d07e595d983b8c0526c8f7fb868660405161222892919061533b565b60405180910390a45b5050505050565b60008473ffffffffffffffffffffffffffffffffffffffff163b11156123e4578373ffffffffffffffffffffffffffffffffffffffff1663f23a6e6187878686866040518663ffffffff1660e01b81526004016122999594939291906153c7565b6020604051808303816000875af19250505080156122d557506040513d601f19601f820116820180604052508101906122d29190615436565b60015b612359573d8060008114612305576040519150601f19603f3d011682016040523d82523d6000602084013e61230a565b606091505b50600081510361235157846040517f57f447ce00000000000000000000000000000000000000000000000000000000815260040161234891906152db565b60405180910390fd5b805181602001fd5b63f23a6e6160e01b7bffffffffffffffffffffffffffffffffffffffffffffffffffffffff1916817bffffffffffffffffffffffffffffffffffffffffffffffffffffffff1916146123e257846040517f57f447ce0000000000000000000000000000000000000000000000000000000081526004016123d991906152db565b60405180910390fd5b505b505050505050565b60008473ffffffffffffffffffffffffffffffffffffffff163b1115612598578373ffffffffffffffffffffffffffffffffffffffff1663bc197c8187878686866040518663ffffffff1660e01b815260040161244d959493929190615463565b6020604051808303816000875af192505050801561248957506040513d601f19601f820116820180604052508101906124869190615436565b60015b61250d573d80600081146124b9576040519150601f19603f3d011682016040523d82523d6000602084013e6124be565b606091505b50600081510361250557846040517f57f447ce0000000000000000000000000000000000000000000000000000000081526004016124fc91906152db565b60405180910390fd5b805181602001fd5b63bc197c8160e01b7bffffffffffffffffffffffffffffffffffffffffffffffffffffffff1916817bffffffffffffffffffffffffffffffffffffffffffffffffffffffff19161461259657846040517f57f447ce00000000000000000000000000000000000000000000000000000000815260040161258d91906152db565b60405180910390fd5b505b505050505050565b600080836001016000848152602001908152602001600020541415905092915050565b6000604051905090565b600080fd5b600080fd5b600073ffffffffffffffffffffffffffffffffffffffff82169050919050565b6000612602826125d7565b9050919050565b612612816125f7565b811461261d57600080fd5b50565b60008135905061262f81612609565b92915050565b6000819050919050565b61264881612635565b811461265357600080fd5b50565b6000813590506126658161263f565b92915050565b60008060408385031215612682576126816125cd565b5b600061269085828601612620565b92505060206126a185828601612656565b9150509250929050565b6126b481612635565b82525050565b60006020820190506126cf60008301846126ab565b92915050565b60007fffffffff0000000000000000000000000000000000000000000000000000000082169050919050565b61270a816126d5565b811461271557600080fd5b50565b60008135905061272781612701565b92915050565b600060208284031215612743576127426125cd565b5b600061275184828501612718565b91505092915050565b60008115159050919050565b61276f8161275a565b82525050565b600060208201905061278a6000830184612766565b92915050565b6000602082840312156127a6576127a56125cd565b5b60006127b484828501612656565b91505092915050565b600081519050919050565b600082825260208201905092915050565b60005b838110156127f75780820151818401526020810190506127dc565b60008484015250505050565b6000601f19601f8301169050919050565b600061281f826127bd565b61282981856127c8565b93506128398185602086016127d9565b61284281612803565b840191505092915050565b600060208201905081810360008301526128678184612814565b905092915050565b600080fd5b600080fd5b7f4e487b7100000000000000000000000000000000000000000000000000000000600052604160045260246000fd5b6128b182612803565b810181811067ffffffffffffffff821117156128d0576128cf612879565b5b80604052505050565b60006128e36125c3565b90506128ef82826128a8565b919050565b600067ffffffffffffffff82111561290f5761290e612879565b5b61291882612803565b9050602081019050919050565b82818337600083830152505050565b6000612947612942846128f4565b6128d9565b90508281526020810184848401111561296357612962612874565b5b61296e848285612925565b509392505050565b600082601f83011261298b5761298a61286f565b5b813561299b848260208601612934565b91505092915050565b6000806000606084860312156129bd576129bc6125cd565b5b600084013567ffffffffffffffff8111156129db576129da6125d2565b5b6129e786828701612976565b935050602084013567ffffffffffffffff811115612a0857612a076125d2565b5b612a1486828701612976565b925050604084013567ffffffffffffffff811115612a3557612a346125d2565b5b612a4186828701612976565b9150509250925092565b600067ffffffffffffffff821115612a6657612a65612879565b5b602082029050602081019050919050565b600080fd5b6000612a8f612a8a84612a4b565b6128d9565b90508083825260208201905060208402830185811115612ab257612ab1612a77565b5b835b81811015612adb5780612ac78882612656565b845260208401935050602081019050612ab4565b5050509392505050565b600082601f830112612afa57612af961286f565b5b8135612b0a848260208601612a7c565b91505092915050565b600067ffffffffffffffff821115612b2e57612b2d612879565b5b612b3782612803565b9050602081019050919050565b6000612b57612b5284612b13565b6128d9565b905082815260208101848484011115612b7357612b72612874565b5b612b7e848285612925565b509392505050565b600082601f830112612b9b57612b9a61286f565b5b8135612bab848260208601612b44565b91505092915050565b600080600080600060a08688031215612bd057612bcf6125cd565b5b6000612bde88828901612620565b9550506020612bef88828901612620565b945050604086013567ffffffffffffffff811115612c1057612c0f6125d2565b5b612c1c88828901612ae5565b935050606086013567ffffffffffffffff811115612c3d57612c3c6125d2565b5b612c4988828901612ae5565b925050608086013567ffffffffffffffff811115612c6a57612c696125d2565b5b612c7688828901612b86565b9150509295509295909350565b600067ffffffffffffffff821115612c9e57612c9d612879565b5b602082029050602081019050919050565b6000612cc2612cbd84612c83565b6128d9565b90508083825260208201905060208402830185811115612ce557612ce4612a77565b5b835b81811015612d0e5780612cfa8882612620565b845260208401935050602081019050612ce7565b5050509392505050565b600082601f830112612d2d57612d2c61286f565b5b8135612d3d848260208601612caf565b91505092915050565b60008060408385031215612d5d57612d5c6125cd565b5b600083013567ffffffffffffffff811115612d7b57612d7a6125d2565b5b612d8785828601612d18565b925050602083013567ffffffffffffffff811115612da857612da76125d2565b5b612db485828601612ae5565b9150509250929050565b600081519050919050565b600082825260208201905092915050565b6000819050602082019050919050565b612df381612635565b82525050565b6000612e058383612dea565b60208301905092915050565b6000602082019050919050565b6000612e2982612dbe565b612e338185612dc9565b9350612e3e83612dda565b8060005b83811015612e6f578151612e568882612df9565b9750612e6183612e11565b925050600181019050612e42565b5085935050505092915050565b60006020820190508181036000830152612e968184612e1e565b905092915050565b60008060008060808587031215612eb857612eb76125cd565b5b6000612ec687828801612656565b945050602085013567ffffffffffffffff811115612ee757612ee66125d2565b5b612ef387828801612976565b935050604085013567ffffffffffffffff811115612f1457612f136125d2565b5b612f2087828801612976565b925050606085013567ffffffffffffffff811115612f4157612f406125d2565b5b612f4d87828801612976565b91505092959194509250565b612f628161275a565b8114612f6d57600080fd5b50565b600081359050612f7f81612f59565b92915050565b60008060408385031215612f9c57612f9b6125cd565b5b6000612faa85828601612620565b9250506020612fbb85828601612f70565b9150509250929050565b60008060408385031215612fdc57612fdb6125cd565b5b6000612fea85828601612656565b925050602083013567ffffffffffffffff81111561300b5761300a6125d2565b5b61301785828601612d18565b9150509250929050565b6000606082019050818103600083015261303b8186612814565b9050818103602083015261304f8185612814565b905081810360408301526130638184612814565b9050949350505050565b600060208284031215613083576130826125cd565b5b600061309184828501612620565b91505092915050565b600080604083850312156130b1576130b06125cd565b5b60006130bf85828601612620565b92505060206130d085828601612620565b9150509250929050565b600080600080600060a086880312156130f6576130f56125cd565b5b600061310488828901612620565b955050602061311588828901612620565b945050604061312688828901612656565b935050606061313788828901612656565b925050608086013567ffffffffffffffff811115613158576131576125d2565b5b61316488828901612b86565b9150509295509295909350565b7f4e487b7100000000000000000000000000000000000000000000000000000000600052602260045260246000fd5b600060028204905060018216806131b857607f821691505b6020821081036131cb576131ca613171565b5b50919050565b600081905092915050565b7f7b226e616d65223a2022475f436f6d70616e794e465400000000000000000000600082015250565b60006132126016836131d1565b915061321d826131dc565b601682019050919050565b6000613233826127bd565b61323d81856131d1565b935061324d8185602086016127d9565b80840191505092915050565b7f222c000000000000000000000000000000000000000000000000000000000000600082015250565b600061328f6002836131d1565b915061329a82613259565b600282019050919050565b7f226465736372697074696f6e223a202254657374222c00000000000000000000600082015250565b60006132db6016836131d1565b91506132e6826132a5565b601682019050919050565b7f22696d616765223a22646174613a696d6167652f7376672b786d6c3b6261736560008201527f36342c0000000000000000000000000000000000000000000000000000000000602082015250565b600061334d6023836131d1565b9150613358826132f1565b602382019050919050565b7f227d000000000000000000000000000000000000000000000000000000000000600082015250565b60006133996002836131d1565b91506133a482613363565b600282019050919050565b60006133ba82613205565b91506133c68285613228565b91506133d182613282565b91506133dc826132ce565b91506133e782613340565b91506133f38284613228565b91506133fe8261338c565b91508190509392505050565b7f646174613a6170706c69636174696f6e2f6a736f6e3b6261736536342c000000600082015250565b6000613440601d836131d1565b915061344b8261340a565b601d82019050919050565b600061346182613433565b915061346d8284613228565b915081905092915050565b7f3c7376672077696474683d2237303022206865696768743d223730302220786d60008201527f6c6e733d22687474703a2f2f7777772e77332e6f72672f323030302f7376672260208201527f207374796c653d226261636b67726f756e642d636f6c6f723a2023313732383560408201527f333b223e00000000000000000000000000000000000000000000000000000000606082015250565b60006135206064836131d1565b915061352b82613478565b606482019050919050565b7f3c7469746c653e456d706c6f7965654e46545f496d6167653c2f7469746c653e600082015250565b600061356c6020836131d1565b915061357782613536565b602082019050919050565b7f3c74657874207472616e73666f726d3d226d617472697828312e31313137342060008201527f30203020312e3337393635202d32312e31383431202d32382e3334363429222060208201527f7374726f6b653d2223394143454536222066696c6c3d2223666666666666222060408201527f7374726f6b652d77696474683d22302220783d223234322e353937393322207960608201527f3d2237342e3832303631222069643d227376675f332220666f6e742d73697a6560808201527f3d2232342220666f6e742d66616d696c793d22274172696d6f2722207465787460a08201527f2d616e63686f723d2273746172742220786d6c3a73706163653d22707265736560c08201527f7276652220666f6e742d7765696768743d22626f6c64223e4720436f6d70616e60e08201527f79204e46543c2f746578743e000000000000000000000000000000000000000061010082015250565b60006136ea61010c836131d1565b91506136f582613582565b61010c82019050919050565b7f3c72656374207374726f6b653d2223394143454536222069643d227376675f3460008201527f22206865696768743d223139222077696474683d223131352220793d2233382260208201527f20783d2238312e303030323622207374726f6b652d77696474683d223022206660408201527f696c6c3d2223666666666666222f3e0000000000000000000000000000000000606082015250565b60006137a9606f836131d1565b91506137b482613701565b606f82019050919050565b7f3c72656374207374726f6b653d2223394143454536222069643d227376675f3660008201527f22206865696768743d223139222077696474683d223131352220793d2236372260208201527f20783d2238312e303030323622207374726f6b652d77696474683d223022206660408201527f696c6c3d2223666666666666222f3e0000000000000000000000000000000000606082015250565b6000613867606f836131d1565b9150613872826137bf565b606f82019050919050565b7f3c72656374207374726f6b653d2223394143454536222069643d227376675f3460008201527f22206865696768743d223139222077696474683d223131352220793d2233382260208201527f20783d223532362e3137373622207374726f6b652d77696474683d223022206660408201527f696c6c3d2223666666666666222f3e0000000000000000000000000000000000606082015250565b6000613925606f836131d1565b91506139308261387d565b606f82019050919050565b7f3c72656374207374726f6b653d2223394143454536222069643d227376675f3660008201527f22206865696768743d223139222077696474683d223131352220793d2236372260208201527f20783d223532362e3137373622207374726f6b652d77696474683d223022206660408201527f696c6c3d2223666666666666222f3e0000000000000000000000000000000000606082015250565b60006139e3606f836131d1565b91506139ee8261393b565b606f82019050919050565b7f3c70617468207374726f6b653d2223394143454536222069643d227376675f3160008201527f362220643d226d3237312e39383931342c3138312e35343136336c33342e393260208201527f3835382c2d36332e39393939396c39332e31343238362c306c33342e3932383560408201527f362c36332e39393939396c2d33342e39323835362c36332e39393939396c2d3960608201527f332e31343238362c306c2d33342e39323835382c2d36332e39393939397a222060808201527f7374726f6b652d77696474683d2230222066696c6c3d2223306465383737222f60a08201527f3e0000000000000000000000000000000000000000000000000000000000000060c082015250565b6000613b1360c1836131d1565b9150613b1e826139f9565b60c182019050919050565b7f3c74657874207472616e73666f726d3d226d617472697828312e39363830352060008201527f30203020312e3635363133202d3233322e393431202d3133342e33323629222060208201527f7374726f6b653d22233941434545362220786d6c3a73706163653d227072657360408201527f657276652220746578742d616e63686f723d2273746172742220666f6e742d6660608201527f616d696c793d22274172696d6f272220666f6e742d73697a653d22323422206960808201527f643d227376675f31392220793d223139372e35373931322220783d223238372e60a08201527f3931363122207374726f6b652d77696474683d2230222066696c6c3d2223303060c08201527f30303030223e473c2f746578743e00000000000000000000000000000000000060e082015250565b6000613c6960ee836131d1565b9150613c7482613b29565b60ee82019050919050565b7f3c7465787420786d6c3a73706163653d2270726573657276652220746578742d60008201527f616e63686f723d2273746172742220666f6e742d66616d696c793d222741726960208201527f6d6f272220666f6e742d73697a653d223234222069643d227376675f3232222060408201527f793d223238382e30353837342220783d223239312e383234313722207374726f60608201527f6b652d77696474683d223022207374726f6b653d22233941434545362220666960808201527f6c6c3d2223666666666666223e596f7572204e616d653c2f746578743e00000060a082015250565b6000613d7360bd836131d1565b9150613d7e82613c7f565b60bd82019050919050565b7f3c72656374207374726f6b653d2223303030303030222069643d227376675f3260008201527f3322206865696768743d223332222077696474683d223234382220793d22333060208201527f372e37363436352220783d223233322e303030363522207374726f6b652d776960408201527f6474683d2232222066696c6c3d2223666666666666222f3e0000000000000000606082015250565b6000613e316078836131d1565b9150613e3c82613d89565b607882019050919050565b7f3c7465787420786d6c3a73706163653d2270726573657276652220746578742d60008201527f616e63686f723d2273746172742220666f6e742d66616d696c793d222741726960208201527f6d6f272220666f6e742d73697a653d223234222069643d227376675f3234222060408201527f793d223430312e35383831372220783d223135332e333533343822207374726f60608201527f6b652d77696474683d223022207374726f6b653d22233030303030302220666960808201527f6c6c3d2223666666666666223e0000000000000000000000000000000000000060a082015250565b6000613f3b60ad836131d1565b9150613f4682613e47565b60ad82019050919050565b7f5465616d00000000000000000000000000000000000000000000000000000000600082015250565b6000613f876004836131d1565b9150613f9282613f51565b600482019050919050565b7f3c2f746578743e00000000000000000000000000000000000000000000000000600082015250565b6000613fd36007836131d1565b9150613fde82613f9d565b600782019050919050565b7f3c726563742066696c6c3d222366666666666622207374726f6b652d7769647460008201527f683d22322220783d223235362e37303636392220793d223337332e363437343360208201527f222077696474683d2232343822206865696768743d223332222069643d22737660408201527f675f3522207374726f6b653d2223303030303030222f3e000000000000000000606082015250565b60006140916077836131d1565b915061409c82613fe9565b607782019050919050565b7f3c74657874207374796c653d22637572736f723a206d6f76653b22207374726f60008201527f6b653d22233030303030302220786d6c3a73706163653d22707265736572766560208201527f2220746578742d616e63686f723d2273746172742220666f6e742d66616d696c60408201527f793d22274172696d6f272220666f6e742d73697a653d223234222069643d227360608201527f76675f33302220793d223435352e37303539312220783d223132362e3634373460808201527f3322207374726f6b652d77696474683d2230222066696c6c3d2223666666666660a08201527f66223e000000000000000000000000000000000000000000000000000000000060c082015250565b60006141c160c3836131d1565b91506141cc826140a7565b60c382019050919050565b7f4d65737361676500000000000000000000000000000000000000000000000000600082015250565b600061420d6007836131d1565b9150614218826141d7565b600782019050919050565b7f3c72656374207374726f6b653d2223303030303030222066696c6c3d2223666660008201527f6666666622207374726f6b652d77696474683d22322220783d223235362e373060208201527f3636392220793d223433312e3239343837222077696474683d2232343822206860408201527f65696768743d2233342e3335323935222069643d227376675f37222f3e000000606082015250565b60006142cb607d836131d1565b91506142d682614223565b607d82019050919050565b7f3c74657874207374796c653d22637572736f723a206d6f76653b2220786d6c3a60008201527f73706163653d2270726573657276652220746578742d616e63686f723d22737460208201527f6172742220666f6e742d66616d696c793d22274172696d6f272220666f6e742d60408201527f73697a653d223234222069643d227376675f33322220793d223538322e30353960608201527f2220783d223237342e333533343722207374726f6b652d77696474683d22302260808201527f207374726f6b653d2223303030303030222066696c6c3d22236666666666662260a08201527f3e7878787878783c2f746578743e00000000000000000000000000000000000060c082015250565b60006143fb60ce836131d1565b9150614406826142e1565b60ce82019050919050565b7f203c7465787420786d6c3a73706163653d22707265736572766522207465787460008201527f2d616e63686f723d2273746172742220666f6e742d66616d696c793d2227417260208201527f696d6f272220666f6e742d73697a653d223234222069643d227376675f33332260408201527f20793d223632342e363437332220783d223235372e313138313322207374726f60608201527f6b652d77696474683d223022207374726f6b653d22233030303030302220666960808201527f6c6c3d2223666666666666223e7878782d787878782d7878783c2f746578743e60a08201527f3c746578742066696c6c3d222330303030303022207374726f6b653d2223666660c08201527f6666666622207374726f6b652d77696474683d22302220783d223332342e373660e08201527f3535352220793d223333332e3934313339222069643d227376675f31342220666101008201527f6f6e742d73697a653d2232342220666f6e742d66616d696c793d22274172696d6101208201527f6f272220746578742d616e63686f723d2273746172742220786d6c3a737061636101408201527f653d227072657365727665223e0000000000000000000000000000000000000061016082015250565b60006145ee61016d836131d1565b91506145f982614411565b61016d82019050919050565b7f3c746578742066696c6c3d222330303030303022207374726f6b653d2223666660008201527f6666666622207374726f6b652d77696474683d22302220783d223237342e313760208201527f3639392220793d223339382e3634373639222069643d227376675f313522206660408201527f6f6e742d73697a653d2232342220666f6e742d66616d696c793d22274172696d60608201527f6f272220746578742d616e63686f723d2273746172742220786d6c3a7370616360808201527f653d227072657365727665223e0000000000000000000000000000000000000060a082015250565b60006146f960ad836131d1565b915061470482614605565b60ad82019050919050565b7f3c746578742066696c6c3d222330303030303022207374726f6b653d2223666660008201527f6666666622207374726f6b652d77696474683d22302220783d223237342e313760208201527f3639392220793d223435372e34373136222069643d227376675f31372220666f60408201527f6e742d73697a653d2232342220666f6e742d66616d696c793d22274172696d6f60608201527f272220746578742d616e63686f723d2273746172742220786d6c3a737061636560808201527f3d227072657365727665223e000000000000000000000000000000000000000060a082015250565b600061480360ac836131d1565b915061480e8261470f565b60ac82019050919050565b7f3c2f7376673e0000000000000000000000000000000000000000000000000000600082015250565b600061484f6006836131d1565b915061485a82614819565b600682019050919050565b600061487082613513565b915061487b8261355f565b9150614886826136dc565b91506148918261379c565b915061489c8261385a565b91506148a782613918565b91506148b2826139d6565b91506148bd82613b06565b91506148c882613c5c565b91506148d382613d66565b91506148de82613e24565b91506148e982613f2e565b91506148f482613f7a565b91506148ff82613fc6565b915061490a82614084565b9150614915826141b4565b915061492082614200565b915061492b82613fc6565b9150614936826142be565b9150614941826143ee565b915061494c826145e0565b91506149588286613228565b915061496382613fc6565b915061496e826146ec565b915061497a8285613228565b915061498582613fc6565b9150614990826147f6565b915061499c8284613228565b91506149a782613fc6565b91506149b282614842565b9150819050949350505050565b6149c8816125f7565b82525050565b60006040820190506149e360008301856149bf565b6149f060208301846149bf565b9392505050565b6000604082019050614a0c60008301856126ab565b614a1960208301846126ab565b9392505050565b7f4e487b7100000000000000000000000000000000000000000000000000000000600052603260045260246000fd5b7f4e487b7100000000000000000000000000000000000000000000000000000000600052601160045260246000fd5b6000614a8982612635565b91507fffffffffffffffffffffffffffffffffffffffffffffffffffffffffffffffff8203614abb57614aba614a4f565b5b600182019050919050565b7f4e6f2065786973747320746f6b656e4964730000000000000000000000000000600082015250565b6000614afc6012836127c8565b9150614b0782614ac6565b602082019050919050565b60006020820190508181036000830152614b2b81614aef565b9050919050565b7f455243313135353a20596f7520617265206e6f7420746f6b656e206f776e6572600082015250565b6000614b686020836127c8565b9150614b7382614b32565b602082019050919050565b60006020820190508181036000830152614b9781614b5b565b9050919050565b60008190508160005260206000209050919050565b60006020601f8301049050919050565b600082821b905092915050565b600060088302614c007fffffffffffffffffffffffffffffffffffffffffffffffffffffffffffffffff82614bc3565b614c0a8683614bc3565b95508019841693508086168417925050509392505050565b6000819050919050565b6000614c47614c42614c3d84612635565b614c22565b612635565b9050919050565b6000819050919050565b614c6183614c2c565b614c75614c6d82614c4e565b848454614bd0565b825550505050565b600090565b614c8a614c7d565b614c95818484614c58565b505050565b5b81811015614cb957614cae600082614c82565b600181019050614c9b565b5050565b601f821115614cfe57614ccf81614b9e565b614cd884614bb3565b81016020851015614ce7578190505b614cfb614cf385614bb3565b830182614c9a565b50505b505050565b600082821c905092915050565b6000614d2160001984600802614d03565b1980831691505092915050565b6000614d3a8383614d10565b9150826002028217905092915050565b614d53826127bd565b67ffffffffffffffff811115614d6c57614d6b612879565b5b614d7682546131a0565b614d81828285614cbd565b600060209050601f831160018114614db45760008415614da2578287015190505b614dac8582614d2e565b865550614e14565b601f198416614dc286614b9e565b60005b82811015614dea57848901518255600182019150602085019450602081019050614dc5565b86831015614e075784890151614e03601f891682614d10565b8355505b6001600288020188555050505b505050505050565b7f222c226465736372697074696f6e223a20225465737400000000000000000000600082015250565b6000614e526016836131d1565b9150614e5d82614e1c565b601682019050919050565b7f222c22696d616765223a22646174613a696d6167652f7376672b786d6c3b626160008201527f736536342c000000000000000000000000000000000000000000000000000000602082015250565b6000614ec46025836131d1565b9150614ecf82614e68565b602582019050919050565b6000614ee582613205565b9150614ef18285613228565b9150614efc82613282565b9150614f0782614e45565b9150614f1282614eb7565b9150614f1e8284613228565b9150614f298261338c565b91508190509392505050565b7f4f6e6c7920746f6b656e206f776e65722063616e206d696e7420746f206d756c60008201527f7469706c65206164647265737365730000000000000000000000000000000000602082015250565b6000614f91602f836127c8565b9150614f9c82614f35565b604082019050919050565b60006020820190508181036000830152614fc081614f84565b9050919050565b7f596f7520646f206e6f742068617665206f776e20627573696e6573732063617260008201527f6400000000000000000000000000000000000000000000000000000000000000602082015250565b60006150236021836127c8565b915061502e82614fc7565b604082019050919050565b6000602082019050818103600083015261505281615016565b9050919050565b7f546f6b656e4964206973206e6f74206578697374656400000000000000000000600082015250565b600061508f6016836127c8565b915061509a82615059565b602082019050919050565b600060208201905081810360008301526150be81615082565b9050919050565b6000815190506150d481612609565b92915050565b6000602082840312156150f0576150ef6125cd565b5b60006150fe848285016150c5565b91505092915050565b7f596f7520646f206e6f74206861766520656d706c6f7965654964204e46540000600082015250565b600061513d601e836127c8565b915061514882615107565b602082019050919050565b6000602082019050818103600083015261516c81615130565b9050919050565b7f596f7520616c72656164792068617665206120627573696e657373206361726460008201527f204e465400000000000000000000000000000000000000000000000000000000602082015250565b60006151cf6024836127c8565b91506151da82615173565b604082019050919050565b600060208201905081810360008301526151fe816151c2565b9050919050565b7f4e487b7100000000000000000000000000000000000000000000000000000000600052601260045260246000fd5b600061523f82612635565b915061524a83612635565b925082820190508082111561526257615261614a4f565b5b92915050565b600061527382612635565b915061527e83612635565b92508261528e5761528d615205565b5b828204905092915050565b60006152a482612635565b91506152af83612635565b92508282026152bd81612635565b915082820484148315176152d4576152d3614a4f565b5b5092915050565b60006020820190506152f060008301846149bf565b92915050565b600060808201905061530b60008301876149bf565b61531860208301866126ab565b61532560408301856126ab565b61533260608301846126ab565b95945050505050565b600060408201905081810360008301526153558185612e1e565b905081810360208301526153698184612e1e565b90509392505050565b600081519050919050565b600082825260208201905092915050565b600061539982615372565b6153a3818561537d565b93506153b38185602086016127d9565b6153bc81612803565b840191505092915050565b600060a0820190506153dc60008301886149bf565b6153e960208301876149bf565b6153f660408301866126ab565b61540360608301856126ab565b8181036080830152615415818461538e565b90509695505050505050565b60008151905061543081612701565b92915050565b60006020828403121561544c5761544b6125cd565b5b600061545a84828501615421565b91505092915050565b600060a08201905061547860008301886149bf565b61548560208301876149bf565b81810360408301526154978186612e1e565b905081810360608301526154ab8185612e1e565b905081810360808301526154bf818461538e565b9050969550505050505056fe4142434445464748494a4b4c4d4e4f505152535455565758595a6162636465666768696a6b6c6d6e6f707172737475767778797a303132333435363738392b2fa26469706673582212208bea7cedd3c23113650ac159ae1fa0fa0cc143157cfe9b5f49b38534f98e43dc64736f6c63430008130033",
  "linkReferences": {},
  "deployedLinkReferences": {}
}