{
    "_format": "hh-sol-artifact-1",
    "contractName": "BusinessCard",
    "sourceName": "contracts/BusinessCard.sol",
    "abi": [
        {
            "inputs": [],
            "stateMutability": "nonpayable",
            "type": "constructor"
        },
        {
            "inputs": [
                {
                    "internalType": "address",
                    "name": "sender",
                    "type": "address"
                },
                {
                    "internalType": "uint256",
                    "name": "balance",
                    "type": "uint256"
                },
                {
                    "internalType": "uint256",
                    "name": "needed",
                    "type": "uint256"
                },
                {
                    "internalType": "uint256",
                    "name": "tokenId",
                    "type": "uint256"
                }
            ],
            "name": "ERC1155InsufficientBalance",
            "type": "error"
        },
        {
            "inputs": [
                {
                    "internalType": "address",
                    "name": "approver",
                    "type": "address"
                }
            ],
            "name": "ERC1155InvalidApprover",
            "type": "error"
        },
        {
            "inputs": [
                {
                    "internalType": "uint256",
                    "name": "idsLength",
                    "type": "uint256"
                },
                {
                    "internalType": "uint256",
                    "name": "valuesLength",
                    "type": "uint256"
                }
            ],
            "name": "ERC1155InvalidArrayLength",
            "type": "error"
        },
        {
            "inputs": [
                {
                    "internalType": "address",
                    "name": "operator",
                    "type": "address"
                }
            ],
            "name": "ERC1155InvalidOperator",
            "type": "error"
        },
        {
            "inputs": [
                {
                    "internalType": "address",
                    "name": "receiver",
                    "type": "address"
                }
            ],
            "name": "ERC1155InvalidReceiver",
            "type": "error"
        },
        {
            "inputs": [
                {
                    "internalType": "address",
                    "name": "sender",
                    "type": "address"
                }
            ],
            "name": "ERC1155InvalidSender",
            "type": "error"
        },
        {
            "inputs": [
                {
                    "internalType": "address",
                    "name": "operator",
                    "type": "address"
                },
                {
                    "internalType": "address",
                    "name": "owner",
                    "type": "address"
                }
            ],
            "name": "ERC1155MissingApprovalForAll",
            "type": "error"
        },
        {
            "anonymous": false,
            "inputs": [
                {
                    "indexed": true,
                    "internalType": "address",
                    "name": "account",
                    "type": "address"
                },
                {
                    "indexed": true,
                    "internalType": "address",
                    "name": "operator",
                    "type": "address"
                },
                {
                    "indexed": false,
                    "internalType": "bool",
                    "name": "approved",
                    "type": "bool"
                }
            ],
            "name": "ApprovalForAll",
            "type": "event"
        },
        {
            "anonymous": false,
            "inputs": [
                {
                    "indexed": true,
                    "internalType": "address",
                    "name": "operator",
                    "type": "address"
                },
                {
                    "indexed": true,
                    "internalType": "address",
                    "name": "from",
                    "type": "address"
                },
                {
                    "indexed": true,
                    "internalType": "address",
                    "name": "to",
                    "type": "address"
                },
                {
                    "indexed": false,
                    "internalType": "uint256[]",
                    "name": "ids",
                    "type": "uint256[]"
                },
                {
                    "indexed": false,
                    "internalType": "uint256[]",
                    "name": "values",
                    "type": "uint256[]"
                }
            ],
            "name": "TransferBatch",
            "type": "event"
        },
        {
            "anonymous": false,
            "inputs": [
                {
                    "indexed": true,
                    "internalType": "address",
                    "name": "operator",
                    "type": "address"
                },
                {
                    "indexed": true,
                    "internalType": "address",
                    "name": "from",
                    "type": "address"
                },
                {
                    "indexed": true,
                    "internalType": "address",
                    "name": "to",
                    "type": "address"
                },
                {
                    "indexed": false,
                    "internalType": "uint256",
                    "name": "id",
                    "type": "uint256"
                },
                {
                    "indexed": false,
                    "internalType": "uint256",
                    "name": "value",
                    "type": "uint256"
                }
            ],
            "name": "TransferSingle",
            "type": "event"
        },
        {
            "anonymous": false,
            "inputs": [
                {
                    "indexed": false,
                    "internalType": "string",
                    "name": "value",
                    "type": "string"
                },
                {
                    "indexed": true,
                    "internalType": "uint256",
                    "name": "id",
                    "type": "uint256"
                }
            ],
            "name": "URI",
            "type": "event"
        },
        {
            "inputs": [
                {
                    "internalType": "address",
                    "name": "account",
                    "type": "address"
                },
                {
                    "internalType": "uint256",
                    "name": "id",
                    "type": "uint256"
                }
            ],
            "name": "balanceOf",
            "outputs": [
                {
                    "internalType": "uint256",
                    "name": "",
                    "type": "uint256"
                }
            ],
            "stateMutability": "view",
            "type": "function"
        },
        {
            "inputs": [
                {
                    "internalType": "address[]",
                    "name": "accounts",
                    "type": "address[]"
                },
                {
                    "internalType": "uint256[]",
                    "name": "ids",
                    "type": "uint256[]"
                }
            ],
            "name": "balanceOfBatch",
            "outputs": [
                {
                    "internalType": "uint256[]",
                    "name": "",
                    "type": "uint256[]"
                }
            ],
            "stateMutability": "view",
            "type": "function"
        },
        {
            "inputs": [
                {
                    "internalType": "string",
                    "name": "employeeName",
                    "type": "string"
                },
                {
                    "internalType": "string",
                    "name": "departmentName",
                    "type": "string"
                },
                {
                    "internalType": "string",
                    "name": "message",
                    "type": "string"
                }
            ],
            "name": "generateSVG",
            "outputs": [
                {
                    "internalType": "string",
                    "name": "svg",
                    "type": "string"
                }
            ],
            "stateMutability": "pure",
            "type": "function"
        },
        {
            "inputs": [
                {
                    "internalType": "uint256",
                    "name": "tokenId",
                    "type": "uint256"
                }
            ],
            "name": "getCustomTokenURI",
            "outputs": [
                {
                    "internalType": "string",
                    "name": "",
                    "type": "string"
                }
            ],
            "stateMutability": "view",
            "type": "function"
        },
        {
            "inputs": [
                {
                    "internalType": "address",
                    "name": "account",
                    "type": "address"
                },
                {
                    "internalType": "address",
                    "name": "operator",
                    "type": "address"
                }
            ],
            "name": "isApprovedForAll",
            "outputs": [
                {
                    "internalType": "bool",
                    "name": "",
                    "type": "bool"
                }
            ],
            "stateMutability": "view",
            "type": "function"
        },
        {
            "inputs": [
                {
                    "internalType": "address[]",
                    "name": "to",
                    "type": "address[]"
                },
                {
                    "internalType": "string",
                    "name": "employeeName",
                    "type": "string"
                },
                {
                    "internalType": "string",
                    "name": "departmentName",
                    "type": "string"
                },
                {
                    "internalType": "string",
                    "name": "message",
                    "type": "string"
                }
            ],
            "name": "mintBusinessCardNFT",
            "outputs": [],
            "stateMutability": "nonpayable",
            "type": "function"
        },
        {
            "inputs": [
                {
                    "internalType": "address",
                    "name": "from",
                    "type": "address"
                },
                {
                    "internalType": "address",
                    "name": "to",
                    "type": "address"
                },
                {
                    "internalType": "uint256[]",
                    "name": "ids",
                    "type": "uint256[]"
                },
                {
                    "internalType": "uint256[]",
                    "name": "values",
                    "type": "uint256[]"
                },
                {
                    "internalType": "bytes",
                    "name": "data",
                    "type": "bytes"
                }
            ],
            "name": "safeBatchTransferFrom",
            "outputs": [],
            "stateMutability": "nonpayable",
            "type": "function"
        },
        {
            "inputs": [
                {
                    "internalType": "address",
                    "name": "from",
                    "type": "address"
                },
                {
                    "internalType": "address",
                    "name": "to",
                    "type": "address"
                },
                {
                    "internalType": "uint256",
                    "name": "id",
                    "type": "uint256"
                },
                {
                    "internalType": "uint256",
                    "name": "value",
                    "type": "uint256"
                },
                {
                    "internalType": "bytes",
                    "name": "data",
                    "type": "bytes"
                }
            ],
            "name": "safeTransferFrom",
            "outputs": [],
            "stateMutability": "nonpayable",
            "type": "function"
        },
        {
            "inputs": [
                {
                    "internalType": "address",
                    "name": "operator",
                    "type": "address"
                },
                {
                    "internalType": "bool",
                    "name": "approved",
                    "type": "bool"
                }
            ],
            "name": "setApprovalForAll",
            "outputs": [],
            "stateMutability": "nonpayable",
            "type": "function"
        },
        {
            "inputs": [
                {
                    "internalType": "bytes4",
                    "name": "interfaceId",
                    "type": "bytes4"
                }
            ],
            "name": "supportsInterface",
            "outputs": [
                {
                    "internalType": "bool",
                    "name": "",
                    "type": "bool"
                }
            ],
            "stateMutability": "view",
            "type": "function"
        },
        {
            "inputs": [
                {
                    "internalType": "uint256",
                    "name": "tokenId",
                    "type": "uint256"
                },
                {
                    "internalType": "string",
                    "name": "newEmployeeName",
                    "type": "string"
                },
                {
                    "internalType": "string",
                    "name": "newDepartmentName",
                    "type": "string"
                },
                {
                    "internalType": "string",
                    "name": "newMessage",
                    "type": "string"
                }
            ],
            "name": "updateEmployeeInfo",
            "outputs": [],
            "stateMutability": "nonpayable",
            "type": "function"
        },
        {
            "inputs": [
                {
                    "internalType": "uint256",
                    "name": "tokenId",
                    "type": "uint256"
                }
            ],
            "name": "uri",
            "outputs": [
                {
                    "internalType": "string",
                    "name": "",
                    "type": "string"
                }
            ],
            "stateMutability": "view",
            "type": "function"
        }
    ],
    "bytecode": "0x608060405260006003553480156200001657600080fd5b506040518060200160405280600081525062000038816200003f60201b60201c565b50620003b5565b8060029081620000509190620002ce565b5050565b600081519050919050565b7f4e487b7100000000000000000000000000000000000000000000000000000000600052604160045260246000fd5b7f4e487b7100000000000000000000000000000000000000000000000000000000600052602260045260246000fd5b60006002820490506001821680620000d657607f821691505b602082108103620000ec57620000eb6200008e565b5b50919050565b60008190508160005260206000209050919050565b60006020601f8301049050919050565b600082821b905092915050565b600060088302620001567fffffffffffffffffffffffffffffffffffffffffffffffffffffffffffffffff8262000117565b62000162868362000117565b95508019841693508086168417925050509392505050565b6000819050919050565b6000819050919050565b6000620001af620001a9620001a3846200017a565b62000184565b6200017a565b9050919050565b6000819050919050565b620001cb836200018e565b620001e3620001da82620001b6565b84845462000124565b825550505050565b600090565b620001fa620001eb565b62000207818484620001c0565b505050565b5b818110156200022f5762000223600082620001f0565b6001810190506200020d565b5050565b601f8211156200027e576200024881620000f2565b620002538462000107565b8101602085101562000263578190505b6200027b620002728562000107565b8301826200020c565b50505b505050565b600082821c905092915050565b6000620002a36000198460080262000283565b1980831691505092915050565b6000620002be838362000290565b9150826002028217905092915050565b620002d98262000054565b67ffffffffffffffff811115620002f557620002f46200005f565b5b620003018254620000bd565b6200030e82828562000233565b600060209050601f83116001811462000346576000841562000331578287015190505b6200033d8582620002b0565b865550620003ad565b601f1984166200035686620000f2565b60005b82811015620003805784890151825560018201915060208501945060208101905062000359565b86831015620003a057848901516200039c601f89168262000290565b8355505b6001600288020188555050505b505050505050565b614b5480620003c56000396000f3fe608060405234801561001057600080fd5b50600436106100b35760003560e01c806350fb99791161007157806350fb9979146101c457806356e496aa146101e0578063a22cb465146101fc578063bd45f0f514610218578063e985e9c514610248578063f242432a14610278576100b3565b8062fdd58e146100b857806301ffc9a7146100e85780630e89341c146101185780631222ed27146101485780632eb2c2d6146101785780634e1273f414610194575b600080fd5b6100d260048036038101906100cd9190611eba565b610294565b6040516100df9190611f09565b60405180910390f35b61010260048036038101906100fd9190611f7c565b6102ee565b60405161010f9190611fc4565b60405180910390f35b610132600480360381019061012d9190611fdf565b6103d0565b60405161013f919061209c565b60405180910390f35b610162600480360381019061015d91906121f3565b61061f565b60405161016f919061209c565b60405180910390f35b610192600480360381019061018d9190612403565b610656565b005b6101ae60048036038101906101a99190612595565b6106fe565b6040516101bb91906126cb565b60405180910390f35b6101de60048036038101906101d991906126ed565b61080d565b005b6101fa60048036038101906101f591906127c4565b6109f1565b005b610216600480360381019061021191906128ab565b610bea565b005b610232600480360381019061022d9190611fdf565b610c00565b60405161023f919061209c565b60405180910390f35b610262600480360381019061025d91906128eb565b610ca5565b60405161026f9190611fc4565b60405180910390f35b610292600480360381019061028d919061292b565b610d39565b005b600080600083815260200190815260200160002060008473ffffffffffffffffffffffffffffffffffffffff1673ffffffffffffffffffffffffffffffffffffffff16815260200190815260200160002054905092915050565b60007fd9b67a26000000000000000000000000000000000000000000000000000000007bffffffffffffffffffffffffffffffffffffffffffffffffffffffff1916827bffffffffffffffffffffffffffffffffffffffffffffffffffffffff191614806103b957507f0e89341c000000000000000000000000000000000000000000000000000000007bffffffffffffffffffffffffffffffffffffffffffffffffffffffff1916827bffffffffffffffffffffffffffffffffffffffffffffffffffffffff1916145b806103c957506103c882610de1565b5b9050919050565b6060600060046000848152602001908152602001600020604051806060016040529081600082018054610402906129f1565b80601f016020809104026020016040519081016040528092919081815260200182805461042e906129f1565b801561047b5780601f106104505761010080835404028352916020019161047b565b820191906000526020600020905b81548152906001019060200180831161045e57829003601f168201915b50505050508152602001600182018054610494906129f1565b80601f01602080910402602001604051908101604052809291908181526020018280546104c0906129f1565b801561050d5780601f106104e25761010080835404028352916020019161050d565b820191906000526020600020905b8154815290600101906020018083116104f057829003601f168201915b50505050508152602001600282018054610526906129f1565b80601f0160208091040260200160405190810160405280929190818152602001828054610552906129f1565b801561059f5780601f106105745761010080835404028352916020019161059f565b820191906000526020600020905b81548152906001019060200180831161058257829003601f168201915b505050505081525050905060006105f46105b885610e4b565b6105cf84600001518560200151866040015161061f565b6040516020016105e0929190612c00565b604051602081830303815290604052610f19565b9050806040516020016106079190612ca7565b60405160208183030381529060405292505050919050565b606061064d848484604051602001610639939291906140b6565b604051602081830303815290604052610f19565b90509392505050565b600061066061108b565b90508073ffffffffffffffffffffffffffffffffffffffff168673ffffffffffffffffffffffffffffffffffffffff16141580156106a557506106a38682610ca5565b155b156106e95780866040517fe237d9220000000000000000000000000000000000000000000000000000000081526004016106e092919061421f565b60405180910390fd5b6106f68686868686611093565b505050505050565b6060815183511461074a57815183516040517f5b059991000000000000000000000000000000000000000000000000000000008152600401610741929190614248565b60405180910390fd5b6000835167ffffffffffffffff811115610767576107666120c8565b5b6040519080825280602002602001820160405280156107955781602001602082028036833780820191505090505b50905060005b8451811015610802576107d26107ba828761118b90919063ffffffff16565b6107cd838761119f90919063ffffffff16565b610294565b8282815181106107e5576107e4614271565b5b602002602001018181525050806107fb906142cf565b905061079b565b508091505092915050565b6000600354905060405180606001604052808581526020018481526020018381525060046000838152602001908152602001600020600082015181600001908161085791906144c3565b50602082015181600101908161086d91906144c3565b50604082015181600201908161088391906144c3565b5090505060016003600082825461089a9190614595565b92505081905550336006600083815260200190815260200160002060006101000a81548173ffffffffffffffffffffffffffffffffffffffff021916908373ffffffffffffffffffffffffffffffffffffffff1602179055503373ffffffffffffffffffffffffffffffffffffffff166006600083815260200190815260200160002060009054906101000a900473ffffffffffffffffffffffffffffffffffffffff1673ffffffffffffffffffffffffffffffffffffffff1614610994576040517f08c379a000000000000000000000000000000000000000000000000000000000815260040161098b9061463b565b60405180910390fd5b60005b85518110156109e9576109d68682815181106109b6576109b5614271565b5b6020026020010151836001604051806020016040528060008152506111b3565b80806109e1906142cf565b915050610997565b505050505050565b60006109fd3386610294565b11610a3d576040517f08c379a0000000000000000000000000000000000000000000000000000000008152600401610a34906146a7565b60405180910390fd5b3373ffffffffffffffffffffffffffffffffffffffff166006600086815260200190815260200160002060009054906101000a900473ffffffffffffffffffffffffffffffffffffffff1673ffffffffffffffffffffffffffffffffffffffff1614610ade576040517f08c379a0000000000000000000000000000000000000000000000000000000008152600401610ad590614713565b60405180910390fd5b604051806060016040528084815260200183815260200182815250600460008681526020019081526020016000206000820151816000019081610b2191906144c3565b506020820151816001019081610b3791906144c3565b506040820151816002019081610b4d91906144c3565b509050506000610b5e84848461061f565b90506000610b6b86610e4b565b82604051602001610b7d9291906147f1565b60405160208183030381529060405290506000610b9982610f19565b9050600081604051602001610bae9190612ca7565b604051602081830303815290604052905080600760008a81526020019081526020016000209081610bdf91906144c3565b505050505050505050565b610bfc610bf561108b565b838361124c565b5050565b6060600760008381526020019081526020016000208054610c20906129f1565b80601f0160208091040260200160405190810160405280929190818152602001828054610c4c906129f1565b8015610c995780601f10610c6e57610100808354040283529160200191610c99565b820191906000526020600020905b815481529060010190602001808311610c7c57829003601f168201915b50505050509050919050565b6000600160008473ffffffffffffffffffffffffffffffffffffffff1673ffffffffffffffffffffffffffffffffffffffff16815260200190815260200160002060008373ffffffffffffffffffffffffffffffffffffffff1673ffffffffffffffffffffffffffffffffffffffff16815260200190815260200160002060009054906101000a900460ff16905092915050565b6000610d4361108b565b90508073ffffffffffffffffffffffffffffffffffffffff168673ffffffffffffffffffffffffffffffffffffffff1614158015610d885750610d868682610ca5565b155b15610dcc5780866040517fe237d922000000000000000000000000000000000000000000000000000000008152600401610dc392919061421f565b60405180910390fd5b610dd986868686866113bc565b505050505050565b60007f01ffc9a7000000000000000000000000000000000000000000000000000000007bffffffffffffffffffffffffffffffffffffffffffffffffffffffff1916827bffffffffffffffffffffffffffffffffffffffffffffffffffffffff1916149050919050565b606060006001610e5a846114c7565b01905060008167ffffffffffffffff811115610e7957610e786120c8565b5b6040519080825280601f01601f191660200182016040528015610eab5781602001600182028036833780820191505090505b509050600082602001820190505b600115610f0e578080600190039150507f3031323334353637383961626364656600000000000000000000000000000000600a86061a8153600a8581610f0257610f0161484c565b5b04945060008503610eb9575b819350505050919050565b60606000825103610f3b57604051806020016040528060008152509050611086565b6000604051806060016040528060408152602001614adf6040913990506000600360028551610f6a9190614595565b610f74919061487b565b6004610f8091906148ac565b67ffffffffffffffff811115610f9957610f986120c8565b5b6040519080825280601f01601f191660200182016040528015610fcb5781602001600182028036833780820191505090505b50905060018201602082018586518701602081018051600082525b82841015611041576003840193508351603f8160121c168701518653600186019550603f81600c1c168701518653600186019550603f8160061c168701518653600186019550603f8116870151865360018601955050610fe6565b80825260038a51066001811461105e576002811461107157611079565b603d6001870353603d6002870353611079565b603d60018703535b5050505050505080925050505b919050565b600033905090565b600073ffffffffffffffffffffffffffffffffffffffff168473ffffffffffffffffffffffffffffffffffffffff16036111055760006040517f57f447ce0000000000000000000000000000000000000000000000000000000081526004016110fc91906148ee565b60405180910390fd5b600073ffffffffffffffffffffffffffffffffffffffff168573ffffffffffffffffffffffffffffffffffffffff16036111775760006040517f01a8351400000000000000000000000000000000000000000000000000000000815260040161116e91906148ee565b60405180910390fd5b611184858585858561161a565b5050505050565b600060208202602084010151905092915050565b600060208202602084010151905092915050565b600073ffffffffffffffffffffffffffffffffffffffff168473ffffffffffffffffffffffffffffffffffffffff16036112255760006040517f57f447ce00000000000000000000000000000000000000000000000000000000815260040161121c91906148ee565b60405180910390fd5b60008061123285856116cc565b9150915061124460008784848761161a565b505050505050565b600073ffffffffffffffffffffffffffffffffffffffff168273ffffffffffffffffffffffffffffffffffffffff16036112be5760006040517fced3e1000000000000000000000000000000000000000000000000000000000081526004016112b591906148ee565b60405180910390fd5b80600160008573ffffffffffffffffffffffffffffffffffffffff1673ffffffffffffffffffffffffffffffffffffffff16815260200190815260200160002060008473ffffffffffffffffffffffffffffffffffffffff1673ffffffffffffffffffffffffffffffffffffffff16815260200190815260200160002060006101000a81548160ff0219169083151502179055508173ffffffffffffffffffffffffffffffffffffffff168373ffffffffffffffffffffffffffffffffffffffff167f17307eab39ab6107e8899845ad3d59bd9653f200f220920489ca2b5937696c31836040516113af9190611fc4565b60405180910390a3505050565b600073ffffffffffffffffffffffffffffffffffffffff168473ffffffffffffffffffffffffffffffffffffffff160361142e5760006040517f57f447ce00000000000000000000000000000000000000000000000000000000815260040161142591906148ee565b60405180910390fd5b600073ffffffffffffffffffffffffffffffffffffffff168573ffffffffffffffffffffffffffffffffffffffff16036114a05760006040517f01a8351400000000000000000000000000000000000000000000000000000000815260040161149791906148ee565b60405180910390fd5b6000806114ad85856116cc565b915091506114be878784848761161a565b50505050505050565b600080600090507a184f03e93ff9f4daa797ed6e38ed64bf6a1f0100000000000000008310611525577a184f03e93ff9f4daa797ed6e38ed64bf6a1f010000000000000000838161151b5761151a61484c565b5b0492506040810190505b6d04ee2d6d415b85acef81000000008310611562576d04ee2d6d415b85acef810000000083816115585761155761484c565b5b0492506020810190505b662386f26fc10000831061159157662386f26fc1000083816115875761158661484c565b5b0492506010810190505b6305f5e10083106115ba576305f5e10083816115b0576115af61484c565b5b0492506008810190505b61271083106115df5761271083816115d5576115d461484c565b5b0492506004810190505b6064831061160257606483816115f8576115f761484c565b5b0492506002810190505b600a8310611611576001810190505b80915050919050565b611626858585856116fc565b600073ffffffffffffffffffffffffffffffffffffffff168473ffffffffffffffffffffffffffffffffffffffff16146116c557600061166461108b565b905060018451036116b457600061168560008661119f90919063ffffffff16565b9050600061169d60008661119f90919063ffffffff16565b90506116ad838989858589611aaa565b50506116c3565b6116c2818787878787611c5e565b5b505b5050505050565b60608060405191506001825283602083015260408201905060018152826020820152604081016040529250929050565b805182511461174657815181516040517f5b05999100000000000000000000000000000000000000000000000000000000815260040161173d929190614248565b60405180910390fd5b600061175061108b565b905060005b8351811015611965576000611773828661119f90919063ffffffff16565b9050600061178a838661119f90919063ffffffff16565b9050600073ffffffffffffffffffffffffffffffffffffffff168873ffffffffffffffffffffffffffffffffffffffff16146118b757600080600084815260200190815260200160002060008a73ffffffffffffffffffffffffffffffffffffffff1673ffffffffffffffffffffffffffffffffffffffff1681526020019081526020016000205490508181101561185f57888183856040517f03dee4c50000000000000000000000000000000000000000000000000000000081526004016118569493929190614909565b60405180910390fd5b81810360008085815260200190815260200160002060008b73ffffffffffffffffffffffffffffffffffffffff1673ffffffffffffffffffffffffffffffffffffffff16815260200190815260200160002081905550505b600073ffffffffffffffffffffffffffffffffffffffff168773ffffffffffffffffffffffffffffffffffffffff1614611952578060008084815260200190815260200160002060008973ffffffffffffffffffffffffffffffffffffffff1673ffffffffffffffffffffffffffffffffffffffff168152602001908152602001600020600082825461194a9190614595565b925050819055505b50508061195e906142cf565b9050611755565b506001835103611a2457600061198560008561119f90919063ffffffff16565b9050600061199d60008561119f90919063ffffffff16565b90508573ffffffffffffffffffffffffffffffffffffffff168773ffffffffffffffffffffffffffffffffffffffff168473ffffffffffffffffffffffffffffffffffffffff167fc3d58168c5ae7397731d063d5bbf3d657854427343f4c083240f7aacaa2d0f628585604051611a15929190614248565b60405180910390a45050611aa3565b8373ffffffffffffffffffffffffffffffffffffffff168573ffffffffffffffffffffffffffffffffffffffff168273ffffffffffffffffffffffffffffffffffffffff167f4a39dc06d4c0dbc64b70af90fd698a233a518aa5d07e595d983b8c0526c8f7fb8686604051611a9a92919061494e565b60405180910390a45b5050505050565b60008473ffffffffffffffffffffffffffffffffffffffff163b1115611c56578373ffffffffffffffffffffffffffffffffffffffff1663f23a6e6187878686866040518663ffffffff1660e01b8152600401611b0b9594939291906149da565b6020604051808303816000875af1925050508015611b4757506040513d601f19601f82011682018060405250810190611b449190614a49565b60015b611bcb573d8060008114611b77576040519150601f19603f3d011682016040523d82523d6000602084013e611b7c565b606091505b506000815103611bc357846040517f57f447ce000000000000000000000000000000000000000000000000000000008152600401611bba91906148ee565b60405180910390fd5b805181602001fd5b63f23a6e6160e01b7bffffffffffffffffffffffffffffffffffffffffffffffffffffffff1916817bffffffffffffffffffffffffffffffffffffffffffffffffffffffff191614611c5457846040517f57f447ce000000000000000000000000000000000000000000000000000000008152600401611c4b91906148ee565b60405180910390fd5b505b505050505050565b60008473ffffffffffffffffffffffffffffffffffffffff163b1115611e0a578373ffffffffffffffffffffffffffffffffffffffff1663bc197c8187878686866040518663ffffffff1660e01b8152600401611cbf959493929190614a76565b6020604051808303816000875af1925050508015611cfb57506040513d601f19601f82011682018060405250810190611cf89190614a49565b60015b611d7f573d8060008114611d2b576040519150601f19603f3d011682016040523d82523d6000602084013e611d30565b606091505b506000815103611d7757846040517f57f447ce000000000000000000000000000000000000000000000000000000008152600401611d6e91906148ee565b60405180910390fd5b805181602001fd5b63bc197c8160e01b7bffffffffffffffffffffffffffffffffffffffffffffffffffffffff1916817bffffffffffffffffffffffffffffffffffffffffffffffffffffffff191614611e0857846040517f57f447ce000000000000000000000000000000000000000000000000000000008152600401611dff91906148ee565b60405180910390fd5b505b505050505050565b6000604051905090565b600080fd5b600080fd5b600073ffffffffffffffffffffffffffffffffffffffff82169050919050565b6000611e5182611e26565b9050919050565b611e6181611e46565b8114611e6c57600080fd5b50565b600081359050611e7e81611e58565b92915050565b6000819050919050565b611e9781611e84565b8114611ea257600080fd5b50565b600081359050611eb481611e8e565b92915050565b60008060408385031215611ed157611ed0611e1c565b5b6000611edf85828601611e6f565b9250506020611ef085828601611ea5565b9150509250929050565b611f0381611e84565b82525050565b6000602082019050611f1e6000830184611efa565b92915050565b60007fffffffff0000000000000000000000000000000000000000000000000000000082169050919050565b611f5981611f24565b8114611f6457600080fd5b50565b600081359050611f7681611f50565b92915050565b600060208284031215611f9257611f91611e1c565b5b6000611fa084828501611f67565b91505092915050565b60008115159050919050565b611fbe81611fa9565b82525050565b6000602082019050611fd96000830184611fb5565b92915050565b600060208284031215611ff557611ff4611e1c565b5b600061200384828501611ea5565b91505092915050565b600081519050919050565b600082825260208201905092915050565b60005b8381101561204657808201518184015260208101905061202b565b60008484015250505050565b6000601f19601f8301169050919050565b600061206e8261200c565b6120788185612017565b9350612088818560208601612028565b61209181612052565b840191505092915050565b600060208201905081810360008301526120b68184612063565b905092915050565b600080fd5b600080fd5b7f4e487b7100000000000000000000000000000000000000000000000000000000600052604160045260246000fd5b61210082612052565b810181811067ffffffffffffffff8211171561211f5761211e6120c8565b5b80604052505050565b6000612132611e12565b905061213e82826120f7565b919050565b600067ffffffffffffffff82111561215e5761215d6120c8565b5b61216782612052565b9050602081019050919050565b82818337600083830152505050565b600061219661219184612143565b612128565b9050828152602081018484840111156121b2576121b16120c3565b5b6121bd848285612174565b509392505050565b600082601f8301126121da576121d96120be565b5b81356121ea848260208601612183565b91505092915050565b60008060006060848603121561220c5761220b611e1c565b5b600084013567ffffffffffffffff81111561222a57612229611e21565b5b612236868287016121c5565b935050602084013567ffffffffffffffff81111561225757612256611e21565b5b612263868287016121c5565b925050604084013567ffffffffffffffff81111561228457612283611e21565b5b612290868287016121c5565b9150509250925092565b600067ffffffffffffffff8211156122b5576122b46120c8565b5b602082029050602081019050919050565b600080fd5b60006122de6122d98461229a565b612128565b90508083825260208201905060208402830185811115612301576123006122c6565b5b835b8181101561232a57806123168882611ea5565b845260208401935050602081019050612303565b5050509392505050565b600082601f830112612349576123486120be565b5b81356123598482602086016122cb565b91505092915050565b600067ffffffffffffffff82111561237d5761237c6120c8565b5b61238682612052565b9050602081019050919050565b60006123a66123a184612362565b612128565b9050828152602081018484840111156123c2576123c16120c3565b5b6123cd848285612174565b509392505050565b600082601f8301126123ea576123e96120be565b5b81356123fa848260208601612393565b91505092915050565b600080600080600060a0868803121561241f5761241e611e1c565b5b600061242d88828901611e6f565b955050602061243e88828901611e6f565b945050604086013567ffffffffffffffff81111561245f5761245e611e21565b5b61246b88828901612334565b935050606086013567ffffffffffffffff81111561248c5761248b611e21565b5b61249888828901612334565b925050608086013567ffffffffffffffff8111156124b9576124b8611e21565b5b6124c5888289016123d5565b9150509295509295909350565b600067ffffffffffffffff8211156124ed576124ec6120c8565b5b602082029050602081019050919050565b600061251161250c846124d2565b612128565b90508083825260208201905060208402830185811115612534576125336122c6565b5b835b8181101561255d57806125498882611e6f565b845260208401935050602081019050612536565b5050509392505050565b600082601f83011261257c5761257b6120be565b5b813561258c8482602086016124fe565b91505092915050565b600080604083850312156125ac576125ab611e1c565b5b600083013567ffffffffffffffff8111156125ca576125c9611e21565b5b6125d685828601612567565b925050602083013567ffffffffffffffff8111156125f7576125f6611e21565b5b61260385828601612334565b9150509250929050565b600081519050919050565b600082825260208201905092915050565b6000819050602082019050919050565b61264281611e84565b82525050565b60006126548383612639565b60208301905092915050565b6000602082019050919050565b60006126788261260d565b6126828185612618565b935061268d83612629565b8060005b838110156126be5781516126a58882612648565b97506126b083612660565b925050600181019050612691565b5085935050505092915050565b600060208201905081810360008301526126e5818461266d565b905092915050565b6000806000806080858703121561270757612706611e1c565b5b600085013567ffffffffffffffff81111561272557612724611e21565b5b61273187828801612567565b945050602085013567ffffffffffffffff81111561275257612751611e21565b5b61275e878288016121c5565b935050604085013567ffffffffffffffff81111561277f5761277e611e21565b5b61278b878288016121c5565b925050606085013567ffffffffffffffff8111156127ac576127ab611e21565b5b6127b8878288016121c5565b91505092959194509250565b600080600080608085870312156127de576127dd611e1c565b5b60006127ec87828801611ea5565b945050602085013567ffffffffffffffff81111561280d5761280c611e21565b5b612819878288016121c5565b935050604085013567ffffffffffffffff81111561283a57612839611e21565b5b612846878288016121c5565b925050606085013567ffffffffffffffff81111561286757612866611e21565b5b612873878288016121c5565b91505092959194509250565b61288881611fa9565b811461289357600080fd5b50565b6000813590506128a58161287f565b92915050565b600080604083850312156128c2576128c1611e1c565b5b60006128d085828601611e6f565b92505060206128e185828601612896565b9150509250929050565b6000806040838503121561290257612901611e1c565b5b600061291085828601611e6f565b925050602061292185828601611e6f565b9150509250929050565b600080600080600060a0868803121561294757612946611e1c565b5b600061295588828901611e6f565b955050602061296688828901611e6f565b945050604061297788828901611ea5565b935050606061298888828901611ea5565b925050608086013567ffffffffffffffff8111156129a9576129a8611e21565b5b6129b5888289016123d5565b9150509295509295909350565b7f4e487b7100000000000000000000000000000000000000000000000000000000600052602260045260246000fd5b60006002820490506001821680612a0957607f821691505b602082108103612a1c57612a1b6129c2565b5b50919050565b600081905092915050565b7f7b226e616d65223a2022475f436f6d70616e794e465400000000000000000000600082015250565b6000612a63601683612a22565b9150612a6e82612a2d565b601682019050919050565b6000612a848261200c565b612a8e8185612a22565b9350612a9e818560208601612028565b80840191505092915050565b7f222c000000000000000000000000000000000000000000000000000000000000600082015250565b6000612ae0600283612a22565b9150612aeb82612aaa565b600282019050919050565b7f226465736372697074696f6e223a202254657374222c00000000000000000000600082015250565b6000612b2c601683612a22565b9150612b3782612af6565b601682019050919050565b7f22696d616765223a22646174613a696d6167652f7376672b786d6c3b6261736560008201527f36342c0000000000000000000000000000000000000000000000000000000000602082015250565b6000612b9e602383612a22565b9150612ba982612b42565b602382019050919050565b7f227d000000000000000000000000000000000000000000000000000000000000600082015250565b6000612bea600283612a22565b9150612bf582612bb4565b600282019050919050565b6000612c0b82612a56565b9150612c178285612a79565b9150612c2282612ad3565b9150612c2d82612b1f565b9150612c3882612b91565b9150612c448284612a79565b9150612c4f82612bdd565b91508190509392505050565b7f646174613a6170706c69636174696f6e2f6a736f6e3b6261736536342c000000600082015250565b6000612c91601d83612a22565b9150612c9c82612c5b565b601d82019050919050565b6000612cb282612c84565b9150612cbe8284612a79565b915081905092915050565b7f3c7376672077696474683d2237303022206865696768743d223730302220786d60008201527f6c6e733d22687474703a2f2f7777772e77332e6f72672f323030302f7376672260208201527f207374796c653d226261636b67726f756e642d636f6c6f723a2023313732383560408201527f333b223e00000000000000000000000000000000000000000000000000000000606082015250565b6000612d71606483612a22565b9150612d7c82612cc9565b606482019050919050565b7f3c7469746c653e456d706c6f7965654e46545f496d6167653c2f7469746c653e600082015250565b6000612dbd602083612a22565b9150612dc882612d87565b602082019050919050565b7f3c74657874207472616e73666f726d3d226d617472697828312e31313137342060008201527f30203020312e3337393635202d32312e31383431202d32382e3334363429222060208201527f7374726f6b653d2223394143454536222066696c6c3d2223666666666666222060408201527f7374726f6b652d77696474683d22302220783d223234322e353937393322207960608201527f3d2237342e3832303631222069643d227376675f332220666f6e742d73697a6560808201527f3d2232342220666f6e742d66616d696c793d22274172696d6f2722207465787460a08201527f2d616e63686f723d2273746172742220786d6c3a73706163653d22707265736560c08201527f7276652220666f6e742d7765696768743d22626f6c64223e4720436f6d70616e60e08201527f79204e46543c2f746578743e000000000000000000000000000000000000000061010082015250565b6000612f3b61010c83612a22565b9150612f4682612dd3565b61010c82019050919050565b7f3c72656374207374726f6b653d2223394143454536222069643d227376675f3460008201527f22206865696768743d223139222077696474683d223131352220793d2233382260208201527f20783d2238312e303030323622207374726f6b652d77696474683d223022206660408201527f696c6c3d2223666666666666222f3e0000000000000000000000000000000000606082015250565b6000612ffa606f83612a22565b915061300582612f52565b606f82019050919050565b7f3c72656374207374726f6b653d2223394143454536222069643d227376675f3660008201527f22206865696768743d223139222077696474683d223131352220793d2236372260208201527f20783d2238312e303030323622207374726f6b652d77696474683d223022206660408201527f696c6c3d2223666666666666222f3e0000000000000000000000000000000000606082015250565b60006130b8606f83612a22565b91506130c382613010565b606f82019050919050565b7f3c72656374207374726f6b653d2223394143454536222069643d227376675f3460008201527f22206865696768743d223139222077696474683d223131352220793d2233382260208201527f20783d223532362e3137373622207374726f6b652d77696474683d223022206660408201527f696c6c3d2223666666666666222f3e0000000000000000000000000000000000606082015250565b6000613176606f83612a22565b9150613181826130ce565b606f82019050919050565b7f3c72656374207374726f6b653d2223394143454536222069643d227376675f3660008201527f22206865696768743d223139222077696474683d223131352220793d2236372260208201527f20783d223532362e3137373622207374726f6b652d77696474683d223022206660408201527f696c6c3d2223666666666666222f3e0000000000000000000000000000000000606082015250565b6000613234606f83612a22565b915061323f8261318c565b606f82019050919050565b7f3c70617468207374726f6b653d2223394143454536222069643d227376675f3160008201527f362220643d226d3237312e39383931342c3138312e35343136336c33342e393260208201527f3835382c2d36332e39393939396c39332e31343238362c306c33342e3932383560408201527f362c36332e39393939396c2d33342e39323835362c36332e39393939396c2d3960608201527f332e31343238362c306c2d33342e39323835382c2d36332e39393939397a222060808201527f7374726f6b652d77696474683d2230222066696c6c3d2223306465383737222f60a08201527f3e0000000000000000000000000000000000000000000000000000000000000060c082015250565b600061336460c183612a22565b915061336f8261324a565b60c182019050919050565b7f3c74657874207472616e73666f726d3d226d617472697828312e39363830352060008201527f30203020312e3635363133202d3233322e393431202d3133342e33323629222060208201527f7374726f6b653d22233941434545362220786d6c3a73706163653d227072657360408201527f657276652220746578742d616e63686f723d2273746172742220666f6e742d6660608201527f616d696c793d22274172696d6f272220666f6e742d73697a653d22323422206960808201527f643d227376675f31392220793d223139372e35373931322220783d223238372e60a08201527f3931363122207374726f6b652d77696474683d2230222066696c6c3d2223303060c08201527f30303030223e473c2f746578743e00000000000000000000000000000000000060e082015250565b60006134ba60ee83612a22565b91506134c58261337a565b60ee82019050919050565b7f3c7465787420786d6c3a73706163653d2270726573657276652220746578742d60008201527f616e63686f723d2273746172742220666f6e742d66616d696c793d222741726960208201527f6d6f272220666f6e742d73697a653d223234222069643d227376675f3232222060408201527f793d223238382e30353837342220783d223239312e383234313722207374726f60608201527f6b652d77696474683d223022207374726f6b653d22233941434545362220666960808201527f6c6c3d2223666666666666223e596f7572204e616d653c2f746578743e00000060a082015250565b60006135c460bd83612a22565b91506135cf826134d0565b60bd82019050919050565b7f3c72656374207374726f6b653d2223303030303030222069643d227376675f3260008201527f3322206865696768743d223332222077696474683d223234382220793d22333060208201527f372e37363436352220783d223233322e303030363522207374726f6b652d776960408201527f6474683d2232222066696c6c3d2223666666666666222f3e0000000000000000606082015250565b6000613682607883612a22565b915061368d826135da565b607882019050919050565b7f3c7465787420786d6c3a73706163653d2270726573657276652220746578742d60008201527f616e63686f723d2273746172742220666f6e742d66616d696c793d222741726960208201527f6d6f272220666f6e742d73697a653d223234222069643d227376675f3234222060408201527f793d223430312e35383831372220783d223135332e333533343822207374726f60608201527f6b652d77696474683d223022207374726f6b653d22233030303030302220666960808201527f6c6c3d2223666666666666223e0000000000000000000000000000000000000060a082015250565b600061378c60ad83612a22565b915061379782613698565b60ad82019050919050565b7f5465616d00000000000000000000000000000000000000000000000000000000600082015250565b60006137d8600483612a22565b91506137e3826137a2565b600482019050919050565b7f3c2f746578743e00000000000000000000000000000000000000000000000000600082015250565b6000613824600783612a22565b915061382f826137ee565b600782019050919050565b7f3c726563742066696c6c3d222366666666666622207374726f6b652d7769647460008201527f683d22322220783d223235362e37303636392220793d223337332e363437343360208201527f222077696474683d2232343822206865696768743d223332222069643d22737660408201527f675f3522207374726f6b653d2223303030303030222f3e000000000000000000606082015250565b60006138e2607783612a22565b91506138ed8261383a565b607782019050919050565b7f3c74657874207374796c653d22637572736f723a206d6f76653b22207374726f60008201527f6b653d22233030303030302220786d6c3a73706163653d22707265736572766560208201527f2220746578742d616e63686f723d2273746172742220666f6e742d66616d696c60408201527f793d22274172696d6f272220666f6e742d73697a653d223234222069643d227360608201527f76675f33302220793d223435352e37303539312220783d223132362e3634373460808201527f3322207374726f6b652d77696474683d2230222066696c6c3d2223666666666660a08201527f66223e000000000000000000000000000000000000000000000000000000000060c082015250565b6000613a1260c383612a22565b9150613a1d826138f8565b60c382019050919050565b7f4d65737361676500000000000000000000000000000000000000000000000000600082015250565b6000613a5e600783612a22565b9150613a6982613a28565b600782019050919050565b7f3c72656374207374726f6b653d2223303030303030222066696c6c3d2223666660008201527f6666666622207374726f6b652d77696474683d22322220783d223235362e373060208201527f3636392220793d223433312e3239343837222077696474683d2232343822206860408201527f65696768743d2233342e3335323935222069643d227376675f37222f3e000000606082015250565b6000613b1c607d83612a22565b9150613b2782613a74565b607d82019050919050565b7f3c74657874207374796c653d22637572736f723a206d6f76653b2220786d6c3a60008201527f73706163653d2270726573657276652220746578742d616e63686f723d22737460208201527f6172742220666f6e742d66616d696c793d22274172696d6f272220666f6e742d60408201527f73697a653d223234222069643d227376675f33322220793d223538322e30353960608201527f2220783d223237342e333533343722207374726f6b652d77696474683d22302260808201527f207374726f6b653d2223303030303030222066696c6c3d22236666666666662260a08201527f3e7878787878783c2f746578743e00000000000000000000000000000000000060c082015250565b6000613c4c60ce83612a22565b9150613c5782613b32565b60ce82019050919050565b7f203c7465787420786d6c3a73706163653d22707265736572766522207465787460008201527f2d616e63686f723d2273746172742220666f6e742d66616d696c793d2227417260208201527f696d6f272220666f6e742d73697a653d223234222069643d227376675f33332260408201527f20793d223632342e363437332220783d223235372e313138313322207374726f60608201527f6b652d77696474683d223022207374726f6b653d22233030303030302220666960808201527f6c6c3d2223666666666666223e7878782d787878782d7878783c2f746578743e60a08201527f3c746578742066696c6c3d222330303030303022207374726f6b653d2223666660c08201527f6666666622207374726f6b652d77696474683d22302220783d223332342e373660e08201527f3535352220793d223333332e3934313339222069643d227376675f31342220666101008201527f6f6e742d73697a653d2232342220666f6e742d66616d696c793d22274172696d6101208201527f6f272220746578742d616e63686f723d2273746172742220786d6c3a737061636101408201527f653d227072657365727665223e0000000000000000000000000000000000000061016082015250565b6000613e3f61016d83612a22565b9150613e4a82613c62565b61016d82019050919050565b7f3c746578742066696c6c3d222330303030303022207374726f6b653d2223666660008201527f6666666622207374726f6b652d77696474683d22302220783d223237342e313760208201527f3639392220793d223339382e3634373639222069643d227376675f313522206660408201527f6f6e742d73697a653d2232342220666f6e742d66616d696c793d22274172696d60608201527f6f272220746578742d616e63686f723d2273746172742220786d6c3a7370616360808201527f653d227072657365727665223e0000000000000000000000000000000000000060a082015250565b6000613f4a60ad83612a22565b9150613f5582613e56565b60ad82019050919050565b7f3c746578742066696c6c3d222330303030303022207374726f6b653d2223666660008201527f6666666622207374726f6b652d77696474683d22302220783d223237342e313760208201527f3639392220793d223435372e34373136222069643d227376675f31372220666f60408201527f6e742d73697a653d2232342220666f6e742d66616d696c793d22274172696d6f60608201527f272220746578742d616e63686f723d2273746172742220786d6c3a737061636560808201527f3d227072657365727665223e000000000000000000000000000000000000000060a082015250565b600061405460ac83612a22565b915061405f82613f60565b60ac82019050919050565b7f3c2f7376673e0000000000000000000000000000000000000000000000000000600082015250565b60006140a0600683612a22565b91506140ab8261406a565b600682019050919050565b60006140c182612d64565b91506140cc82612db0565b91506140d782612f2d565b91506140e282612fed565b91506140ed826130ab565b91506140f882613169565b915061410382613227565b915061410e82613357565b9150614119826134ad565b9150614124826135b7565b915061412f82613675565b915061413a8261377f565b9150614145826137cb565b915061415082613817565b915061415b826138d5565b915061416682613a05565b915061417182613a51565b915061417c82613817565b915061418782613b0f565b915061419282613c3f565b915061419d82613e31565b91506141a98286612a79565b91506141b482613817565b91506141bf82613f3d565b91506141cb8285612a79565b91506141d682613817565b91506141e182614047565b91506141ed8284612a79565b91506141f882613817565b915061420382614093565b9150819050949350505050565b61421981611e46565b82525050565b60006040820190506142346000830185614210565b6142416020830184614210565b9392505050565b600060408201905061425d6000830185611efa565b61426a6020830184611efa565b9392505050565b7f4e487b7100000000000000000000000000000000000000000000000000000000600052603260045260246000fd5b7f4e487b7100000000000000000000000000000000000000000000000000000000600052601160045260246000fd5b60006142da82611e84565b91507fffffffffffffffffffffffffffffffffffffffffffffffffffffffffffffffff820361430c5761430b6142a0565b5b600182019050919050565b60008190508160005260206000209050919050565b60006020601f8301049050919050565b600082821b905092915050565b6000600883026143797fffffffffffffffffffffffffffffffffffffffffffffffffffffffffffffffff8261433c565b614383868361433c565b95508019841693508086168417925050509392505050565b6000819050919050565b60006143c06143bb6143b684611e84565b61439b565b611e84565b9050919050565b6000819050919050565b6143da836143a5565b6143ee6143e6826143c7565b848454614349565b825550505050565b600090565b6144036143f6565b61440e8184846143d1565b505050565b5b81811015614432576144276000826143fb565b600181019050614414565b5050565b601f8211156144775761444881614317565b6144518461432c565b81016020851015614460578190505b61447461446c8561432c565b830182614413565b50505b505050565b600082821c905092915050565b600061449a6000198460080261447c565b1980831691505092915050565b60006144b38383614489565b9150826002028217905092915050565b6144cc8261200c565b67ffffffffffffffff8111156144e5576144e46120c8565b5b6144ef82546129f1565b6144fa828285614436565b600060209050601f83116001811461452d576000841561451b578287015190505b61452585826144a7565b86555061458d565b601f19841661453b86614317565b60005b828110156145635784890151825560018201915060208501945060208101905061453e565b86831015614580578489015161457c601f891682614489565b8355505b6001600288020188555050505b505050505050565b60006145a082611e84565b91506145ab83611e84565b92508282019050808211156145c3576145c26142a0565b5b92915050565b7f43616e6e6f742064697374726962757465204e4654206265636175736520697460008201527f206973206e6f7420796f7572204e465400000000000000000000000000000000602082015250565b6000614625603083612017565b9150614630826145c9565b604082019050919050565b6000602082019050818103600083015261465481614618565b9050919050565b7f4e6f2065786973747320746f6b656e4964730000000000000000000000000000600082015250565b6000614691601283612017565b915061469c8261465b565b602082019050919050565b600060208201905081810360008301526146c081614684565b9050919050565b7f455243313135353a20596f7520617265206e6f7420746f6b656e206f776e6572600082015250565b60006146fd602083612017565b9150614708826146c7565b602082019050919050565b6000602082019050818103600083015261472c816146f0565b9050919050565b7f222c226465736372697074696f6e223a20225465737400000000000000000000600082015250565b6000614769601683612a22565b915061477482614733565b601682019050919050565b7f222c22696d616765223a22646174613a696d6167652f7376672b786d6c3b626160008201527f736536342c000000000000000000000000000000000000000000000000000000602082015250565b60006147db602583612a22565b91506147e68261477f565b602582019050919050565b60006147fc82612a56565b91506148088285612a79565b915061481382612ad3565b915061481e8261475c565b9150614829826147ce565b91506148358284612a79565b915061484082612bdd565b91508190509392505050565b7f4e487b7100000000000000000000000000000000000000000000000000000000600052601260045260246000fd5b600061488682611e84565b915061489183611e84565b9250826148a1576148a061484c565b5b828204905092915050565b60006148b782611e84565b91506148c283611e84565b92508282026148d081611e84565b915082820484148315176148e7576148e66142a0565b5b5092915050565b60006020820190506149036000830184614210565b92915050565b600060808201905061491e6000830187614210565b61492b6020830186611efa565b6149386040830185611efa565b6149456060830184611efa565b95945050505050565b60006040820190508181036000830152614968818561266d565b9050818103602083015261497c818461266d565b90509392505050565b600081519050919050565b600082825260208201905092915050565b60006149ac82614985565b6149b68185614990565b93506149c6818560208601612028565b6149cf81612052565b840191505092915050565b600060a0820190506149ef6000830188614210565b6149fc6020830187614210565b614a096040830186611efa565b614a166060830185611efa565b8181036080830152614a2881846149a1565b90509695505050505050565b600081519050614a4381611f50565b92915050565b600060208284031215614a5f57614a5e611e1c565b5b6000614a6d84828501614a34565b91505092915050565b600060a082019050614a8b6000830188614210565b614a986020830187614210565b8181036040830152614aaa818661266d565b90508181036060830152614abe818561266d565b90508181036080830152614ad281846149a1565b9050969550505050505056fe4142434445464748494a4b4c4d4e4f505152535455565758595a6162636465666768696a6b6c6d6e6f707172737475767778797a303132333435363738392b2fa2646970667358221220cfd311fbb338389a7f2dc015959ea10ddea2333e1e07b3fe4eefbfcf3e9ad62964736f6c63430008130033",
    "linkReferences": {},
    "deployedLinkReferences": {}
}