{
  "_format": "hh-sol-artifact-1",
  "contractName": "BusinessCard",
  "sourceName": "contracts/BusinessCard.sol",
  "abi": [
    {
      "inputs": [
        {
          "internalType": "address",
          "name": "employeeIdAddress",
          "type": "address"
        }
      ],
      "stateMutability": "nonpayable",
      "type": "constructor"
    },
    {
      "inputs": [],
      "name": "AccessControlBadConfirmation",
      "type": "error"
    },
    {
      "inputs": [
        {
          "internalType": "address",
          "name": "account",
          "type": "address"
        },
        {
          "internalType": "bytes32",
          "name": "neededRole",
          "type": "bytes32"
        }
      ],
      "name": "AccessControlUnauthorizedAccount",
      "type": "error"
    },
    {
      "inputs": [
        {
          "internalType": "address",
          "name": "sender",
          "type": "address"
        },
        {
          "internalType": "uint256",
          "name": "balance",
          "type": "uint256"
        },
        {
          "internalType": "uint256",
          "name": "needed",
          "type": "uint256"
        },
        {
          "internalType": "uint256",
          "name": "tokenId",
          "type": "uint256"
        }
      ],
      "name": "ERC1155InsufficientBalance",
      "type": "error"
    },
    {
      "inputs": [
        {
          "internalType": "address",
          "name": "approver",
          "type": "address"
        }
      ],
      "name": "ERC1155InvalidApprover",
      "type": "error"
    },
    {
      "inputs": [
        {
          "internalType": "uint256",
          "name": "idsLength",
          "type": "uint256"
        },
        {
          "internalType": "uint256",
          "name": "valuesLength",
          "type": "uint256"
        }
      ],
      "name": "ERC1155InvalidArrayLength",
      "type": "error"
    },
    {
      "inputs": [
        {
          "internalType": "address",
          "name": "operator",
          "type": "address"
        }
      ],
      "name": "ERC1155InvalidOperator",
      "type": "error"
    },
    {
      "inputs": [
        {
          "internalType": "address",
          "name": "receiver",
          "type": "address"
        }
      ],
      "name": "ERC1155InvalidReceiver",
      "type": "error"
    },
    {
      "inputs": [
        {
          "internalType": "address",
          "name": "sender",
          "type": "address"
        }
      ],
      "name": "ERC1155InvalidSender",
      "type": "error"
    },
    {
      "inputs": [
        {
          "internalType": "address",
          "name": "operator",
          "type": "address"
        },
        {
          "internalType": "address",
          "name": "owner",
          "type": "address"
        }
      ],
      "name": "ERC1155MissingApprovalForAll",
      "type": "error"
    },
    {
      "anonymous": false,
      "inputs": [
        {
          "indexed": true,
          "internalType": "address",
          "name": "account",
          "type": "address"
        },
        {
          "indexed": true,
          "internalType": "address",
          "name": "operator",
          "type": "address"
        },
        {
          "indexed": false,
          "internalType": "bool",
          "name": "approved",
          "type": "bool"
        }
      ],
      "name": "ApprovalForAll",
      "type": "event"
    },
    {
      "anonymous": false,
      "inputs": [
        {
          "indexed": true,
          "internalType": "bytes32",
          "name": "role",
          "type": "bytes32"
        },
        {
          "indexed": true,
          "internalType": "bytes32",
          "name": "previousAdminRole",
          "type": "bytes32"
        },
        {
          "indexed": true,
          "internalType": "bytes32",
          "name": "newAdminRole",
          "type": "bytes32"
        }
      ],
      "name": "RoleAdminChanged",
      "type": "event"
    },
    {
      "anonymous": false,
      "inputs": [
        {
          "indexed": true,
          "internalType": "bytes32",
          "name": "role",
          "type": "bytes32"
        },
        {
          "indexed": true,
          "internalType": "address",
          "name": "account",
          "type": "address"
        },
        {
          "indexed": true,
          "internalType": "address",
          "name": "sender",
          "type": "address"
        }
      ],
      "name": "RoleGranted",
      "type": "event"
    },
    {
      "anonymous": false,
      "inputs": [
        {
          "indexed": true,
          "internalType": "bytes32",
          "name": "role",
          "type": "bytes32"
        },
        {
          "indexed": true,
          "internalType": "address",
          "name": "account",
          "type": "address"
        },
        {
          "indexed": true,
          "internalType": "address",
          "name": "sender",
          "type": "address"
        }
      ],
      "name": "RoleRevoked",
      "type": "event"
    },
    {
      "anonymous": false,
      "inputs": [
        {
          "indexed": true,
          "internalType": "address",
          "name": "operator",
          "type": "address"
        },
        {
          "indexed": true,
          "internalType": "address",
          "name": "from",
          "type": "address"
        },
        {
          "indexed": true,
          "internalType": "address",
          "name": "to",
          "type": "address"
        },
        {
          "indexed": false,
          "internalType": "uint256[]",
          "name": "ids",
          "type": "uint256[]"
        },
        {
          "indexed": false,
          "internalType": "uint256[]",
          "name": "values",
          "type": "uint256[]"
        }
      ],
      "name": "TransferBatch",
      "type": "event"
    },
    {
      "anonymous": false,
      "inputs": [
        {
          "indexed": true,
          "internalType": "address",
          "name": "operator",
          "type": "address"
        },
        {
          "indexed": true,
          "internalType": "address",
          "name": "from",
          "type": "address"
        },
        {
          "indexed": true,
          "internalType": "address",
          "name": "to",
          "type": "address"
        },
        {
          "indexed": false,
          "internalType": "uint256",
          "name": "id",
          "type": "uint256"
        },
        {
          "indexed": false,
          "internalType": "uint256",
          "name": "value",
          "type": "uint256"
        }
      ],
      "name": "TransferSingle",
      "type": "event"
    },
    {
      "anonymous": false,
      "inputs": [
        {
          "indexed": false,
          "internalType": "string",
          "name": "value",
          "type": "string"
        },
        {
          "indexed": true,
          "internalType": "uint256",
          "name": "id",
          "type": "uint256"
        }
      ],
      "name": "URI",
      "type": "event"
    },
    {
      "inputs": [],
      "name": "ADMIN_ROLE",
      "outputs": [
        {
          "internalType": "bytes32",
          "name": "",
          "type": "bytes32"
        }
      ],
      "stateMutability": "view",
      "type": "function"
    },
    {
      "inputs": [],
      "name": "DEFAULT_ADMIN_ROLE",
      "outputs": [
        {
          "internalType": "bytes32",
          "name": "",
          "type": "bytes32"
        }
      ],
      "stateMutability": "view",
      "type": "function"
    },
    {
      "inputs": [
        {
          "internalType": "address",
          "name": "newAdmin",
          "type": "address"
        }
      ],
      "name": "addAdmin",
      "outputs": [],
      "stateMutability": "nonpayable",
      "type": "function"
    },
    {
      "inputs": [
        {
          "internalType": "address",
          "name": "account",
          "type": "address"
        },
        {
          "internalType": "uint256",
          "name": "id",
          "type": "uint256"
        }
      ],
      "name": "balanceOf",
      "outputs": [
        {
          "internalType": "uint256",
          "name": "",
          "type": "uint256"
        }
      ],
      "stateMutability": "view",
      "type": "function"
    },
    {
      "inputs": [
        {
          "internalType": "address[]",
          "name": "accounts",
          "type": "address[]"
        },
        {
          "internalType": "uint256[]",
          "name": "ids",
          "type": "uint256[]"
        }
      ],
      "name": "balanceOfBatch",
      "outputs": [
        {
          "internalType": "uint256[]",
          "name": "",
          "type": "uint256[]"
        }
      ],
      "stateMutability": "view",
      "type": "function"
    },
    {
      "inputs": [
        {
          "internalType": "string",
          "name": "employeeName",
          "type": "string"
        },
        {
          "internalType": "string",
          "name": "departmentName",
          "type": "string"
        },
        {
          "internalType": "string",
          "name": "message",
          "type": "string"
        }
      ],
      "name": "generateSVG",
      "outputs": [
        {
          "internalType": "string",
          "name": "svg",
          "type": "string"
        }
      ],
      "stateMutability": "pure",
      "type": "function"
    },
    {
      "inputs": [],
      "name": "getAdmins",
      "outputs": [
        {
          "internalType": "address[]",
          "name": "",
          "type": "address[]"
        }
      ],
      "stateMutability": "view",
      "type": "function"
    },
    {
      "inputs": [
        {
          "internalType": "uint256",
          "name": "tokenId",
          "type": "uint256"
        }
      ],
      "name": "getBusinessCardInfo",
      "outputs": [
        {
          "internalType": "string",
          "name": "employeeName",
          "type": "string"
        },
        {
          "internalType": "string",
          "name": "departmentName",
          "type": "string"
        },
        {
          "internalType": "string",
          "name": "message",
          "type": "string"
        }
      ],
      "stateMutability": "view",
      "type": "function"
    },
    {
      "inputs": [
        {
          "internalType": "uint256",
          "name": "tokenId",
          "type": "uint256"
        }
      ],
      "name": "getCustomTokenURI",
      "outputs": [
        {
          "internalType": "string",
          "name": "",
          "type": "string"
        }
      ],
      "stateMutability": "view",
      "type": "function"
    },
    {
      "inputs": [
        {
          "internalType": "bytes32",
          "name": "role",
          "type": "bytes32"
        }
      ],
      "name": "getRoleAdmin",
      "outputs": [
        {
          "internalType": "bytes32",
          "name": "",
          "type": "bytes32"
        }
      ],
      "stateMutability": "view",
      "type": "function"
    },
    {
      "inputs": [
        {
          "internalType": "address",
          "name": "user",
          "type": "address"
        }
      ],
      "name": "getTokenIds",
      "outputs": [
        {
          "internalType": "uint256[]",
          "name": "",
          "type": "uint256[]"
        }
      ],
      "stateMutability": "view",
      "type": "function"
    },
    {
      "inputs": [
        {
          "internalType": "bytes32",
          "name": "role",
          "type": "bytes32"
        },
        {
          "internalType": "address",
          "name": "account",
          "type": "address"
        }
      ],
      "name": "grantRole",
      "outputs": [],
      "stateMutability": "nonpayable",
      "type": "function"
    },
    {
      "inputs": [
        {
          "internalType": "bytes32",
          "name": "role",
          "type": "bytes32"
        },
        {
          "internalType": "address",
          "name": "account",
          "type": "address"
        }
      ],
      "name": "hasRole",
      "outputs": [
        {
          "internalType": "bool",
          "name": "",
          "type": "bool"
        }
      ],
      "stateMutability": "view",
      "type": "function"
    },
    {
      "inputs": [
        {
          "internalType": "address",
          "name": "_address",
          "type": "address"
        }
      ],
      "name": "isAdmin",
      "outputs": [
        {
          "internalType": "bool",
          "name": "",
          "type": "bool"
        }
      ],
      "stateMutability": "view",
      "type": "function"
    },
    {
      "inputs": [
        {
          "internalType": "address",
          "name": "account",
          "type": "address"
        },
        {
          "internalType": "address",
          "name": "operator",
          "type": "address"
        }
      ],
      "name": "isApprovedForAll",
      "outputs": [
        {
          "internalType": "bool",
          "name": "",
          "type": "bool"
        }
      ],
      "stateMutability": "view",
      "type": "function"
    },
    {
      "inputs": [
        {
          "internalType": "uint256",
          "name": "tokenId",
          "type": "uint256"
        },
        {
          "internalType": "address[]",
          "name": "toAddresses",
          "type": "address[]"
        }
      ],
      "name": "mintExistingBusinessCardNFT",
      "outputs": [],
      "stateMutability": "nonpayable",
      "type": "function"
    },
    {
      "inputs": [
        {
          "internalType": "address",
          "name": "to",
          "type": "address"
        },
        {
          "internalType": "uint256",
          "name": "tokenId",
          "type": "uint256"
        },
        {
          "internalType": "string",
          "name": "employeeName",
          "type": "string"
        },
        {
          "internalType": "string",
          "name": "departmentName",
          "type": "string"
        },
        {
          "internalType": "string",
          "name": "message",
          "type": "string"
        }
      ],
      "name": "mintNewBusinessCardNFT",
      "outputs": [],
      "stateMutability": "nonpayable",
      "type": "function"
    },
    {
      "inputs": [
        {
          "internalType": "address",
          "name": "admin",
          "type": "address"
        }
      ],
      "name": "removeAdmin",
      "outputs": [],
      "stateMutability": "nonpayable",
      "type": "function"
    },
    {
      "inputs": [
        {
          "internalType": "address",
          "name": "admin",
          "type": "address"
        }
      ],
      "name": "removeAdminFromList",
      "outputs": [],
      "stateMutability": "nonpayable",
      "type": "function"
    },
    {
      "inputs": [
        {
          "internalType": "bytes32",
          "name": "role",
          "type": "bytes32"
        },
        {
          "internalType": "address",
          "name": "callerConfirmation",
          "type": "address"
        }
      ],
      "name": "renounceRole",
      "outputs": [],
      "stateMutability": "nonpayable",
      "type": "function"
    },
    {
      "inputs": [
        {
          "internalType": "bytes32",
          "name": "role",
          "type": "bytes32"
        },
        {
          "internalType": "address",
          "name": "account",
          "type": "address"
        }
      ],
      "name": "revokeRole",
      "outputs": [],
      "stateMutability": "nonpayable",
      "type": "function"
    },
    {
      "inputs": [
        {
          "internalType": "address",
          "name": "from",
          "type": "address"
        },
        {
          "internalType": "address",
          "name": "to",
          "type": "address"
        },
        {
          "internalType": "uint256[]",
          "name": "ids",
          "type": "uint256[]"
        },
        {
          "internalType": "uint256[]",
          "name": "values",
          "type": "uint256[]"
        },
        {
          "internalType": "bytes",
          "name": "data",
          "type": "bytes"
        }
      ],
      "name": "safeBatchTransferFrom",
      "outputs": [],
      "stateMutability": "nonpayable",
      "type": "function"
    },
    {
      "inputs": [
        {
          "internalType": "address",
          "name": "from",
          "type": "address"
        },
        {
          "internalType": "address",
          "name": "to",
          "type": "address"
        },
        {
          "internalType": "uint256",
          "name": "id",
          "type": "uint256"
        },
        {
          "internalType": "uint256",
          "name": "value",
          "type": "uint256"
        },
        {
          "internalType": "bytes",
          "name": "data",
          "type": "bytes"
        }
      ],
      "name": "safeTransferFrom",
      "outputs": [],
      "stateMutability": "nonpayable",
      "type": "function"
    },
    {
      "inputs": [
        {
          "internalType": "address",
          "name": "operator",
          "type": "address"
        },
        {
          "internalType": "bool",
          "name": "approved",
          "type": "bool"
        }
      ],
      "name": "setApprovalForAll",
      "outputs": [],
      "stateMutability": "nonpayable",
      "type": "function"
    },
    {
      "inputs": [
        {
          "internalType": "bytes4",
          "name": "interfaceId",
          "type": "bytes4"
        }
      ],
      "name": "supportsInterface",
      "outputs": [
        {
          "internalType": "bool",
          "name": "",
          "type": "bool"
        }
      ],
      "stateMutability": "view",
      "type": "function"
    },
    {
      "inputs": [
        {
          "internalType": "uint256",
          "name": "tokenId",
          "type": "uint256"
        },
        {
          "internalType": "string",
          "name": "newEmployeeName",
          "type": "string"
        },
        {
          "internalType": "string",
          "name": "newDepartmentName",
          "type": "string"
        },
        {
          "internalType": "string",
          "name": "newMessage",
          "type": "string"
        }
      ],
      "name": "updateEmployeeInfo",
      "outputs": [],
      "stateMutability": "nonpayable",
      "type": "function"
    },
    {
      "inputs": [
        {
          "internalType": "uint256",
          "name": "tokenId",
          "type": "uint256"
        }
      ],
      "name": "uri",
      "outputs": [
        {
          "internalType": "string",
          "name": "",
          "type": "string"
        }
      ],
      "stateMutability": "view",
      "type": "function"
    }
  ],
  "bytecode": "0x6080346200015d576001600160401b0390601f62003d6338819003918201601f19168301918483118484101762000147578084926020946040528339810103126200015d57516001600160a01b03811691908290036200015d57604051906020820190811182821017620001475760405260008091526002546001908181811c911680156200013c575b60208210146200012857601f8111620000de575b50508060025560065560018060a01b03196004541617600455620000c13362000162565b50620000cd33620001e3565b50604051613abc9081620002878239f35b60028352601f0160051c7f405787fa12a823e0f2b7631cc41b3ba8828b3321ca811111fa75cd3aa3bb5ace908101905b8181106200011d57506200009d565b83815582016200010e565b634e487b7160e01b83526022600452602483fd5b90607f169062000089565b634e487b7160e01b600052604160045260246000fd5b600080fd5b6001600160a01b031660008181527f3617319a054d772f909f7c479a2cebe5066e836a939412e32403c99029b92eff602052604081205490919060ff16620001df5781805260036020526040822081835260205260408220600160ff19825416179055339160008051602062003d438339815191528180a4600190565b5090565b6001600160a01b031660008181527fa665d3385c074a5fa4bcec2a570c94dbdb08d6b09bca4e08f8c3951c94a3d99860205260408120549091907fa49807205ce4d355092ef5a8a18f56e8913cf4a201fbe287825b095693c217759060ff16620002815780835260036020526040832082845260205260408320600160ff1982541617905560008051602062003d43833981519152339380a4600190565b50509056fe6080604052600436101561001257600080fd5b60003560e01c8062fdd58e146101c657806301ffc9a7146101c15780630e89341c146101bc5780631222ed27146101b75780631785f53c146101b25780631d02aa27146101ad578063248a9ca3146101a857806324d7806c146101a35780632eb2c2d61461019e5780632f2ff15d1461019957806331ae450b1461019457806336568abe1461018f5780634e1273f41461018a57806354c103651461018557806356e496aa14610180578063704802751461017b57806375b238fc1461017657806391d1485414610171578063a217fddf1461016c578063a22cb46514610167578063ac6ebb3414610162578063bd45f0f51461015d578063c66587c414610158578063d004b03614610153578063d547741f1461014e578063e985e9c5146101495763f242432a1461014457600080fd5b61161c565b6115c0565b61157e565b611480565b6113e2565b61137f565b611272565b6111b2565b611196565b61114c565b611123565b61108f565b610e85565b610d91565b610ca6565b610bae565b610ae4565b610aa2565b610977565b6108a0565b610871565b61068a565b610619565b610595565b610328565b610244565b6101e1565b6001600160a01b038116036101dc57565b600080fd5b346101dc5760403660031901126101dc576020610229600435610203816101cb565b6024356000526000835260406000209060018060a01b0316600052602052604060002090565b54604051908152f35b6001600160e01b03198116036101dc57565b346101dc5760203660031901126101dc57602060043561026381610232565b63ffffffff60e01b16637965db0b60e01b8114908115610289575b506040519015158152f35b636cdb3d1360e11b8114915081156102bb575b81156102aa575b503861027e565b6301ffc9a760e01b149050386102a3565b6303a24d0760e21b8114915061029c565b60005b8381106102df5750506000910152565b81810151838201526020016102cf565b90602091610308815180928185528580860191016102cc565b601f01601f1916010190565b9060206103259281815201906102ef565b90565b346101dc5760203660031901126101dc576104c96104b36004358060005260076020526104bf6103f361047f6040936104666104586103b587600020885194610370866104e3565b6103798261265f565b86526103a961039d600261038f6001860161265f565b9460208a019586520161265f565b918b88019283526128dd565b95519151905191612a9f565b6103ed6104236104018a519889976103ed60208a01601690751ec89b985b59488e880891d7d0dbdb5c185b9e53919560521b81520190565b90612740565b61088b60f21b815260020190565b750899195cd8dc9a5c1d1a5bdb888e880895195cdd088b60521b815260160190565b7f22696d616765223a22646174613a696d6167652f7376672b786d6c3b626173658152620d8d0b60ea1b602082015260230190565b61227d60f01b815260020190565b039161047a601f1993848101835282610503565b6127f6565b83517f646174613a6170706c69636174696f6e2f6a736f6e3b6261736536342c0000006020820152948591603d83016103ed565b03908101845283610503565b5191829182610314565b0390f35b634e487b7160e01b600052604160045260246000fd5b606081019081106001600160401b038211176104fe57604052565b6104cd565b90601f801991011681019081106001600160401b038211176104fe57604052565b60405190610531826104e3565b565b6001600160401b0381116104fe57601f01601f191660200190565b81601f820112156101dc5780359061056582610533565b926105736040519485610503565b828452602083830101116101dc57816000926020809301838601378301015290565b346101dc5760603660031901126101dc576001600160401b036004358181116101dc576105c690369060040161054e565b906024358181116101dc576105df90369060040161054e565b916044359182116101dc576104c9926105ff61060593369060040161054e565b91612a9f565b6040519182916020835260208301906102ef565b346101dc5760203660031901126101dc57610688600435610639816101cb565b610641611741565b600080516020613a6783398151915260005260036020527fa665d3385c074a5fa4bcec2a570c94dbdb08d6b09bca4e08f8c3951c94a3d9995461068390611803565b611909565b005b346101dc5760a03660031901126101dc5760048035906106a9826101cb565b602435906001600160401b03906044358281116101dc576106cd903690830161054e565b906064358381116101dc576106e5903690830161054e565b6084359384116101dc57602085610702610748963690860161054e565b9361070b611799565b8054610727906001600160a01b03165b6001600160a01b031690565b6040516331a9108f60e11b8152918201928352909687928391829160200190565b03915afa801561086c576106889661077d6107c5926107f39760009161083e575b506001600160a01b0383811691161461210c565b6107b66107af826107988a6000526000602052604060002090565b9060018060a01b0316600052602052604060002090565b541561214c565b866107bf611d5a565b916123e7565b6107cd610524565b928352602083015260408201526107ee836000526007602052604060002090565b6122e5565b61082a3361080b836000526009602052604060002090565b80546001600160a01b0319166001600160a01b03909216919091179055565b33600090815260086020526040902061255a565b61085f915060203d8111610865575b6108578183610503565b8101906120f7565b38610769565b503d61084d565b611d4e565b346101dc5760203660031901126101dc5760043560005260036020526020600160406000200154604051908152f35b346101dc5760203660031901126101dc57602060ff6108f66004356108c4816101cb565b600080516020613a678339815191526000526003845260406000209060018060a01b0316600052602052604060002090565b54166040519015158152f35b6001600160401b0381116104fe5760051b60200190565b81601f820112156101dc5780359161093083610902565b9261093e6040519485610503565b808452602092838086019260051b8201019283116101dc578301905b828210610968575050505090565b8135815290830190830161095a565b346101dc5760a03660031901126101dc5760048035610995816101cb565b6024356109a1816101cb565b6001600160401b03906044358281116101dc576109c19036908601610919565b906064358381116101dc576109d99036908701610919565b926084359081116101dc576109f1903690870161054e565b936001600160a01b03808216903382141580610a7e575b610a5157831615610a395715610a22576106889550611a6c565b604051626a0d4560e21b8152600081880152602490fd5b604051632bfa23e760e11b8152600081890152602490fd5b6040805163711bec9160e11b815233818b019081526001600160a01b038616602082015290918291010390fd5b50600082815260016020908152604080832033845290915290205460ff1615610a08565b346101dc5760403660031901126101dc57610688602435600435610ac5826101cb565b806000526003602052610adf600160406000200154611803565b6118dd565b346101dc57600080600319360112610bab5760405180916005549081835260208093018092600583527f036b6384b5eca791c62761152d0c79bb0604c104a5fb6f4eb0703f3154bb3db090835b818110610b8e5750505084610b47910385610503565b60405193838594850191818652518092526040850193925b828110610b6e57505050500390f35b83516001600160a01b031685528695509381019392810192600101610b5f565b82546001600160a01b031684529286019260019283019201610b31565b80fd5b346101dc5760403660031901126101dc57602435610bcb816101cb565b336001600160a01b03821603610be757610688906004356119ba565b60405163334bd91960e11b8152600490fd5b81601f820112156101dc57803591610c1083610902565b92610c1e6040519485610503565b808452602092838086019260051b8201019283116101dc578301905b828210610c48575050505090565b8380918335610c56816101cb565b815201910190610c3a565b90815180825260208080930193019160005b828110610c81575050505090565b835185529381019392810192600101610c73565b906020610325928181520190610c61565b346101dc576040806003193601126101dc576001600160401b036004358181116101dc57610cd8903690600401610bf9565b906024359081116101dc57610cf1903690600401610919565b81518151808203610d70575050610d0882516119e6565b906000805b8451811015610d635780610d4d610d5e9260051b8460208080848c01015193890101518252528885209060018060a01b0316600052602052604060002090565b54610d588287611a58565b52611a2e565b610d0d565b8551806104c98682610c95565b8451635b05999160e01b815260048101919091526024810191909152604490fd5b346101dc5760203660031901126101dc57600435610dae816101cb565b600580546000926001600160a01b0390811690845b838110610dce578580f35b8454811015610e80578486528282827f036b6384b5eca791c62761152d0c79bb0604c104a5fb6f4eb0703f3154bb3db001541614610e1457610e0f90611a2e565b610dc3565b92610e6f9450610e509250610e4a9150610e30610e3591612079565b61202a565b905460039190911b1c6001600160a01b031690565b9161202a565b90919082549060031b9160018060a01b03809116831b921b1916179055565b610e77612088565b38808080808580f35b611a42565b346101dc5760803660031901126101dc576001600160401b036004356024358281116101dc57610eb990369060040161054e565b906044358381116101dc57610ed290369060040161054e565b906064359384116101dc5761107a6103f3611039610f9761106e9661108a96610f026106889a369060040161054e565b91610f0b611799565b610f2e610f26336107988b6000526000602052604060002090565b541515612a20565b610f643360018060a01b03610f5d610f508c6000526009602052604060002090565b546001600160a01b031690565b1614612a61565b610f92610f6f610524565b8281528360208201528460408201526107ee8a6000526007602052604060002090565b612a9f565b610466610458610fa6876128dd565b926103ed611002610fe06040519889976103ed60208a01601690751ec89b985b59488e880891d7d0dbdb5c185b9e53919560521b81520190565b75088b0899195cd8dc9a5c1d1a5bdb888e880895195cdd60521b815260160190565b7f222c22696d616765223a22646174613a696d6167652f7376672b786d6c3b62618152641cd94d8d0b60da1b602082015260250190565b6040517f646174613a6170706c69636174696f6e2f6a736f6e3b6261736536342c0000006020820152958691603d83016103ed565b03908101855284610503565b600052600a602052604060002090565b612217565b346101dc5760203660031901126101dc576004356110ac816101cb565b6110b4611741565b600080516020613a6783398151915260005260036020527fa665d3385c074a5fa4bcec2a570c94dbdb08d6b09bca4e08f8c3951c94a3d999546110f690611803565b6110ff81611824565b5060055490600160401b8210156104fe57610e50826001610688940160055561202a565b346101dc5760003660031901126101dc576020604051600080516020613a678339815191528152f35b346101dc5760403660031901126101dc57602060ff6108f6602435611170816101cb565b6004356000526003845260406000209060018060a01b0316600052602052604060002090565b346101dc5760003660031901126101dc57602060405160008152f35b346101dc5760403660031901126101dc576004356111cf816101cb565b60243590811515908183036101dc576001600160a01b03811692831561125a5761121b61122c9233600052600160205260406000209060018060a01b0316600052602052604060002090565b9060ff801983541691151516179055565b6040519081527f17307eab39ab6107e8899845ad3d59bd9653f200f220920489ca2b5937696c3160203392a3005b60405162ced3e160e81b815260006004820152602490fd5b346101dc5760403660031901126101dc576004356024356001600160401b0381116101dc576112a5903690600401610bf9565b6112c86112c033610798856000526000602052604060002090565b5415156125c3565b6004546112dd906001600160a01b031661071b565b6040516331a9108f60e11b81526004810184905290602090829060249082905afa801561086c5761132191600091611361575b506001600160a01b03163314612607565b60005b8151811015610688578061135761134e61134161135c9486611a58565b516001600160a01b031690565b856107bf611d5a565b611a2e565b611324565b611379915060203d8111610865576108578183610503565b38611310565b346101dc5760203660031901126101dc57600435600052600a6020526104c9610605604060002061265f565b916113d4906113c661032595936060865260608601906102ef565b9084820360208601526102ef565b9160408184039101526102ef565b346101dc5760203660031901126101dc5760043580600052600760205261140d604060002054612189565b156114425760005260076020526114276040600020612703565b80516104c960406020840151930151604051938493846113ab565b60405162461bcd60e51b8152602060048201526016602482015275151bdad95b9259081a5cc81b9bdd08195e1a5cdd195960521b6044820152606490fd5b346101dc5760203660031901126101dc5760043561149d816101cb565b6001600160a01b038181166000818152600860205260409020549092916114c3826119e6565b93600093845b8481106115125786866114db816119e6565b9160005b8281106114f457604051806104c98682610c95565b8061150261150d9284611a58565b51610d588287611a58565b6114df565b6001600160a01b0382166000908152600860205260409020611535908290613a52565b838561154e610f50846000526009602052604060002090565b1614611564575b5061155f90611a2e565b6114c9565b8661157791610d5861155f94998b611a58565b9590611555565b346101dc5760403660031901126101dc576106886024356004356115a1826101cb565b8060005260036020526115bb600160406000200154611803565b6119ba565b346101dc5760403660031901126101dc57602060ff6108f66004356115e4816101cb565b602435906115f1826101cb565b60018060a01b03166000526001845260406000209060018060a01b0316600052602052604060002090565b346101dc5760a03660031901126101dc57600435611639816101cb565b602435611645816101cb565b6084356001600160401b0381116101dc5761166490369060040161054e565b906001600160a01b0383811690338214158061171d575b6116f6578216156116dd57156116c557610688926116bd6064356044359160405192600184526020840152604083019160018352606084015260808301604052565b929091611a6c565b604051626a0d4560e21b815260006004820152602490fd5b604051632bfa23e760e11b815260006004820152602490fd5b60405163711bec9160e11b81523360048201526001600160a01b0386166024820152604490fd5b50600082815260016020908152604080832033845290915290205460ff161561167b565b3360009081527f3617319a054d772f909f7c479a2cebe5066e836a939412e32403c99029b92eff602052604090205460ff161561177a57565b60405163e2517d3f60e01b815233600482015260006024820152604490fd5b3360009081527fa665d3385c074a5fa4bcec2a570c94dbdb08d6b09bca4e08f8c3951c94a3d99860205260409020600080516020613a678339815191529060ff905b5416156117e55750565b6044906040519063e2517d3f60e01b82523360048301526024820152fd5b6000818152600360209081526040808320338452909152902060ff906117db565b6001600160a01b03811660009081527fa665d3385c074a5fa4bcec2a570c94dbdb08d6b09bca4e08f8c3951c94a3d99860205260408120600080516020613a678339815191529060ff905b54166118d7578082526003602090815260408084206001600160a01b038616600090815292529020805460ff1916600117905533926001600160a01b0316917f2f8788117e7eff1d82e926ec794901d17c78024a50270940304540a733656f0d9080a4600190565b50905090565b600090808252600360205260ff61186f84604085209060018060a01b0316600052602052604060002090565b6001600160a01b03811660009081527fa665d3385c074a5fa4bcec2a570c94dbdb08d6b09bca4e08f8c3951c94a3d99860205260408120600080516020613a678339815191529060ff905b5416156118d7578082526003602090815260408084206001600160a01b038616600090815292529020805460ff1916905533926001600160a01b0316917ff6391f5c32d9c69d2a47ea670b442974b53935d1edc7fd64eb21e047a839171b9080a4600190565b600090808252600360205260ff61195484604085209060018060a01b0316600052602052604060002090565b906119f082610902565b6119fd6040519182610503565b8281528092611a0e601f1991610902565b0190602036910137565b634e487b7160e01b600052601160045260246000fd5b6000198114611a3d5760010190565b611a18565b634e487b7160e01b600052603260045260246000fd5b8051821015610e805760209160051b010190565b949190918151845190818103611c7357505060005b8251811015611b7d57600581901b83810160209081015191870101516001600160a01b03929186908a8516611af6575b611ac4948216611ac9575b505050611a2e565b611a81565b611aec91610798611ae4926000526000602052604060002090565b918254611ca3565b9055388581611abc565b9192939050611b138a610798846000526000602052604060002090565b54838110611b465791879184611ac496959403611b3e8d610798856000526000602052604060002090565b559450611ab1565b6040516303dee4c560e01b81526001600160a01b038c16600482015260248101919091526044810184905260648101839052608490fd5b509491939290936001855114600014611c28576020858101518382015160408051928352928201526001600160a01b03838116929086169133917fc3d58168c5ae7397731d063d5bbf3d657854427343f4c083240f7aacaa2d0f6291a45b6001600160a01b038116611bf1575b5050505050565b8451600103611c1757602080611c0d9601519201519233611ea7565b3880808080611bea565b611c2394919233611ff3565b611c0d565b6040516001600160a01b03828116919085169033907f4a39dc06d4c0dbc64b70af90fd698a233a518aa5d07e595d983b8c0526c8f7fb9080611c6b888c83611cb0565b0390a4611bdb565b604051635b05999160e01b815260048101919091526024810191909152604490fd5b9060028201809211611a3d57565b91908201809211611a3d57565b9091611cc761032593604084526040840190610c61565b916020818403910152610c61565b908160209103126101dc575161032581610232565b909260a0926103259594600180861b03168352600060208401526040830152606082015281608082015201906102ef565b919261032595949160a094600180871b0380921685521660208401526040830152606082015281608082015201906102ef565b6040513d6000823e3d90fd5b60405190602082018281106001600160401b038211176104fe5760405260008252565b3d15611da8573d90611d8e82610533565b91611d9c6040519384610503565b82523d6000602084013e565b606090565b9293919093843b611dbf575050505050565b602091611de2604051948593849363f23a6e6160e01b9889865260048601611cea565b038160006001600160a01b0388165af160009181611e77575b50611e3a5782611e09611d7d565b8051919082611e3357604051632bfa23e760e11b81526001600160a01b0383166004820152602490fd5b9050602001fd5b6001600160e01b03191603611e5457503880808080611bea565b604051632bfa23e760e11b81526001600160a01b03919091166004820152602490fd5b611e9991925060203d8111611ea0575b611e918183610503565b810190611cd5565b9038611dfb565b503d611e87565b939290949194853b611ebc575b505050505050565b611edf602093604051958694859463f23a6e6160e01b998a875260048701611d1b565b038160006001600160a01b0388165af160009181611f21575b50611f065782611e09611d7d565b6001600160e01b03191603611e545750388080808080611eb4565b611f3a91925060203d8111611ea057611e918183610503565b9038611ef8565b92611f706103259593611f7e9360018060a01b031686526000602087015260a0604087015260a0860190610c61565b908482036060860152610c61565b9160808184039101526102ef565b93906103259593611f7091611f7e9460018060a01b03809216885216602087015260a0604087015260a0860190610c61565b9293919093843b611fd0575050505050565b602091611de2604051948593849363bc197c8160e01b9889865260048601611f41565b939290949194853b61200757505050505050565b611edf602093604051958694859463bc197c8160e01b998a875260048701611f8c565b600554811015610e805760056000527f036b6384b5eca791c62761152d0c79bb0604c104a5fb6f4eb0703f3154bb3db00190600090565b8054821015610e805760005260206000200190600090565b600019810191908211611a3d57565b60055480156120e15760001981019080821015610e80577f036b6384b5eca791c62761152d0c79bb0604c104a5fb6f4eb0703f3154bb3daf906005600052016bffffffffffffffffffffffff60a01b8154169055600555565b634e487b7160e01b600052603160045260246000fd5b908160209103126101dc5751610325816101cb565b1561211357565b60405162461bcd60e51b8152602060048201526011602482015270139bc8195b5c1b1bde5959525908139195607a1b6044820152606490fd5b1561215357565b60405162461bcd60e51b815260206004820152600e60248201526d105b1c9958591e481b5a5b9d195960921b6044820152606490fd5b90600182811c921680156121b9575b60208310146121a357565b634e487b7160e01b600052602260045260246000fd5b91607f1691612198565b90601f81116121d157505050565b600091825260208220906020601f850160051c8301941061220d575b601f0160051c01915b82811061220257505050565b8181556001016121f6565b90925082906121ed565b91909182516001600160401b0381116104fe5761223e816122388454612189565b846121c3565b602080601f831160011461227a57508192939460009261226f575b50508160011b916000199060031b1c1916179055565b015190503880612259565b90601f1983169561229085600052602060002090565b926000905b8882106122cd575050836001959697106122b4575b505050811b019055565b015160001960f88460031b161c191690553880806122aa565b80600185968294968601518155019501930190612295565b91909182519283516001600160401b0381116104fe5761230f816123098554612189565b856121c3565b6020948590601f831160011461236d576105319596836040946002969461235994600092612362575b50508160011b916000199060031b1c19161786555b82015160018601612217565b01519101612217565b015190503880612338565b90601f1983169161238386600052602060002090565b9260005b8181106123d057508460029694612359946105319a9b94604098600195106123b7575b505050811b01865561234d565b015160001960f88460031b161c191690553880806123aa565b929389600181928786015181550195019301612387565b9091906001600160a01b03811680156116dd5760405190600191828152602092838201968752604082019281845260608084019583875260808501806040528551875180820361253e575050508390816000905b6124f6575b50508451141590506124ba57600088517fc3d58168c5ae7397731d063d5bbf3d657854427343f4c083240f7aacaa2d0f62612491885160405191829133958360209093929193604081019481520152565b0390a45b8151036124ac575050610531935190519133611dad565b915091610531945033611fbe565b60006040517f4a39dc06d4c0dbc64b70af90fd698a233a518aa5d07e595d983b8c0526c8f7fb3391806124ee898983611cb0565b0390a4612495565b865181101561253957806125339160051b880161252c611ae48d6107988988860151950151946000526000602052604060002090565b9055611a2e565b8261243b565b612440565b635b05999160e01b8352608488019190915260a4870152604490fd5b60018101908260005281602052604060002054156000146125bb578054600160401b8110156104fe578060016125939201835582612061565b81549060031b9085821b91600019901b19161790555491600052602052604060002055600190565b505050600090565b156125ca57565b60405162461bcd60e51b8152602060048201526015602482015274139bdd08189d5cda5b995cdcc818d85c9908139195605a1b6044820152606490fd5b1561260e57565b60405162461bcd60e51b815260206004820152602360248201527f4e6f74206f776e6572206f66206d696e74656420656d706c6f7965652049442060448201526213919560ea1b6064820152608490fd5b906040519182600082549261267384612189565b9081845260019485811690816000146126e0575060011461269d575b505061053192500383610503565b9093915060005260209081600020936000915b8183106126c85750506105319350820101388061268f565b855488840185015294850194879450918301916126b0565b91505061053194506020925060ff191682840152151560051b820101388061268f565b90604051612710816104e3565b604061273b600283956127228161265f565b85526127306001820161265f565b60208601520161265f565b910152565b90612753602092828151948592016102cc565b0190565b60405190612764826104e3565b604082527f6768696a6b6c6d6e6f707172737475767778797a303132333435363738392b2f6040837f4142434445464748494a4b4c4d4e4f505152535455565758595a61626364656660208201520152565b600281901b91906001600160fe1b03811603611a3d57565b906127d882610533565b6127e56040519182610503565b8281528092611a0e601f1991610533565b8051156128d457612805612757565b61282961282461281f6128188551611c95565b6003900490565b6127b6565b6127ce565b91602083019181825183016020810191825193600084525b828210612882575050505251600390066001811461286f57600214612864575090565b603d90600019015390565b50603d9081600019820153600119015390565b9091956004906003809401938451600190603f9082828260121c16880101518553828282600c1c16880101518386015382828260061c1688010151600286015316850101519082015301959190612841565b50610325611d5a565b806000917a184f03e93ff9f4daa797ed6e38ed64bf6a1f01000000000000000080821015612a12575b506d04ee2d6d415b85acef810000000080831015612a03575b50662386f26fc10000808310156129f4575b506305f5e100808310156129e5575b50612710808310156129d6575b5060648210156129c6575b600a809210156129bc575b6001908160216129748287016127ce565b95860101905b612986575b5050505090565b600019019083906f181899199a1a9b1b9c1cb0b131b232b360811b8282061a8353049182156129b75791908261297a565b61297f565b9160010191612963565b9190606460029104910191612958565b6004919392049101913861294d565b60089193920491019138612940565b60109193920491019138612931565b6020919392049101913861291f565b604093508104915038612906565b15612a2757565b60405162461bcd60e51b81526020600482015260126024820152714e6f2065786973747320746f6b656e49647360701b6044820152606490fd5b15612a6857565b60405162461bcd60e51b815260206004820152600f60248201526e2737ba103a37b5b2b71037bbb732b960891b6044820152606490fd5b604080517f3c7376672077696474683d2237303022206865696768743d223730302220786d60208201527f6c6e733d22687474703a2f2f7777772e77332e6f72672f323030302f73766722918101919091527f207374796c653d226261636b67726f756e642d636f6c6f723a20233137323835606082015263199d911f60e11b60808201527f3c7469746c653e456d706c6f7965654e46545f496d6167653c2f7469746c653e6084820152928392909160a484017f3c74657874207472616e73666f726d3d226d617472697828312e31313137342081527f30203020312e3337393635202d32312e31383431202d32382e3334363429222060208201527f7374726f6b653d2223394143454536222066696c6c3d2223666666666666222060408201527f7374726f6b652d77696474683d22302220783d223234322e353937393322207960608201527f3d2237342e3832303631222069643d227376675f332220666f6e742d73697a6560808201527f3d2232342220666f6e742d66616d696c793d22274172696d6f2722207465787460a08201527f2d616e63686f723d2273746172742220786d6c3a73706163653d22707265736560c08201527f7276652220666f6e742d7765696768743d22626f6c64223e4720436f6d70616e60e08201526b3c9027232a1e17ba32bc3a1f60a11b61010082015261010c017f3c72656374207374726f6b653d2223394143454536222069643d227376675f3481527f22206865696768743d223139222077696474683d223131352220793d2233382260208201527f20783d2238312e303030323622207374726f6b652d77696474683d223022206660408201526e34b6361e9111b3333333333311179f60891b6060820152606f017f3c72656374207374726f6b653d2223394143454536222069643d227376675f3681527f22206865696768743d223139222077696474683d223131352220793d2236372260208201527f20783d2238312e303030323622207374726f6b652d77696474683d223022206660408201526e34b6361e9111b3333333333311179f60891b6060820152606f017f3c72656374207374726f6b653d2223394143454536222069643d227376675f3481527f22206865696768743d223139222077696474683d223131352220793d2233382260208201527f20783d223532362e3137373622207374726f6b652d77696474683d223022206660408201526e34b6361e9111b3333333333311179f60891b6060820152606f017f3c72656374207374726f6b653d2223394143454536222069643d227376675f3681527f22206865696768743d223139222077696474683d223131352220793d2236372260208201527f20783d223532362e3137373622207374726f6b652d77696474683d223022206660408201526e34b6361e9111b3333333333311179f60891b6060820152606f017f3c70617468207374726f6b653d2223394143454536222069643d227376675f3181527f362220643d226d3237312e39383931342c3138312e35343136336c33342e393260208201527f3835382c2d36332e39393939396c39332e31343238362c306c33342e3932383560408201527f362c36332e39393939396c2d33342e39323835362c36332e39393939396c2d3960608201527f332e31343238362c306c2d33342e39323835382c2d36332e39393939397a222060808201527f7374726f6b652d77696474683d2230222066696c6c3d2223306465383737222f60a0820152601f60f91b60c082015260c1017f3c74657874207472616e73666f726d3d226d617472697828312e39363830352081527f30203020312e3635363133202d3233322e393431202d3133342e33323629222060208201527f7374726f6b653d22233941434545362220786d6c3a73706163653d227072657360408201527f657276652220746578742d616e63686f723d2273746172742220666f6e742d6660608201527f616d696c793d22274172696d6f272220666f6e742d73697a653d22323422206960808201527f643d227376675f31392220793d223139372e35373931322220783d223238372e60a08201527f3931363122207374726f6b652d77696474683d2230222066696c6c3d2223303060c08201526d18181818111f239e17ba32bc3a1f60911b60e082015260ee017f3c7465787420786d6c3a73706163653d2270726573657276652220746578742d81527f616e63686f723d2273746172742220666f6e742d66616d696c793d222741726960208201527f6d6f272220666f6e742d73697a653d223234222069643d227376675f3232222060408201527f793d223238382e30353837342220783d223239312e383234313722207374726f60608201527f6b652d77696474683d223022207374726f6b653d22233941434545362220666960808201527f6c6c3d2223666666666666223e596f7572204e616d653c2f746578743e00000060a082015260bd017f3c72656374207374726f6b653d2223303030303030222069643d227376675f3281527f3322206865696768743d223332222077696474683d223234382220793d22333060208201527f372e37363436352220783d223233322e303030363522207374726f6b652d776960408201527f6474683d2232222066696c6c3d2223666666666666222f3e000000000000000060608201526078017f3c7465787420786d6c3a73706163653d2270726573657276652220746578742d81527f616e63686f723d2273746172742220666f6e742d66616d696c793d222741726960208201527f6d6f272220666f6e742d73697a653d223234222069643d227376675f3234222060408201527f793d223430312e35383831372220783d223135332e333533343822207374726f60608201527f6b652d77696474683d223022207374726f6b653d22233030303030302220666960808201526c36361e9111b33333333333111f60991b60a082015260ad01635465616d60e01b8152600401661e17ba32bc3a1f60c91b81526007017f3c726563742066696c6c3d222366666666666622207374726f6b652d7769647481527f683d22322220783d223235362e37303636392220793d223337332e363437343360208201527f222077696474683d2232343822206865696768743d223332222069643d22737660408201527f675f3522207374726f6b653d2223303030303030222f3e00000000000000000060608201526077017f3c74657874207374796c653d22637572736f723a206d6f76653b22207374726f81527f6b653d22233030303030302220786d6c3a73706163653d22707265736572766560208201527f2220746578742d616e63686f723d2273746172742220666f6e742d66616d696c60408201527f793d22274172696d6f272220666f6e742d73697a653d223234222069643d227360608201527f76675f33302220793d223435352e37303539312220783d223132362e3634373460808201527f3322207374726f6b652d77696474683d2230222066696c6c3d2223666666666660a08201526233111f60e91b60c082015260c301664d65737361676560c81b8152600701661e17ba32bc3a1f60c91b81526007017f3c72656374207374726f6b653d2223303030303030222066696c6c3d2223666681527f6666666622207374726f6b652d77696474683d22322220783d223235362e373060208201527f3636392220793d223433312e3239343837222077696474683d2232343822206860408201527f65696768743d2233342e3335323935222069643d227376675f37222f3e0000006060820152607d017f3c74657874207374796c653d22637572736f723a206d6f76653b2220786d6c3a81527f73706163653d2270726573657276652220746578742d616e63686f723d22737460208201527f6172742220666f6e742d66616d696c793d22274172696d6f272220666f6e742d60408201527f73697a653d223234222069643d227376675f33322220793d223538322e30353960608201527f2220783d223237342e333533343722207374726f6b652d77696474683d22302260808201527f207374726f6b653d2223303030303030222066696c6c3d22236666666666662260a08201526d1f3c3c3c3c3c3c1e17ba32bc3a1f60911b60c082015260ce017f203c7465787420786d6c3a73706163653d22707265736572766522207465787481527f2d616e63686f723d2273746172742220666f6e742d66616d696c793d2227417260208201527f696d6f272220666f6e742d73697a653d223234222069643d227376675f33332260408201527f20793d223632342e363437332220783d223235372e313138313322207374726f60608201527f6b652d77696474683d223022207374726f6b653d22233030303030302220666960808201527f6c6c3d2223666666666666223e7878782d787878782d7878783c2f746578743e60a08201527f3c746578742066696c6c3d222330303030303022207374726f6b653d2223666660c08201527f6666666622207374726f6b652d77696474683d22302220783d223332342e373660e08201527f3535352220793d223333332e3934313339222069643d227376675f31342220666101008201527f6f6e742d73697a653d2232342220666f6e742d66616d696c793d22274172696d6101208201527f6f272220746578742d616e63686f723d2273746172742220786d6c3a737061636101408201526c329e91383932b9b2b93b32911f60991b61016082015261016d0161383f91612740565b661e17ba32bc3a1f60c91b81526007017f3c746578742066696c6c3d222330303030303022207374726f6b653d2223666681527f6666666622207374726f6b652d77696474683d22302220783d223237342e313760208201527f3639392220793d223339382e3634373639222069643d227376675f313522206660408201527f6f6e742d73697a653d2232342220666f6e742d66616d696c793d22274172696d60608201527f6f272220746578742d616e63686f723d2273746172742220786d6c3a7370616360808201526c329e91383932b9b2b93b32911f60991b60a082015260ad0161392c91612740565b661e17ba32bc3a1f60c91b81526007017f3c746578742066696c6c3d222330303030303022207374726f6b653d2223666681527f6666666622207374726f6b652d77696474683d22302220783d223237342e313760208201527f3639392220793d223435372e34373136222069643d227376675f31372220666f60408201527f6e742d73697a653d2232342220666f6e742d66616d696c793d22274172696d6f60608201527f272220746578742d616e63686f723d2273746172742220786d6c3a737061636560808201526b1e91383932b9b2b93b32911f60a11b60a082015260ac01613a1891612740565b661e17ba32bc3a1f60c91b8152600701651e17b9bb339f60d11b815260060103601f1981018252613a499082610503565b610325906127f6565b90613a5c91612061565b90549060031b1c9056fea49807205ce4d355092ef5a8a18f56e8913cf4a201fbe287825b095693c21775a2646970667358221220ea7f7ad2de61fd1fee0495288983eb03d98886207806e863b2394efd136a8ca464736f6c634300081300332f8788117e7eff1d82e926ec794901d17c78024a50270940304540a733656f0d",
  "linkReferences": {},
  "deployedLinkReferences": {}
}