{
  "_format": "hh-sol-artifact-1",
  "contractName": "BusinessCard",
  "sourceName": "contracts/BusinessCard.sol",
  "abi": [
    {
      "inputs": [
        {
          "internalType": "address",
          "name": "employeeIdAddress",
          "type": "address"
        }
      ],
      "stateMutability": "nonpayable",
      "type": "constructor"
    },
    {
      "inputs": [],
      "name": "AccessControlBadConfirmation",
      "type": "error"
    },
    {
      "inputs": [
        {
          "internalType": "address",
          "name": "account",
          "type": "address"
        },
        {
          "internalType": "bytes32",
          "name": "neededRole",
          "type": "bytes32"
        }
      ],
      "name": "AccessControlUnauthorizedAccount",
      "type": "error"
    },
    {
      "inputs": [
        {
          "internalType": "address",
          "name": "sender",
          "type": "address"
        },
        {
          "internalType": "uint256",
          "name": "balance",
          "type": "uint256"
        },
        {
          "internalType": "uint256",
          "name": "needed",
          "type": "uint256"
        },
        {
          "internalType": "uint256",
          "name": "tokenId",
          "type": "uint256"
        }
      ],
      "name": "ERC1155InsufficientBalance",
      "type": "error"
    },
    {
      "inputs": [
        {
          "internalType": "address",
          "name": "approver",
          "type": "address"
        }
      ],
      "name": "ERC1155InvalidApprover",
      "type": "error"
    },
    {
      "inputs": [
        {
          "internalType": "uint256",
          "name": "idsLength",
          "type": "uint256"
        },
        {
          "internalType": "uint256",
          "name": "valuesLength",
          "type": "uint256"
        }
      ],
      "name": "ERC1155InvalidArrayLength",
      "type": "error"
    },
    {
      "inputs": [
        {
          "internalType": "address",
          "name": "operator",
          "type": "address"
        }
      ],
      "name": "ERC1155InvalidOperator",
      "type": "error"
    },
    {
      "inputs": [
        {
          "internalType": "address",
          "name": "receiver",
          "type": "address"
        }
      ],
      "name": "ERC1155InvalidReceiver",
      "type": "error"
    },
    {
      "inputs": [
        {
          "internalType": "address",
          "name": "sender",
          "type": "address"
        }
      ],
      "name": "ERC1155InvalidSender",
      "type": "error"
    },
    {
      "inputs": [
        {
          "internalType": "address",
          "name": "operator",
          "type": "address"
        },
        {
          "internalType": "address",
          "name": "owner",
          "type": "address"
        }
      ],
      "name": "ERC1155MissingApprovalForAll",
      "type": "error"
    },
    {
      "anonymous": false,
      "inputs": [
        {
          "indexed": true,
          "internalType": "address",
          "name": "account",
          "type": "address"
        },
        {
          "indexed": true,
          "internalType": "address",
          "name": "operator",
          "type": "address"
        },
        {
          "indexed": false,
          "internalType": "bool",
          "name": "approved",
          "type": "bool"
        }
      ],
      "name": "ApprovalForAll",
      "type": "event"
    },
    {
      "anonymous": false,
      "inputs": [
        {
          "indexed": true,
          "internalType": "bytes32",
          "name": "role",
          "type": "bytes32"
        },
        {
          "indexed": true,
          "internalType": "bytes32",
          "name": "previousAdminRole",
          "type": "bytes32"
        },
        {
          "indexed": true,
          "internalType": "bytes32",
          "name": "newAdminRole",
          "type": "bytes32"
        }
      ],
      "name": "RoleAdminChanged",
      "type": "event"
    },
    {
      "anonymous": false,
      "inputs": [
        {
          "indexed": true,
          "internalType": "bytes32",
          "name": "role",
          "type": "bytes32"
        },
        {
          "indexed": true,
          "internalType": "address",
          "name": "account",
          "type": "address"
        },
        {
          "indexed": true,
          "internalType": "address",
          "name": "sender",
          "type": "address"
        }
      ],
      "name": "RoleGranted",
      "type": "event"
    },
    {
      "anonymous": false,
      "inputs": [
        {
          "indexed": true,
          "internalType": "bytes32",
          "name": "role",
          "type": "bytes32"
        },
        {
          "indexed": true,
          "internalType": "address",
          "name": "account",
          "type": "address"
        },
        {
          "indexed": true,
          "internalType": "address",
          "name": "sender",
          "type": "address"
        }
      ],
      "name": "RoleRevoked",
      "type": "event"
    },
    {
      "anonymous": false,
      "inputs": [
        {
          "indexed": true,
          "internalType": "address",
          "name": "operator",
          "type": "address"
        },
        {
          "indexed": true,
          "internalType": "address",
          "name": "from",
          "type": "address"
        },
        {
          "indexed": true,
          "internalType": "address",
          "name": "to",
          "type": "address"
        },
        {
          "indexed": false,
          "internalType": "uint256[]",
          "name": "ids",
          "type": "uint256[]"
        },
        {
          "indexed": false,
          "internalType": "uint256[]",
          "name": "values",
          "type": "uint256[]"
        }
      ],
      "name": "TransferBatch",
      "type": "event"
    },
    {
      "anonymous": false,
      "inputs": [
        {
          "indexed": true,
          "internalType": "address",
          "name": "operator",
          "type": "address"
        },
        {
          "indexed": true,
          "internalType": "address",
          "name": "from",
          "type": "address"
        },
        {
          "indexed": true,
          "internalType": "address",
          "name": "to",
          "type": "address"
        },
        {
          "indexed": false,
          "internalType": "uint256",
          "name": "id",
          "type": "uint256"
        },
        {
          "indexed": false,
          "internalType": "uint256",
          "name": "value",
          "type": "uint256"
        }
      ],
      "name": "TransferSingle",
      "type": "event"
    },
    {
      "anonymous": false,
      "inputs": [
        {
          "indexed": false,
          "internalType": "string",
          "name": "value",
          "type": "string"
        },
        {
          "indexed": true,
          "internalType": "uint256",
          "name": "id",
          "type": "uint256"
        }
      ],
      "name": "URI",
      "type": "event"
    },
    {
      "inputs": [],
      "name": "ADMIN_ROLE",
      "outputs": [
        {
          "internalType": "bytes32",
          "name": "",
          "type": "bytes32"
        }
      ],
      "stateMutability": "view",
      "type": "function"
    },
    {
      "inputs": [],
      "name": "DEFAULT_ADMIN_ROLE",
      "outputs": [
        {
          "internalType": "bytes32",
          "name": "",
          "type": "bytes32"
        }
      ],
      "stateMutability": "view",
      "type": "function"
    },
    {
      "inputs": [
        {
          "internalType": "address",
          "name": "newAdmin",
          "type": "address"
        }
      ],
      "name": "addAdmin",
      "outputs": [],
      "stateMutability": "nonpayable",
      "type": "function"
    },
    {
      "inputs": [
        {
          "internalType": "address",
          "name": "account",
          "type": "address"
        },
        {
          "internalType": "uint256",
          "name": "id",
          "type": "uint256"
        }
      ],
      "name": "balanceOf",
      "outputs": [
        {
          "internalType": "uint256",
          "name": "",
          "type": "uint256"
        }
      ],
      "stateMutability": "view",
      "type": "function"
    },
    {
      "inputs": [
        {
          "internalType": "address[]",
          "name": "accounts",
          "type": "address[]"
        },
        {
          "internalType": "uint256[]",
          "name": "ids",
          "type": "uint256[]"
        }
      ],
      "name": "balanceOfBatch",
      "outputs": [
        {
          "internalType": "uint256[]",
          "name": "",
          "type": "uint256[]"
        }
      ],
      "stateMutability": "view",
      "type": "function"
    },
    {
      "inputs": [
        {
          "internalType": "string",
          "name": "employeeName",
          "type": "string"
        },
        {
          "internalType": "string",
          "name": "departmentName",
          "type": "string"
        },
        {
          "internalType": "string",
          "name": "message",
          "type": "string"
        }
      ],
      "name": "generateSVG",
      "outputs": [
        {
          "internalType": "string",
          "name": "svg",
          "type": "string"
        }
      ],
      "stateMutability": "pure",
      "type": "function"
    },
    {
      "inputs": [],
      "name": "getAdmins",
      "outputs": [
        {
          "internalType": "address[]",
          "name": "",
          "type": "address[]"
        }
      ],
      "stateMutability": "view",
      "type": "function"
    },
    {
      "inputs": [],
      "name": "getAllMinters",
      "outputs": [
        {
          "internalType": "address[]",
          "name": "",
          "type": "address[]"
        }
      ],
      "stateMutability": "view",
      "type": "function"
    },
    {
      "inputs": [
        {
          "internalType": "uint256",
          "name": "tokenId",
          "type": "uint256"
        }
      ],
      "name": "getBusinessCardInfo",
      "outputs": [
        {
          "internalType": "string",
          "name": "employeeName",
          "type": "string"
        },
        {
          "internalType": "string",
          "name": "departmentName",
          "type": "string"
        },
        {
          "internalType": "string",
          "name": "message",
          "type": "string"
        }
      ],
      "stateMutability": "view",
      "type": "function"
    },
    {
      "inputs": [
        {
          "internalType": "uint256",
          "name": "tokenId",
          "type": "uint256"
        }
      ],
      "name": "getCustomTokenURI",
      "outputs": [
        {
          "internalType": "string",
          "name": "",
          "type": "string"
        }
      ],
      "stateMutability": "view",
      "type": "function"
    },
    {
      "inputs": [
        {
          "internalType": "bytes32",
          "name": "role",
          "type": "bytes32"
        }
      ],
      "name": "getRoleAdmin",
      "outputs": [
        {
          "internalType": "bytes32",
          "name": "",
          "type": "bytes32"
        }
      ],
      "stateMutability": "view",
      "type": "function"
    },
    {
      "inputs": [
        {
          "internalType": "address",
          "name": "owner",
          "type": "address"
        }
      ],
      "name": "getTokenCount",
      "outputs": [
        {
          "internalType": "uint256",
          "name": "",
          "type": "uint256"
        }
      ],
      "stateMutability": "view",
      "type": "function"
    },
    {
      "inputs": [
        {
          "internalType": "address",
          "name": "user",
          "type": "address"
        }
      ],
      "name": "getTokenIds",
      "outputs": [
        {
          "internalType": "uint256[]",
          "name": "",
          "type": "uint256[]"
        }
      ],
      "stateMutability": "view",
      "type": "function"
    },
    {
      "inputs": [
        {
          "internalType": "bytes32",
          "name": "role",
          "type": "bytes32"
        },
        {
          "internalType": "address",
          "name": "account",
          "type": "address"
        }
      ],
      "name": "grantRole",
      "outputs": [],
      "stateMutability": "nonpayable",
      "type": "function"
    },
    {
      "inputs": [
        {
          "internalType": "bytes32",
          "name": "role",
          "type": "bytes32"
        },
        {
          "internalType": "address",
          "name": "account",
          "type": "address"
        }
      ],
      "name": "hasRole",
      "outputs": [
        {
          "internalType": "bool",
          "name": "",
          "type": "bool"
        }
      ],
      "stateMutability": "view",
      "type": "function"
    },
    {
      "inputs": [
        {
          "internalType": "address",
          "name": "_address",
          "type": "address"
        }
      ],
      "name": "isAdmin",
      "outputs": [
        {
          "internalType": "bool",
          "name": "",
          "type": "bool"
        }
      ],
      "stateMutability": "view",
      "type": "function"
    },
    {
      "inputs": [
        {
          "internalType": "address",
          "name": "account",
          "type": "address"
        },
        {
          "internalType": "address",
          "name": "operator",
          "type": "address"
        }
      ],
      "name": "isApprovedForAll",
      "outputs": [
        {
          "internalType": "bool",
          "name": "",
          "type": "bool"
        }
      ],
      "stateMutability": "view",
      "type": "function"
    },
    {
      "inputs": [
        {
          "internalType": "uint256",
          "name": "tokenId",
          "type": "uint256"
        },
        {
          "internalType": "address[]",
          "name": "toAddresses",
          "type": "address[]"
        }
      ],
      "name": "mintExistingBusinessCardNFT",
      "outputs": [],
      "stateMutability": "nonpayable",
      "type": "function"
    },
    {
      "inputs": [
        {
          "internalType": "address",
          "name": "to",
          "type": "address"
        },
        {
          "internalType": "uint256",
          "name": "tokenId",
          "type": "uint256"
        },
        {
          "internalType": "string",
          "name": "employeeName",
          "type": "string"
        },
        {
          "internalType": "string",
          "name": "departmentName",
          "type": "string"
        },
        {
          "internalType": "string",
          "name": "message",
          "type": "string"
        }
      ],
      "name": "mintNewBusinessCardNFT",
      "outputs": [],
      "stateMutability": "nonpayable",
      "type": "function"
    },
    {
      "inputs": [
        {
          "internalType": "address",
          "name": "admin",
          "type": "address"
        }
      ],
      "name": "removeAdmin",
      "outputs": [],
      "stateMutability": "nonpayable",
      "type": "function"
    },
    {
      "inputs": [
        {
          "internalType": "address",
          "name": "admin",
          "type": "address"
        }
      ],
      "name": "removeAdminFromList",
      "outputs": [],
      "stateMutability": "nonpayable",
      "type": "function"
    },
    {
      "inputs": [
        {
          "internalType": "bytes32",
          "name": "role",
          "type": "bytes32"
        },
        {
          "internalType": "address",
          "name": "callerConfirmation",
          "type": "address"
        }
      ],
      "name": "renounceRole",
      "outputs": [],
      "stateMutability": "nonpayable",
      "type": "function"
    },
    {
      "inputs": [
        {
          "internalType": "bytes32",
          "name": "role",
          "type": "bytes32"
        },
        {
          "internalType": "address",
          "name": "account",
          "type": "address"
        }
      ],
      "name": "revokeRole",
      "outputs": [],
      "stateMutability": "nonpayable",
      "type": "function"
    },
    {
      "inputs": [
        {
          "internalType": "address",
          "name": "from",
          "type": "address"
        },
        {
          "internalType": "address",
          "name": "to",
          "type": "address"
        },
        {
          "internalType": "uint256[]",
          "name": "ids",
          "type": "uint256[]"
        },
        {
          "internalType": "uint256[]",
          "name": "values",
          "type": "uint256[]"
        },
        {
          "internalType": "bytes",
          "name": "data",
          "type": "bytes"
        }
      ],
      "name": "safeBatchTransferFrom",
      "outputs": [],
      "stateMutability": "nonpayable",
      "type": "function"
    },
    {
      "inputs": [
        {
          "internalType": "address",
          "name": "from",
          "type": "address"
        },
        {
          "internalType": "address",
          "name": "to",
          "type": "address"
        },
        {
          "internalType": "uint256",
          "name": "id",
          "type": "uint256"
        },
        {
          "internalType": "uint256",
          "name": "value",
          "type": "uint256"
        },
        {
          "internalType": "bytes",
          "name": "data",
          "type": "bytes"
        }
      ],
      "name": "safeTransferFrom",
      "outputs": [],
      "stateMutability": "nonpayable",
      "type": "function"
    },
    {
      "inputs": [
        {
          "internalType": "address",
          "name": "operator",
          "type": "address"
        },
        {
          "internalType": "bool",
          "name": "approved",
          "type": "bool"
        }
      ],
      "name": "setApprovalForAll",
      "outputs": [],
      "stateMutability": "nonpayable",
      "type": "function"
    },
    {
      "inputs": [
        {
          "internalType": "bytes4",
          "name": "interfaceId",
          "type": "bytes4"
        }
      ],
      "name": "supportsInterface",
      "outputs": [
        {
          "internalType": "bool",
          "name": "",
          "type": "bool"
        }
      ],
      "stateMutability": "view",
      "type": "function"
    },
    {
      "inputs": [
        {
          "internalType": "uint256",
          "name": "tokenId",
          "type": "uint256"
        },
        {
          "internalType": "string",
          "name": "newEmployeeName",
          "type": "string"
        },
        {
          "internalType": "string",
          "name": "newDepartmentName",
          "type": "string"
        },
        {
          "internalType": "string",
          "name": "newMessage",
          "type": "string"
        }
      ],
      "name": "updateEmployeeInfo",
      "outputs": [],
      "stateMutability": "nonpayable",
      "type": "function"
    },
    {
      "inputs": [
        {
          "internalType": "uint256",
          "name": "tokenId",
          "type": "uint256"
        }
      ],
      "name": "uri",
      "outputs": [
        {
          "internalType": "string",
          "name": "",
          "type": "string"
        }
      ],
      "stateMutability": "view",
      "type": "function"
    }
  ],
  "bytecode": "0x608034620001df576001600160401b0390601f62003faa38819003918201601f191683019184831184841017620001c957808492602094604052833981010312620001df57516001600160a01b0381169190829003620001df57604051906020820190811182821017620001c9576040526000809152600254906001918281811c91168015620001be575b6020821014620001aa57601f81116200015c575b50806002558060065560018060a01b031992836004541617600455620000c433620001e4565b50620000d03362000265565b50600554916801000000000000000083101562000148578201806005558210156200013457600590527f036b6384b5eca791c62761152d0c79bb0604c104a5fb6f4eb0703f3154bb3db001805490911633179055604051613c819081620003098239f35b634e487b7160e01b81526032600452602490fd5b634e487b7160e01b82526041600452602482fd5b60028252601f0160051c7f405787fa12a823e0f2b7631cc41b3ba8828b3321ca811111fa75cd3aa3bb5ace9081019083905b8281106200019e5750506200009e565b8381550183906200018e565b634e487b7160e01b82526022600452602482fd5b90607f16906200008a565b634e487b7160e01b600052604160045260246000fd5b600080fd5b6001600160a01b031660008181527f3617319a054d772f909f7c479a2cebe5066e836a939412e32403c99029b92eff602052604081205490919060ff16620002615781805260036020526040822081835260205260408220600160ff19825416179055339160008051602062003f8a8339815191528180a4600190565b5090565b6001600160a01b031660008181527fa665d3385c074a5fa4bcec2a570c94dbdb08d6b09bca4e08f8c3951c94a3d99860205260408120549091907fa49807205ce4d355092ef5a8a18f56e8913cf4a201fbe287825b095693c217759060ff16620003035780835260036020526040832082845260205260408320600160ff1982541617905560008051602062003f8a833981519152339380a4600190565b50509056fe6080604052600436101561001257600080fd5b60003560e01c8062fdd58e146101e657806301ffc9a7146101e15780630e89341c146101dc5780631222ed27146101d75780631785f53c146101d25780631d02aa27146101cd578063248a9ca3146101c857806324d7806c146101c35780632eb2c2d6146101be5780632f2ff15d146101b957806331ae450b146101b457806336568abe146101af5780634e1273f4146101aa57806354c10365146101a557806356e496aa146101a0578063704802751461019b57806375b238fc1461019657806376727fa31461019157806391d148541461018c578063a045442c14610187578063a217fddf14610182578063a22cb4651461017d578063ac6ebb3414610178578063bd45f0f514610173578063c66587c41461016e578063d004b03614610169578063d547741f14610164578063e985e9c51461015f5763f242432a1461015a57600080fd5b61171d565b6116c1565b61167f565b6115b7565b611519565b6114b6565b6113a3565b6112e3565b6112c7565b61124c565b611202565b6111c5565b61119c565b6110c7565b610ebd565b610ddb565b610cf0565b610bf8565b610b7a565b610af4565b6109c9565b6108f2565b6108c3565b6106aa565b610639565b6105b5565b610348565b610264565b610201565b6001600160a01b038116036101fc57565b600080fd5b346101fc5760403660031901126101fc576020610249600435610223816101eb565b6024356000526000835260406000209060018060a01b0316600052602052604060002090565b54604051908152f35b6001600160e01b03198116036101fc57565b346101fc5760203660031901126101fc57602060043561028381610252565b63ffffffff60e01b16637965db0b60e01b81149081156102a9575b506040519015158152f35b636cdb3d1360e11b8114915081156102db575b81156102ca575b503861029e565b6301ffc9a760e01b149050386102c3565b6303a24d0760e21b811491506102bc565b60005b8381106102ff5750506000910152565b81810151838201526020016102ef565b90602091610328815180928185528580860191016102ec565b601f01601f1916010190565b90602061034592818152019061030f565b90565b346101fc5760203660031901126101fc576104e96104d36004358060005260076020526104df61041361049f6040936104866104786103d58760002088519461039086610503565b610399826127e4565b86526103c96103bd60026103af600186016127e4565b9460208a01958652016127e4565b918b8801928352612a62565b95519151905191612c24565b61040d6104436104218a5198899761040d60208a01601690751ec89b985b59488e880891d7d0dbdb5c185b9e53919560521b81520190565b906128c5565b61088b60f21b815260020190565b750899195cd8dc9a5c1d1a5bdb888e880895195cdd088b60521b815260160190565b7f22696d616765223a22646174613a696d6167652f7376672b786d6c3b626173658152620d8d0b60ea1b602082015260230190565b61227d60f01b815260020190565b039161049a601f1993848101835282610523565b61297b565b83517f646174613a6170706c69636174696f6e2f6a736f6e3b6261736536342c0000006020820152948591603d830161040d565b03908101845283610523565b5191829182610334565b0390f35b634e487b7160e01b600052604160045260246000fd5b606081019081106001600160401b0382111761051e57604052565b6104ed565b90601f801991011681019081106001600160401b0382111761051e57604052565b6040519061055182610503565b565b6001600160401b03811161051e57601f01601f191660200190565b81601f820112156101fc5780359061058582610553565b926105936040519485610523565b828452602083830101116101fc57816000926020809301838601378301015290565b346101fc5760603660031901126101fc576001600160401b036004358181116101fc576105e690369060040161056e565b906024358181116101fc576105ff90369060040161056e565b916044359182116101fc576104e99261061f61062593369060040161056e565b91612c24565b60405191829160208352602083019061030f565b346101fc5760203660031901126101fc576106a8600435610659816101eb565b610661611842565b600080516020613c2c83398151915260005260036020527fa665d3385c074a5fa4bcec2a570c94dbdb08d6b09bca4e08f8c3951c94a3d999546106a3906118f2565b6119e6565b005b346101fc5760a03660031901126101fc57600480356106c8816101eb565b6001600160401b03916024356044358481116101fc576106eb903690840161056e565b926064358581116101fc57610703903690850161056e565b936084359586116101fc57602083610721610767983690880161056e565b9561072a61189a565b8054610746906001600160a01b03165b6001600160a01b031690565b6040516331a9108f60e11b8152918201928352909889928391829160200190565b03915afa9384156108be576106a89660009561087e575b506001600160a01b03808416966108789661087395946108229490939092916107a991168a1461221a565b6107e26107db866107c48a6000526000602052604060002090565b9060018060a01b0316600052602052604060002090565b541561225a565b6107f46107ed611e25565b88876124f5565b6107fc610544565b9283526020830152604082015261081d856000526007602052604060002090565b6123f3565b6108593361083a856000526009602052604060002090565b80546001600160a01b0319166001600160a01b03909216919091179055565b6001600160a01b0316600090815260086020526040902090565b6126df565b50612668565b610878955091610822916108ac610873959460203d81116108b7575b6108a48183610523565b810190612205565b96509150919261077e565b503d61089a565b611e19565b346101fc5760203660031901126101fc5760043560005260036020526020600160406000200154604051908152f35b346101fc5760203660031901126101fc57602060ff610948600435610916816101eb565b600080516020613c2c8339815191526000526003845260406000209060018060a01b0316600052602052604060002090565b54166040519015158152f35b6001600160401b03811161051e5760051b60200190565b81601f820112156101fc5780359161098283610954565b926109906040519485610523565b808452602092838086019260051b8201019283116101fc578301905b8282106109ba575050505090565b813581529083019083016109ac565b346101fc5760a03660031901126101fc57600480356109e7816101eb565b6024356109f3816101eb565b6001600160401b03906044358281116101fc57610a13903690860161096b565b906064358381116101fc57610a2b903690870161096b565b926084359081116101fc57610a43903690870161056e565b936001600160a01b03808216903382141580610ad0575b610aa357831615610a8b5715610a74576106a89550611b37565b604051626a0d4560e21b8152600081880152602490fd5b604051632bfa23e760e11b8152600081890152602490fd5b6040805163711bec9160e11b815233818b019081526001600160a01b038616602082015290918291010390fd5b50600082815260016020908152604080832033845290915290205460ff1615610a5a565b346101fc5760403660031901126101fc576106a8602435600435610b17826101eb565b806000526003602052610b316001604060002001546118f2565b6119ba565b6020908160408183019282815285518094520193019160005b828110610b5d575050505090565b83516001600160a01b031685529381019392810192600101610b4f565b346101fc5760003660031901126101fc5760405180600554918281526020809101926005600052600080516020613bec833981519152916000905b828210610bd8576104e985610bcc81890382610523565b60405191829182610b36565b83546001600160a01b031686529485019460019384019390910190610bb5565b346101fc5760403660031901126101fc57602435610c15816101eb565b336001600160a01b03821603610c31576106a890600435611a85565b60405163334bd91960e11b8152600490fd5b81601f820112156101fc57803591610c5a83610954565b92610c686040519485610523565b808452602092838086019260051b8201019283116101fc578301905b828210610c92575050505090565b8380918335610ca0816101eb565b815201910190610c84565b90815180825260208080930193019160005b828110610ccb575050505090565b835185529381019392810192600101610cbd565b906020610345928181520190610cab565b346101fc576040806003193601126101fc576001600160401b036004358181116101fc57610d22903690600401610c43565b906024359081116101fc57610d3b90369060040161096b565b81518151808203610dba575050610d528251611ab1565b906000805b8451811015610dad5780610d97610da89260051b8460208080848c01015193890101518252528885209060018060a01b0316600052602052604060002090565b54610da28287611b23565b52611af9565b610d57565b8551806104e98682610cdf565b8451635b05999160e01b815260048101919091526024810191909152604490fd5b346101fc5760203660031901126101fc57600435610df8816101eb565b600580546000926001600160a01b0390811690845b838110610e18578580f35b8454811015610eb857848652828282600080516020613bec83398151915201541614610e4c57610e4790611af9565b610e0d565b92610ea79450610e889250610e829150610e68610e6d91612187565b6120f5565b905460039190911b1c6001600160a01b031690565b916120f5565b90919082549060031b9160018060a01b03809116831b921b1916179055565b610eaf612196565b38808080808580f35b611b0d565b346101fc5760803660031901126101fc576001600160401b036004356024358281116101fc57610ef190369060040161056e565b906044358381116101fc57610f0a90369060040161056e565b906064359384116101fc576110b2610413611071610fcf6110a6966110c296610f3a6106a89a369060040161056e565b91610f4361189a565b610f66610f5e336107c48b6000526000602052604060002090565b541515612ba5565b610f9c3360018060a01b03610f95610f888c6000526009602052604060002090565b546001600160a01b031690565b1614612be6565b610fca610fa7610544565b82815283602082015284604082015261081d8a6000526007602052604060002090565b612c24565b610486610478610fde87612a62565b9261040d61103a61101860405198899761040d60208a01601690751ec89b985b59488e880891d7d0dbdb5c185b9e53919560521b81520190565b75088b0899195cd8dc9a5c1d1a5bdb888e880895195cdd60521b815260160190565b7f222c22696d616765223a22646174613a696d6167652f7376672b786d6c3b62618152641cd94d8d0b60da1b602082015260250190565b6040517f646174613a6170706c69636174696f6e2f6a736f6e3b6261736536342c0000006020820152958691603d830161040d565b03908101855284610523565b600052600c602052604060002090565b612325565b346101fc5760203660031901126101fc576004356110e4816101eb565b6110ec611842565b6001600160a01b0381166000908152600080516020613c0c83398151915260205260408120549091600080516020613c2c8339815191529160ff1661115857611155918352600360205261114660016040852001546118f2565b61114f81611913565b50612132565b80f35b606460405162461bcd60e51b815260206004820152602060248201527f54686973206164647265737320697320616c726561647920616e2061646d696e6044820152fd5b346101fc5760003660031901126101fc576020604051600080516020613c2c8339815191528152f35b346101fc5760203660031901126101fc576004356111e2816101eb565b60018060a01b031660005260086020526020604060002054604051908152f35b346101fc5760403660031901126101fc57602060ff610948602435611226816101eb565b6004356000526003845260406000209060018060a01b0316600052602052604060002090565b346101fc5760003660031901126101fc5760405180600a5491828152602080910192600a6000527fc65a7bb8d6351c1cf70c95a316cc6a92839c986682d98bc35f958f4883f9d2a8916000905b8282106112b0576104e985610bcc81890382610523565b835486529485019460019384019390910190611299565b346101fc5760003660031901126101fc57602060405160008152f35b346101fc5760403660031901126101fc57600435611300816101eb565b60243590811515908183036101fc576001600160a01b03811692831561138b5761134c61135d9233600052600160205260406000209060018060a01b0316600052602052604060002090565b9060ff801983541691151516179055565b6040519081527f17307eab39ab6107e8899845ad3d59bd9653f200f220920489ca2b5937696c3160203392a3005b60405162ced3e160e81b815260006004820152602490fd5b346101fc5760403660031901126101fc576004356024356001600160401b0381116101fc576113d6903690600401610c43565b6113f96113f1336107c4856000526000602052604060002090565b541515612748565b60045461140e906001600160a01b031661073a565b6040516331a9108f60e11b81526004810184905290602090829060249082905afa80156108be5761145291600091611498575b506001600160a01b0316331461278c565b60005b81518110156106a8578061148e61147f6114726114939486611b23565b516001600160a01b031690565b85611488611e25565b916124f5565b611af9565b611455565b6114b0915060203d81116108b7576108a48183610523565b38611441565b346101fc5760203660031901126101fc57600435600052600c6020526104e961062560406000206127e4565b9161150b906114fd610345959360608652606086019061030f565b90848203602086015261030f565b91604081840391015261030f565b346101fc5760203660031901126101fc57600435806000526007602052611544604060002054612297565b1561157957600052600760205261155e6040600020612888565b80516104e960406020840151930151604051938493846114e2565b60405162461bcd60e51b8152602060048201526016602482015275151bdad95b9259081a5cc81b9bdd08195e1a5cdd195960521b6044820152606490fd5b346101fc576020806003193601126101fc576004356115d5816101eb565b60018060a01b0316600090808252600892838152604091828420546115f981611ab1565b95859386935b83851061164857505050505061161481611ab1565b925b81811061162a578251806104e98682610cdf565b806116386116439287611b23565b51610da28287611b23565b611616565b909192939461167061167691838a52858552611666888a8c20613bd7565b610da2828d611b23565b95611af9565b939291906115ff565b346101fc5760403660031901126101fc576106a86024356004356116a2826101eb565b8060005260036020526116bc6001604060002001546118f2565b611a85565b346101fc5760403660031901126101fc57602060ff6109486004356116e5816101eb565b602435906116f2826101eb565b60018060a01b03166000526001845260406000209060018060a01b0316600052602052604060002090565b346101fc5760a03660031901126101fc5760043561173a816101eb565b602435611746816101eb565b6084356001600160401b0381116101fc5761176590369060040161056e565b906001600160a01b0383811690338214158061181e575b6117f7578216156117de57156117c6576106a8926117be6064356044359160405192600184526020840152604083019160018352606084015260808301604052565b929091611b37565b604051626a0d4560e21b815260006004820152602490fd5b604051632bfa23e760e11b815260006004820152602490fd5b60405163711bec9160e11b81523360048201526001600160a01b0386166024820152604490fd5b50600082815260016020908152604080832033845290915290205460ff161561177c565b3360009081527f3617319a054d772f909f7c479a2cebe5066e836a939412e32403c99029b92eff602052604090205460ff161561187b57565b60405163e2517d3f60e01b815233600482015260006024820152604490fd5b336000908152600080516020613c0c83398151915260205260409020600080516020613c2c8339815191529060ff905b5416156118d45750565b6044906040519063e2517d3f60e01b82523360048301526024820152fd5b6000818152600360209081526040808320338452909152902060ff906118ca565b6001600160a01b0381166000908152600080516020613c0c83398151915260205260408120600080516020613c2c8339815191529060ff905b54166119b4578082526003602090815260408084206001600160a01b038616600090815292529020805460ff1916600117905533926001600160a01b0316917f2f8788117e7eff1d82e926ec794901d17c78024a50270940304540a733656f0d9080a4600190565b50905090565b600090808252600360205260ff61194c84604085209060018060a01b0316600052602052604060002090565b6001600160a01b0381166000908152600080516020613c0c83398151915260205260408120600080516020613c2c8339815191529060ff905b5416156119b4578082526003602090815260408084206001600160a01b038616600090815292529020805460ff1916905533926001600160a01b0316917ff6391f5c32d9c69d2a47ea670b442974b53935d1edc7fd64eb21e047a839171b9080a4600190565b600090808252600360205260ff611a1f84604085209060018060a01b0316600052602052604060002090565b90611abb82610954565b611ac86040519182610523565b8281528092611ad9601f1991610954565b0190602036910137565b634e487b7160e01b600052601160045260246000fd5b6000198114611b085760010190565b611ae3565b634e487b7160e01b600052603260045260246000fd5b8051821015610eb85760209160051b010190565b949190918151845190818103611d3e57505060005b8251811015611c4857600581901b83810160209081015191870101516001600160a01b03929186908a8516611bc1575b611b8f948216611b94575b505050611af9565b611b4c565b611bb7916107c4611baf926000526000602052604060002090565b918254611d6e565b9055388581611b87565b9192939050611bde8a6107c4846000526000602052604060002090565b54838110611c115791879184611b8f96959403611c098d6107c4856000526000602052604060002090565b559450611b7c565b6040516303dee4c560e01b81526001600160a01b038c16600482015260248101919091526044810184905260648101839052608490fd5b509491939290936001855114600014611cf3576020858101518382015160408051928352928201526001600160a01b03838116929086169133917fc3d58168c5ae7397731d063d5bbf3d657854427343f4c083240f7aacaa2d0f6291a45b6001600160a01b038116611cbc575b5050505050565b8451600103611ce257602080611cd89601519201519233611f72565b3880808080611cb5565b611cee949192336120be565b611cd8565b6040516001600160a01b03828116919085169033907f4a39dc06d4c0dbc64b70af90fd698a233a518aa5d07e595d983b8c0526c8f7fb9080611d36888c83611d7b565b0390a4611ca6565b604051635b05999160e01b815260048101919091526024810191909152604490fd5b9060028201809211611b0857565b91908201809211611b0857565b9091611d9261034593604084526040840190610cab565b916020818403910152610cab565b908160209103126101fc575161034581610252565b909260a0926103459594600180861b031683526000602084015260408301526060820152816080820152019061030f565b919261034595949160a094600180871b03809216855216602084015260408301526060820152816080820152019061030f565b6040513d6000823e3d90fd5b60405190602082018281106001600160401b0382111761051e5760405260008252565b3d15611e73573d90611e5982610553565b91611e676040519384610523565b82523d6000602084013e565b606090565b9293919093843b611e8a575050505050565b602091611ead604051948593849363f23a6e6160e01b9889865260048601611db5565b038160006001600160a01b0388165af160009181611f42575b50611f055782611ed4611e48565b8051919082611efe57604051632bfa23e760e11b81526001600160a01b0383166004820152602490fd5b9050602001fd5b6001600160e01b03191603611f1f57503880808080611cb5565b604051632bfa23e760e11b81526001600160a01b03919091166004820152602490fd5b611f6491925060203d8111611f6b575b611f5c8183610523565b810190611da0565b9038611ec6565b503d611f52565b939290949194853b611f87575b505050505050565b611faa602093604051958694859463f23a6e6160e01b998a875260048701611de6565b038160006001600160a01b0388165af160009181611fec575b50611fd15782611ed4611e48565b6001600160e01b03191603611f1f5750388080808080611f7f565b61200591925060203d8111611f6b57611f5c8183610523565b9038611fc3565b9261203b61034595936120499360018060a01b031686526000602087015260a0604087015260a0860190610cab565b908482036060860152610cab565b91608081840391015261030f565b9390610345959361203b916120499460018060a01b03809216885216602087015260a0604087015260a0860190610cab565b9293919093843b61209b575050505050565b602091611ead604051948593849363bc197c8160e01b988986526004860161200c565b939290949194853b6120d257505050505050565b611faa602093604051958694859463bc197c8160e01b998a875260048701612057565b600554811015610eb8576005600052600080516020613bec8339815191520190600090565b8054821015610eb85760005260206000200190600090565b60055490600160401b82101561051e576001820180600555821015610eb8576005600052600080516020613bec83398151915290910180546001600160a01b0319166001600160a01b03909216919091179055565b600019810191908211611b0857565b60055480156121ef5760001981019080821015610eb8577f036b6384b5eca791c62761152d0c79bb0604c104a5fb6f4eb0703f3154bb3daf906005600052016bffffffffffffffffffffffff60a01b8154169055600555565b634e487b7160e01b600052603160045260246000fd5b908160209103126101fc5751610345816101eb565b1561222157565b60405162461bcd60e51b8152602060048201526011602482015270139bc8195b5c1b1bde5959525908139195607a1b6044820152606490fd5b1561226157565b60405162461bcd60e51b815260206004820152600e60248201526d105b1c9958591e481b5a5b9d195960921b6044820152606490fd5b90600182811c921680156122c7575b60208310146122b157565b634e487b7160e01b600052602260045260246000fd5b91607f16916122a6565b90601f81116122df57505050565b600091825260208220906020601f850160051c8301941061231b575b601f0160051c01915b82811061231057505050565b818155600101612304565b90925082906122fb565b91909182516001600160401b03811161051e5761234c816123468454612297565b846122d1565b602080601f831160011461238857508192939460009261237d575b50508160011b916000199060031b1c1916179055565b015190503880612367565b90601f1983169561239e85600052602060002090565b926000905b8882106123db575050836001959697106123c2575b505050811b019055565b015160001960f88460031b161c191690553880806123b8565b806001859682949686015181550195019301906123a3565b91909182519283516001600160401b03811161051e5761241d816124178554612297565b856122d1565b6020948590601f831160011461247b576105519596836040946002969461246794600092612470575b50508160011b916000199060031b1c19161786555b82015160018601612325565b01519101612325565b015190503880612446565b90601f1983169161249186600052602060002090565b9260005b8181106124de57508460029694612467946105519a9b94604098600195106124c5575b505050811b01865561245b565b015160001960f88460031b161c191690553880806124b8565b929389600181928786015181550195019301612495565b9091906001600160a01b03811680156117de5760405190600191828152602092838201968752604082019281845260608084019583875260808501806040528551875180820361264c575050508390816000905b612604575b50508451141590506125c857600088517fc3d58168c5ae7397731d063d5bbf3d657854427343f4c083240f7aacaa2d0f6261259f885160405191829133958360209093929193604081019481520152565b0390a45b8151036125ba575050610551935190519133611e78565b915091610551945033612089565b60006040517f4a39dc06d4c0dbc64b70af90fd698a233a518aa5d07e595d983b8c0526c8f7fb3391806125fc898983611d7b565b0390a46125a3565b865181101561264757806126419160051b880161263a611baf8d6107c48988860151950151946000526000602052604060002090565b9055611af9565b82612549565b61254e565b635b05999160e01b8352608488019190915260a4870152604490fd5b80600052600b602052604060002054156000146126d957600a54600160401b81101561051e576001810180600a55811015610eb85781907fc65a7bb8d6351c1cf70c95a316cc6a92839c986682d98bc35f958f4883f9d2a80155600a5490600052600b602052604060002055600190565b50600090565b6001810190826000528160205260406000205415600014612740578054600160401b81101561051e57806001612718920183558261211a565b81549060031b9085821b91600019901b19161790555491600052602052604060002055600190565b505050600090565b1561274f57565b60405162461bcd60e51b8152602060048201526015602482015274139bdd08189d5cda5b995cdcc818d85c9908139195605a1b6044820152606490fd5b1561279357565b60405162461bcd60e51b815260206004820152602360248201527f4e6f74206f776e6572206f66206d696e74656420656d706c6f7965652049442060448201526213919560ea1b6064820152608490fd5b90604051918260008254926127f884612297565b9081845260019485811690816000146128655750600114612822575b505061055192500383610523565b9093915060005260209081600020936000915b81831061284d57505061055193508201013880612814565b85548884018501529485019487945091830191612835565b91505061055194506020925060ff191682840152151560051b8201013880612814565b9060405161289581610503565b60406128c0600283956128a7816127e4565b85526128b5600182016127e4565b6020860152016127e4565b910152565b906128d8602092828151948592016102ec565b0190565b604051906128e982610503565b604082527f6768696a6b6c6d6e6f707172737475767778797a303132333435363738392b2f6040837f4142434445464748494a4b4c4d4e4f505152535455565758595a61626364656660208201520152565b600281901b91906001600160fe1b03811603611b0857565b9061295d82610553565b61296a6040519182610523565b8281528092611ad9601f1991610553565b805115612a595761298a6128dc565b6129ae6129a96129a461299d8551611d60565b6003900490565b61293b565b612953565b91602083019181825183016020810191825193600084525b828210612a0757505050525160039006600181146129f4576002146129e9575090565b603d90600019015390565b50603d9081600019820153600119015390565b9091956004906003809401938451600190603f9082828260121c16880101518553828282600c1c16880101518386015382828260061c16880101516002860153168501015190820153019591906129c6565b50610345611e25565b806000917a184f03e93ff9f4daa797ed6e38ed64bf6a1f01000000000000000080821015612b97575b506d04ee2d6d415b85acef810000000080831015612b88575b50662386f26fc1000080831015612b79575b506305f5e10080831015612b6a575b5061271080831015612b5b575b506064821015612b4b575b600a80921015612b41575b600190816021612af9828701612953565b95860101905b612b0b575b5050505090565b600019019083906f181899199a1a9b1b9c1cb0b131b232b360811b8282061a835304918215612b3c57919082612aff565b612b04565b9160010191612ae8565b9190606460029104910191612add565b60049193920491019138612ad2565b60089193920491019138612ac5565b60109193920491019138612ab6565b60209193920491019138612aa4565b604093508104915038612a8b565b15612bac57565b60405162461bcd60e51b81526020600482015260126024820152714e6f2065786973747320746f6b656e49647360701b6044820152606490fd5b15612bed57565b60405162461bcd60e51b815260206004820152600f60248201526e2737ba103a37b5b2b71037bbb732b960891b6044820152606490fd5b604080517f3c7376672077696474683d2237303022206865696768743d223730302220786d60208201527f6c6e733d22687474703a2f2f7777772e77332e6f72672f323030302f73766722918101919091527f207374796c653d226261636b67726f756e642d636f6c6f723a20233137323835606082015263199d911f60e11b60808201527f3c7469746c653e456d706c6f7965654e46545f496d6167653c2f7469746c653e6084820152928392909160a484017f3c74657874207472616e73666f726d3d226d617472697828312e31313137342081527f30203020312e3337393635202d32312e31383431202d32382e3334363429222060208201527f7374726f6b653d2223394143454536222066696c6c3d2223666666666666222060408201527f7374726f6b652d77696474683d22302220783d223234322e353937393322207960608201527f3d2237342e3832303631222069643d227376675f332220666f6e742d73697a6560808201527f3d2232342220666f6e742d66616d696c793d22274172696d6f2722207465787460a08201527f2d616e63686f723d2273746172742220786d6c3a73706163653d22707265736560c08201527f7276652220666f6e742d7765696768743d22626f6c64223e4720436f6d70616e60e08201526b3c9027232a1e17ba32bc3a1f60a11b61010082015261010c017f3c72656374207374726f6b653d2223394143454536222069643d227376675f3481527f22206865696768743d223139222077696474683d223131352220793d2233382260208201527f20783d2238312e303030323622207374726f6b652d77696474683d223022206660408201526e34b6361e9111b3333333333311179f60891b6060820152606f017f3c72656374207374726f6b653d2223394143454536222069643d227376675f3681527f22206865696768743d223139222077696474683d223131352220793d2236372260208201527f20783d2238312e303030323622207374726f6b652d77696474683d223022206660408201526e34b6361e9111b3333333333311179f60891b6060820152606f017f3c72656374207374726f6b653d2223394143454536222069643d227376675f3481527f22206865696768743d223139222077696474683d223131352220793d2233382260208201527f20783d223532362e3137373622207374726f6b652d77696474683d223022206660408201526e34b6361e9111b3333333333311179f60891b6060820152606f017f3c72656374207374726f6b653d2223394143454536222069643d227376675f3681527f22206865696768743d223139222077696474683d223131352220793d2236372260208201527f20783d223532362e3137373622207374726f6b652d77696474683d223022206660408201526e34b6361e9111b3333333333311179f60891b6060820152606f017f3c70617468207374726f6b653d2223394143454536222069643d227376675f3181527f362220643d226d3237312e39383931342c3138312e35343136336c33342e393260208201527f3835382c2d36332e39393939396c39332e31343238362c306c33342e3932383560408201527f362c36332e39393939396c2d33342e39323835362c36332e39393939396c2d3960608201527f332e31343238362c306c2d33342e39323835382c2d36332e39393939397a222060808201527f7374726f6b652d77696474683d2230222066696c6c3d2223306465383737222f60a0820152601f60f91b60c082015260c1017f3c74657874207472616e73666f726d3d226d617472697828312e39363830352081527f30203020312e3635363133202d3233322e393431202d3133342e33323629222060208201527f7374726f6b653d22233941434545362220786d6c3a73706163653d227072657360408201527f657276652220746578742d616e63686f723d2273746172742220666f6e742d6660608201527f616d696c793d22274172696d6f272220666f6e742d73697a653d22323422206960808201527f643d227376675f31392220793d223139372e35373931322220783d223238372e60a08201527f3931363122207374726f6b652d77696474683d2230222066696c6c3d2223303060c08201526d18181818111f239e17ba32bc3a1f60911b60e082015260ee017f3c7465787420786d6c3a73706163653d2270726573657276652220746578742d81527f616e63686f723d2273746172742220666f6e742d66616d696c793d222741726960208201527f6d6f272220666f6e742d73697a653d223234222069643d227376675f3232222060408201527f793d223238382e30353837342220783d223239312e383234313722207374726f60608201527f6b652d77696474683d223022207374726f6b653d22233941434545362220666960808201527f6c6c3d2223666666666666223e596f7572204e616d653c2f746578743e00000060a082015260bd017f3c72656374207374726f6b653d2223303030303030222069643d227376675f3281527f3322206865696768743d223332222077696474683d223234382220793d22333060208201527f372e37363436352220783d223233322e303030363522207374726f6b652d776960408201527f6474683d2232222066696c6c3d2223666666666666222f3e000000000000000060608201526078017f3c7465787420786d6c3a73706163653d2270726573657276652220746578742d81527f616e63686f723d2273746172742220666f6e742d66616d696c793d222741726960208201527f6d6f272220666f6e742d73697a653d223234222069643d227376675f3234222060408201527f793d223430312e35383831372220783d223135332e333533343822207374726f60608201527f6b652d77696474683d223022207374726f6b653d22233030303030302220666960808201526c36361e9111b33333333333111f60991b60a082015260ad01635465616d60e01b8152600401661e17ba32bc3a1f60c91b81526007017f3c726563742066696c6c3d222366666666666622207374726f6b652d7769647481527f683d22322220783d223235362e37303636392220793d223337332e363437343360208201527f222077696474683d2232343822206865696768743d223332222069643d22737660408201527f675f3522207374726f6b653d2223303030303030222f3e00000000000000000060608201526077017f3c74657874207374796c653d22637572736f723a206d6f76653b22207374726f81527f6b653d22233030303030302220786d6c3a73706163653d22707265736572766560208201527f2220746578742d616e63686f723d2273746172742220666f6e742d66616d696c60408201527f793d22274172696d6f272220666f6e742d73697a653d223234222069643d227360608201527f76675f33302220793d223435352e37303539312220783d223132362e3634373460808201527f3322207374726f6b652d77696474683d2230222066696c6c3d2223666666666660a08201526233111f60e91b60c082015260c301664d65737361676560c81b8152600701661e17ba32bc3a1f60c91b81526007017f3c72656374207374726f6b653d2223303030303030222066696c6c3d2223666681527f6666666622207374726f6b652d77696474683d22322220783d223235362e373060208201527f3636392220793d223433312e3239343837222077696474683d2232343822206860408201527f65696768743d2233342e3335323935222069643d227376675f37222f3e0000006060820152607d017f3c74657874207374796c653d22637572736f723a206d6f76653b2220786d6c3a81527f73706163653d2270726573657276652220746578742d616e63686f723d22737460208201527f6172742220666f6e742d66616d696c793d22274172696d6f272220666f6e742d60408201527f73697a653d223234222069643d227376675f33322220793d223538322e30353960608201527f2220783d223237342e333533343722207374726f6b652d77696474683d22302260808201527f207374726f6b653d2223303030303030222066696c6c3d22236666666666662260a08201526d1f3c3c3c3c3c3c1e17ba32bc3a1f60911b60c082015260ce017f203c7465787420786d6c3a73706163653d22707265736572766522207465787481527f2d616e63686f723d2273746172742220666f6e742d66616d696c793d2227417260208201527f696d6f272220666f6e742d73697a653d223234222069643d227376675f33332260408201527f20793d223632342e363437332220783d223235372e313138313322207374726f60608201527f6b652d77696474683d223022207374726f6b653d22233030303030302220666960808201527f6c6c3d2223666666666666223e7878782d787878782d7878783c2f746578743e60a08201527f3c746578742066696c6c3d222330303030303022207374726f6b653d2223666660c08201527f6666666622207374726f6b652d77696474683d22302220783d223332342e373660e08201527f3535352220793d223333332e3934313339222069643d227376675f31342220666101008201527f6f6e742d73697a653d2232342220666f6e742d66616d696c793d22274172696d6101208201527f6f272220746578742d616e63686f723d2273746172742220786d6c3a737061636101408201526c329e91383932b9b2b93b32911f60991b61016082015261016d016139c4916128c5565b661e17ba32bc3a1f60c91b81526007017f3c746578742066696c6c3d222330303030303022207374726f6b653d2223666681527f6666666622207374726f6b652d77696474683d22302220783d223237342e313760208201527f3639392220793d223339382e3634373639222069643d227376675f313522206660408201527f6f6e742d73697a653d2232342220666f6e742d66616d696c793d22274172696d60608201527f6f272220746578742d616e63686f723d2273746172742220786d6c3a7370616360808201526c329e91383932b9b2b93b32911f60991b60a082015260ad01613ab1916128c5565b661e17ba32bc3a1f60c91b81526007017f3c746578742066696c6c3d222330303030303022207374726f6b653d2223666681527f6666666622207374726f6b652d77696474683d22302220783d223237342e313760208201527f3639392220793d223435372e34373136222069643d227376675f31372220666f60408201527f6e742d73697a653d2232342220666f6e742d66616d696c793d22274172696d6f60608201527f272220746578742d616e63686f723d2273746172742220786d6c3a737061636560808201526b1e91383932b9b2b93b32911f60a11b60a082015260ac01613b9d916128c5565b661e17ba32bc3a1f60c91b8152600701651e17b9bb339f60d11b815260060103601f1981018252613bce9082610523565b6103459061297b565b90613be19161211a565b90549060031b1c9056fe036b6384b5eca791c62761152d0c79bb0604c104a5fb6f4eb0703f3154bb3db0a665d3385c074a5fa4bcec2a570c94dbdb08d6b09bca4e08f8c3951c94a3d998a49807205ce4d355092ef5a8a18f56e8913cf4a201fbe287825b095693c21775a264697066735822122073519cb1440e24efe2791aac2c7afceb2b9f078c4d40165183495bf88b7229f864736f6c634300081300332f8788117e7eff1d82e926ec794901d17c78024a50270940304540a733656f0d",
  "linkReferences": {},
  "deployedLinkReferences": {}
}