{
  "_format": "hh-sol-artifact-1",
  "contractName": "BusinessCard",
  "sourceName": "contracts/BusinessCard.sol",
  "abi": [
    {
      "inputs": [
        {
          "internalType": "address",
          "name": "employeeIdAddress",
          "type": "address"
        }
      ],
      "stateMutability": "nonpayable",
      "type": "constructor"
    },
    {
      "inputs": [],
      "name": "AccessControlBadConfirmation",
      "type": "error"
    },
    {
      "inputs": [
        {
          "internalType": "address",
          "name": "account",
          "type": "address"
        },
        {
          "internalType": "bytes32",
          "name": "neededRole",
          "type": "bytes32"
        }
      ],
      "name": "AccessControlUnauthorizedAccount",
      "type": "error"
    },
    {
      "inputs": [
        {
          "internalType": "address",
          "name": "sender",
          "type": "address"
        },
        {
          "internalType": "uint256",
          "name": "balance",
          "type": "uint256"
        },
        {
          "internalType": "uint256",
          "name": "needed",
          "type": "uint256"
        },
        {
          "internalType": "uint256",
          "name": "tokenId",
          "type": "uint256"
        }
      ],
      "name": "ERC1155InsufficientBalance",
      "type": "error"
    },
    {
      "inputs": [
        {
          "internalType": "address",
          "name": "approver",
          "type": "address"
        }
      ],
      "name": "ERC1155InvalidApprover",
      "type": "error"
    },
    {
      "inputs": [
        {
          "internalType": "uint256",
          "name": "idsLength",
          "type": "uint256"
        },
        {
          "internalType": "uint256",
          "name": "valuesLength",
          "type": "uint256"
        }
      ],
      "name": "ERC1155InvalidArrayLength",
      "type": "error"
    },
    {
      "inputs": [
        {
          "internalType": "address",
          "name": "operator",
          "type": "address"
        }
      ],
      "name": "ERC1155InvalidOperator",
      "type": "error"
    },
    {
      "inputs": [
        {
          "internalType": "address",
          "name": "receiver",
          "type": "address"
        }
      ],
      "name": "ERC1155InvalidReceiver",
      "type": "error"
    },
    {
      "inputs": [
        {
          "internalType": "address",
          "name": "sender",
          "type": "address"
        }
      ],
      "name": "ERC1155InvalidSender",
      "type": "error"
    },
    {
      "inputs": [
        {
          "internalType": "address",
          "name": "operator",
          "type": "address"
        },
        {
          "internalType": "address",
          "name": "owner",
          "type": "address"
        }
      ],
      "name": "ERC1155MissingApprovalForAll",
      "type": "error"
    },
    {
      "anonymous": false,
      "inputs": [
        {
          "indexed": true,
          "internalType": "address",
          "name": "account",
          "type": "address"
        },
        {
          "indexed": true,
          "internalType": "address",
          "name": "operator",
          "type": "address"
        },
        {
          "indexed": false,
          "internalType": "bool",
          "name": "approved",
          "type": "bool"
        }
      ],
      "name": "ApprovalForAll",
      "type": "event"
    },
    {
      "anonymous": false,
      "inputs": [
        {
          "indexed": true,
          "internalType": "bytes32",
          "name": "role",
          "type": "bytes32"
        },
        {
          "indexed": true,
          "internalType": "bytes32",
          "name": "previousAdminRole",
          "type": "bytes32"
        },
        {
          "indexed": true,
          "internalType": "bytes32",
          "name": "newAdminRole",
          "type": "bytes32"
        }
      ],
      "name": "RoleAdminChanged",
      "type": "event"
    },
    {
      "anonymous": false,
      "inputs": [
        {
          "indexed": true,
          "internalType": "bytes32",
          "name": "role",
          "type": "bytes32"
        },
        {
          "indexed": true,
          "internalType": "address",
          "name": "account",
          "type": "address"
        },
        {
          "indexed": true,
          "internalType": "address",
          "name": "sender",
          "type": "address"
        }
      ],
      "name": "RoleGranted",
      "type": "event"
    },
    {
      "anonymous": false,
      "inputs": [
        {
          "indexed": true,
          "internalType": "bytes32",
          "name": "role",
          "type": "bytes32"
        },
        {
          "indexed": true,
          "internalType": "address",
          "name": "account",
          "type": "address"
        },
        {
          "indexed": true,
          "internalType": "address",
          "name": "sender",
          "type": "address"
        }
      ],
      "name": "RoleRevoked",
      "type": "event"
    },
    {
      "anonymous": false,
      "inputs": [
        {
          "indexed": true,
          "internalType": "address",
          "name": "operator",
          "type": "address"
        },
        {
          "indexed": true,
          "internalType": "address",
          "name": "from",
          "type": "address"
        },
        {
          "indexed": true,
          "internalType": "address",
          "name": "to",
          "type": "address"
        },
        {
          "indexed": false,
          "internalType": "uint256[]",
          "name": "ids",
          "type": "uint256[]"
        },
        {
          "indexed": false,
          "internalType": "uint256[]",
          "name": "values",
          "type": "uint256[]"
        }
      ],
      "name": "TransferBatch",
      "type": "event"
    },
    {
      "anonymous": false,
      "inputs": [
        {
          "indexed": true,
          "internalType": "address",
          "name": "operator",
          "type": "address"
        },
        {
          "indexed": true,
          "internalType": "address",
          "name": "from",
          "type": "address"
        },
        {
          "indexed": true,
          "internalType": "address",
          "name": "to",
          "type": "address"
        },
        {
          "indexed": false,
          "internalType": "uint256",
          "name": "id",
          "type": "uint256"
        },
        {
          "indexed": false,
          "internalType": "uint256",
          "name": "value",
          "type": "uint256"
        }
      ],
      "name": "TransferSingle",
      "type": "event"
    },
    {
      "anonymous": false,
      "inputs": [
        {
          "indexed": false,
          "internalType": "string",
          "name": "value",
          "type": "string"
        },
        {
          "indexed": true,
          "internalType": "uint256",
          "name": "id",
          "type": "uint256"
        }
      ],
      "name": "URI",
      "type": "event"
    },
    {
      "inputs": [],
      "name": "ADMIN_ROLE",
      "outputs": [
        {
          "internalType": "bytes32",
          "name": "",
          "type": "bytes32"
        }
      ],
      "stateMutability": "view",
      "type": "function"
    },
    {
      "inputs": [],
      "name": "DEFAULT_ADMIN_ROLE",
      "outputs": [
        {
          "internalType": "bytes32",
          "name": "",
          "type": "bytes32"
        }
      ],
      "stateMutability": "view",
      "type": "function"
    },
    {
      "inputs": [
        {
          "internalType": "address",
          "name": "newAdmin",
          "type": "address"
        }
      ],
      "name": "addAdmin",
      "outputs": [],
      "stateMutability": "nonpayable",
      "type": "function"
    },
    {
      "inputs": [
        {
          "internalType": "address",
          "name": "account",
          "type": "address"
        },
        {
          "internalType": "uint256",
          "name": "id",
          "type": "uint256"
        }
      ],
      "name": "balanceOf",
      "outputs": [
        {
          "internalType": "uint256",
          "name": "",
          "type": "uint256"
        }
      ],
      "stateMutability": "view",
      "type": "function"
    },
    {
      "inputs": [
        {
          "internalType": "address[]",
          "name": "accounts",
          "type": "address[]"
        },
        {
          "internalType": "uint256[]",
          "name": "ids",
          "type": "uint256[]"
        }
      ],
      "name": "balanceOfBatch",
      "outputs": [
        {
          "internalType": "uint256[]",
          "name": "",
          "type": "uint256[]"
        }
      ],
      "stateMutability": "view",
      "type": "function"
    },
    {
      "inputs": [
        {
          "internalType": "string",
          "name": "employeeName",
          "type": "string"
        },
        {
          "internalType": "string",
          "name": "departmentName",
          "type": "string"
        },
        {
          "internalType": "string",
          "name": "message",
          "type": "string"
        }
      ],
      "name": "generateSVG",
      "outputs": [
        {
          "internalType": "string",
          "name": "svg",
          "type": "string"
        }
      ],
      "stateMutability": "pure",
      "type": "function"
    },
    {
      "inputs": [],
      "name": "getAdmins",
      "outputs": [
        {
          "internalType": "address[]",
          "name": "",
          "type": "address[]"
        }
      ],
      "stateMutability": "view",
      "type": "function"
    },
    {
      "inputs": [],
      "name": "getAllMinters",
      "outputs": [
        {
          "internalType": "address[]",
          "name": "",
          "type": "address[]"
        }
      ],
      "stateMutability": "view",
      "type": "function"
    },
    {
      "inputs": [
        {
          "internalType": "uint256",
          "name": "tokenId",
          "type": "uint256"
        }
      ],
      "name": "getBusinessCardInfo",
      "outputs": [
        {
          "internalType": "string",
          "name": "employeeName",
          "type": "string"
        },
        {
          "internalType": "string",
          "name": "departmentName",
          "type": "string"
        },
        {
          "internalType": "string",
          "name": "message",
          "type": "string"
        }
      ],
      "stateMutability": "view",
      "type": "function"
    },
    {
      "inputs": [
        {
          "internalType": "uint256",
          "name": "tokenId",
          "type": "uint256"
        }
      ],
      "name": "getCustomTokenURI",
      "outputs": [
        {
          "internalType": "string",
          "name": "",
          "type": "string"
        }
      ],
      "stateMutability": "view",
      "type": "function"
    },
    {
      "inputs": [
        {
          "internalType": "bytes32",
          "name": "role",
          "type": "bytes32"
        }
      ],
      "name": "getRoleAdmin",
      "outputs": [
        {
          "internalType": "bytes32",
          "name": "",
          "type": "bytes32"
        }
      ],
      "stateMutability": "view",
      "type": "function"
    },
    {
      "inputs": [
        {
          "internalType": "uint256",
          "name": "tokenId",
          "type": "uint256"
        }
      ],
      "name": "getSVGData",
      "outputs": [
        {
          "internalType": "string",
          "name": "",
          "type": "string"
        }
      ],
      "stateMutability": "view",
      "type": "function"
    },
    {
      "inputs": [
        {
          "internalType": "address",
          "name": "owner",
          "type": "address"
        }
      ],
      "name": "getTokenCount",
      "outputs": [
        {
          "internalType": "uint256",
          "name": "",
          "type": "uint256"
        }
      ],
      "stateMutability": "view",
      "type": "function"
    },
    {
      "inputs": [
        {
          "internalType": "address",
          "name": "user",
          "type": "address"
        }
      ],
      "name": "getTokenIds",
      "outputs": [
        {
          "internalType": "uint256[]",
          "name": "",
          "type": "uint256[]"
        }
      ],
      "stateMutability": "view",
      "type": "function"
    },
    {
      "inputs": [
        {
          "internalType": "bytes32",
          "name": "role",
          "type": "bytes32"
        },
        {
          "internalType": "address",
          "name": "account",
          "type": "address"
        }
      ],
      "name": "grantRole",
      "outputs": [],
      "stateMutability": "nonpayable",
      "type": "function"
    },
    {
      "inputs": [
        {
          "internalType": "bytes32",
          "name": "role",
          "type": "bytes32"
        },
        {
          "internalType": "address",
          "name": "account",
          "type": "address"
        }
      ],
      "name": "hasRole",
      "outputs": [
        {
          "internalType": "bool",
          "name": "",
          "type": "bool"
        }
      ],
      "stateMutability": "view",
      "type": "function"
    },
    {
      "inputs": [
        {
          "internalType": "address",
          "name": "_address",
          "type": "address"
        }
      ],
      "name": "isAdmin",
      "outputs": [
        {
          "internalType": "bool",
          "name": "",
          "type": "bool"
        }
      ],
      "stateMutability": "view",
      "type": "function"
    },
    {
      "inputs": [
        {
          "internalType": "address",
          "name": "account",
          "type": "address"
        },
        {
          "internalType": "address",
          "name": "operator",
          "type": "address"
        }
      ],
      "name": "isApprovedForAll",
      "outputs": [
        {
          "internalType": "bool",
          "name": "",
          "type": "bool"
        }
      ],
      "stateMutability": "view",
      "type": "function"
    },
    {
      "inputs": [
        {
          "internalType": "uint256",
          "name": "tokenId",
          "type": "uint256"
        },
        {
          "internalType": "address[]",
          "name": "toAddresses",
          "type": "address[]"
        }
      ],
      "name": "mintExistingBusinessCardNFT",
      "outputs": [],
      "stateMutability": "nonpayable",
      "type": "function"
    },
    {
      "inputs": [
        {
          "internalType": "address",
          "name": "to",
          "type": "address"
        },
        {
          "internalType": "uint256",
          "name": "tokenId",
          "type": "uint256"
        },
        {
          "internalType": "string",
          "name": "employeeName",
          "type": "string"
        },
        {
          "internalType": "string",
          "name": "departmentName",
          "type": "string"
        },
        {
          "internalType": "string",
          "name": "message",
          "type": "string"
        }
      ],
      "name": "mintNewBusinessCardNFT",
      "outputs": [],
      "stateMutability": "nonpayable",
      "type": "function"
    },
    {
      "inputs": [
        {
          "internalType": "address",
          "name": "admin",
          "type": "address"
        }
      ],
      "name": "removeAdmin",
      "outputs": [],
      "stateMutability": "nonpayable",
      "type": "function"
    },
    {
      "inputs": [
        {
          "internalType": "address",
          "name": "admin",
          "type": "address"
        }
      ],
      "name": "removeAdminFromList",
      "outputs": [],
      "stateMutability": "nonpayable",
      "type": "function"
    },
    {
      "inputs": [
        {
          "internalType": "bytes32",
          "name": "role",
          "type": "bytes32"
        },
        {
          "internalType": "address",
          "name": "callerConfirmation",
          "type": "address"
        }
      ],
      "name": "renounceRole",
      "outputs": [],
      "stateMutability": "nonpayable",
      "type": "function"
    },
    {
      "inputs": [
        {
          "internalType": "bytes32",
          "name": "role",
          "type": "bytes32"
        },
        {
          "internalType": "address",
          "name": "account",
          "type": "address"
        }
      ],
      "name": "revokeRole",
      "outputs": [],
      "stateMutability": "nonpayable",
      "type": "function"
    },
    {
      "inputs": [
        {
          "internalType": "address",
          "name": "from",
          "type": "address"
        },
        {
          "internalType": "address",
          "name": "to",
          "type": "address"
        },
        {
          "internalType": "uint256[]",
          "name": "ids",
          "type": "uint256[]"
        },
        {
          "internalType": "uint256[]",
          "name": "values",
          "type": "uint256[]"
        },
        {
          "internalType": "bytes",
          "name": "data",
          "type": "bytes"
        }
      ],
      "name": "safeBatchTransferFrom",
      "outputs": [],
      "stateMutability": "nonpayable",
      "type": "function"
    },
    {
      "inputs": [
        {
          "internalType": "address",
          "name": "from",
          "type": "address"
        },
        {
          "internalType": "address",
          "name": "to",
          "type": "address"
        },
        {
          "internalType": "uint256",
          "name": "id",
          "type": "uint256"
        },
        {
          "internalType": "uint256",
          "name": "value",
          "type": "uint256"
        },
        {
          "internalType": "bytes",
          "name": "data",
          "type": "bytes"
        }
      ],
      "name": "safeTransferFrom",
      "outputs": [],
      "stateMutability": "nonpayable",
      "type": "function"
    },
    {
      "inputs": [
        {
          "internalType": "address",
          "name": "operator",
          "type": "address"
        },
        {
          "internalType": "bool",
          "name": "approved",
          "type": "bool"
        }
      ],
      "name": "setApprovalForAll",
      "outputs": [],
      "stateMutability": "nonpayable",
      "type": "function"
    },
    {
      "inputs": [
        {
          "internalType": "bytes4",
          "name": "interfaceId",
          "type": "bytes4"
        }
      ],
      "name": "supportsInterface",
      "outputs": [
        {
          "internalType": "bool",
          "name": "",
          "type": "bool"
        }
      ],
      "stateMutability": "view",
      "type": "function"
    },
    {
      "inputs": [
        {
          "internalType": "uint256",
          "name": "tokenId",
          "type": "uint256"
        },
        {
          "internalType": "string",
          "name": "newEmployeeName",
          "type": "string"
        },
        {
          "internalType": "string",
          "name": "newDepartmentName",
          "type": "string"
        },
        {
          "internalType": "string",
          "name": "newMessage",
          "type": "string"
        }
      ],
      "name": "updateEmployeeInfo",
      "outputs": [],
      "stateMutability": "nonpayable",
      "type": "function"
    },
    {
      "inputs": [
        {
          "internalType": "uint256",
          "name": "tokenId",
          "type": "uint256"
        }
      ],
      "name": "uri",
      "outputs": [
        {
          "internalType": "string",
          "name": "",
          "type": "string"
        }
      ],
      "stateMutability": "view",
      "type": "function"
    }
  ],
  "bytecode": "0x608034620001df576001600160401b0390601f6200400738819003918201601f191683019184831184841017620001c957808492602094604052833981010312620001df57516001600160a01b0381169190829003620001df57604051906020820190811182821017620001c9576040526000809152600254906001918281811c91168015620001be575b6020821014620001aa57601f81116200015c575b50806002558060065560018060a01b031992836004541617600455620000c433620001e4565b50620000d03362000265565b50600554916801000000000000000083101562000148578201806005558210156200013457600590527f036b6384b5eca791c62761152d0c79bb0604c104a5fb6f4eb0703f3154bb3db001805490911633179055604051613cde9081620003098239f35b634e487b7160e01b81526032600452602490fd5b634e487b7160e01b82526041600452602482fd5b60028252601f0160051c7f405787fa12a823e0f2b7631cc41b3ba8828b3321ca811111fa75cd3aa3bb5ace9081019083905b8281106200019e5750506200009e565b8381550183906200018e565b634e487b7160e01b82526022600452602482fd5b90607f16906200008a565b634e487b7160e01b600052604160045260246000fd5b600080fd5b6001600160a01b031660008181527f3617319a054d772f909f7c479a2cebe5066e836a939412e32403c99029b92eff602052604081205490919060ff16620002615781805260036020526040822081835260205260408220600160ff19825416179055339160008051602062003fe78339815191528180a4600190565b5090565b6001600160a01b031660008181527fa665d3385c074a5fa4bcec2a570c94dbdb08d6b09bca4e08f8c3951c94a3d99860205260408120549091907fa49807205ce4d355092ef5a8a18f56e8913cf4a201fbe287825b095693c217759060ff16620003035780835260036020526040832082845260205260408320600160ff1982541617905560008051602062003fe7833981519152339380a4600190565b50509056fe6080604052600436101561001257600080fd5b60003560e01c8062fdd58e146101f657806301ffc9a7146101f15780630e89341c146101ec5780631222ed27146101e75780631785f53c146101e25780631d02aa27146101dd578063248a9ca3146101d857806324d7806c146101d35780632eb2c2d6146101ce5780632f2ff15d146101c957806331ae450b146101c457806336568abe146101bf5780634e1273f4146101ba57806354c10365146101b557806356e496aa146101b057806370480275146101ab57806375b238fc146101a657806376727fa3146101a157806391d148541461019c578063a045442c14610197578063a217fddf14610192578063a22cb4651461018d578063ac6ebb3414610188578063bd45f0f514610183578063c66587c41461017e578063d004b03614610179578063d547741f14610174578063dc2ea8101461016f578063e985e9c51461016a5763f242432a1461016557600080fd5b6117de565b611782565b61169a565b611658565b611590565b6114d2565b61146f565b61135c565b61129c565b611280565b611205565b6111bb565b61117e565b611155565b611080565b610ecd565b610deb565b610d00565b610c08565b610b8a565b610b04565b6109d9565b610902565b6108d3565b6106ba565b610649565b6105c5565b610358565b610274565b610211565b6001600160a01b0381160361020c57565b600080fd5b3461020c57604036600319011261020c576020610259600435610233816101fb565b6024356000526000835260406000209060018060a01b0316600052602052604060002090565b54604051908152f35b6001600160e01b031981160361020c57565b3461020c57602036600319011261020c57602060043561029381610262565b63ffffffff60e01b16637965db0b60e01b81149081156102b9575b506040519015158152f35b636cdb3d1360e11b8114915081156102eb575b81156102da575b50386102ae565b6301ffc9a760e01b149050386102d3565b6303a24d0760e21b811491506102cc565b60005b83811061030f5750506000910152565b81810151838201526020016102ff565b90602091610338815180928185528580860191016102fc565b601f01601f1916010190565b90602061035592818152019061031f565b90565b3461020c57602036600319011261020c576104f96104e36004358060005260076020526104ef6104236104af6040936104966104886103e5876000208851946103a086610513565b6103a9826128a5565b86526103d96103cd60026103bf600186016128a5565b9460208a01958652016128a5565b918b8801928352612b23565b95519151905191612c66565b61041d6104536104318a5198899761041d60208a01601690751ec89b985b59488e880891d7d0dbdb5c185b9e53919560521b81520190565b90612986565b61088b60f21b815260020190565b750899195cd8dc9a5c1d1a5bdb888e880895195cdd088b60521b815260160190565b7f22696d616765223a22646174613a696d6167652f7376672b786d6c3b626173658152620d8d0b60ea1b602082015260230190565b61227d60f01b815260020190565b03916104aa601f1993848101835282610533565b612a3c565b83517f646174613a6170706c69636174696f6e2f6a736f6e3b6261736536342c0000006020820152948591603d830161041d565b03908101845283610533565b5191829182610344565b0390f35b634e487b7160e01b600052604160045260246000fd5b606081019081106001600160401b0382111761052e57604052565b6104fd565b90601f801991011681019081106001600160401b0382111761052e57604052565b6040519061056182610513565b565b6001600160401b03811161052e57601f01601f191660200190565b81601f8201121561020c5780359061059582610563565b926105a36040519485610533565b8284526020838301011161020c57816000926020809301838601378301015290565b3461020c57606036600319011261020c576001600160401b0360043581811161020c576105f690369060040161057e565b9060243581811161020c5761060f90369060040161057e565b9160443591821161020c576104f99261062f61063593369060040161057e565b91612c66565b60405191829160208352602083019061031f565b3461020c57602036600319011261020c576106b8600435610669816101fb565b610671611903565b600080516020613c8983398151915260005260036020527fa665d3385c074a5fa4bcec2a570c94dbdb08d6b09bca4e08f8c3951c94a3d999546106b3906119b3565b611aa7565b005b3461020c5760a036600319011261020c57600480356106d8816101fb565b6001600160401b039160243560443584811161020c576106fb903690840161057e565b9260643585811161020c57610713903690850161057e565b9360843595861161020c57602083610731610777983690880161057e565b9561073a61195b565b8054610756906001600160a01b03165b6001600160a01b031690565b6040516331a9108f60e11b8152918201928352909889928391829160200190565b03915afa9384156108ce576106b89660009561088e575b506001600160a01b03808416966108889661088395946108329490939092916107b991168a146122db565b6107f26107eb866107d48a6000526000602052604060002090565b9060018060a01b0316600052602052604060002090565b541561231b565b6108046107fd611ee6565b88876125b6565b61080c610554565b9283526020830152604082015261082d856000526007602052604060002090565b6124b4565b6108693361084a856000526009602052604060002090565b80546001600160a01b0319166001600160a01b03909216919091179055565b6001600160a01b0316600090815260086020526040902090565b6127a0565b50612729565b610888955091610832916108bc610883959460203d81116108c7575b6108b48183610533565b8101906122c6565b96509150919261078e565b503d6108aa565b611eda565b3461020c57602036600319011261020c5760043560005260036020526020600160406000200154604051908152f35b3461020c57602036600319011261020c57602060ff610958600435610926816101fb565b600080516020613c898339815191526000526003845260406000209060018060a01b0316600052602052604060002090565b54166040519015158152f35b6001600160401b03811161052e5760051b60200190565b81601f8201121561020c5780359161099283610964565b926109a06040519485610533565b808452602092838086019260051b82010192831161020c578301905b8282106109ca575050505090565b813581529083019083016109bc565b3461020c5760a036600319011261020c57600480356109f7816101fb565b602435610a03816101fb565b6001600160401b039060443582811161020c57610a23903690860161097b565b9060643583811161020c57610a3b903690870161097b565b9260843590811161020c57610a53903690870161057e565b936001600160a01b03808216903382141580610ae0575b610ab357831615610a9b5715610a84576106b89550611bf8565b604051626a0d4560e21b8152600081880152602490fd5b604051632bfa23e760e11b8152600081890152602490fd5b6040805163711bec9160e11b815233818b019081526001600160a01b038616602082015290918291010390fd5b50600082815260016020908152604080832033845290915290205460ff1615610a6a565b3461020c57604036600319011261020c576106b8602435600435610b27826101fb565b806000526003602052610b416001604060002001546119b3565b611a7b565b6020908160408183019282815285518094520193019160005b828110610b6d575050505090565b83516001600160a01b031685529381019392810192600101610b5f565b3461020c57600036600319011261020c5760405180600554918281526020809101926005600052600080516020613c49833981519152916000905b828210610be8576104f985610bdc81890382610533565b60405191829182610b46565b83546001600160a01b031686529485019460019384019390910190610bc5565b3461020c57604036600319011261020c57602435610c25816101fb565b336001600160a01b03821603610c41576106b890600435611b46565b60405163334bd91960e11b8152600490fd5b81601f8201121561020c57803591610c6a83610964565b92610c786040519485610533565b808452602092838086019260051b82010192831161020c578301905b828210610ca2575050505090565b8380918335610cb0816101fb565b815201910190610c94565b90815180825260208080930193019160005b828110610cdb575050505090565b835185529381019392810192600101610ccd565b906020610355928181520190610cbb565b3461020c5760408060031936011261020c576001600160401b0360043581811161020c57610d32903690600401610c53565b9060243590811161020c57610d4b90369060040161097b565b81518151808203610dca575050610d628251611b72565b906000805b8451811015610dbd5780610da7610db89260051b8460208080848c01015193890101518252528885209060018060a01b0316600052602052604060002090565b54610db28287611be4565b52611bba565b610d67565b8551806104f98682610cef565b8451635b05999160e01b815260048101919091526024810191909152604490fd5b3461020c57602036600319011261020c57600435610e08816101fb565b600580546000926001600160a01b0390811690845b838110610e28578580f35b8454811015610ec857848652828282600080516020613c4983398151915201541614610e5c57610e5790611bba565b610e1d565b92610eb79450610e989250610e929150610e78610e7d91612248565b6121b6565b905460039190911b1c6001600160a01b031690565b916121b6565b90919082549060031b9160018060a01b03809116831b921b1916179055565b610ebf612257565b38808080808580f35b611bce565b3461020c57608036600319011261020c576001600160401b0360043560243582811161020c57610f0190369060040161057e565b9060443583811161020c57610f1a90369060040161057e565b9060643593841161020c5761106b61042361102a610f8961105f9661107b96610f4a6106b89a369060040161057e565b91610f5361195b565b610f84604051610f6281610513565b82815283602082015284604082015289600052600760205260406000206124b4565b612c66565b610496610488610f9887612b23565b9261041d610ff3610fd1604051988997751ec89b985b59488e880891d7d0dbdb5c185b9e53919560521b60208a01526036890190612986565b75088b0899195cd8dc9a5c1d1a5bdb888e880895195cdd60521b815260160190565b7f222c22696d616765223a22646174613a696d6167652f7376672b786d6c3b62618152641cd94d8d0b60da1b602082015260250190565b6040517f646174613a6170706c69636174696f6e2f6a736f6e3b6261736536342c0000006020820152958691603d830161041d565b03908101855284610533565b600052600c602052604060002090565b6123e6565b3461020c57602036600319011261020c5760043561109d816101fb565b6110a5611903565b6001600160a01b0381166000908152600080516020613c6983398151915260205260408120549091600080516020613c898339815191529160ff166111115761110e91835260036020526110ff60016040852001546119b3565b611108816119d4565b506121f3565b80f35b606460405162461bcd60e51b815260206004820152602060248201527f54686973206164647265737320697320616c726561647920616e2061646d696e6044820152fd5b3461020c57600036600319011261020c576020604051600080516020613c898339815191528152f35b3461020c57602036600319011261020c5760043561119b816101fb565b60018060a01b031660005260086020526020604060002054604051908152f35b3461020c57604036600319011261020c57602060ff6109586024356111df816101fb565b6004356000526003845260406000209060018060a01b0316600052602052604060002090565b3461020c57600036600319011261020c5760405180600a5491828152602080910192600a6000527fc65a7bb8d6351c1cf70c95a316cc6a92839c986682d98bc35f958f4883f9d2a8916000905b828210611269576104f985610bdc81890382610533565b835486529485019460019384019390910190611252565b3461020c57600036600319011261020c57602060405160008152f35b3461020c57604036600319011261020c576004356112b9816101fb565b602435908115159081830361020c576001600160a01b038116928315611344576113056113169233600052600160205260406000209060018060a01b0316600052602052604060002090565b9060ff801983541691151516179055565b6040519081527f17307eab39ab6107e8899845ad3d59bd9653f200f220920489ca2b5937696c3160203392a3005b60405162ced3e160e81b815260006004820152602490fd5b3461020c57604036600319011261020c576004356024356001600160401b03811161020c5761138f903690600401610c53565b6113b26113aa336107d4856000526000602052604060002090565b541515612809565b6004546113c7906001600160a01b031661074a565b6040516331a9108f60e11b81526004810184905290602090829060249082905afa80156108ce5761140b91600091611451575b506001600160a01b0316331461284d565b60005b81518110156106b8578061144761143861142b61144c9486611be4565b516001600160a01b031690565b85611441611ee6565b916125b6565b611bba565b61140e565b611469915060203d81116108c7576108b48183610533565b386113fa565b3461020c57602036600319011261020c57600435600052600c6020526104f961063560406000206128a5565b916114c4906114b6610355959360608652606086019061031f565b90848203602086015261031f565b91604081840391015261031f565b3461020c57602036600319011261020c576004356114ef81613c19565b1561155257600052600760205260406000206040519061150e82610513565b611517816128a5565b82526104f961153b600261152d600185016128a5565b9360208601948552016128a5565b92836040820152519151926040519384938461149b565b60405162461bcd60e51b8152602060048201526016602482015275151bdad95b9259081a5cc81b9bdd08195e1a5cdd195960521b6044820152606490fd5b3461020c5760208060031936011261020c576004356115ae816101fb565b60018060a01b0316600090808252600892838152604091828420546115d281611b72565b95859386935b8385106116215750505050506115ed81611b72565b925b818110611603578251806104f98682610cef565b8061161161161c9287611be4565b51610db28287611be4565b6115ef565b909192939461164961164f91838a5285855261163f888a8c20613c34565b610db2828d611be4565b95611bba565b939291906115d8565b3461020c57604036600319011261020c576106b860243560043561167b826101fb565b8060005260036020526116956001604060002001546119b3565b611b46565b3461020c57602036600319011261020c576004356116b781613c19565b156117465761172c61173a6116f76116e46116df6104f9956000526007602052604060002090565b612949565b8051906040602082015191015191612c66565b6040517f646174613a696d6167652f7376672b786d6c3b6261736536342c0000000000006020820152928391603a830161041d565b03601f198101835282610533565b60405191829182610344565b60405162461bcd60e51b8152602060048201526014602482015273151bdad95b88191bd95cc81b9bdd08195e1a5cdd60621b6044820152606490fd5b3461020c57604036600319011261020c57602060ff6109586004356117a6816101fb565b602435906117b3826101fb565b60018060a01b03166000526001845260406000209060018060a01b0316600052602052604060002090565b3461020c5760a036600319011261020c576004356117fb816101fb565b602435611807816101fb565b6084356001600160401b03811161020c5761182690369060040161057e565b906001600160a01b038381169033821415806118df575b6118b85782161561189f5715611887576106b89261187f6064356044359160405192600184526020840152604083019160018352606084015260808301604052565b929091611bf8565b604051626a0d4560e21b815260006004820152602490fd5b604051632bfa23e760e11b815260006004820152602490fd5b60405163711bec9160e11b81523360048201526001600160a01b0386166024820152604490fd5b50600082815260016020908152604080832033845290915290205460ff161561183d565b3360009081527f3617319a054d772f909f7c479a2cebe5066e836a939412e32403c99029b92eff602052604090205460ff161561193c57565b60405163e2517d3f60e01b815233600482015260006024820152604490fd5b336000908152600080516020613c6983398151915260205260409020600080516020613c898339815191529060ff905b5416156119955750565b6044906040519063e2517d3f60e01b82523360048301526024820152fd5b6000818152600360209081526040808320338452909152902060ff9061198b565b6001600160a01b0381166000908152600080516020613c6983398151915260205260408120600080516020613c898339815191529060ff905b5416611a75578082526003602090815260408084206001600160a01b038616600090815292529020805460ff1916600117905533926001600160a01b0316917f2f8788117e7eff1d82e926ec794901d17c78024a50270940304540a733656f0d9080a4600190565b50905090565b600090808252600360205260ff611a0d84604085209060018060a01b0316600052602052604060002090565b6001600160a01b0381166000908152600080516020613c6983398151915260205260408120600080516020613c898339815191529060ff905b541615611a75578082526003602090815260408084206001600160a01b038616600090815292529020805460ff1916905533926001600160a01b0316917ff6391f5c32d9c69d2a47ea670b442974b53935d1edc7fd64eb21e047a839171b9080a4600190565b600090808252600360205260ff611ae084604085209060018060a01b0316600052602052604060002090565b90611b7c82610964565b611b896040519182610533565b8281528092611b9a601f1991610964565b0190602036910137565b634e487b7160e01b600052601160045260246000fd5b6000198114611bc95760010190565b611ba4565b634e487b7160e01b600052603260045260246000fd5b8051821015610ec85760209160051b010190565b949190918151845190818103611dff57505060005b8251811015611d0957600581901b83810160209081015191870101516001600160a01b03929186908a8516611c82575b611c50948216611c55575b505050611bba565b611c0d565b611c78916107d4611c70926000526000602052604060002090565b918254611e2f565b9055388581611c48565b9192939050611c9f8a6107d4846000526000602052604060002090565b54838110611cd25791879184611c5096959403611cca8d6107d4856000526000602052604060002090565b559450611c3d565b6040516303dee4c560e01b81526001600160a01b038c16600482015260248101919091526044810184905260648101839052608490fd5b509491939290936001855114600014611db4576020858101518382015160408051928352928201526001600160a01b03838116929086169133917fc3d58168c5ae7397731d063d5bbf3d657854427343f4c083240f7aacaa2d0f6291a45b6001600160a01b038116611d7d575b5050505050565b8451600103611da357602080611d999601519201519233612033565b3880808080611d76565b611daf9491923361217f565b611d99565b6040516001600160a01b03828116919085169033907f4a39dc06d4c0dbc64b70af90fd698a233a518aa5d07e595d983b8c0526c8f7fb9080611df7888c83611e3c565b0390a4611d67565b604051635b05999160e01b815260048101919091526024810191909152604490fd5b9060028201809211611bc957565b91908201809211611bc957565b9091611e5361035593604084526040840190610cbb565b916020818403910152610cbb565b9081602091031261020c575161035581610262565b909260a0926103559594600180861b031683526000602084015260408301526060820152816080820152019061031f565b919261035595949160a094600180871b03809216855216602084015260408301526060820152816080820152019061031f565b6040513d6000823e3d90fd5b60405190602082018281106001600160401b0382111761052e5760405260008252565b3d15611f34573d90611f1a82610563565b91611f286040519384610533565b82523d6000602084013e565b606090565b9293919093843b611f4b575050505050565b602091611f6e604051948593849363f23a6e6160e01b9889865260048601611e76565b038160006001600160a01b0388165af160009181612003575b50611fc65782611f95611f09565b8051919082611fbf57604051632bfa23e760e11b81526001600160a01b0383166004820152602490fd5b9050602001fd5b6001600160e01b03191603611fe057503880808080611d76565b604051632bfa23e760e11b81526001600160a01b03919091166004820152602490fd5b61202591925060203d811161202c575b61201d8183610533565b810190611e61565b9038611f87565b503d612013565b939290949194853b612048575b505050505050565b61206b602093604051958694859463f23a6e6160e01b998a875260048701611ea7565b038160006001600160a01b0388165af1600091816120ad575b506120925782611f95611f09565b6001600160e01b03191603611fe05750388080808080612040565b6120c691925060203d811161202c5761201d8183610533565b9038612084565b926120fc610355959361210a9360018060a01b031686526000602087015260a0604087015260a0860190610cbb565b908482036060860152610cbb565b91608081840391015261031f565b939061035595936120fc9161210a9460018060a01b03809216885216602087015260a0604087015260a0860190610cbb565b9293919093843b61215c575050505050565b602091611f6e604051948593849363bc197c8160e01b98898652600486016120cd565b939290949194853b61219357505050505050565b61206b602093604051958694859463bc197c8160e01b998a875260048701612118565b600554811015610ec8576005600052600080516020613c498339815191520190600090565b8054821015610ec85760005260206000200190600090565b60055490600160401b82101561052e576001820180600555821015610ec8576005600052600080516020613c4983398151915290910180546001600160a01b0319166001600160a01b03909216919091179055565b600019810191908211611bc957565b60055480156122b05760001981019080821015610ec8577f036b6384b5eca791c62761152d0c79bb0604c104a5fb6f4eb0703f3154bb3daf906005600052016bffffffffffffffffffffffff60a01b8154169055600555565b634e487b7160e01b600052603160045260246000fd5b9081602091031261020c5751610355816101fb565b156122e257565b60405162461bcd60e51b8152602060048201526011602482015270139bc8195b5c1b1bde5959525908139195607a1b6044820152606490fd5b1561232257565b60405162461bcd60e51b815260206004820152600e60248201526d105b1c9958591e481b5a5b9d195960921b6044820152606490fd5b90600182811c92168015612388575b602083101461237257565b634e487b7160e01b600052602260045260246000fd5b91607f1691612367565b90601f81116123a057505050565b600091825260208220906020601f850160051c830194106123dc575b601f0160051c01915b8281106123d157505050565b8181556001016123c5565b90925082906123bc565b91909182516001600160401b03811161052e5761240d816124078454612358565b84612392565b602080601f831160011461244957508192939460009261243e575b50508160011b916000199060031b1c1916179055565b015190503880612428565b90601f1983169561245f85600052602060002090565b926000905b88821061249c57505083600195969710612483575b505050811b019055565b015160001960f88460031b161c19169055388080612479565b80600185968294968601518155019501930190612464565b91909182519283516001600160401b03811161052e576124de816124d88554612358565b85612392565b6020948590601f831160011461253c576105619596836040946002969461252894600092612531575b50508160011b916000199060031b1c19161786555b820151600186016123e6565b015191016123e6565b015190503880612507565b90601f1983169161255286600052602060002090565b9260005b81811061259f57508460029694612528946105619a9b9460409860019510612586575b505050811b01865561251c565b015160001960f88460031b161c19169055388080612579565b929389600181928786015181550195019301612556565b9091906001600160a01b038116801561189f5760405190600191828152602092838201968752604082019281845260608084019583875260808501806040528551875180820361270d575050508390816000905b6126c5575b505084511415905061268957600088517fc3d58168c5ae7397731d063d5bbf3d657854427343f4c083240f7aacaa2d0f62612660885160405191829133958360209093929193604081019481520152565b0390a45b81510361267b575050610561935190519133611f39565b91509161056194503361214a565b60006040517f4a39dc06d4c0dbc64b70af90fd698a233a518aa5d07e595d983b8c0526c8f7fb3391806126bd898983611e3c565b0390a4612664565b865181101561270857806127029160051b88016126fb611c708d6107d48988860151950151946000526000602052604060002090565b9055611bba565b8261260a565b61260f565b635b05999160e01b8352608488019190915260a4870152604490fd5b80600052600b6020526040600020541560001461279a57600a54600160401b81101561052e576001810180600a55811015610ec85781907fc65a7bb8d6351c1cf70c95a316cc6a92839c986682d98bc35f958f4883f9d2a80155600a5490600052600b602052604060002055600190565b50600090565b6001810190826000528160205260406000205415600014612801578054600160401b81101561052e578060016127d992018355826121db565b81549060031b9085821b91600019901b19161790555491600052602052604060002055600190565b505050600090565b1561281057565b60405162461bcd60e51b8152602060048201526015602482015274139bdd08189d5cda5b995cdcc818d85c9908139195605a1b6044820152606490fd5b1561285457565b60405162461bcd60e51b815260206004820152602360248201527f4e6f74206f776e6572206f66206d696e74656420656d706c6f7965652049442060448201526213919560ea1b6064820152608490fd5b90604051918260008254926128b984612358565b90818452600194858116908160001461292657506001146128e3575b505061056192500383610533565b9093915060005260209081600020936000915b81831061290e575050610561935082010138806128d5565b855488840185015294850194879450918301916128f6565b91505061056194506020925060ff191682840152151560051b82010138806128d5565b9060405161295681610513565b604061298160028395612968816128a5565b8552612976600182016128a5565b6020860152016128a5565b910152565b90612999602092828151948592016102fc565b0190565b604051906129aa82610513565b604082527f6768696a6b6c6d6e6f707172737475767778797a303132333435363738392b2f6040837f4142434445464748494a4b4c4d4e4f505152535455565758595a61626364656660208201520152565b600281901b91906001600160fe1b03811603611bc957565b90612a1e82610563565b612a2b6040519182610533565b8281528092611b9a601f1991610563565b805115612b1a57612a4b61299d565b612a6f612a6a612a65612a5e8551611e21565b6003900490565b6129fc565b612a14565b91602083019181825183016020810191825193600084525b828210612ac85750505052516003900660018114612ab557600214612aaa575090565b603d90600019015390565b50603d9081600019820153600119015390565b9091956004906003809401938451600190603f9082828260121c16880101518553828282600c1c16880101518386015382828260061c1688010151600286015316850101519082015301959190612a87565b50610355611ee6565b806000917a184f03e93ff9f4daa797ed6e38ed64bf6a1f01000000000000000080821015612c58575b506d04ee2d6d415b85acef810000000080831015612c49575b50662386f26fc1000080831015612c3a575b506305f5e10080831015612c2b575b5061271080831015612c1c575b506064821015612c0c575b600a80921015612c02575b600190816021612bba828701612a14565b95860101905b612bcc575b5050505090565b600019019083906f181899199a1a9b1b9c1cb0b131b232b360811b8282061a835304918215612bfd57919082612bc0565b612bc5565b9160010191612ba9565b9190606460029104910191612b9e565b60049193920491019138612b93565b60089193920491019138612b86565b60109193920491019138612b77565b60209193920491019138612b65565b604093508104915038612b4c565b604080517f3c7376672077696474683d2237303022206865696768743d223730302220786d60208201527f6c6e733d22687474703a2f2f7777772e77332e6f72672f323030302f73766722918101919091527f207374796c653d226261636b67726f756e642d636f6c6f723a202330383833396060820152631a9d911f60e11b60808201527f3c7469746c653e456d706c6f7965654e46545f496d6167653c2f7469746c653e6084820152928392909160a484017f3c74657874207472616e73666f726d3d226d617472697828312e31313137342081527f30203020312e3337393635202d32312e31383431202d32382e3334363429222060208201527f7374726f6b653d2223394143454536222066696c6c3d2223666666666666222060408201527f7374726f6b652d77696474683d22302220783d223234322e353937393322207960608201527f3d2237342e3832303631222069643d227376675f332220666f6e742d73697a6560808201527f3d2232342220666f6e742d66616d696c793d22274172696d6f2722207465787460a08201527f2d616e63686f723d2273746172742220786d6c3a73706163653d22707265736560c08201527f7276652220666f6e742d7765696768743d22626f6c64223e427573696e65737360e08201526b1021b0b9321e17ba32bc3a1f60a11b61010082015261010c017f3c72656374207374726f6b653d2223394143454536222069643d227376675f3481527f22206865696768743d223139222077696474683d223131352220793d2233382260208201527f20783d2238312e303030323622207374726f6b652d77696474683d223022206660408201526e34b6361e9111b3333333333311179f60891b6060820152606f017f3c72656374207374726f6b653d2223394143454536222069643d227376675f3681527f22206865696768743d223139222077696474683d223131352220793d2236372260208201527f20783d2238312e303030323622207374726f6b652d77696474683d223022206660408201526e34b6361e9111b3333333333311179f60891b6060820152606f017f3c72656374207374726f6b653d2223394143454536222069643d227376675f3481527f22206865696768743d223139222077696474683d223131352220793d2233382260208201527f20783d223532362e3137373622207374726f6b652d77696474683d223022206660408201526e34b6361e9111b3333333333311179f60891b6060820152606f017f3c72656374207374726f6b653d2223394143454536222069643d227376675f3681527f22206865696768743d223139222077696474683d223131352220793d2236372260208201527f20783d223532362e3137373622207374726f6b652d77696474683d223022206660408201526e34b6361e9111b3333333333311179f60891b6060820152606f017f3c70617468207374726f6b653d2223394143454536222069643d227376675f3181527f362220643d226d3237312e39383931342c3138312e35343136336c33342e393260208201527f3835382c2d36332e39393939396c39332e31343238362c306c33342e3932383560408201527f362c36332e39393939396c2d33342e39323835362c36332e39393939396c2d3960608201527f332e31343238362c306c2d33342e39323835382c2d36332e39393939397a222060808201527f7374726f6b652d77696474683d2230222066696c6c3d2223306465383737222f60a0820152601f60f91b60c082015260c1017f3c74657874207472616e73666f726d3d226d617472697828312e39363830352081527f30203020312e3635363133202d3233322e393431202d3133342e33323629222060208201527f7374726f6b653d22233941434545362220786d6c3a73706163653d227072657360408201527f657276652220746578742d616e63686f723d2273746172742220666f6e742d6660608201527f616d696c793d22274172696d6f272220666f6e742d73697a653d22323422206960808201527f643d227376675f31392220793d223139372e35373931322220783d223238372e60a08201527f3931363122207374726f6b652d77696474683d2230222066696c6c3d2223303060c08201526d18181818111f239e17ba32bc3a1f60911b60e082015260ee017f3c7465787420786d6c3a73706163653d2270726573657276652220746578742d81527f616e63686f723d2273746172742220666f6e742d66616d696c793d222741726960208201527f6d6f272220666f6e742d73697a653d223234222069643d227376675f3232222060408201527f793d223238382e30353837342220783d223239312e383234313722207374726f60608201527f6b652d77696474683d223022207374726f6b653d22233941434545362220666960808201527f6c6c3d2223666666666666223e596f7572204e616d653c2f746578743e00000060a082015260bd017f3c72656374207374726f6b653d2223303030303030222069643d227376675f3281527f3322206865696768743d223332222077696474683d223234382220793d22333060208201527f372e37363436352220783d223233322e303030363522207374726f6b652d776960408201527f6474683d2232222066696c6c3d2223666666666666222f3e000000000000000060608201526078017f3c7465787420786d6c3a73706163653d2270726573657276652220746578742d81527f616e63686f723d2273746172742220666f6e742d66616d696c793d222741726960208201527f6d6f272220666f6e742d73697a653d223234222069643d227376675f3234222060408201527f793d223430312e35383831372220783d223135332e333533343822207374726f60608201527f6b652d77696474683d223022207374726f6b653d22233030303030302220666960808201526c36361e9111b33333333333111f60991b60a082015260ad01635465616d60e01b8152600401661e17ba32bc3a1f60c91b81526007017f3c726563742066696c6c3d222366666666666622207374726f6b652d7769647481527f683d22322220783d223235362e37303636392220793d223337332e363437343360208201527f222077696474683d2232343822206865696768743d223332222069643d22737660408201527f675f3522207374726f6b653d2223303030303030222f3e00000000000000000060608201526077017f3c74657874207374796c653d22637572736f723a206d6f76653b22207374726f81527f6b653d22233030303030302220786d6c3a73706163653d22707265736572766560208201527f2220746578742d616e63686f723d2273746172742220666f6e742d66616d696c60408201527f793d22274172696d6f272220666f6e742d73697a653d223234222069643d227360608201527f76675f33302220793d223435352e37303539312220783d223132362e3634373460808201527f3322207374726f6b652d77696474683d2230222066696c6c3d2223666666666660a08201526233111f60e91b60c082015260c301664d65737361676560c81b8152600701661e17ba32bc3a1f60c91b81526007017f3c72656374207374726f6b653d2223303030303030222066696c6c3d2223666681527f6666666622207374726f6b652d77696474683d22322220783d223235362e373060208201527f3636392220793d223433312e3239343837222077696474683d2232343822206860408201527f65696768743d2233342e3335323935222069643d227376675f37222f3e0000006060820152607d017f3c74657874207374796c653d22637572736f723a206d6f76653b2220786d6c3a81527f73706163653d2270726573657276652220746578742d616e63686f723d22737460208201527f6172742220666f6e742d66616d696c793d22274172696d6f272220666f6e742d60408201527f73697a653d223234222069643d227376675f33322220793d223538322e30353960608201527f2220783d223237342e333533343722207374726f6b652d77696474683d22302260808201527f207374726f6b653d2223303030303030222066696c6c3d22236666666666662260a08201526d1f3c3c3c3c3c3c1e17ba32bc3a1f60911b60c082015260ce017f203c7465787420786d6c3a73706163653d22707265736572766522207465787481527f2d616e63686f723d2273746172742220666f6e742d66616d696c793d2227417260208201527f696d6f272220666f6e742d73697a653d223234222069643d227376675f33332260408201527f20793d223632342e363437332220783d223235372e313138313322207374726f60608201527f6b652d77696474683d223022207374726f6b653d22233030303030302220666960808201527f6c6c3d2223666666666666223e7878782d787878782d7878783c2f746578743e60a08201527f3c746578742066696c6c3d222330303030303022207374726f6b653d2223666660c08201527f6666666622207374726f6b652d77696474683d22302220783d223332342e373660e08201527f3535352220793d223333332e3934313339222069643d227376675f31342220666101008201527f6f6e742d73697a653d2232342220666f6e742d66616d696c793d22274172696d6101208201527f6f272220746578742d616e63686f723d2273746172742220786d6c3a737061636101408201526c329e91383932b9b2b93b32911f60991b61016082015261016d01613a0691612986565b661e17ba32bc3a1f60c91b81526007017f3c746578742066696c6c3d222330303030303022207374726f6b653d2223666681527f6666666622207374726f6b652d77696474683d22302220783d223237342e313760208201527f3639392220793d223339382e3634373639222069643d227376675f313522206660408201527f6f6e742d73697a653d2232342220666f6e742d66616d696c793d22274172696d60608201527f6f272220746578742d616e63686f723d2273746172742220786d6c3a7370616360808201526c329e91383932b9b2b93b32911f60991b60a082015260ad01613af391612986565b661e17ba32bc3a1f60c91b81526007017f3c746578742066696c6c3d222330303030303022207374726f6b653d2223666681527f6666666622207374726f6b652d77696474683d22302220783d223237342e313760208201527f3639392220793d223435372e34373136222069643d227376675f31372220666f60408201527f6e742d73697a653d2232342220666f6e742d66616d696c793d22274172696d6f60608201527f272220746578742d616e63686f723d2273746172742220786d6c3a737061636560808201526b1e91383932b9b2b93b32911f60a11b60a082015260ac01613bdf91612986565b661e17ba32bc3a1f60c91b8152600701651e17b9bb339f60d11b815260060103601f1981018252613c109082610533565b61035590612a3c565b6000526007602052613c2f604060002054612358565b151590565b90613c3e916121db565b90549060031b1c9056fe036b6384b5eca791c62761152d0c79bb0604c104a5fb6f4eb0703f3154bb3db0a665d3385c074a5fa4bcec2a570c94dbdb08d6b09bca4e08f8c3951c94a3d998a49807205ce4d355092ef5a8a18f56e8913cf4a201fbe287825b095693c21775a26469706673582212208f092f6f0805cc82015d9102ca73a0ad98f94350c698f50d57ec149d26da720d64736f6c634300081300332f8788117e7eff1d82e926ec794901d17c78024a50270940304540a733656f0d",
  "linkReferences": {},
  "deployedLinkReferences": {}
}