{
  "_format": "hh-sol-artifact-1",
  "contractName": "BusinessCard",
  "sourceName": "contracts/BusinessCard.sol",
  "abi": [
    {
      "inputs": [
        {
          "internalType": "address",
          "name": "employeeIdAddress",
          "type": "address"
        }
      ],
      "stateMutability": "nonpayable",
      "type": "constructor"
    },
    {
      "inputs": [],
      "name": "AccessControlBadConfirmation",
      "type": "error"
    },
    {
      "inputs": [
        {
          "internalType": "address",
          "name": "account",
          "type": "address"
        },
        {
          "internalType": "bytes32",
          "name": "neededRole",
          "type": "bytes32"
        }
      ],
      "name": "AccessControlUnauthorizedAccount",
      "type": "error"
    },
    {
      "inputs": [
        {
          "internalType": "address",
          "name": "sender",
          "type": "address"
        },
        {
          "internalType": "uint256",
          "name": "balance",
          "type": "uint256"
        },
        {
          "internalType": "uint256",
          "name": "needed",
          "type": "uint256"
        },
        {
          "internalType": "uint256",
          "name": "tokenId",
          "type": "uint256"
        }
      ],
      "name": "ERC1155InsufficientBalance",
      "type": "error"
    },
    {
      "inputs": [
        {
          "internalType": "address",
          "name": "approver",
          "type": "address"
        }
      ],
      "name": "ERC1155InvalidApprover",
      "type": "error"
    },
    {
      "inputs": [
        {
          "internalType": "uint256",
          "name": "idsLength",
          "type": "uint256"
        },
        {
          "internalType": "uint256",
          "name": "valuesLength",
          "type": "uint256"
        }
      ],
      "name": "ERC1155InvalidArrayLength",
      "type": "error"
    },
    {
      "inputs": [
        {
          "internalType": "address",
          "name": "operator",
          "type": "address"
        }
      ],
      "name": "ERC1155InvalidOperator",
      "type": "error"
    },
    {
      "inputs": [
        {
          "internalType": "address",
          "name": "receiver",
          "type": "address"
        }
      ],
      "name": "ERC1155InvalidReceiver",
      "type": "error"
    },
    {
      "inputs": [
        {
          "internalType": "address",
          "name": "sender",
          "type": "address"
        }
      ],
      "name": "ERC1155InvalidSender",
      "type": "error"
    },
    {
      "inputs": [
        {
          "internalType": "address",
          "name": "operator",
          "type": "address"
        },
        {
          "internalType": "address",
          "name": "owner",
          "type": "address"
        }
      ],
      "name": "ERC1155MissingApprovalForAll",
      "type": "error"
    },
    {
      "anonymous": false,
      "inputs": [
        {
          "indexed": true,
          "internalType": "address",
          "name": "account",
          "type": "address"
        },
        {
          "indexed": true,
          "internalType": "address",
          "name": "operator",
          "type": "address"
        },
        {
          "indexed": false,
          "internalType": "bool",
          "name": "approved",
          "type": "bool"
        }
      ],
      "name": "ApprovalForAll",
      "type": "event"
    },
    {
      "anonymous": false,
      "inputs": [
        {
          "indexed": true,
          "internalType": "bytes32",
          "name": "role",
          "type": "bytes32"
        },
        {
          "indexed": true,
          "internalType": "bytes32",
          "name": "previousAdminRole",
          "type": "bytes32"
        },
        {
          "indexed": true,
          "internalType": "bytes32",
          "name": "newAdminRole",
          "type": "bytes32"
        }
      ],
      "name": "RoleAdminChanged",
      "type": "event"
    },
    {
      "anonymous": false,
      "inputs": [
        {
          "indexed": true,
          "internalType": "bytes32",
          "name": "role",
          "type": "bytes32"
        },
        {
          "indexed": true,
          "internalType": "address",
          "name": "account",
          "type": "address"
        },
        {
          "indexed": true,
          "internalType": "address",
          "name": "sender",
          "type": "address"
        }
      ],
      "name": "RoleGranted",
      "type": "event"
    },
    {
      "anonymous": false,
      "inputs": [
        {
          "indexed": true,
          "internalType": "bytes32",
          "name": "role",
          "type": "bytes32"
        },
        {
          "indexed": true,
          "internalType": "address",
          "name": "account",
          "type": "address"
        },
        {
          "indexed": true,
          "internalType": "address",
          "name": "sender",
          "type": "address"
        }
      ],
      "name": "RoleRevoked",
      "type": "event"
    },
    {
      "anonymous": false,
      "inputs": [
        {
          "indexed": true,
          "internalType": "address",
          "name": "operator",
          "type": "address"
        },
        {
          "indexed": true,
          "internalType": "address",
          "name": "from",
          "type": "address"
        },
        {
          "indexed": true,
          "internalType": "address",
          "name": "to",
          "type": "address"
        },
        {
          "indexed": false,
          "internalType": "uint256[]",
          "name": "ids",
          "type": "uint256[]"
        },
        {
          "indexed": false,
          "internalType": "uint256[]",
          "name": "values",
          "type": "uint256[]"
        }
      ],
      "name": "TransferBatch",
      "type": "event"
    },
    {
      "anonymous": false,
      "inputs": [
        {
          "indexed": true,
          "internalType": "address",
          "name": "operator",
          "type": "address"
        },
        {
          "indexed": true,
          "internalType": "address",
          "name": "from",
          "type": "address"
        },
        {
          "indexed": true,
          "internalType": "address",
          "name": "to",
          "type": "address"
        },
        {
          "indexed": false,
          "internalType": "uint256",
          "name": "id",
          "type": "uint256"
        },
        {
          "indexed": false,
          "internalType": "uint256",
          "name": "value",
          "type": "uint256"
        }
      ],
      "name": "TransferSingle",
      "type": "event"
    },
    {
      "anonymous": false,
      "inputs": [
        {
          "indexed": false,
          "internalType": "string",
          "name": "value",
          "type": "string"
        },
        {
          "indexed": true,
          "internalType": "uint256",
          "name": "id",
          "type": "uint256"
        }
      ],
      "name": "URI",
      "type": "event"
    },
    {
      "inputs": [],
      "name": "ADMIN_ROLE",
      "outputs": [
        {
          "internalType": "bytes32",
          "name": "",
          "type": "bytes32"
        }
      ],
      "stateMutability": "view",
      "type": "function"
    },
    {
      "inputs": [],
      "name": "DEFAULT_ADMIN_ROLE",
      "outputs": [
        {
          "internalType": "bytes32",
          "name": "",
          "type": "bytes32"
        }
      ],
      "stateMutability": "view",
      "type": "function"
    },
    {
      "inputs": [
        {
          "internalType": "address",
          "name": "newAdmin",
          "type": "address"
        }
      ],
      "name": "addAdmin",
      "outputs": [],
      "stateMutability": "nonpayable",
      "type": "function"
    },
    {
      "inputs": [
        {
          "internalType": "address",
          "name": "account",
          "type": "address"
        },
        {
          "internalType": "uint256",
          "name": "id",
          "type": "uint256"
        }
      ],
      "name": "balanceOf",
      "outputs": [
        {
          "internalType": "uint256",
          "name": "",
          "type": "uint256"
        }
      ],
      "stateMutability": "view",
      "type": "function"
    },
    {
      "inputs": [
        {
          "internalType": "address[]",
          "name": "accounts",
          "type": "address[]"
        },
        {
          "internalType": "uint256[]",
          "name": "ids",
          "type": "uint256[]"
        }
      ],
      "name": "balanceOfBatch",
      "outputs": [
        {
          "internalType": "uint256[]",
          "name": "",
          "type": "uint256[]"
        }
      ],
      "stateMutability": "view",
      "type": "function"
    },
    {
      "inputs": [
        {
          "internalType": "string",
          "name": "employeeName",
          "type": "string"
        },
        {
          "internalType": "string",
          "name": "departmentName",
          "type": "string"
        },
        {
          "internalType": "string",
          "name": "message",
          "type": "string"
        }
      ],
      "name": "generateSVG",
      "outputs": [
        {
          "internalType": "string",
          "name": "svg",
          "type": "string"
        }
      ],
      "stateMutability": "pure",
      "type": "function"
    },
    {
      "inputs": [],
      "name": "getAdmins",
      "outputs": [
        {
          "internalType": "address[]",
          "name": "",
          "type": "address[]"
        }
      ],
      "stateMutability": "view",
      "type": "function"
    },
    {
      "inputs": [
        {
          "internalType": "uint256",
          "name": "tokenId",
          "type": "uint256"
        }
      ],
      "name": "getBusinessCardInfo",
      "outputs": [
        {
          "internalType": "string",
          "name": "employeeName",
          "type": "string"
        },
        {
          "internalType": "string",
          "name": "departmentName",
          "type": "string"
        },
        {
          "internalType": "string",
          "name": "message",
          "type": "string"
        }
      ],
      "stateMutability": "view",
      "type": "function"
    },
    {
      "inputs": [
        {
          "internalType": "uint256",
          "name": "tokenId",
          "type": "uint256"
        }
      ],
      "name": "getCustomTokenURI",
      "outputs": [
        {
          "internalType": "string",
          "name": "",
          "type": "string"
        }
      ],
      "stateMutability": "view",
      "type": "function"
    },
    {
      "inputs": [
        {
          "internalType": "bytes32",
          "name": "role",
          "type": "bytes32"
        }
      ],
      "name": "getRoleAdmin",
      "outputs": [
        {
          "internalType": "bytes32",
          "name": "",
          "type": "bytes32"
        }
      ],
      "stateMutability": "view",
      "type": "function"
    },
    {
      "inputs": [
        {
          "internalType": "address",
          "name": "owner",
          "type": "address"
        }
      ],
      "name": "getTokenCount",
      "outputs": [
        {
          "internalType": "uint256",
          "name": "",
          "type": "uint256"
        }
      ],
      "stateMutability": "view",
      "type": "function"
    },
    {
      "inputs": [
        {
          "internalType": "address",
          "name": "user",
          "type": "address"
        }
      ],
      "name": "getTokenIds",
      "outputs": [
        {
          "internalType": "uint256[]",
          "name": "",
          "type": "uint256[]"
        }
      ],
      "stateMutability": "view",
      "type": "function"
    },
    {
      "inputs": [
        {
          "internalType": "bytes32",
          "name": "role",
          "type": "bytes32"
        },
        {
          "internalType": "address",
          "name": "account",
          "type": "address"
        }
      ],
      "name": "grantRole",
      "outputs": [],
      "stateMutability": "nonpayable",
      "type": "function"
    },
    {
      "inputs": [
        {
          "internalType": "bytes32",
          "name": "role",
          "type": "bytes32"
        },
        {
          "internalType": "address",
          "name": "account",
          "type": "address"
        }
      ],
      "name": "hasRole",
      "outputs": [
        {
          "internalType": "bool",
          "name": "",
          "type": "bool"
        }
      ],
      "stateMutability": "view",
      "type": "function"
    },
    {
      "inputs": [
        {
          "internalType": "address",
          "name": "_address",
          "type": "address"
        }
      ],
      "name": "isAdmin",
      "outputs": [
        {
          "internalType": "bool",
          "name": "",
          "type": "bool"
        }
      ],
      "stateMutability": "view",
      "type": "function"
    },
    {
      "inputs": [
        {
          "internalType": "address",
          "name": "account",
          "type": "address"
        },
        {
          "internalType": "address",
          "name": "operator",
          "type": "address"
        }
      ],
      "name": "isApprovedForAll",
      "outputs": [
        {
          "internalType": "bool",
          "name": "",
          "type": "bool"
        }
      ],
      "stateMutability": "view",
      "type": "function"
    },
    {
      "inputs": [
        {
          "internalType": "uint256",
          "name": "tokenId",
          "type": "uint256"
        },
        {
          "internalType": "address[]",
          "name": "toAddresses",
          "type": "address[]"
        }
      ],
      "name": "mintExistingBusinessCardNFT",
      "outputs": [],
      "stateMutability": "nonpayable",
      "type": "function"
    },
    {
      "inputs": [
        {
          "internalType": "address",
          "name": "to",
          "type": "address"
        },
        {
          "internalType": "uint256",
          "name": "tokenId",
          "type": "uint256"
        },
        {
          "internalType": "string",
          "name": "employeeName",
          "type": "string"
        },
        {
          "internalType": "string",
          "name": "departmentName",
          "type": "string"
        },
        {
          "internalType": "string",
          "name": "message",
          "type": "string"
        }
      ],
      "name": "mintNewBusinessCardNFT",
      "outputs": [],
      "stateMutability": "nonpayable",
      "type": "function"
    },
    {
      "inputs": [
        {
          "internalType": "address",
          "name": "admin",
          "type": "address"
        }
      ],
      "name": "removeAdmin",
      "outputs": [],
      "stateMutability": "nonpayable",
      "type": "function"
    },
    {
      "inputs": [
        {
          "internalType": "address",
          "name": "admin",
          "type": "address"
        }
      ],
      "name": "removeAdminFromList",
      "outputs": [],
      "stateMutability": "nonpayable",
      "type": "function"
    },
    {
      "inputs": [
        {
          "internalType": "bytes32",
          "name": "role",
          "type": "bytes32"
        },
        {
          "internalType": "address",
          "name": "callerConfirmation",
          "type": "address"
        }
      ],
      "name": "renounceRole",
      "outputs": [],
      "stateMutability": "nonpayable",
      "type": "function"
    },
    {
      "inputs": [
        {
          "internalType": "bytes32",
          "name": "role",
          "type": "bytes32"
        },
        {
          "internalType": "address",
          "name": "account",
          "type": "address"
        }
      ],
      "name": "revokeRole",
      "outputs": [],
      "stateMutability": "nonpayable",
      "type": "function"
    },
    {
      "inputs": [
        {
          "internalType": "address",
          "name": "from",
          "type": "address"
        },
        {
          "internalType": "address",
          "name": "to",
          "type": "address"
        },
        {
          "internalType": "uint256[]",
          "name": "ids",
          "type": "uint256[]"
        },
        {
          "internalType": "uint256[]",
          "name": "values",
          "type": "uint256[]"
        },
        {
          "internalType": "bytes",
          "name": "data",
          "type": "bytes"
        }
      ],
      "name": "safeBatchTransferFrom",
      "outputs": [],
      "stateMutability": "nonpayable",
      "type": "function"
    },
    {
      "inputs": [
        {
          "internalType": "address",
          "name": "from",
          "type": "address"
        },
        {
          "internalType": "address",
          "name": "to",
          "type": "address"
        },
        {
          "internalType": "uint256",
          "name": "id",
          "type": "uint256"
        },
        {
          "internalType": "uint256",
          "name": "value",
          "type": "uint256"
        },
        {
          "internalType": "bytes",
          "name": "data",
          "type": "bytes"
        }
      ],
      "name": "safeTransferFrom",
      "outputs": [],
      "stateMutability": "nonpayable",
      "type": "function"
    },
    {
      "inputs": [
        {
          "internalType": "address",
          "name": "operator",
          "type": "address"
        },
        {
          "internalType": "bool",
          "name": "approved",
          "type": "bool"
        }
      ],
      "name": "setApprovalForAll",
      "outputs": [],
      "stateMutability": "nonpayable",
      "type": "function"
    },
    {
      "inputs": [
        {
          "internalType": "bytes4",
          "name": "interfaceId",
          "type": "bytes4"
        }
      ],
      "name": "supportsInterface",
      "outputs": [
        {
          "internalType": "bool",
          "name": "",
          "type": "bool"
        }
      ],
      "stateMutability": "view",
      "type": "function"
    },
    {
      "inputs": [
        {
          "internalType": "uint256",
          "name": "tokenId",
          "type": "uint256"
        },
        {
          "internalType": "string",
          "name": "newEmployeeName",
          "type": "string"
        },
        {
          "internalType": "string",
          "name": "newDepartmentName",
          "type": "string"
        },
        {
          "internalType": "string",
          "name": "newMessage",
          "type": "string"
        }
      ],
      "name": "updateEmployeeInfo",
      "outputs": [],
      "stateMutability": "nonpayable",
      "type": "function"
    },
    {
      "inputs": [
        {
          "internalType": "uint256",
          "name": "tokenId",
          "type": "uint256"
        }
      ],
      "name": "uri",
      "outputs": [
        {
          "internalType": "string",
          "name": "",
          "type": "string"
        }
      ],
      "stateMutability": "view",
      "type": "function"
    }
  ],
  "bytecode": "0x6080346200015d576001600160401b0390601f62003e0238819003918201601f19168301918483118484101762000147578084926020946040528339810103126200015d57516001600160a01b03811691908290036200015d57604051906020820190811182821017620001475760405260008091526002546001908181811c911680156200013c575b60208210146200012857601f8111620000de575b50508060025560065560018060a01b03196004541617600455620000c13362000162565b50620000cd33620001e3565b50604051613b5b9081620002878239f35b60028352601f0160051c7f405787fa12a823e0f2b7631cc41b3ba8828b3321ca811111fa75cd3aa3bb5ace908101905b8181106200011d57506200009d565b83815582016200010e565b634e487b7160e01b83526022600452602483fd5b90607f169062000089565b634e487b7160e01b600052604160045260246000fd5b600080fd5b6001600160a01b031660008181527f3617319a054d772f909f7c479a2cebe5066e836a939412e32403c99029b92eff602052604081205490919060ff16620001df5781805260036020526040822081835260205260408220600160ff19825416179055339160008051602062003de28339815191528180a4600190565b5090565b6001600160a01b031660008181527fa665d3385c074a5fa4bcec2a570c94dbdb08d6b09bca4e08f8c3951c94a3d99860205260408120549091907fa49807205ce4d355092ef5a8a18f56e8913cf4a201fbe287825b095693c217759060ff16620002815780835260036020526040832082845260205260408320600160ff1982541617905560008051602062003de2833981519152339380a4600190565b50509056fe6080604052600436101561001257600080fd5b60003560e01c8062fdd58e146101d657806301ffc9a7146101d15780630e89341c146101cc5780631222ed27146101c75780631785f53c146101c25780631d02aa27146101bd578063248a9ca3146101b857806324d7806c146101b35780632eb2c2d6146101ae5780632f2ff15d146101a957806331ae450b146101a457806336568abe1461019f5780634e1273f41461019a57806354c103651461019557806356e496aa14610190578063704802751461018b57806375b238fc1461018657806376727fa31461018157806391d148541461017c578063a217fddf14610177578063a22cb46514610172578063ac6ebb341461016d578063bd45f0f514610168578063c66587c414610163578063d004b0361461015e578063d547741f14610159578063e985e9c5146101545763f242432a1461014f57600080fd5b611653565b6115f7565b6115b5565b6114ed565b61144f565b6113ec565b6112ce565b61120e565b6111f2565b6111a8565b61116b565b611142565b6110ae565b610ea4565b610db0565b610cc5565b610bcd565b610b03565b610ac1565b610996565b6108bf565b610890565b61069a565b610629565b6105a5565b610338565b610254565b6101f1565b6001600160a01b038116036101ec57565b600080fd5b346101ec5760403660031901126101ec576020610239600435610213816101db565b6024356000526000835260406000209060018060a01b0316600052602052604060002090565b54604051908152f35b6001600160e01b03198116036101ec57565b346101ec5760203660031901126101ec57602060043561027381610242565b63ffffffff60e01b16637965db0b60e01b8114908115610299575b506040519015158152f35b636cdb3d1360e11b8114915081156102cb575b81156102ba575b503861028e565b6301ffc9a760e01b149050386102b3565b6303a24d0760e21b811491506102ac565b60005b8381106102ef5750506000910152565b81810151838201526020016102df565b90602091610318815180928185528580860191016102dc565b601f01601f1916010190565b9060206103359281815201906102ff565b90565b346101ec5760203660031901126101ec576104d96104c36004358060005260076020526104cf61040361048f6040936104766104686103c587600020885194610380866104f3565b610389826126fe565b86526103b96103ad600261039f600186016126fe565b9460208a01958652016126fe565b918b880192835261297c565b95519151905191612b3e565b6103fd6104336104118a519889976103fd60208a01601690751ec89b985b59488e880891d7d0dbdb5c185b9e53919560521b81520190565b906127df565b61088b60f21b815260020190565b750899195cd8dc9a5c1d1a5bdb888e880895195cdd088b60521b815260160190565b7f22696d616765223a22646174613a696d6167652f7376672b786d6c3b626173658152620d8d0b60ea1b602082015260230190565b61227d60f01b815260020190565b039161048a601f1993848101835282610513565b612895565b83517f646174613a6170706c69636174696f6e2f6a736f6e3b6261736536342c0000006020820152948591603d83016103fd565b03908101845283610513565b5191829182610324565b0390f35b634e487b7160e01b600052604160045260246000fd5b606081019081106001600160401b0382111761050e57604052565b6104dd565b90601f801991011681019081106001600160401b0382111761050e57604052565b60405190610541826104f3565b565b6001600160401b03811161050e57601f01601f191660200190565b81601f820112156101ec5780359061057582610543565b926105836040519485610513565b828452602083830101116101ec57816000926020809301838601378301015290565b346101ec5760603660031901126101ec576001600160401b036004358181116101ec576105d690369060040161055e565b906024358181116101ec576105ef90369060040161055e565b916044359182116101ec576104d99261060f61061593369060040161055e565b91612b3e565b6040519182916020835260208301906102ff565b346101ec5760203660031901126101ec57610698600435610649816101db565b610651611778565b600080516020613b0683398151915260005260036020527fa665d3385c074a5fa4bcec2a570c94dbdb08d6b09bca4e08f8c3951c94a3d999546106939061183a565b611940565b005b346101ec5760a03660031901126101ec57600480356106b8816101db565b602435906001600160401b03906044358281116101ec576106dc903690860161055e565b936064358381116101ec576106f4903690830161055e565b946084359384116101ec57602085610712610758963690860161055e565b9361071b6117d0565b8054610737906001600160a01b03165b6001600160a01b031690565b6040516331a9108f60e11b8152918201928352909687928391829160200190565b03915afa91821561088b576106989661078e610807946108589760009161085d575b506001600160a01b03878116911614612143565b6107c76107c0866107a98a6000526000602052604060002090565b9060018060a01b0316600052602052604060002090565b5415612183565b6107d96107d2611d91565b888761241e565b6107e1610534565b92835260208301526040820152610802856000526007602052604060002090565b61231c565b61083e3361081f856000526009602052604060002090565b80546001600160a01b0319166001600160a01b03909216919091179055565b6001600160a01b0316600090815260086020526040902090565b612591565b61087e915060203d8111610884575b6108768183610513565b81019061212e565b3861077a565b503d61086c565b611d85565b346101ec5760203660031901126101ec5760043560005260036020526020600160406000200154604051908152f35b346101ec5760203660031901126101ec57602060ff6109156004356108e3816101db565b600080516020613b068339815191526000526003845260406000209060018060a01b0316600052602052604060002090565b54166040519015158152f35b6001600160401b03811161050e5760051b60200190565b81601f820112156101ec5780359161094f83610921565b9261095d6040519485610513565b808452602092838086019260051b8201019283116101ec578301905b828210610987575050505090565b81358152908301908301610979565b346101ec5760a03660031901126101ec57600480356109b4816101db565b6024356109c0816101db565b6001600160401b03906044358281116101ec576109e09036908601610938565b906064358381116101ec576109f89036908701610938565b926084359081116101ec57610a10903690870161055e565b936001600160a01b03808216903382141580610a9d575b610a7057831615610a585715610a41576106989550611aa3565b604051626a0d4560e21b8152600081880152602490fd5b604051632bfa23e760e11b8152600081890152602490fd5b6040805163711bec9160e11b815233818b019081526001600160a01b038616602082015290918291010390fd5b50600082815260016020908152604080832033845290915290205460ff1615610a27565b346101ec5760403660031901126101ec57610698602435600435610ae4826101db565b806000526003602052610afe60016040600020015461183a565b611914565b346101ec57600080600319360112610bca5760405180916005549081835260208093018092600583527f036b6384b5eca791c62761152d0c79bb0604c104a5fb6f4eb0703f3154bb3db090835b818110610bad5750505084610b66910385610513565b60405193838594850191818652518092526040850193925b828110610b8d57505050500390f35b83516001600160a01b031685528695509381019392810192600101610b7e565b82546001600160a01b031684529286019260019283019201610b50565b80fd5b346101ec5760403660031901126101ec57602435610bea816101db565b336001600160a01b03821603610c0657610698906004356119f1565b60405163334bd91960e11b8152600490fd5b81601f820112156101ec57803591610c2f83610921565b92610c3d6040519485610513565b808452602092838086019260051b8201019283116101ec578301905b828210610c67575050505090565b8380918335610c75816101db565b815201910190610c59565b90815180825260208080930193019160005b828110610ca0575050505090565b835185529381019392810192600101610c92565b906020610335928181520190610c80565b346101ec576040806003193601126101ec576001600160401b036004358181116101ec57610cf7903690600401610c18565b906024359081116101ec57610d10903690600401610938565b81518151808203610d8f575050610d278251611a1d565b906000805b8451811015610d825780610d6c610d7d9260051b8460208080848c01015193890101518252528885209060018060a01b0316600052602052604060002090565b54610d778287611a8f565b52611a65565b610d2c565b8551806104d98682610cb4565b8451635b05999160e01b815260048101919091526024810191909152604490fd5b346101ec5760203660031901126101ec57600435610dcd816101db565b600580546000926001600160a01b0390811690845b838110610ded578580f35b8454811015610e9f578486528282827f036b6384b5eca791c62761152d0c79bb0604c104a5fb6f4eb0703f3154bb3db001541614610e3357610e2e90611a65565b610de2565b92610e8e9450610e6f9250610e699150610e4f610e54916120b0565b612061565b905460039190911b1c6001600160a01b031690565b91612061565b90919082549060031b9160018060a01b03809116831b921b1916179055565b610e966120bf565b38808080808580f35b611a79565b346101ec5760803660031901126101ec576001600160401b036004356024358281116101ec57610ed890369060040161055e565b906044358381116101ec57610ef190369060040161055e565b906064359384116101ec57611099610403611058610fb661108d966110a996610f216106989a369060040161055e565b91610f2a6117d0565b610f4d610f45336107a98b6000526000602052604060002090565b541515612abf565b610f833360018060a01b03610f7c610f6f8c6000526009602052604060002090565b546001600160a01b031690565b1614612b00565b610fb1610f8e610534565b8281528360208201528460408201526108028a6000526007602052604060002090565b612b3e565b610476610468610fc58761297c565b926103fd611021610fff6040519889976103fd60208a01601690751ec89b985b59488e880891d7d0dbdb5c185b9e53919560521b81520190565b75088b0899195cd8dc9a5c1d1a5bdb888e880895195cdd60521b815260160190565b7f222c22696d616765223a22646174613a696d6167652f7376672b786d6c3b62618152641cd94d8d0b60da1b602082015260250190565b6040517f646174613a6170706c69636174696f6e2f6a736f6e3b6261736536342c0000006020820152958691603d83016103fd565b03908101855284610513565b600052600a602052604060002090565b61224e565b346101ec5760203660031901126101ec576004356110cb816101db565b6110d3611778565b600080516020613b0683398151915260005260036020527fa665d3385c074a5fa4bcec2a570c94dbdb08d6b09bca4e08f8c3951c94a3d999546111159061183a565b61111e8161185b565b5060055490600160401b82101561050e57610e6f8260016106989401600555612061565b346101ec5760003660031901126101ec576020604051600080516020613b068339815191528152f35b346101ec5760203660031901126101ec57600435611188816101db565b60018060a01b031660005260086020526020604060002054604051908152f35b346101ec5760403660031901126101ec57602060ff6109156024356111cc816101db565b6004356000526003845260406000209060018060a01b0316600052602052604060002090565b346101ec5760003660031901126101ec57602060405160008152f35b346101ec5760403660031901126101ec5760043561122b816101db565b60243590811515908183036101ec576001600160a01b0381169283156112b6576112776112889233600052600160205260406000209060018060a01b0316600052602052604060002090565b9060ff801983541691151516179055565b6040519081527f17307eab39ab6107e8899845ad3d59bd9653f200f220920489ca2b5937696c3160203392a3005b60405162ced3e160e81b815260006004820152602490fd5b346101ec5760403660031901126101ec576004356024356001600160401b0381116101ec57611301903690600401610c18565b61132461131c336107a9856000526000602052604060002090565b5415156125fa565b600454611339906001600160a01b031661072b565b6040516331a9108f60e11b81526004810184905290602090829060249082905afa801561088b5761137d916000916113ce575b506001600160a01b0316331461263e565b611388333014612696565b60005b815181101561069857806113c46113b56113a86113c99486611a8f565b516001600160a01b031690565b856113be611d91565b9161241e565b611a65565b61138b565b6113e6915060203d8111610884576108768183610513565b3861136c565b346101ec5760203660031901126101ec57600435600052600a6020526104d961061560406000206126fe565b916114419061143361033595936060865260608601906102ff565b9084820360208601526102ff565b9160408184039101526102ff565b346101ec5760203660031901126101ec5760043580600052600760205261147a6040600020546121c0565b156114af57600052600760205261149460406000206127a2565b80516104d96040602084015193015160405193849384611418565b60405162461bcd60e51b8152602060048201526016602482015275151bdad95b9259081a5cc81b9bdd08195e1a5cdd195960521b6044820152606490fd5b346101ec576020806003193601126101ec5760043561150b816101db565b60018060a01b03166000908082526008928381526040918284205461152f81611a1d565b95859386935b83851061157e57505050505061154a81611a1d565b925b818110611560578251806104d98682610cb4565b8061156e6115799287611a8f565b51610d778287611a8f565b61154c565b90919293946115a66115ac91838a5285855261159c888a8c20613af1565b610d77828d611a8f565b95611a65565b93929190611535565b346101ec5760403660031901126101ec576106986024356004356115d8826101db565b8060005260036020526115f260016040600020015461183a565b6119f1565b346101ec5760403660031901126101ec57602060ff61091560043561161b816101db565b60243590611628826101db565b60018060a01b03166000526001845260406000209060018060a01b0316600052602052604060002090565b346101ec5760a03660031901126101ec57600435611670816101db565b60243561167c816101db565b6084356001600160401b0381116101ec5761169b90369060040161055e565b906001600160a01b03838116903382141580611754575b61172d5782161561171457156116fc57610698926116f46064356044359160405192600184526020840152604083019160018352606084015260808301604052565b929091611aa3565b604051626a0d4560e21b815260006004820152602490fd5b604051632bfa23e760e11b815260006004820152602490fd5b60405163711bec9160e11b81523360048201526001600160a01b0386166024820152604490fd5b50600082815260016020908152604080832033845290915290205460ff16156116b2565b3360009081527f3617319a054d772f909f7c479a2cebe5066e836a939412e32403c99029b92eff602052604090205460ff16156117b157565b60405163e2517d3f60e01b815233600482015260006024820152604490fd5b3360009081527fa665d3385c074a5fa4bcec2a570c94dbdb08d6b09bca4e08f8c3951c94a3d99860205260409020600080516020613b068339815191529060ff905b54161561181c5750565b6044906040519063e2517d3f60e01b82523360048301526024820152fd5b6000818152600360209081526040808320338452909152902060ff90611812565b6001600160a01b03811660009081527fa665d3385c074a5fa4bcec2a570c94dbdb08d6b09bca4e08f8c3951c94a3d99860205260408120600080516020613b068339815191529060ff905b541661190e578082526003602090815260408084206001600160a01b038616600090815292529020805460ff1916600117905533926001600160a01b0316917f2f8788117e7eff1d82e926ec794901d17c78024a50270940304540a733656f0d9080a4600190565b50905090565b600090808252600360205260ff6118a684604085209060018060a01b0316600052602052604060002090565b6001600160a01b03811660009081527fa665d3385c074a5fa4bcec2a570c94dbdb08d6b09bca4e08f8c3951c94a3d99860205260408120600080516020613b068339815191529060ff905b54161561190e578082526003602090815260408084206001600160a01b038616600090815292529020805460ff1916905533926001600160a01b0316917ff6391f5c32d9c69d2a47ea670b442974b53935d1edc7fd64eb21e047a839171b9080a4600190565b600090808252600360205260ff61198b84604085209060018060a01b0316600052602052604060002090565b90611a2782610921565b611a346040519182610513565b8281528092611a45601f1991610921565b0190602036910137565b634e487b7160e01b600052601160045260246000fd5b6000198114611a745760010190565b611a4f565b634e487b7160e01b600052603260045260246000fd5b8051821015610e9f5760209160051b010190565b949190918151845190818103611caa57505060005b8251811015611bb457600581901b83810160209081015191870101516001600160a01b03929186908a8516611b2d575b611afb948216611b00575b505050611a65565b611ab8565b611b23916107a9611b1b926000526000602052604060002090565b918254611cda565b9055388581611af3565b9192939050611b4a8a6107a9846000526000602052604060002090565b54838110611b7d5791879184611afb96959403611b758d6107a9856000526000602052604060002090565b559450611ae8565b6040516303dee4c560e01b81526001600160a01b038c16600482015260248101919091526044810184905260648101839052608490fd5b509491939290936001855114600014611c5f576020858101518382015160408051928352928201526001600160a01b03838116929086169133917fc3d58168c5ae7397731d063d5bbf3d657854427343f4c083240f7aacaa2d0f6291a45b6001600160a01b038116611c28575b5050505050565b8451600103611c4e57602080611c449601519201519233611ede565b3880808080611c21565b611c5a9491923361202a565b611c44565b6040516001600160a01b03828116919085169033907f4a39dc06d4c0dbc64b70af90fd698a233a518aa5d07e595d983b8c0526c8f7fb9080611ca2888c83611ce7565b0390a4611c12565b604051635b05999160e01b815260048101919091526024810191909152604490fd5b9060028201809211611a7457565b91908201809211611a7457565b9091611cfe61033593604084526040840190610c80565b916020818403910152610c80565b908160209103126101ec575161033581610242565b909260a0926103359594600180861b03168352600060208401526040830152606082015281608082015201906102ff565b919261033595949160a094600180871b0380921685521660208401526040830152606082015281608082015201906102ff565b6040513d6000823e3d90fd5b60405190602082018281106001600160401b0382111761050e5760405260008252565b3d15611ddf573d90611dc582610543565b91611dd36040519384610513565b82523d6000602084013e565b606090565b9293919093843b611df6575050505050565b602091611e19604051948593849363f23a6e6160e01b9889865260048601611d21565b038160006001600160a01b0388165af160009181611eae575b50611e715782611e40611db4565b8051919082611e6a57604051632bfa23e760e11b81526001600160a01b0383166004820152602490fd5b9050602001fd5b6001600160e01b03191603611e8b57503880808080611c21565b604051632bfa23e760e11b81526001600160a01b03919091166004820152602490fd5b611ed091925060203d8111611ed7575b611ec88183610513565b810190611d0c565b9038611e32565b503d611ebe565b939290949194853b611ef3575b505050505050565b611f16602093604051958694859463f23a6e6160e01b998a875260048701611d52565b038160006001600160a01b0388165af160009181611f58575b50611f3d5782611e40611db4565b6001600160e01b03191603611e8b5750388080808080611eeb565b611f7191925060203d8111611ed757611ec88183610513565b9038611f2f565b92611fa76103359593611fb59360018060a01b031686526000602087015260a0604087015260a0860190610c80565b908482036060860152610c80565b9160808184039101526102ff565b93906103359593611fa791611fb59460018060a01b03809216885216602087015260a0604087015260a0860190610c80565b9293919093843b612007575050505050565b602091611e19604051948593849363bc197c8160e01b9889865260048601611f78565b939290949194853b61203e57505050505050565b611f16602093604051958694859463bc197c8160e01b998a875260048701611fc3565b600554811015610e9f5760056000527f036b6384b5eca791c62761152d0c79bb0604c104a5fb6f4eb0703f3154bb3db00190600090565b8054821015610e9f5760005260206000200190600090565b600019810191908211611a7457565b60055480156121185760001981019080821015610e9f577f036b6384b5eca791c62761152d0c79bb0604c104a5fb6f4eb0703f3154bb3daf906005600052016bffffffffffffffffffffffff60a01b8154169055600555565b634e487b7160e01b600052603160045260246000fd5b908160209103126101ec5751610335816101db565b1561214a57565b60405162461bcd60e51b8152602060048201526011602482015270139bc8195b5c1b1bde5959525908139195607a1b6044820152606490fd5b1561218a57565b60405162461bcd60e51b815260206004820152600e60248201526d105b1c9958591e481b5a5b9d195960921b6044820152606490fd5b90600182811c921680156121f0575b60208310146121da57565b634e487b7160e01b600052602260045260246000fd5b91607f16916121cf565b90601f811161220857505050565b600091825260208220906020601f850160051c83019410612244575b601f0160051c01915b82811061223957505050565b81815560010161222d565b9092508290612224565b91909182516001600160401b03811161050e576122758161226f84546121c0565b846121fa565b602080601f83116001146122b15750819293946000926122a6575b50508160011b916000199060031b1c1916179055565b015190503880612290565b90601f198316956122c785600052602060002090565b926000905b888210612304575050836001959697106122eb575b505050811b019055565b015160001960f88460031b161c191690553880806122e1565b806001859682949686015181550195019301906122cc565b91909182519283516001600160401b03811161050e576123468161234085546121c0565b856121fa565b6020948590601f83116001146123a4576105419596836040946002969461239094600092612399575b50508160011b916000199060031b1c19161786555b8201516001860161224e565b0151910161224e565b01519050388061236f565b90601f198316916123ba86600052602060002090565b9260005b81811061240757508460029694612390946105419a9b94604098600195106123ee575b505050811b018655612384565b015160001960f88460031b161c191690553880806123e1565b9293896001819287860151815501950193016123be565b9091906001600160a01b038116801561171457604051906001918281526020928382019687526040820192818452606080840195838752608085018060405285518751808203612575575050508390816000905b61252d575b50508451141590506124f157600088517fc3d58168c5ae7397731d063d5bbf3d657854427343f4c083240f7aacaa2d0f626124c8885160405191829133958360209093929193604081019481520152565b0390a45b8151036124e3575050610541935190519133611de4565b915091610541945033611ff5565b60006040517f4a39dc06d4c0dbc64b70af90fd698a233a518aa5d07e595d983b8c0526c8f7fb339180612525898983611ce7565b0390a46124cc565b8651811015612570578061256a9160051b8801612563611b1b8d6107a98988860151950151946000526000602052604060002090565b9055611a65565b82612472565b612477565b635b05999160e01b8352608488019190915260a4870152604490fd5b60018101908260005281602052604060002054156000146125f2578054600160401b81101561050e578060016125ca9201835582612098565b81549060031b9085821b91600019901b19161790555491600052602052604060002055600190565b505050600090565b1561260157565b60405162461bcd60e51b8152602060048201526015602482015274139bdd08189d5cda5b995cdcc818d85c9908139195605a1b6044820152606490fd5b1561264557565b60405162461bcd60e51b815260206004820152602360248201527f4e6f74206f776e6572206f66206d696e74656420656d706c6f7965652049442060448201526213919560ea1b6064820152608490fd5b1561269d57565b60405162461bcd60e51b815260206004820152603360248201527f427573696e6573732043617264204e4654206d757374206265206d696e74656460448201527208199c9bdb481d1a1a5cc818dbdb9d1c9858dd606a1b6064820152608490fd5b9060405191826000825492612712846121c0565b90818452600194858116908160001461277f575060011461273c575b505061054192500383610513565b9093915060005260209081600020936000915b8183106127675750506105419350820101388061272e565b8554888401850152948501948794509183019161274f565b91505061054194506020925060ff191682840152151560051b820101388061272e565b906040516127af816104f3565b60406127da600283956127c1816126fe565b85526127cf600182016126fe565b6020860152016126fe565b910152565b906127f2602092828151948592016102dc565b0190565b60405190612803826104f3565b604082527f6768696a6b6c6d6e6f707172737475767778797a303132333435363738392b2f6040837f4142434445464748494a4b4c4d4e4f505152535455565758595a61626364656660208201520152565b600281901b91906001600160fe1b03811603611a7457565b9061287782610543565b6128846040519182610513565b8281528092611a45601f1991610543565b805115612973576128a46127f6565b6128c86128c36128be6128b78551611ccc565b6003900490565b612855565b61286d565b91602083019181825183016020810191825193600084525b828210612921575050505251600390066001811461290e57600214612903575090565b603d90600019015390565b50603d9081600019820153600119015390565b9091956004906003809401938451600190603f9082828260121c16880101518553828282600c1c16880101518386015382828260061c16880101516002860153168501015190820153019591906128e0565b50610335611d91565b806000917a184f03e93ff9f4daa797ed6e38ed64bf6a1f01000000000000000080821015612ab1575b506d04ee2d6d415b85acef810000000080831015612aa2575b50662386f26fc1000080831015612a93575b506305f5e10080831015612a84575b5061271080831015612a75575b506064821015612a65575b600a80921015612a5b575b600190816021612a1382870161286d565b95860101905b612a25575b5050505090565b600019019083906f181899199a1a9b1b9c1cb0b131b232b360811b8282061a835304918215612a5657919082612a19565b612a1e565b9160010191612a02565b91906064600291049101916129f7565b600491939204910191386129ec565b600891939204910191386129df565b601091939204910191386129d0565b602091939204910191386129be565b6040935081049150386129a5565b15612ac657565b60405162461bcd60e51b81526020600482015260126024820152714e6f2065786973747320746f6b656e49647360701b6044820152606490fd5b15612b0757565b60405162461bcd60e51b815260206004820152600f60248201526e2737ba103a37b5b2b71037bbb732b960891b6044820152606490fd5b604080517f3c7376672077696474683d2237303022206865696768743d223730302220786d60208201527f6c6e733d22687474703a2f2f7777772e77332e6f72672f323030302f73766722918101919091527f207374796c653d226261636b67726f756e642d636f6c6f723a20233137323835606082015263199d911f60e11b60808201527f3c7469746c653e456d706c6f7965654e46545f496d6167653c2f7469746c653e6084820152928392909160a484017f3c74657874207472616e73666f726d3d226d617472697828312e31313137342081527f30203020312e3337393635202d32312e31383431202d32382e3334363429222060208201527f7374726f6b653d2223394143454536222066696c6c3d2223666666666666222060408201527f7374726f6b652d77696474683d22302220783d223234322e353937393322207960608201527f3d2237342e3832303631222069643d227376675f332220666f6e742d73697a6560808201527f3d2232342220666f6e742d66616d696c793d22274172696d6f2722207465787460a08201527f2d616e63686f723d2273746172742220786d6c3a73706163653d22707265736560c08201527f7276652220666f6e742d7765696768743d22626f6c64223e4720436f6d70616e60e08201526b3c9027232a1e17ba32bc3a1f60a11b61010082015261010c017f3c72656374207374726f6b653d2223394143454536222069643d227376675f3481527f22206865696768743d223139222077696474683d223131352220793d2233382260208201527f20783d2238312e303030323622207374726f6b652d77696474683d223022206660408201526e34b6361e9111b3333333333311179f60891b6060820152606f017f3c72656374207374726f6b653d2223394143454536222069643d227376675f3681527f22206865696768743d223139222077696474683d223131352220793d2236372260208201527f20783d2238312e303030323622207374726f6b652d77696474683d223022206660408201526e34b6361e9111b3333333333311179f60891b6060820152606f017f3c72656374207374726f6b653d2223394143454536222069643d227376675f3481527f22206865696768743d223139222077696474683d223131352220793d2233382260208201527f20783d223532362e3137373622207374726f6b652d77696474683d223022206660408201526e34b6361e9111b3333333333311179f60891b6060820152606f017f3c72656374207374726f6b653d2223394143454536222069643d227376675f3681527f22206865696768743d223139222077696474683d223131352220793d2236372260208201527f20783d223532362e3137373622207374726f6b652d77696474683d223022206660408201526e34b6361e9111b3333333333311179f60891b6060820152606f017f3c70617468207374726f6b653d2223394143454536222069643d227376675f3181527f362220643d226d3237312e39383931342c3138312e35343136336c33342e393260208201527f3835382c2d36332e39393939396c39332e31343238362c306c33342e3932383560408201527f362c36332e39393939396c2d33342e39323835362c36332e39393939396c2d3960608201527f332e31343238362c306c2d33342e39323835382c2d36332e39393939397a222060808201527f7374726f6b652d77696474683d2230222066696c6c3d2223306465383737222f60a0820152601f60f91b60c082015260c1017f3c74657874207472616e73666f726d3d226d617472697828312e39363830352081527f30203020312e3635363133202d3233322e393431202d3133342e33323629222060208201527f7374726f6b653d22233941434545362220786d6c3a73706163653d227072657360408201527f657276652220746578742d616e63686f723d2273746172742220666f6e742d6660608201527f616d696c793d22274172696d6f272220666f6e742d73697a653d22323422206960808201527f643d227376675f31392220793d223139372e35373931322220783d223238372e60a08201527f3931363122207374726f6b652d77696474683d2230222066696c6c3d2223303060c08201526d18181818111f239e17ba32bc3a1f60911b60e082015260ee017f3c7465787420786d6c3a73706163653d2270726573657276652220746578742d81527f616e63686f723d2273746172742220666f6e742d66616d696c793d222741726960208201527f6d6f272220666f6e742d73697a653d223234222069643d227376675f3232222060408201527f793d223238382e30353837342220783d223239312e383234313722207374726f60608201527f6b652d77696474683d223022207374726f6b653d22233941434545362220666960808201527f6c6c3d2223666666666666223e596f7572204e616d653c2f746578743e00000060a082015260bd017f3c72656374207374726f6b653d2223303030303030222069643d227376675f3281527f3322206865696768743d223332222077696474683d223234382220793d22333060208201527f372e37363436352220783d223233322e303030363522207374726f6b652d776960408201527f6474683d2232222066696c6c3d2223666666666666222f3e000000000000000060608201526078017f3c7465787420786d6c3a73706163653d2270726573657276652220746578742d81527f616e63686f723d2273746172742220666f6e742d66616d696c793d222741726960208201527f6d6f272220666f6e742d73697a653d223234222069643d227376675f3234222060408201527f793d223430312e35383831372220783d223135332e333533343822207374726f60608201527f6b652d77696474683d223022207374726f6b653d22233030303030302220666960808201526c36361e9111b33333333333111f60991b60a082015260ad01635465616d60e01b8152600401661e17ba32bc3a1f60c91b81526007017f3c726563742066696c6c3d222366666666666622207374726f6b652d7769647481527f683d22322220783d223235362e37303636392220793d223337332e363437343360208201527f222077696474683d2232343822206865696768743d223332222069643d22737660408201527f675f3522207374726f6b653d2223303030303030222f3e00000000000000000060608201526077017f3c74657874207374796c653d22637572736f723a206d6f76653b22207374726f81527f6b653d22233030303030302220786d6c3a73706163653d22707265736572766560208201527f2220746578742d616e63686f723d2273746172742220666f6e742d66616d696c60408201527f793d22274172696d6f272220666f6e742d73697a653d223234222069643d227360608201527f76675f33302220793d223435352e37303539312220783d223132362e3634373460808201527f3322207374726f6b652d77696474683d2230222066696c6c3d2223666666666660a08201526233111f60e91b60c082015260c301664d65737361676560c81b8152600701661e17ba32bc3a1f60c91b81526007017f3c72656374207374726f6b653d2223303030303030222066696c6c3d2223666681527f6666666622207374726f6b652d77696474683d22322220783d223235362e373060208201527f3636392220793d223433312e3239343837222077696474683d2232343822206860408201527f65696768743d2233342e3335323935222069643d227376675f37222f3e0000006060820152607d017f3c74657874207374796c653d22637572736f723a206d6f76653b2220786d6c3a81527f73706163653d2270726573657276652220746578742d616e63686f723d22737460208201527f6172742220666f6e742d66616d696c793d22274172696d6f272220666f6e742d60408201527f73697a653d223234222069643d227376675f33322220793d223538322e30353960608201527f2220783d223237342e333533343722207374726f6b652d77696474683d22302260808201527f207374726f6b653d2223303030303030222066696c6c3d22236666666666662260a08201526d1f3c3c3c3c3c3c1e17ba32bc3a1f60911b60c082015260ce017f203c7465787420786d6c3a73706163653d22707265736572766522207465787481527f2d616e63686f723d2273746172742220666f6e742d66616d696c793d2227417260208201527f696d6f272220666f6e742d73697a653d223234222069643d227376675f33332260408201527f20793d223632342e363437332220783d223235372e313138313322207374726f60608201527f6b652d77696474683d223022207374726f6b653d22233030303030302220666960808201527f6c6c3d2223666666666666223e7878782d787878782d7878783c2f746578743e60a08201527f3c746578742066696c6c3d222330303030303022207374726f6b653d2223666660c08201527f6666666622207374726f6b652d77696474683d22302220783d223332342e373660e08201527f3535352220793d223333332e3934313339222069643d227376675f31342220666101008201527f6f6e742d73697a653d2232342220666f6e742d66616d696c793d22274172696d6101208201527f6f272220746578742d616e63686f723d2273746172742220786d6c3a737061636101408201526c329e91383932b9b2b93b32911f60991b61016082015261016d016138de916127df565b661e17ba32bc3a1f60c91b81526007017f3c746578742066696c6c3d222330303030303022207374726f6b653d2223666681527f6666666622207374726f6b652d77696474683d22302220783d223237342e313760208201527f3639392220793d223339382e3634373639222069643d227376675f313522206660408201527f6f6e742d73697a653d2232342220666f6e742d66616d696c793d22274172696d60608201527f6f272220746578742d616e63686f723d2273746172742220786d6c3a7370616360808201526c329e91383932b9b2b93b32911f60991b60a082015260ad016139cb916127df565b661e17ba32bc3a1f60c91b81526007017f3c746578742066696c6c3d222330303030303022207374726f6b653d2223666681527f6666666622207374726f6b652d77696474683d22302220783d223237342e313760208201527f3639392220793d223435372e34373136222069643d227376675f31372220666f60408201527f6e742d73697a653d2232342220666f6e742d66616d696c793d22274172696d6f60608201527f272220746578742d616e63686f723d2273746172742220786d6c3a737061636560808201526b1e91383932b9b2b93b32911f60a11b60a082015260ac01613ab7916127df565b661e17ba32bc3a1f60c91b8152600701651e17b9bb339f60d11b815260060103601f1981018252613ae89082610513565b61033590612895565b90613afb91612098565b90549060031b1c9056fea49807205ce4d355092ef5a8a18f56e8913cf4a201fbe287825b095693c21775a26469706673582212209aada110aac33a0f464898a7a8217c4890802bba0f6095ce5b6674e2211fd0ca64736f6c634300081300332f8788117e7eff1d82e926ec794901d17c78024a50270940304540a733656f0d",
  "linkReferences": {},
  "deployedLinkReferences": {}
}