{
  "_format": "hh-sol-artifact-1",
  "contractName": "EmployeeId",
  "sourceName": "contracts/EmployeeId.sol",
  "abi": [
    {
      "inputs": [],
      "stateMutability": "nonpayable",
      "type": "constructor"
    },
    {
      "inputs": [
        {
          "internalType": "address",
          "name": "sender",
          "type": "address"
        },
        {
          "internalType": "uint256",
          "name": "tokenId",
          "type": "uint256"
        },
        {
          "internalType": "address",
          "name": "owner",
          "type": "address"
        }
      ],
      "name": "ERC721IncorrectOwner",
      "type": "error"
    },
    {
      "inputs": [
        {
          "internalType": "address",
          "name": "operator",
          "type": "address"
        },
        {
          "internalType": "uint256",
          "name": "tokenId",
          "type": "uint256"
        }
      ],
      "name": "ERC721InsufficientApproval",
      "type": "error"
    },
    {
      "inputs": [
        {
          "internalType": "address",
          "name": "approver",
          "type": "address"
        }
      ],
      "name": "ERC721InvalidApprover",
      "type": "error"
    },
    {
      "inputs": [
        {
          "internalType": "address",
          "name": "operator",
          "type": "address"
        }
      ],
      "name": "ERC721InvalidOperator",
      "type": "error"
    },
    {
      "inputs": [
        {
          "internalType": "address",
          "name": "owner",
          "type": "address"
        }
      ],
      "name": "ERC721InvalidOwner",
      "type": "error"
    },
    {
      "inputs": [
        {
          "internalType": "address",
          "name": "receiver",
          "type": "address"
        }
      ],
      "name": "ERC721InvalidReceiver",
      "type": "error"
    },
    {
      "inputs": [
        {
          "internalType": "address",
          "name": "sender",
          "type": "address"
        }
      ],
      "name": "ERC721InvalidSender",
      "type": "error"
    },
    {
      "inputs": [
        {
          "internalType": "uint256",
          "name": "tokenId",
          "type": "uint256"
        }
      ],
      "name": "ERC721NonexistentToken",
      "type": "error"
    },
    {
      "anonymous": false,
      "inputs": [
        {
          "indexed": true,
          "internalType": "address",
          "name": "owner",
          "type": "address"
        },
        {
          "indexed": true,
          "internalType": "address",
          "name": "approved",
          "type": "address"
        },
        {
          "indexed": true,
          "internalType": "uint256",
          "name": "tokenId",
          "type": "uint256"
        }
      ],
      "name": "Approval",
      "type": "event"
    },
    {
      "anonymous": false,
      "inputs": [
        {
          "indexed": true,
          "internalType": "address",
          "name": "owner",
          "type": "address"
        },
        {
          "indexed": true,
          "internalType": "address",
          "name": "operator",
          "type": "address"
        },
        {
          "indexed": false,
          "internalType": "bool",
          "name": "approved",
          "type": "bool"
        }
      ],
      "name": "ApprovalForAll",
      "type": "event"
    },
    {
      "anonymous": false,
      "inputs": [
        {
          "indexed": true,
          "internalType": "address",
          "name": "from",
          "type": "address"
        },
        {
          "indexed": true,
          "internalType": "address",
          "name": "to",
          "type": "address"
        },
        {
          "indexed": true,
          "internalType": "uint256",
          "name": "tokenId",
          "type": "uint256"
        }
      ],
      "name": "Transfer",
      "type": "event"
    },
    {
      "inputs": [
        {
          "internalType": "address",
          "name": "to",
          "type": "address"
        },
        {
          "internalType": "uint256",
          "name": "tokenId",
          "type": "uint256"
        }
      ],
      "name": "approve",
      "outputs": [],
      "stateMutability": "nonpayable",
      "type": "function"
    },
    {
      "inputs": [
        {
          "internalType": "address",
          "name": "owner",
          "type": "address"
        }
      ],
      "name": "balanceOf",
      "outputs": [
        {
          "internalType": "uint256",
          "name": "",
          "type": "uint256"
        }
      ],
      "stateMutability": "view",
      "type": "function"
    },
    {
      "inputs": [
        {
          "internalType": "uint256",
          "name": "tokenId",
          "type": "uint256"
        }
      ],
      "name": "exists",
      "outputs": [
        {
          "internalType": "bool",
          "name": "",
          "type": "bool"
        }
      ],
      "stateMutability": "view",
      "type": "function"
    },
    {
      "inputs": [
        {
          "internalType": "string",
          "name": "employeeName",
          "type": "string"
        },
        {
          "internalType": "string",
          "name": "departmentName",
          "type": "string"
        },
        {
          "internalType": "string",
          "name": "message",
          "type": "string"
        }
      ],
      "name": "generateSVG",
      "outputs": [
        {
          "internalType": "string",
          "name": "svg",
          "type": "string"
        }
      ],
      "stateMutability": "pure",
      "type": "function"
    },
    {
      "inputs": [
        {
          "internalType": "uint256",
          "name": "tokenId",
          "type": "uint256"
        }
      ],
      "name": "getApproved",
      "outputs": [
        {
          "internalType": "address",
          "name": "",
          "type": "address"
        }
      ],
      "stateMutability": "view",
      "type": "function"
    },
    {
      "inputs": [
        {
          "internalType": "uint256",
          "name": "tokenId",
          "type": "uint256"
        }
      ],
      "name": "getCustomTokenURI",
      "outputs": [
        {
          "internalType": "string",
          "name": "",
          "type": "string"
        }
      ],
      "stateMutability": "view",
      "type": "function"
    },
    {
      "inputs": [
        {
          "internalType": "address",
          "name": "owner",
          "type": "address"
        },
        {
          "internalType": "address",
          "name": "operator",
          "type": "address"
        }
      ],
      "name": "isApprovedForAll",
      "outputs": [
        {
          "internalType": "bool",
          "name": "",
          "type": "bool"
        }
      ],
      "stateMutability": "view",
      "type": "function"
    },
    {
      "inputs": [
        {
          "internalType": "address",
          "name": "to",
          "type": "address"
        },
        {
          "internalType": "string",
          "name": "employeeName",
          "type": "string"
        },
        {
          "internalType": "string",
          "name": "departmentName",
          "type": "string"
        },
        {
          "internalType": "string",
          "name": "message",
          "type": "string"
        }
      ],
      "name": "mintEmployeeIdNFT",
      "outputs": [],
      "stateMutability": "nonpayable",
      "type": "function"
    },
    {
      "inputs": [],
      "name": "name",
      "outputs": [
        {
          "internalType": "string",
          "name": "",
          "type": "string"
        }
      ],
      "stateMutability": "view",
      "type": "function"
    },
    {
      "inputs": [
        {
          "internalType": "uint256",
          "name": "tokenId",
          "type": "uint256"
        }
      ],
      "name": "ownerOf",
      "outputs": [
        {
          "internalType": "address",
          "name": "",
          "type": "address"
        }
      ],
      "stateMutability": "view",
      "type": "function"
    },
    {
      "inputs": [
        {
          "internalType": "address",
          "name": "from",
          "type": "address"
        },
        {
          "internalType": "address",
          "name": "to",
          "type": "address"
        },
        {
          "internalType": "uint256",
          "name": "tokenId",
          "type": "uint256"
        }
      ],
      "name": "safeTransferFrom",
      "outputs": [],
      "stateMutability": "nonpayable",
      "type": "function"
    },
    {
      "inputs": [
        {
          "internalType": "address",
          "name": "from",
          "type": "address"
        },
        {
          "internalType": "address",
          "name": "to",
          "type": "address"
        },
        {
          "internalType": "uint256",
          "name": "tokenId",
          "type": "uint256"
        },
        {
          "internalType": "bytes",
          "name": "data",
          "type": "bytes"
        }
      ],
      "name": "safeTransferFrom",
      "outputs": [],
      "stateMutability": "nonpayable",
      "type": "function"
    },
    {
      "inputs": [
        {
          "internalType": "address",
          "name": "operator",
          "type": "address"
        },
        {
          "internalType": "bool",
          "name": "approved",
          "type": "bool"
        }
      ],
      "name": "setApprovalForAll",
      "outputs": [],
      "stateMutability": "nonpayable",
      "type": "function"
    },
    {
      "inputs": [
        {
          "internalType": "bytes4",
          "name": "interfaceId",
          "type": "bytes4"
        }
      ],
      "name": "supportsInterface",
      "outputs": [
        {
          "internalType": "bool",
          "name": "",
          "type": "bool"
        }
      ],
      "stateMutability": "view",
      "type": "function"
    },
    {
      "inputs": [],
      "name": "symbol",
      "outputs": [
        {
          "internalType": "string",
          "name": "",
          "type": "string"
        }
      ],
      "stateMutability": "view",
      "type": "function"
    },
    {
      "inputs": [
        {
          "internalType": "address",
          "name": "owner",
          "type": "address"
        },
        {
          "internalType": "uint256",
          "name": "index",
          "type": "uint256"
        }
      ],
      "name": "tokenOfOwnerByIndex",
      "outputs": [
        {
          "internalType": "uint256",
          "name": "",
          "type": "uint256"
        }
      ],
      "stateMutability": "view",
      "type": "function"
    },
    {
      "inputs": [
        {
          "internalType": "uint256",
          "name": "tokenId",
          "type": "uint256"
        }
      ],
      "name": "tokenURI",
      "outputs": [
        {
          "internalType": "string",
          "name": "",
          "type": "string"
        }
      ],
      "stateMutability": "view",
      "type": "function"
    },
    {
      "inputs": [
        {
          "internalType": "address",
          "name": "from",
          "type": "address"
        },
        {
          "internalType": "address",
          "name": "to",
          "type": "address"
        },
        {
          "internalType": "uint256",
          "name": "tokenId",
          "type": "uint256"
        }
      ],
      "name": "transferFrom",
      "outputs": [],
      "stateMutability": "nonpayable",
      "type": "function"
    },
    {
      "inputs": [
        {
          "internalType": "uint256",
          "name": "tokenId",
          "type": "uint256"
        },
        {
          "internalType": "string",
          "name": "newEmployeeName",
          "type": "string"
        },
        {
          "internalType": "string",
          "name": "newDepartmentName",
          "type": "string"
        },
        {
          "internalType": "string",
          "name": "newMessage",
          "type": "string"
        }
      ],
      "name": "updateEmployeeInfo",
      "outputs": [],
      "stateMutability": "nonpayable",
      "type": "function"
    }
  ],
  "bytecode": "0x608060405260006006553480156200001657600080fd5b506040518060400160405280600b81526020017f456d706c6f7965654e46540000000000000000000000000000000000000000008152506040518060400160405280600581526020017f45504e4654000000000000000000000000000000000000000000000000000000815250816000908162000094919062000329565b508060019081620000a6919062000329565b50505062000410565b600081519050919050565b7f4e487b7100000000000000000000000000000000000000000000000000000000600052604160045260246000fd5b7f4e487b7100000000000000000000000000000000000000000000000000000000600052602260045260246000fd5b600060028204905060018216806200013157607f821691505b602082108103620001475762000146620000e9565b5b50919050565b60008190508160005260206000209050919050565b60006020601f8301049050919050565b600082821b905092915050565b600060088302620001b17fffffffffffffffffffffffffffffffffffffffffffffffffffffffffffffffff8262000172565b620001bd868362000172565b95508019841693508086168417925050509392505050565b6000819050919050565b6000819050919050565b60006200020a62000204620001fe84620001d5565b620001df565b620001d5565b9050919050565b6000819050919050565b6200022683620001e9565b6200023e620002358262000211565b8484546200017f565b825550505050565b600090565b6200025562000246565b620002628184846200021b565b505050565b5b818110156200028a576200027e6000826200024b565b60018101905062000268565b5050565b601f821115620002d957620002a3816200014d565b620002ae8462000162565b81016020851015620002be578190505b620002d6620002cd8562000162565b83018262000267565b50505b505050565b600082821c905092915050565b6000620002fe60001984600802620002de565b1980831691505092915050565b6000620003198383620002eb565b9150826002028217905092915050565b6200033482620000af565b67ffffffffffffffff81111562000350576200034f620000ba565b5b6200035c825462000118565b620003698282856200028e565b600060209050601f831160018114620003a157600084156200038c578287015190505b6200039885826200030b565b86555062000408565b601f198416620003b1866200014d565b60005b82811015620003db57848901518255600182019150602085019450602081019050620003b4565b86831015620003fb5784890151620003f7601f891682620002eb565b8355505b6001600288020188555050505b505050505050565b61476080620004206000396000f3fe608060405234801561001057600080fd5b50600436106101215760003560e01c806356e496aa116100ad578063a22cb46511610071578063a22cb4651461033e578063b88d4fde1461035a578063bd45f0f514610376578063c87b56dd146103a6578063e985e9c5146103d657610121565b806356e496aa146102885780636352211e146102a457806370a08231146102d457806395d89b4114610304578063984788511461032257610121565b80631222ed27116100f45780631222ed27146101c057806323b872dd146101f05780632f745c591461020c57806342842e0e1461023c5780634f558e791461025857610121565b806301ffc9a71461012657806306fdde0314610156578063081812fc14610174578063095ea7b3146101a4575b600080fd5b610140600480360381019061013b9190611f42565b610406565b60405161014d9190611f8a565b60405180910390f35b61015e6104e8565b60405161016b9190612035565b60405180910390f35b61018e6004803603810190610189919061208d565b61057a565b60405161019b91906120fb565b60405180910390f35b6101be60048036038101906101b99190612142565b610596565b005b6101da60048036038101906101d591906122b7565b6105ac565b6040516101e79190612035565b60405180910390f35b61020a6004803603810190610205919061235e565b6105e3565b005b61022660048036038101906102219190612142565b6106e5565b60405161023391906123c0565b60405180910390f35b6102566004803603810190610251919061235e565b610795565b005b610272600480360381019061026d919061208d565b6107b5565b60405161027f9190611f8a565b60405180910390f35b6102a2600480360381019061029d91906123db565b610842565b005b6102be60048036038101906102b9919061208d565b6109c4565b6040516102cb91906120fb565b60405180910390f35b6102ee60048036038101906102e99190612496565b6109d6565b6040516102fb91906123c0565b60405180910390f35b61030c610a90565b6040516103199190612035565b60405180910390f35b61033c600480360381019061033791906124c3565b610b22565b005b610358600480360381019061035391906125aa565b610c7f565b005b610374600480360381019061036f919061268b565b610c95565b005b610390600480360381019061038b919061208d565b610cb2565b60405161039d9190612035565b60405180910390f35b6103c060048036038101906103bb919061208d565b610d57565b6040516103cd9190612035565b60405180910390f35b6103f060048036038101906103eb919061270e565b610fa6565b6040516103fd9190611f8a565b60405180910390f35b60007f80ac58cd000000000000000000000000000000000000000000000000000000007bffffffffffffffffffffffffffffffffffffffffffffffffffffffff1916827bffffffffffffffffffffffffffffffffffffffffffffffffffffffff191614806104d157507f5b5e139f000000000000000000000000000000000000000000000000000000007bffffffffffffffffffffffffffffffffffffffffffffffffffffffff1916827bffffffffffffffffffffffffffffffffffffffffffffffffffffffff1916145b806104e157506104e08261103a565b5b9050919050565b6060600080546104f79061277d565b80601f01602080910402602001604051908101604052809291908181526020018280546105239061277d565b80156105705780601f1061054557610100808354040283529160200191610570565b820191906000526020600020905b81548152906001019060200180831161055357829003601f168201915b5050505050905090565b6000610585826110a4565b5061058f8261112c565b9050919050565b6105a882826105a3611169565b611171565b5050565b60606105da8484846040516020016105c693929190613bd7565b604051602081830303815290604052611183565b90509392505050565b600073ffffffffffffffffffffffffffffffffffffffff168273ffffffffffffffffffffffffffffffffffffffff16036106555760006040517f64a0ae9200000000000000000000000000000000000000000000000000000000815260040161064c91906120fb565b60405180910390fd5b60006106698383610664611169565b6112f5565b90508373ffffffffffffffffffffffffffffffffffffffff168173ffffffffffffffffffffffffffffffffffffffff16146106df578382826040517f64283d7b0000000000000000000000000000000000000000000000000000000081526004016106d693929190613d31565b60405180910390fd5b50505050565b60006106f0836109d6565b8210610731576040517f08c379a000000000000000000000000000000000000000000000000000000000815260040161072890613dda565b60405180910390fd5b600960008473ffffffffffffffffffffffffffffffffffffffff1673ffffffffffffffffffffffffffffffffffffffff168152602001908152602001600020828154811061078257610781613dfa565b5b9060005260206000200154905092915050565b6107b083838360405180602001604052806000815250610c95565b505050565b60003073ffffffffffffffffffffffffffffffffffffffff16636352211e836040518263ffffffff1660e01b81526004016107f091906123c0565b602060405180830381865afa92505050801561082a57506040513d601f19601f820116820180604052508101906108279190613e3e565b60015b610837576000905061083d565b60019150505b919050565b3373ffffffffffffffffffffffffffffffffffffffff16610862856109c4565b73ffffffffffffffffffffffffffffffffffffffff16146108b8576040517f08c379a00000000000000000000000000000000000000000000000000000000081526004016108af90613eb7565b60405180910390fd5b6040518060600160405280848152602001838152602001828152506008600086815260200190815260200160002060008201518160000190816108fb9190614083565b5060208201518160010190816109119190614083565b5060408201518160020190816109279190614083565b5090505060006109388484846105ac565b905060006109458661150f565b826040516020016109579291906142f7565b6040516020818303038152906040529050600061097382611183565b9050600081604051602001610988919061439e565b604051602081830303815290604052905080600b60008a815260200190815260200160002090816109b99190614083565b505050505050505050565b60006109cf826110a4565b9050919050565b60008073ffffffffffffffffffffffffffffffffffffffff168273ffffffffffffffffffffffffffffffffffffffff1603610a495760006040517f89c62b64000000000000000000000000000000000000000000000000000000008152600401610a4091906120fb565b60405180910390fd5b600360008373ffffffffffffffffffffffffffffffffffffffff1673ffffffffffffffffffffffffffffffffffffffff168152602001908152602001600020549050919050565b606060018054610a9f9061277d565b80601f0160208091040260200160405190810160405280929190818152602001828054610acb9061277d565b8015610b185780601f10610aed57610100808354040283529160200191610b18565b820191906000526020600020905b815481529060010190602001808311610afb57829003601f168201915b5050505050905090565b60006006549050610b3385826115dd565b604051806060016040528085815260200184815260200183815250600860008381526020019081526020016000206000820151816000019081610b769190614083565b506020820151816001019081610b8c9190614083565b506040820151816002019081610ba29190614083565b50905050600160066000828254610bb991906143ef565b9250508190555084600a600083815260200190815260200160002060006101000a81548173ffffffffffffffffffffffffffffffffffffffff021916908373ffffffffffffffffffffffffffffffffffffffff160217905550600960008673ffffffffffffffffffffffffffffffffffffffff1673ffffffffffffffffffffffffffffffffffffffff1681526020019081526020016000208190806001815401808255809150506001900390600052602060002001600090919091909150555050505050565b610c91610c8a611169565b83836116d6565b5050565b610ca08484846105e3565b610cac84848484611845565b50505050565b6060600b60008381526020019081526020016000208054610cd29061277d565b80601f0160208091040260200160405190810160405280929190818152602001828054610cfe9061277d565b8015610d4b5780601f10610d2057610100808354040283529160200191610d4b565b820191906000526020600020905b815481529060010190602001808311610d2e57829003601f168201915b50505050509050919050565b6060600060086000848152602001908152602001600020604051806060016040529081600082018054610d899061277d565b80601f0160208091040260200160405190810160405280929190818152602001828054610db59061277d565b8015610e025780601f10610dd757610100808354040283529160200191610e02565b820191906000526020600020905b815481529060010190602001808311610de557829003601f168201915b50505050508152602001600182018054610e1b9061277d565b80601f0160208091040260200160405190810160405280929190818152602001828054610e479061277d565b8015610e945780601f10610e6957610100808354040283529160200191610e94565b820191906000526020600020905b815481529060010190602001808311610e7757829003601f168201915b50505050508152602001600282018054610ead9061277d565b80601f0160208091040260200160405190810160405280929190818152602001828054610ed99061277d565b8015610f265780601f10610efb57610100808354040283529160200191610f26565b820191906000526020600020905b815481529060010190602001808311610f0957829003601f168201915b50505050508152505090506000610f7b610f3f8561150f565b610f568460000151856020015186604001516105ac565b604051602001610f679291906144e1565b604051602081830303815290604052611183565b905080604051602001610f8e919061439e565b60405160208183030381529060405292505050919050565b6000600560008473ffffffffffffffffffffffffffffffffffffffff1673ffffffffffffffffffffffffffffffffffffffff16815260200190815260200160002060008373ffffffffffffffffffffffffffffffffffffffff1673ffffffffffffffffffffffffffffffffffffffff16815260200190815260200160002060009054906101000a900460ff16905092915050565b60007f01ffc9a7000000000000000000000000000000000000000000000000000000007bffffffffffffffffffffffffffffffffffffffffffffffffffffffff1916827bffffffffffffffffffffffffffffffffffffffffffffffffffffffff1916149050919050565b6000806110b0836119fc565b9050600073ffffffffffffffffffffffffffffffffffffffff168173ffffffffffffffffffffffffffffffffffffffff160361112357826040517f7e27328900000000000000000000000000000000000000000000000000000000815260040161111a91906123c0565b60405180910390fd5b80915050919050565b60006004600083815260200190815260200160002060009054906101000a900473ffffffffffffffffffffffffffffffffffffffff169050919050565b600033905090565b61117e8383836001611a39565b505050565b606060008251036111a5576040518060200160405280600081525090506112f0565b60006040518060600160405280604081526020016146eb60409139905060006003600285516111d491906143ef565b6111de919061456b565b60046111ea919061459c565b67ffffffffffffffff8111156112035761120261218c565b5b6040519080825280601f01601f1916602001820160405280156112355781602001600182028036833780820191505090505b50905060018201602082018586518701602081018051600082525b828410156112ab576003840193508351603f8160121c168701518653600186019550603f81600c1c168701518653600186019550603f8160061c168701518653600186019550603f8116870151865360018601955050611250565b80825260038a5106600181146112c857600281146112db576112e3565b603d6001870353603d60028703536112e3565b603d60018703535b5050505050505080925050505b919050565b600080611301846119fc565b9050600073ffffffffffffffffffffffffffffffffffffffff168373ffffffffffffffffffffffffffffffffffffffff161461134357611342818486611bfe565b5b600073ffffffffffffffffffffffffffffffffffffffff168173ffffffffffffffffffffffffffffffffffffffff16146113d457611385600085600080611a39565b6001600360008373ffffffffffffffffffffffffffffffffffffffff1673ffffffffffffffffffffffffffffffffffffffff168152602001908152602001600020600082825403925050819055505b600073ffffffffffffffffffffffffffffffffffffffff168573ffffffffffffffffffffffffffffffffffffffff1614611457576001600360008773ffffffffffffffffffffffffffffffffffffffff1673ffffffffffffffffffffffffffffffffffffffff168152602001908152602001600020600082825401925050819055505b846002600086815260200190815260200160002060006101000a81548173ffffffffffffffffffffffffffffffffffffffff021916908373ffffffffffffffffffffffffffffffffffffffff160217905550838573ffffffffffffffffffffffffffffffffffffffff168273ffffffffffffffffffffffffffffffffffffffff167fddf252ad1be2c89b69c2b068fc378daa952ba7f163c4a11628f55a4df523b3ef60405160405180910390a4809150509392505050565b60606000600161151e84611cc2565b01905060008167ffffffffffffffff81111561153d5761153c61218c565b5b6040519080825280601f01601f19166020018201604052801561156f5781602001600182028036833780820191505090505b509050600082602001820190505b6001156115d2578080600190039150507f3031323334353637383961626364656600000000000000000000000000000000600a86061a8153600a85816115c6576115c561453c565b5b0494506000850361157d575b819350505050919050565b600073ffffffffffffffffffffffffffffffffffffffff168273ffffffffffffffffffffffffffffffffffffffff160361164f5760006040517f64a0ae9200000000000000000000000000000000000000000000000000000000815260040161164691906120fb565b60405180910390fd5b600061165d838360006112f5565b9050600073ffffffffffffffffffffffffffffffffffffffff168173ffffffffffffffffffffffffffffffffffffffff16146116d15760006040517f73c6ac6e0000000000000000000000000000000000000000000000000000000081526004016116c891906120fb565b60405180910390fd5b505050565b600073ffffffffffffffffffffffffffffffffffffffff168273ffffffffffffffffffffffffffffffffffffffff160361174757816040517f5b08ba1800000000000000000000000000000000000000000000000000000000815260040161173e91906120fb565b60405180910390fd5b80600560008573ffffffffffffffffffffffffffffffffffffffff1673ffffffffffffffffffffffffffffffffffffffff16815260200190815260200160002060008473ffffffffffffffffffffffffffffffffffffffff1673ffffffffffffffffffffffffffffffffffffffff16815260200190815260200160002060006101000a81548160ff0219169083151502179055508173ffffffffffffffffffffffffffffffffffffffff168373ffffffffffffffffffffffffffffffffffffffff167f17307eab39ab6107e8899845ad3d59bd9653f200f220920489ca2b5937696c31836040516118389190611f8a565b60405180910390a3505050565b60008373ffffffffffffffffffffffffffffffffffffffff163b11156119f6578273ffffffffffffffffffffffffffffffffffffffff1663150b7a02611889611169565b8685856040518563ffffffff1660e01b81526004016118ab9493929190614633565b6020604051808303816000875af19250505080156118e757506040513d601f19601f820116820180604052508101906118e49190614694565b60015b61196b573d8060008114611917576040519150601f19603f3d011682016040523d82523d6000602084013e61191c565b606091505b50600081510361196357836040517f64a0ae9200000000000000000000000000000000000000000000000000000000815260040161195a91906120fb565b60405180910390fd5b805181602001fd5b63150b7a0260e01b7bffffffffffffffffffffffffffffffffffffffffffffffffffffffff1916817bffffffffffffffffffffffffffffffffffffffffffffffffffffffff1916146119f457836040517f64a0ae920000000000000000000000000000000000000000000000000000000081526004016119eb91906120fb565b60405180910390fd5b505b50505050565b60006002600083815260200190815260200160002060009054906101000a900473ffffffffffffffffffffffffffffffffffffffff169050919050565b8080611a725750600073ffffffffffffffffffffffffffffffffffffffff168273ffffffffffffffffffffffffffffffffffffffff1614155b15611ba6576000611a82846110a4565b9050600073ffffffffffffffffffffffffffffffffffffffff168373ffffffffffffffffffffffffffffffffffffffff1614158015611aed57508273ffffffffffffffffffffffffffffffffffffffff168173ffffffffffffffffffffffffffffffffffffffff1614155b8015611b005750611afe8184610fa6565b155b15611b4257826040517fa9fbf51f000000000000000000000000000000000000000000000000000000008152600401611b3991906120fb565b60405180910390fd5b8115611ba457838573ffffffffffffffffffffffffffffffffffffffff168273ffffffffffffffffffffffffffffffffffffffff167f8c5be1e5ebec7d5bd14f71427d1e84f3dd0314c0f7b2291e5b200ac8c7c3b92560405160405180910390a45b505b836004600085815260200190815260200160002060006101000a81548173ffffffffffffffffffffffffffffffffffffffff021916908373ffffffffffffffffffffffffffffffffffffffff16021790555050505050565b611c09838383611e15565b611cbd57600073ffffffffffffffffffffffffffffffffffffffff168373ffffffffffffffffffffffffffffffffffffffff1603611c7e57806040517f7e273289000000000000000000000000000000000000000000000000000000008152600401611c7591906123c0565b60405180910390fd5b81816040517f177e802f000000000000000000000000000000000000000000000000000000008152600401611cb49291906146c1565b60405180910390fd5b505050565b600080600090507a184f03e93ff9f4daa797ed6e38ed64bf6a1f0100000000000000008310611d20577a184f03e93ff9f4daa797ed6e38ed64bf6a1f0100000000000000008381611d1657611d1561453c565b5b0492506040810190505b6d04ee2d6d415b85acef81000000008310611d5d576d04ee2d6d415b85acef81000000008381611d5357611d5261453c565b5b0492506020810190505b662386f26fc100008310611d8c57662386f26fc100008381611d8257611d8161453c565b5b0492506010810190505b6305f5e1008310611db5576305f5e1008381611dab57611daa61453c565b5b0492506008810190505b6127108310611dda576127108381611dd057611dcf61453c565b5b0492506004810190505b60648310611dfd5760648381611df357611df261453c565b5b0492506002810190505b600a8310611e0c576001810190505b80915050919050565b60008073ffffffffffffffffffffffffffffffffffffffff168373ffffffffffffffffffffffffffffffffffffffff1614158015611ecd57508273ffffffffffffffffffffffffffffffffffffffff168473ffffffffffffffffffffffffffffffffffffffff161480611e8e5750611e8d8484610fa6565b5b80611ecc57508273ffffffffffffffffffffffffffffffffffffffff16611eb48361112c565b73ffffffffffffffffffffffffffffffffffffffff16145b5b90509392505050565b6000604051905090565b600080fd5b600080fd5b60007fffffffff0000000000000000000000000000000000000000000000000000000082169050919050565b611f1f81611eea565b8114611f2a57600080fd5b50565b600081359050611f3c81611f16565b92915050565b600060208284031215611f5857611f57611ee0565b5b6000611f6684828501611f2d565b91505092915050565b60008115159050919050565b611f8481611f6f565b82525050565b6000602082019050611f9f6000830184611f7b565b92915050565b600081519050919050565b600082825260208201905092915050565b60005b83811015611fdf578082015181840152602081019050611fc4565b60008484015250505050565b6000601f19601f8301169050919050565b600061200782611fa5565b6120118185611fb0565b9350612021818560208601611fc1565b61202a81611feb565b840191505092915050565b6000602082019050818103600083015261204f8184611ffc565b905092915050565b6000819050919050565b61206a81612057565b811461207557600080fd5b50565b60008135905061208781612061565b92915050565b6000602082840312156120a3576120a2611ee0565b5b60006120b184828501612078565b91505092915050565b600073ffffffffffffffffffffffffffffffffffffffff82169050919050565b60006120e5826120ba565b9050919050565b6120f5816120da565b82525050565b600060208201905061211060008301846120ec565b92915050565b61211f816120da565b811461212a57600080fd5b50565b60008135905061213c81612116565b92915050565b6000806040838503121561215957612158611ee0565b5b60006121678582860161212d565b925050602061217885828601612078565b9150509250929050565b600080fd5b600080fd5b7f4e487b7100000000000000000000000000000000000000000000000000000000600052604160045260246000fd5b6121c482611feb565b810181811067ffffffffffffffff821117156121e3576121e261218c565b5b80604052505050565b60006121f6611ed6565b905061220282826121bb565b919050565b600067ffffffffffffffff8211156122225761222161218c565b5b61222b82611feb565b9050602081019050919050565b82818337600083830152505050565b600061225a61225584612207565b6121ec565b90508281526020810184848401111561227657612275612187565b5b612281848285612238565b509392505050565b600082601f83011261229e5761229d612182565b5b81356122ae848260208601612247565b91505092915050565b6000806000606084860312156122d0576122cf611ee0565b5b600084013567ffffffffffffffff8111156122ee576122ed611ee5565b5b6122fa86828701612289565b935050602084013567ffffffffffffffff81111561231b5761231a611ee5565b5b61232786828701612289565b925050604084013567ffffffffffffffff81111561234857612347611ee5565b5b61235486828701612289565b9150509250925092565b60008060006060848603121561237757612376611ee0565b5b60006123858682870161212d565b93505060206123968682870161212d565b92505060406123a786828701612078565b9150509250925092565b6123ba81612057565b82525050565b60006020820190506123d560008301846123b1565b92915050565b600080600080608085870312156123f5576123f4611ee0565b5b600061240387828801612078565b945050602085013567ffffffffffffffff81111561242457612423611ee5565b5b61243087828801612289565b935050604085013567ffffffffffffffff81111561245157612450611ee5565b5b61245d87828801612289565b925050606085013567ffffffffffffffff81111561247e5761247d611ee5565b5b61248a87828801612289565b91505092959194509250565b6000602082840312156124ac576124ab611ee0565b5b60006124ba8482850161212d565b91505092915050565b600080600080608085870312156124dd576124dc611ee0565b5b60006124eb8782880161212d565b945050602085013567ffffffffffffffff81111561250c5761250b611ee5565b5b61251887828801612289565b935050604085013567ffffffffffffffff81111561253957612538611ee5565b5b61254587828801612289565b925050606085013567ffffffffffffffff81111561256657612565611ee5565b5b61257287828801612289565b91505092959194509250565b61258781611f6f565b811461259257600080fd5b50565b6000813590506125a48161257e565b92915050565b600080604083850312156125c1576125c0611ee0565b5b60006125cf8582860161212d565b92505060206125e085828601612595565b9150509250929050565b600067ffffffffffffffff8211156126055761260461218c565b5b61260e82611feb565b9050602081019050919050565b600061262e612629846125ea565b6121ec565b90508281526020810184848401111561264a57612649612187565b5b612655848285612238565b509392505050565b600082601f83011261267257612671612182565b5b813561268284826020860161261b565b91505092915050565b600080600080608085870312156126a5576126a4611ee0565b5b60006126b38782880161212d565b94505060206126c48782880161212d565b93505060406126d587828801612078565b925050606085013567ffffffffffffffff8111156126f6576126f5611ee5565b5b6127028782880161265d565b91505092959194509250565b6000806040838503121561272557612724611ee0565b5b60006127338582860161212d565b92505060206127448582860161212d565b9150509250929050565b7f4e487b7100000000000000000000000000000000000000000000000000000000600052602260045260246000fd5b6000600282049050600182168061279557607f821691505b6020821081036127a8576127a761274e565b5b50919050565b600081905092915050565b7f3c7376672077696474683d2237303022206865696768743d223730302220786d60008201527f6c6e733d22687474703a2f2f7777772e77332e6f72672f323030302f7376672260208201527f207374796c653d226261636b67726f756e642d636f6c6f723a2023313732383560408201527f333b223e00000000000000000000000000000000000000000000000000000000606082015250565b60006128616064836127ae565b915061286c826127b9565b606482019050919050565b7f3c7469746c653e456d706c6f7965654e46545f496d6167653c2f7469746c653e600082015250565b60006128ad6020836127ae565b91506128b882612877565b602082019050919050565b7f3c74657874207472616e73666f726d3d226d617472697828312e31313137342060008201527f30203020312e3337393635202d32312e31383431202d32382e3334363429222060208201527f7374726f6b653d2223394143454536222066696c6c3d2223666666666666222060408201527f7374726f6b652d77696474683d22302220783d223234322e353937393322207960608201527f3d2237342e3832303631222069643d227376675f332220666f6e742d73697a6560808201527f3d2232342220666f6e742d66616d696c793d22274172696d6f2722207465787460a08201527f2d616e63686f723d2273746172742220786d6c3a73706163653d22707265736560c08201527f7276652220666f6e742d7765696768743d22626f6c64223e4720436f6d70616e60e08201527f79204e46543c2f746578743e000000000000000000000000000000000000000061010082015250565b6000612a2b61010c836127ae565b9150612a36826128c3565b61010c82019050919050565b7f3c72656374207374726f6b653d2223394143454536222069643d227376675f3460008201527f22206865696768743d223139222077696474683d223131352220793d2233382260208201527f20783d2238312e303030323622207374726f6b652d77696474683d223022206660408201527f696c6c3d2223666666666666222f3e0000000000000000000000000000000000606082015250565b6000612aea606f836127ae565b9150612af582612a42565b606f82019050919050565b7f3c72656374207374726f6b653d2223394143454536222069643d227376675f3660008201527f22206865696768743d223139222077696474683d223131352220793d2236372260208201527f20783d2238312e303030323622207374726f6b652d77696474683d223022206660408201527f696c6c3d2223666666666666222f3e0000000000000000000000000000000000606082015250565b6000612ba8606f836127ae565b9150612bb382612b00565b606f82019050919050565b7f3c72656374207374726f6b653d2223394143454536222069643d227376675f3460008201527f22206865696768743d223139222077696474683d223131352220793d2233382260208201527f20783d223532362e3137373622207374726f6b652d77696474683d223022206660408201527f696c6c3d2223666666666666222f3e0000000000000000000000000000000000606082015250565b6000612c66606f836127ae565b9150612c7182612bbe565b606f82019050919050565b7f3c72656374207374726f6b653d2223394143454536222069643d227376675f3660008201527f22206865696768743d223139222077696474683d223131352220793d2236372260208201527f20783d223532362e3137373622207374726f6b652d77696474683d223022206660408201527f696c6c3d2223666666666666222f3e0000000000000000000000000000000000606082015250565b6000612d24606f836127ae565b9150612d2f82612c7c565b606f82019050919050565b7f3c70617468207374726f6b653d2223394143454536222069643d227376675f3160008201527f362220643d226d3237312e39383931342c3138312e35343136336c33342e393260208201527f3835382c2d36332e39393939396c39332e31343238362c306c33342e3932383560408201527f362c36332e39393939396c2d33342e39323835362c36332e39393939396c2d3960608201527f332e31343238362c306c2d33342e39323835382c2d36332e39393939397a222060808201527f7374726f6b652d77696474683d2230222066696c6c3d2223306465383737222f60a08201527f3e0000000000000000000000000000000000000000000000000000000000000060c082015250565b6000612e5460c1836127ae565b9150612e5f82612d3a565b60c182019050919050565b7f3c74657874207472616e73666f726d3d226d617472697828312e39363830352060008201527f30203020312e3635363133202d3233322e393431202d3133342e33323629222060208201527f7374726f6b653d22233941434545362220786d6c3a73706163653d227072657360408201527f657276652220746578742d616e63686f723d2273746172742220666f6e742d6660608201527f616d696c793d22274172696d6f272220666f6e742d73697a653d22323422206960808201527f643d227376675f31392220793d223139372e35373931322220783d223238372e60a08201527f3931363122207374726f6b652d77696474683d2230222066696c6c3d2223303060c08201527f30303030223e473c2f746578743e00000000000000000000000000000000000060e082015250565b6000612faa60ee836127ae565b9150612fb582612e6a565b60ee82019050919050565b7f3c7465787420786d6c3a73706163653d2270726573657276652220746578742d60008201527f616e63686f723d2273746172742220666f6e742d66616d696c793d222741726960208201527f6d6f272220666f6e742d73697a653d223234222069643d227376675f3232222060408201527f793d223238382e30353837342220783d223239312e383234313722207374726f60608201527f6b652d77696474683d223022207374726f6b653d22233941434545362220666960808201527f6c6c3d2223666666666666223e596f7572204e616d653c2f746578743e00000060a082015250565b60006130b460bd836127ae565b91506130bf82612fc0565b60bd82019050919050565b7f3c72656374207374726f6b653d2223303030303030222069643d227376675f3260008201527f3322206865696768743d223332222077696474683d223234382220793d22333060208201527f372e37363436352220783d223233322e303030363522207374726f6b652d776960408201527f6474683d2232222066696c6c3d2223666666666666222f3e0000000000000000606082015250565b60006131726078836127ae565b915061317d826130ca565b607882019050919050565b7f3c7465787420786d6c3a73706163653d2270726573657276652220746578742d60008201527f616e63686f723d2273746172742220666f6e742d66616d696c793d222741726960208201527f6d6f272220666f6e742d73697a653d223234222069643d227376675f3234222060408201527f793d223430312e35383831372220783d223135332e333533343822207374726f60608201527f6b652d77696474683d223022207374726f6b653d22233030303030302220666960808201527f6c6c3d2223666666666666223e0000000000000000000000000000000000000060a082015250565b600061327c60ad836127ae565b915061328782613188565b60ad82019050919050565b7f5465616d00000000000000000000000000000000000000000000000000000000600082015250565b60006132c86004836127ae565b91506132d382613292565b600482019050919050565b7f3c2f746578743e00000000000000000000000000000000000000000000000000600082015250565b60006133146007836127ae565b915061331f826132de565b600782019050919050565b7f3c726563742066696c6c3d222366666666666622207374726f6b652d7769647460008201527f683d22322220783d223235362e37303636392220793d223337332e363437343360208201527f222077696474683d2232343822206865696768743d223332222069643d22737660408201527f675f3522207374726f6b653d2223303030303030222f3e000000000000000000606082015250565b60006133d26077836127ae565b91506133dd8261332a565b607782019050919050565b7f3c74657874207374796c653d22637572736f723a206d6f76653b22207374726f60008201527f6b653d22233030303030302220786d6c3a73706163653d22707265736572766560208201527f2220746578742d616e63686f723d2273746172742220666f6e742d66616d696c60408201527f793d22274172696d6f272220666f6e742d73697a653d223234222069643d227360608201527f76675f33302220793d223435352e37303539312220783d223132362e3634373460808201527f3322207374726f6b652d77696474683d2230222066696c6c3d2223666666666660a08201527f66223e000000000000000000000000000000000000000000000000000000000060c082015250565b600061350260c3836127ae565b915061350d826133e8565b60c382019050919050565b7f4d65737361676500000000000000000000000000000000000000000000000000600082015250565b600061354e6007836127ae565b915061355982613518565b600782019050919050565b7f3c72656374207374726f6b653d2223303030303030222066696c6c3d2223666660008201527f6666666622207374726f6b652d77696474683d22322220783d223235362e373060208201527f3636392220793d223433312e3239343837222077696474683d2232343822206860408201527f65696768743d2233342e3335323935222069643d227376675f37222f3e000000606082015250565b600061360c607d836127ae565b915061361782613564565b607d82019050919050565b7f3c74657874207374796c653d22637572736f723a206d6f76653b2220786d6c3a60008201527f73706163653d2270726573657276652220746578742d616e63686f723d22737460208201527f6172742220666f6e742d66616d696c793d22274172696d6f272220666f6e742d60408201527f73697a653d223234222069643d227376675f33322220793d223538322e30353960608201527f2220783d223237342e333533343722207374726f6b652d77696474683d22302260808201527f207374726f6b653d2223303030303030222066696c6c3d22236666666666662260a08201527f3e7878787878783c2f746578743e00000000000000000000000000000000000060c082015250565b600061373c60ce836127ae565b915061374782613622565b60ce82019050919050565b7f203c7465787420786d6c3a73706163653d22707265736572766522207465787460008201527f2d616e63686f723d2273746172742220666f6e742d66616d696c793d2227417260208201527f696d6f272220666f6e742d73697a653d223234222069643d227376675f33332260408201527f20793d223632342e363437332220783d223235372e313138313322207374726f60608201527f6b652d77696474683d223022207374726f6b653d22233030303030302220666960808201527f6c6c3d2223666666666666223e7878782d787878782d7878783c2f746578743e60a08201527f3c746578742066696c6c3d222330303030303022207374726f6b653d2223666660c08201527f6666666622207374726f6b652d77696474683d22302220783d223332342e373660e08201527f3535352220793d223333332e3934313339222069643d227376675f31342220666101008201527f6f6e742d73697a653d2232342220666f6e742d66616d696c793d22274172696d6101208201527f6f272220746578742d616e63686f723d2273746172742220786d6c3a737061636101408201527f653d227072657365727665223e0000000000000000000000000000000000000061016082015250565b600061392f61016d836127ae565b915061393a82613752565b61016d82019050919050565b600061395182611fa5565b61395b81856127ae565b935061396b818560208601611fc1565b80840191505092915050565b7f3c746578742066696c6c3d222330303030303022207374726f6b653d2223666660008201527f6666666622207374726f6b652d77696474683d22302220783d223237342e313760208201527f3639392220793d223339382e3634373639222069643d227376675f313522206660408201527f6f6e742d73697a653d2232342220666f6e742d66616d696c793d22274172696d60608201527f6f272220746578742d616e63686f723d2273746172742220786d6c3a7370616360808201527f653d227072657365727665223e0000000000000000000000000000000000000060a082015250565b6000613a6b60ad836127ae565b9150613a7682613977565b60ad82019050919050565b7f3c746578742066696c6c3d222330303030303022207374726f6b653d2223666660008201527f6666666622207374726f6b652d77696474683d22302220783d223237342e313760208201527f3639392220793d223435372e34373136222069643d227376675f31372220666f60408201527f6e742d73697a653d2232342220666f6e742d66616d696c793d22274172696d6f60608201527f272220746578742d616e63686f723d2273746172742220786d6c3a737061636560808201527f3d227072657365727665223e000000000000000000000000000000000000000060a082015250565b6000613b7560ac836127ae565b9150613b8082613a81565b60ac82019050919050565b7f3c2f7376673e0000000000000000000000000000000000000000000000000000600082015250565b6000613bc16006836127ae565b9150613bcc82613b8b565b600682019050919050565b6000613be282612854565b9150613bed826128a0565b9150613bf882612a1d565b9150613c0382612add565b9150613c0e82612b9b565b9150613c1982612c59565b9150613c2482612d17565b9150613c2f82612e47565b9150613c3a82612f9d565b9150613c45826130a7565b9150613c5082613165565b9150613c5b8261326f565b9150613c66826132bb565b9150613c7182613307565b9150613c7c826133c5565b9150613c87826134f5565b9150613c9282613541565b9150613c9d82613307565b9150613ca8826135ff565b9150613cb38261372f565b9150613cbe82613921565b9150613cca8286613946565b9150613cd582613307565b9150613ce082613a5e565b9150613cec8285613946565b9150613cf782613307565b9150613d0282613b68565b9150613d0e8284613946565b9150613d1982613307565b9150613d2482613bb4565b9150819050949350505050565b6000606082019050613d4660008301866120ec565b613d5360208301856123b1565b613d6060408301846120ec565b949350505050565b7f455243373231456e756d657261626c653a206f776e657220696e646578206f7560008201527f74206f6620626f756e6473000000000000000000000000000000000000000000602082015250565b6000613dc4602b83611fb0565b9150613dcf82613d68565b604082019050919050565b60006020820190508181036000830152613df381613db7565b9050919050565b7f4e487b7100000000000000000000000000000000000000000000000000000000600052603260045260246000fd5b600081519050613e3881612116565b92915050565b600060208284031215613e5457613e53611ee0565b5b6000613e6284828501613e29565b91505092915050565b7f4552433732313a20596f7520617265206e6f7420746f6b656e206f776e657200600082015250565b6000613ea1601f83611fb0565b9150613eac82613e6b565b602082019050919050565b60006020820190508181036000830152613ed081613e94565b9050919050565b60008190508160005260206000209050919050565b60006020601f8301049050919050565b600082821b905092915050565b600060088302613f397fffffffffffffffffffffffffffffffffffffffffffffffffffffffffffffffff82613efc565b613f438683613efc565b95508019841693508086168417925050509392505050565b6000819050919050565b6000613f80613f7b613f7684612057565b613f5b565b612057565b9050919050565b6000819050919050565b613f9a83613f65565b613fae613fa682613f87565b848454613f09565b825550505050565b600090565b613fc3613fb6565b613fce818484613f91565b505050565b5b81811015613ff257613fe7600082613fbb565b600181019050613fd4565b5050565b601f8211156140375761400881613ed7565b61401184613eec565b81016020851015614020578190505b61403461402c85613eec565b830182613fd3565b50505b505050565b600082821c905092915050565b600061405a6000198460080261403c565b1980831691505092915050565b60006140738383614049565b9150826002028217905092915050565b61408c82611fa5565b67ffffffffffffffff8111156140a5576140a461218c565b5b6140af825461277d565b6140ba828285613ff6565b600060209050601f8311600181146140ed57600084156140db578287015190505b6140e58582614067565b86555061414d565b601f1984166140fb86613ed7565b60005b82811015614123578489015182556001820191506020850194506020810190506140fe565b86831015614140578489015161413c601f891682614049565b8355505b6001600288020188555050505b505050505050565b7f7b226e616d65223a2022475f436f6d70616e794e465400000000000000000000600082015250565b600061418b6016836127ae565b915061419682614155565b601682019050919050565b7f222c000000000000000000000000000000000000000000000000000000000000600082015250565b60006141d76002836127ae565b91506141e2826141a1565b600282019050919050565b7f222c226465736372697074696f6e223a20225465737400000000000000000000600082015250565b60006142236016836127ae565b915061422e826141ed565b601682019050919050565b7f222c22696d616765223a22646174613a696d6167652f7376672b786d6c3b626160008201527f736536342c000000000000000000000000000000000000000000000000000000602082015250565b60006142956025836127ae565b91506142a082614239565b602582019050919050565b7f227d000000000000000000000000000000000000000000000000000000000000600082015250565b60006142e16002836127ae565b91506142ec826142ab565b600282019050919050565b60006143028261417e565b915061430e8285613946565b9150614319826141ca565b915061432482614216565b915061432f82614288565b915061433b8284613946565b9150614346826142d4565b91508190509392505050565b7f646174613a6170706c69636174696f6e2f6a736f6e3b6261736536342c000000600082015250565b6000614388601d836127ae565b915061439382614352565b601d82019050919050565b60006143a98261437b565b91506143b58284613946565b915081905092915050565b7f4e487b7100000000000000000000000000000000000000000000000000000000600052601160045260246000fd5b60006143fa82612057565b915061440583612057565b925082820190508082111561441d5761441c6143c0565b5b92915050565b7f226465736372697074696f6e223a202254657374222c00000000000000000000600082015250565b60006144596016836127ae565b915061446482614423565b601682019050919050565b7f22696d616765223a22646174613a696d6167652f7376672b786d6c3b6261736560008201527f36342c0000000000000000000000000000000000000000000000000000000000602082015250565b60006144cb6023836127ae565b91506144d68261446f565b602382019050919050565b60006144ec8261417e565b91506144f88285613946565b9150614503826141ca565b915061450e8261444c565b9150614519826144be565b91506145258284613946565b9150614530826142d4565b91508190509392505050565b7f4e487b7100000000000000000000000000000000000000000000000000000000600052601260045260246000fd5b600061457682612057565b915061458183612057565b9250826145915761459061453c565b5b828204905092915050565b60006145a782612057565b91506145b283612057565b92508282026145c081612057565b915082820484148315176145d7576145d66143c0565b5b5092915050565b600081519050919050565b600082825260208201905092915050565b6000614605826145de565b61460f81856145e9565b935061461f818560208601611fc1565b61462881611feb565b840191505092915050565b600060808201905061464860008301876120ec565b61465560208301866120ec565b61466260408301856123b1565b818103606083015261467481846145fa565b905095945050505050565b60008151905061468e81611f16565b92915050565b6000602082840312156146aa576146a9611ee0565b5b60006146b88482850161467f565b91505092915050565b60006040820190506146d660008301856120ec565b6146e360208301846123b1565b939250505056fe4142434445464748494a4b4c4d4e4f505152535455565758595a6162636465666768696a6b6c6d6e6f707172737475767778797a303132333435363738392b2fa2646970667358221220f829fbccf7009d26c8d8f20d3c8fff55868bd7d1c2910c257a972cc86d62bddd64736f6c63430008130033",
  "linkReferences": {},
  "deployedLinkReferences": {}
}