{
  "_format": "hh-sol-artifact-1",
  "contractName": "EmployeeId",
  "sourceName": "contracts/EmployeeId.sol",
  "abi": [
    {
      "inputs": [],
      "stateMutability": "nonpayable",
      "type": "constructor"
    },
    {
      "inputs": [],
      "name": "AccessControlBadConfirmation",
      "type": "error"
    },
    {
      "inputs": [
        {
          "internalType": "address",
          "name": "account",
          "type": "address"
        },
        {
          "internalType": "bytes32",
          "name": "neededRole",
          "type": "bytes32"
        }
      ],
      "name": "AccessControlUnauthorizedAccount",
      "type": "error"
    },
    {
      "inputs": [
        {
          "internalType": "address",
          "name": "sender",
          "type": "address"
        },
        {
          "internalType": "uint256",
          "name": "tokenId",
          "type": "uint256"
        },
        {
          "internalType": "address",
          "name": "owner",
          "type": "address"
        }
      ],
      "name": "ERC721IncorrectOwner",
      "type": "error"
    },
    {
      "inputs": [
        {
          "internalType": "address",
          "name": "operator",
          "type": "address"
        },
        {
          "internalType": "uint256",
          "name": "tokenId",
          "type": "uint256"
        }
      ],
      "name": "ERC721InsufficientApproval",
      "type": "error"
    },
    {
      "inputs": [
        {
          "internalType": "address",
          "name": "approver",
          "type": "address"
        }
      ],
      "name": "ERC721InvalidApprover",
      "type": "error"
    },
    {
      "inputs": [
        {
          "internalType": "address",
          "name": "operator",
          "type": "address"
        }
      ],
      "name": "ERC721InvalidOperator",
      "type": "error"
    },
    {
      "inputs": [
        {
          "internalType": "address",
          "name": "owner",
          "type": "address"
        }
      ],
      "name": "ERC721InvalidOwner",
      "type": "error"
    },
    {
      "inputs": [
        {
          "internalType": "address",
          "name": "receiver",
          "type": "address"
        }
      ],
      "name": "ERC721InvalidReceiver",
      "type": "error"
    },
    {
      "inputs": [
        {
          "internalType": "address",
          "name": "sender",
          "type": "address"
        }
      ],
      "name": "ERC721InvalidSender",
      "type": "error"
    },
    {
      "inputs": [
        {
          "internalType": "uint256",
          "name": "tokenId",
          "type": "uint256"
        }
      ],
      "name": "ERC721NonexistentToken",
      "type": "error"
    },
    {
      "anonymous": false,
      "inputs": [
        {
          "indexed": true,
          "internalType": "address",
          "name": "newAdmin",
          "type": "address"
        }
      ],
      "name": "AdminAdded",
      "type": "event"
    },
    {
      "anonymous": false,
      "inputs": [
        {
          "indexed": true,
          "internalType": "address",
          "name": "removedAdmin",
          "type": "address"
        }
      ],
      "name": "AdminRemoved",
      "type": "event"
    },
    {
      "anonymous": false,
      "inputs": [
        {
          "indexed": true,
          "internalType": "address",
          "name": "owner",
          "type": "address"
        },
        {
          "indexed": true,
          "internalType": "address",
          "name": "approved",
          "type": "address"
        },
        {
          "indexed": true,
          "internalType": "uint256",
          "name": "tokenId",
          "type": "uint256"
        }
      ],
      "name": "Approval",
      "type": "event"
    },
    {
      "anonymous": false,
      "inputs": [
        {
          "indexed": true,
          "internalType": "address",
          "name": "owner",
          "type": "address"
        },
        {
          "indexed": true,
          "internalType": "address",
          "name": "operator",
          "type": "address"
        },
        {
          "indexed": false,
          "internalType": "bool",
          "name": "approved",
          "type": "bool"
        }
      ],
      "name": "ApprovalForAll",
      "type": "event"
    },
    {
      "anonymous": false,
      "inputs": [
        {
          "indexed": true,
          "internalType": "bytes32",
          "name": "role",
          "type": "bytes32"
        },
        {
          "indexed": true,
          "internalType": "bytes32",
          "name": "previousAdminRole",
          "type": "bytes32"
        },
        {
          "indexed": true,
          "internalType": "bytes32",
          "name": "newAdminRole",
          "type": "bytes32"
        }
      ],
      "name": "RoleAdminChanged",
      "type": "event"
    },
    {
      "anonymous": false,
      "inputs": [
        {
          "indexed": true,
          "internalType": "bytes32",
          "name": "role",
          "type": "bytes32"
        },
        {
          "indexed": true,
          "internalType": "address",
          "name": "account",
          "type": "address"
        },
        {
          "indexed": true,
          "internalType": "address",
          "name": "sender",
          "type": "address"
        }
      ],
      "name": "RoleGranted",
      "type": "event"
    },
    {
      "anonymous": false,
      "inputs": [
        {
          "indexed": true,
          "internalType": "bytes32",
          "name": "role",
          "type": "bytes32"
        },
        {
          "indexed": true,
          "internalType": "address",
          "name": "account",
          "type": "address"
        },
        {
          "indexed": true,
          "internalType": "address",
          "name": "sender",
          "type": "address"
        }
      ],
      "name": "RoleRevoked",
      "type": "event"
    },
    {
      "anonymous": false,
      "inputs": [
        {
          "indexed": true,
          "internalType": "address",
          "name": "from",
          "type": "address"
        },
        {
          "indexed": true,
          "internalType": "address",
          "name": "to",
          "type": "address"
        },
        {
          "indexed": true,
          "internalType": "uint256",
          "name": "tokenId",
          "type": "uint256"
        }
      ],
      "name": "Transfer",
      "type": "event"
    },
    {
      "inputs": [],
      "name": "ADMIN_ROLE",
      "outputs": [
        {
          "internalType": "bytes32",
          "name": "",
          "type": "bytes32"
        }
      ],
      "stateMutability": "view",
      "type": "function"
    },
    {
      "inputs": [],
      "name": "DEFAULT_ADMIN_ROLE",
      "outputs": [
        {
          "internalType": "bytes32",
          "name": "",
          "type": "bytes32"
        }
      ],
      "stateMutability": "view",
      "type": "function"
    },
    {
      "inputs": [
        {
          "internalType": "address",
          "name": "newAdmin",
          "type": "address"
        }
      ],
      "name": "addAdmin",
      "outputs": [],
      "stateMutability": "nonpayable",
      "type": "function"
    },
    {
      "inputs": [
        {
          "internalType": "address",
          "name": "to",
          "type": "address"
        },
        {
          "internalType": "uint256",
          "name": "tokenId",
          "type": "uint256"
        }
      ],
      "name": "approve",
      "outputs": [],
      "stateMutability": "nonpayable",
      "type": "function"
    },
    {
      "inputs": [
        {
          "internalType": "address",
          "name": "owner",
          "type": "address"
        }
      ],
      "name": "balanceOf",
      "outputs": [
        {
          "internalType": "uint256",
          "name": "",
          "type": "uint256"
        }
      ],
      "stateMutability": "view",
      "type": "function"
    },
    {
      "inputs": [
        {
          "internalType": "uint256",
          "name": "tokenId",
          "type": "uint256"
        }
      ],
      "name": "exists",
      "outputs": [
        {
          "internalType": "bool",
          "name": "",
          "type": "bool"
        }
      ],
      "stateMutability": "view",
      "type": "function"
    },
    {
      "inputs": [
        {
          "internalType": "string",
          "name": "employeeName",
          "type": "string"
        },
        {
          "internalType": "string",
          "name": "departmentName",
          "type": "string"
        },
        {
          "internalType": "string",
          "name": "message",
          "type": "string"
        }
      ],
      "name": "generateSVG",
      "outputs": [
        {
          "internalType": "string",
          "name": "svg",
          "type": "string"
        }
      ],
      "stateMutability": "pure",
      "type": "function"
    },
    {
      "inputs": [],
      "name": "getAdmins",
      "outputs": [
        {
          "internalType": "address[]",
          "name": "",
          "type": "address[]"
        }
      ],
      "stateMutability": "view",
      "type": "function"
    },
    {
      "inputs": [],
      "name": "getAllMinters",
      "outputs": [
        {
          "internalType": "address[]",
          "name": "",
          "type": "address[]"
        }
      ],
      "stateMutability": "view",
      "type": "function"
    },
    {
      "inputs": [
        {
          "internalType": "uint256",
          "name": "tokenId",
          "type": "uint256"
        }
      ],
      "name": "getApproved",
      "outputs": [
        {
          "internalType": "address",
          "name": "",
          "type": "address"
        }
      ],
      "stateMutability": "view",
      "type": "function"
    },
    {
      "inputs": [
        {
          "internalType": "uint256",
          "name": "tokenId",
          "type": "uint256"
        }
      ],
      "name": "getCustomTokenURI",
      "outputs": [
        {
          "internalType": "string",
          "name": "",
          "type": "string"
        }
      ],
      "stateMutability": "view",
      "type": "function"
    },
    {
      "inputs": [
        {
          "internalType": "bytes32",
          "name": "role",
          "type": "bytes32"
        }
      ],
      "name": "getRoleAdmin",
      "outputs": [
        {
          "internalType": "bytes32",
          "name": "",
          "type": "bytes32"
        }
      ],
      "stateMutability": "view",
      "type": "function"
    },
    {
      "inputs": [
        {
          "internalType": "bytes32",
          "name": "role",
          "type": "bytes32"
        },
        {
          "internalType": "address",
          "name": "account",
          "type": "address"
        }
      ],
      "name": "grantRole",
      "outputs": [],
      "stateMutability": "nonpayable",
      "type": "function"
    },
    {
      "inputs": [
        {
          "internalType": "bytes32",
          "name": "role",
          "type": "bytes32"
        },
        {
          "internalType": "address",
          "name": "account",
          "type": "address"
        }
      ],
      "name": "hasRole",
      "outputs": [
        {
          "internalType": "bool",
          "name": "",
          "type": "bool"
        }
      ],
      "stateMutability": "view",
      "type": "function"
    },
    {
      "inputs": [
        {
          "internalType": "address",
          "name": "_address",
          "type": "address"
        }
      ],
      "name": "isAdmin",
      "outputs": [
        {
          "internalType": "bool",
          "name": "",
          "type": "bool"
        }
      ],
      "stateMutability": "view",
      "type": "function"
    },
    {
      "inputs": [
        {
          "internalType": "address",
          "name": "owner",
          "type": "address"
        },
        {
          "internalType": "address",
          "name": "operator",
          "type": "address"
        }
      ],
      "name": "isApprovedForAll",
      "outputs": [
        {
          "internalType": "bool",
          "name": "",
          "type": "bool"
        }
      ],
      "stateMutability": "view",
      "type": "function"
    },
    {
      "inputs": [
        {
          "internalType": "address",
          "name": "to",
          "type": "address"
        },
        {
          "internalType": "string",
          "name": "employeeName",
          "type": "string"
        },
        {
          "internalType": "string",
          "name": "departmentName",
          "type": "string"
        },
        {
          "internalType": "string",
          "name": "message",
          "type": "string"
        }
      ],
      "name": "mintEmployeeIdNFT",
      "outputs": [],
      "stateMutability": "nonpayable",
      "type": "function"
    },
    {
      "inputs": [],
      "name": "name",
      "outputs": [
        {
          "internalType": "string",
          "name": "",
          "type": "string"
        }
      ],
      "stateMutability": "view",
      "type": "function"
    },
    {
      "inputs": [
        {
          "internalType": "uint256",
          "name": "tokenId",
          "type": "uint256"
        }
      ],
      "name": "ownerOf",
      "outputs": [
        {
          "internalType": "address",
          "name": "",
          "type": "address"
        }
      ],
      "stateMutability": "view",
      "type": "function"
    },
    {
      "inputs": [
        {
          "internalType": "address",
          "name": "admin",
          "type": "address"
        }
      ],
      "name": "removeAdmin",
      "outputs": [],
      "stateMutability": "nonpayable",
      "type": "function"
    },
    {
      "inputs": [
        {
          "internalType": "address",
          "name": "admin",
          "type": "address"
        }
      ],
      "name": "removeAdminFromList",
      "outputs": [],
      "stateMutability": "nonpayable",
      "type": "function"
    },
    {
      "inputs": [
        {
          "internalType": "bytes32",
          "name": "role",
          "type": "bytes32"
        },
        {
          "internalType": "address",
          "name": "callerConfirmation",
          "type": "address"
        }
      ],
      "name": "renounceRole",
      "outputs": [],
      "stateMutability": "nonpayable",
      "type": "function"
    },
    {
      "inputs": [
        {
          "internalType": "bytes32",
          "name": "role",
          "type": "bytes32"
        },
        {
          "internalType": "address",
          "name": "account",
          "type": "address"
        }
      ],
      "name": "revokeRole",
      "outputs": [],
      "stateMutability": "nonpayable",
      "type": "function"
    },
    {
      "inputs": [
        {
          "internalType": "address",
          "name": "from",
          "type": "address"
        },
        {
          "internalType": "address",
          "name": "to",
          "type": "address"
        },
        {
          "internalType": "uint256",
          "name": "tokenId",
          "type": "uint256"
        }
      ],
      "name": "safeTransferFrom",
      "outputs": [],
      "stateMutability": "nonpayable",
      "type": "function"
    },
    {
      "inputs": [
        {
          "internalType": "address",
          "name": "from",
          "type": "address"
        },
        {
          "internalType": "address",
          "name": "to",
          "type": "address"
        },
        {
          "internalType": "uint256",
          "name": "tokenId",
          "type": "uint256"
        },
        {
          "internalType": "bytes",
          "name": "data",
          "type": "bytes"
        }
      ],
      "name": "safeTransferFrom",
      "outputs": [],
      "stateMutability": "nonpayable",
      "type": "function"
    },
    {
      "inputs": [
        {
          "internalType": "address",
          "name": "operator",
          "type": "address"
        },
        {
          "internalType": "bool",
          "name": "approved",
          "type": "bool"
        }
      ],
      "name": "setApprovalForAll",
      "outputs": [],
      "stateMutability": "nonpayable",
      "type": "function"
    },
    {
      "inputs": [
        {
          "internalType": "bytes4",
          "name": "interfaceId",
          "type": "bytes4"
        }
      ],
      "name": "supportsInterface",
      "outputs": [
        {
          "internalType": "bool",
          "name": "",
          "type": "bool"
        }
      ],
      "stateMutability": "view",
      "type": "function"
    },
    {
      "inputs": [],
      "name": "symbol",
      "outputs": [
        {
          "internalType": "string",
          "name": "",
          "type": "string"
        }
      ],
      "stateMutability": "view",
      "type": "function"
    },
    {
      "inputs": [
        {
          "internalType": "address",
          "name": "owner",
          "type": "address"
        },
        {
          "internalType": "uint256",
          "name": "index",
          "type": "uint256"
        }
      ],
      "name": "tokenOfOwnerByIndex",
      "outputs": [
        {
          "internalType": "uint256",
          "name": "",
          "type": "uint256"
        }
      ],
      "stateMutability": "view",
      "type": "function"
    },
    {
      "inputs": [
        {
          "internalType": "uint256",
          "name": "tokenId",
          "type": "uint256"
        }
      ],
      "name": "tokenURI",
      "outputs": [
        {
          "internalType": "string",
          "name": "",
          "type": "string"
        }
      ],
      "stateMutability": "view",
      "type": "function"
    },
    {
      "inputs": [
        {
          "internalType": "address",
          "name": "from",
          "type": "address"
        },
        {
          "internalType": "address",
          "name": "to",
          "type": "address"
        },
        {
          "internalType": "uint256",
          "name": "tokenId",
          "type": "uint256"
        }
      ],
      "name": "transferFrom",
      "outputs": [],
      "stateMutability": "nonpayable",
      "type": "function"
    },
    {
      "inputs": [
        {
          "internalType": "uint256",
          "name": "tokenId",
          "type": "uint256"
        },
        {
          "internalType": "string",
          "name": "newEmployeeName",
          "type": "string"
        },
        {
          "internalType": "string",
          "name": "newDepartmentName",
          "type": "string"
        },
        {
          "internalType": "string",
          "name": "newMessage",
          "type": "string"
        }
      ],
      "name": "updateEmployeeInfo",
      "outputs": [],
      "stateMutability": "nonpayable",
      "type": "function"
    }
  ],
  "bytecode": "0x60803462000399576040906001600160401b038183018181118382101762000383578352600b82526020906a115b5c1b1bde595953919560aa1b8284015283519084820182811082821117620003835785526005825264115413919560da1b83830152835181811162000383576000928354916001968784811c9416801562000378575b8785101462000364578190601f9485811162000311575b508790858311600114620002ad578792620002a1575b5050600019600383901b1c191690871b1784555b80519283116200028d5785548681811c9116801562000282575b868210146200026e579081838594931162000219575b5085918311600114620001b5578492620001a9575b5050600019600383901b1c191690841b1783555b806008556200012c336200039e565b5062000138336200041f565b5060075492680100000000000000008410156200019557830180600755831015620001815760078152200180546001600160a01b03191633179055516136e49081620004c38239f35b634e487b7160e01b81526032600452602490fd5b634e487b7160e01b82526041600452602482fd5b01519050388062000109565b8685528585208794509190601f198416865b88828210620002025750508411620001e8575b505050811b0183556200011d565b015160001960f88460031b161c19169055388080620001da565b8385015186558a97909501949384019301620001c7565b909192508685528585208380860160051c82019288871062000264575b9186958a929594930160051c01915b82811062000255575050620000f4565b87815586955089910162000245565b9250819262000236565b634e487b7160e01b85526022600452602485fd5b90607f1690620000de565b634e487b7160e01b84526041600452602484fd5b015190503880620000b0565b8780528888208a94509190601f198416895b8b828210620002fa5750508411620002e0575b505050811b018455620000c4565b015160001960f88460031b161c19169055388080620002d2565b8385015186558d97909501949384019301620002bf565b9091508680528787208580850160051c8201928a86106200035a575b918b91869594930160051c01915b8281106200034b5750506200009a565b8981558594508b91016200033b565b925081926200032d565b634e487b7160e01b86526022600452602486fd5b93607f169362000083565b634e487b7160e01b600052604160045260246000fd5b600080fd5b6001600160a01b031660008181527f54cdd369e4e8a8515e52ca72ec816c2101831ad1f18bf44102ed171459c9b4f8602052604081205490919060ff166200041b5781805260066020526040822081835260205260408220600160ff19825416179055339160008051602062003ba78339815191528180a4600190565b5090565b6001600160a01b031660008181527f0c3bb05773fb95f6688e1e7d9c896674dccd66884026cf30a3d5e3a9bfecd81160205260408120549091907fa49807205ce4d355092ef5a8a18f56e8913cf4a201fbe287825b095693c217759060ff16620004bd5780835260066020526040832082845260205260408320600160ff1982541617905560008051602062003ba7833981519152339380a4600190565b50509056fe608080604052600436101561001357600080fd5b60003560e01c90816301ffc9a714611b005750806306fdde0314611a5d578063081812fc14611a1f578063095ea7b3146119385780631222ed27146118c85780631785f53c1461185d57806323b872dd14611846578063248a9ca31461181757806324d7806c146117c75780632f2ff15d146117885780632f745c59146116d457806331ae450b1461165057806336568abe1461160957806342842e0e146115e15780634f558e79146115b957806354c10365146114ee57806356e496aa14610e945780636352211e14610e645780637048027514610d3857806370a0823114610d0d57806375b238fc14610ce457806391d1485414610c9757806395d89b4114610bcc57806398478851146105b3578063a045442c1461052c578063a217fddf14610510578063a22cb4651461046b578063b88d4fde1461040c578063bd45f0f5146103cc578063c87b56dd1461021b578063d547741f146101da5763e985e9c51461017f57600080fd5b346101d55760403660031901126101d557610198611bcd565b6101a0611be3565b9060018060a01b03809116600052600560205260406000209116600052602052602060ff604060002054166040519015158152f35b600080fd5b346101d55760403660031901126101d5576102196004356101f9611be3565b90806000526006602052610214600160406000200154611dc9565b611f81565b005b346101d5576020806003193601126101d55761036260043580600052600a835261035d607361029a60406000206040519461025586611bf9565b61025e8261206b565b865261028e61028160026102746001860161206b565b948b8a019586520161206b565b9160408801928352612718565b9551915190519161285b565b92604051938491751ec89b985b59488e880891d7d0dbdb5c185b9e53919560521b888401526102d2815180928a603687019101611b85565b820161088b60f21b6036820152750899195cd8dc9a5c1d1a5bdb888e880895195cdd088b60521b60388201527f22696d616765223a22646174613a696d6167652f7376672b786d6c3b62617365604e820152620d8d0b60ea1b606e820152610343825180938a607185019101611b85565b0161227d60f01b6071820152036053810184520182611c2f565b6125c4565b906103b4603d60405180947f646174613a6170706c69636174696f6e2f6a736f6e3b6261736536342c000000858301526103a481518092878686019101611b85565b810103601d810185520183611c2f565b6103c8604051928284938452830190611ba8565b0390f35b346101d55760203660031901126101d557600435600052600f6020526103c86103f8604060002061206b565b604051918291602083526020830190611ba8565b346101d55760803660031901126101d557610425611bcd565b61042d611be3565b606435916001600160401b0383116101d557366023840112156101d557610461610219933690602481600401359101611c6b565b9160443591612297565b346101d55760403660031901126101d557610484611bcd565b602435908115158092036101d5576001600160a01b03169081156104f757336000526005602052604060002082600052602052604060002060ff1981541660ff83161790556040519081527f17307eab39ab6107e8899845ad3d59bd9653f200f220920489ca2b5937696c3160203392a3005b604051630b61174360e31b815260048101839052602490fd5b346101d55760003660031901126101d557602060405160008152f35b346101d55760003660031901126101d55760405180600d5491828152602080910192600d6000527fd7b6990105719101dabeb77144f2a3385c8033acd3af97e9423a695e81ad1eb5916000905b82821061059c576103c88561059081890382611c2f565b60405191829182611cf5565b835486529485019460019384019390910190610579565b346101d55760803660031901126101d5576105cc611bcd565b6024356001600160401b0381116101d5576105eb903690600401611ca2565b6044356001600160401b0381116101d55761060a903690600401611ca2565b916064356001600160401b0381116101d55761062a903690600401611ca2565b91610633611d91565b60018060a01b0392838316600052600b602052604060002054610b87576008549484841615610b6e578560005260026020528460406000205416868115159182610b37575b878716600052600360205260406000206001815401905581600052600260205260406000208888166bffffffffffffffffffffffff60a01b825416179055878716907fddf252ad1be2c89b69c2b068fc378daa952ba7f163c4a11628f55a4df523b3ef600080a4610b1e57604051926106f084611bf9565b83526020830152604082015283600052600a60205260406000209080518051906001600160401b0382116108a257819061072a8554612031565b601f8111610ace575b50602090601f8311600114610a6257600092610a57575b50508160011b916000199060031b1c19161782555b60208101518051906001600160401b0382116108a2576107826001850154612031565b601f8111610a10575b50602090601f831160011461099d57604093929160009183610992575b50508160011b916000199060031b1c19161760018401555b01518051906001600160401b0382116108a2576107e06002840154612031565b601f8111610947575b50602090601f83116001146108d95760029291600091836108ce575b50508160011b916000199060031b1c1916179101555b600854600181018091116108b85760085582600052600c60205260406000208282166bffffffffffffffffffffffff60a01b825416179055818116600052600b602052604060002092835493600160401b8510156108a25784610886916001610219970181556124e2565b819291549060031b91821b91600019901b1916179055166124fa565b634e487b7160e01b600052604160045260246000fd5b634e487b7160e01b600052601160045260246000fd5b015190508780610805565b90601f198316916002850160005260206000209260005b81811061092f57509160019391856002969410610916575b505050811b0191015561081b565b015160001960f88460031b161c19169055878080610908565b929360206001819287860151815501950193016108f0565b600284016000526020600020601f840160051c81019160208510610988575b601f0160051c01905b81811061097c57506107e9565b6000815560010161096f565b9091508190610966565b0151905088806107a8565b906001850160005260206000209160005b601f19851681106109f8575091839160019360409695601f198116106109df575b505050811b0160018401556107c0565b015160001960f88460031b161c191690558880806109cf565b919260206001819286850151815501940192016109ae565b600185016000526020600020601f840160051c810160208510610a50575b601f830160051c82018110610a4457505061078b565b60008155600101610a2e565b5080610a2e565b01519050878061074a565b9250846000526020600020906000935b601f1984168510610ab3576001945083601f19811610610a9a575b505050811b01825561075f565b015160001960f88460031b161c19169055878080610a8d565b81810151835560209485019460019093019290910190610a72565b909150846000526020600020601f840160051c810160208510610b17575b90849392915b601f830160051c82018110610b08575050610733565b60008155859450600101610af2565b5080610aec565b6040516339e3563760e11b815260006004820152602490fd5b600082815260046020526040902080546001600160a01b031916905580600052600360205260406000206000198154019055610678565b604051633250574960e11b815260006004820152602490fd5b60405162461bcd60e51b815260206004820152601e60248201527f456d706c6f79656520616c72656164792068617320616e204944204e465400006044820152606490fd5b346101d55760003660031901126101d55760405160006001805490610bf082612031565b80855291818116908115610c705750600114610c17575b6103c8846103f881860382611c2f565b600081815292507fb10e2d527612073b26eecdfd717e6a320cf44b4afac2b0732d9fcbe2b7fa0cf65b828410610c585750505081016020016103f882610c07565b80546020858701810191909152909301928101610c40565b60ff191660208087019190915292151560051b850190920192506103f89150839050610c07565b346101d55760403660031901126101d557610cb0611be3565b600435600052600660205260406000209060018060a01b0316600052602052602060ff604060002054166040519015158152f35b346101d55760003660031901126101d557602060405160008051602061368f8339815191528152f35b346101d55760203660031901126101d5576020610d30610d2b611bcd565b611ff8565b604051908152f35b346101d5576020806003193601126101d557610d52611bcd565b610d5a611d39565b60008051602061368f83398151915260008181526006845260408082206001600160a01b0385168084529086529120549093919060ff16610e21579060069160005252610dae600160406000200154611dc9565b610db781611def565b5060075490600160401b8210156108a257610ddb826001610dfa9401600755612495565b90919082549060031b9160018060a01b03809116831b921b1916179055565b7f44d6d25963f097ad14f29f06854a01f575648a1ef82f30e562ccd3889717e339600080a2005b6064826040519062461bcd60e51b825280600483015260248201527f54686973206164647265737320697320616c726561647920616e2061646d696e6044820152fd5b346101d55760203660031901126101d5576020610e826004356123ea565b6040516001600160a01b039091168152f35b346101d55760803660031901126101d5576024356001600160401b0381116101d557610ec4903690600401611ca2565b6044356001600160401b0381116101d557610ee3903690600401611ca2565b6064356001600160401b0381116101d557610f02903690600401611ca2565b91610f0b611d91565b604051610f1781611bf9565b818152826020820152836040820152600435600052600a60205260406000209080518051906001600160401b0382116108a2578190610f568554612031565b601f811161149e575b50602090601f83116001146114385760009261142d575b50508160011b916000199060031b1c19161782555b60208101518051906001600160401b0382116108a257610fae6001850154612031565b601f81116113e6575b50602090601f831160011461137357604093929160009183611368575b50508160011b916000199060031b1c19161760018401555b01518051906001600160401b0382116108a25761100c6002840154612031565b601f811161131d575b50602090601f83116001146112a5578261112d97959361105697959360029360009261129a575b50508160011b916000199060031b1c19161791015561285b565b61035d6075611066600435612718565b604051938491751ec89b985b59488e880891d7d0dbdb5c185b9e53919560521b602084015261109f815180926020603687019101611b85565b820161088b60f21b603682015275088b0899195cd8dc9a5c1d1a5bdb888e880895195cdd60521b60388201527f222c22696d616765223a22646174613a696d6167652f7376672b786d6c3b6261604e820152641cd94d8d0b60da1b606e820152611113825180936020607385019101611b85565b0161227d60f01b6073820152036055810184520182611c2f565b611180603d60405180937f646174613a6170706c69636174696f6e2f6a736f6e3b6261736536342c00000060208301526111708151809260208686019101611b85565b810103601d810184520182611c2f565b600435600052600f602052604060002081516001600160401b0381116108a2576111aa8254612031565b601f8111611252575b50602092601f82116001146111f157928192936000926111e6575b5050600019600383901b1c191660019190911b179055005b0151905083806111ce565b601f198216938360005260206000209160005b86811061123a5750836001959610611221575b505050811b019055005b015160001960f88460031b161c19169055838080611217565b91926020600181928685015181550194019201611204565b826000526020600020601f830160051c81019160208410611290575b601f0160051c01905b81811061128457506111b3565b60008155600101611277565b909150819061126e565b01519050898061103c565b90601f198316916002850160005260206000209260005b8181106113055750936110569795936002936001938361112d9c9a98106112ec575b505050811b0191015561285b565b015160001960f88460031b161c191690558980806112de565b929360206001819287860151815501950193016112bc565b600284016000526020600020601f840160051c8101916020851061135e575b601f0160051c01905b8181106113525750611015565b60008155600101611345565b909150819061133c565b015190508880610fd4565b906001850160005260206000209160005b601f19851681106113ce575091839160019360409695601f198116106113b5575b505050811b016001840155610fec565b015160001960f88460031b161c191690558880806113a5565b91926020600181928685015181550194019201611384565b600185016000526020600020601f840160051c810160208510611426575b601f830160051c8201811061141a575050610fb7565b60008155600101611404565b5080611404565b015190508780610f76565b6000868152602081209350601f198516905b818110611486575090846001959493921061146d575b505050811b018255610f8b565b015160001960f88460031b161c19169055878080611460565b9293602060018192878601518155019501930161144a565b909150846000526020600020601f840160051c8101602085106114e7575b90849392915b601f830160051c820181106114d8575050610f5f565b600081558594506001016114c2565b50806114bc565b346101d55760203660031901126101d557611507611bcd565b60078054916001600160a01b039190821660005b84811061152457005b838261152f83612495565b929054600393841b1c1614611550575060001981146108b85760010161151b565b949293926000199250828101919082116108b857610ddb8461157461158194612495565b905490891b1c1691612495565b825480156115a357019261159484612495565b8154921b9290921b1916905555005b634e487b7160e01b600052603160045260246000fd5b346101d55760203660031901126101d55760206115d7600435612425565b6040519015158152f35b346101d5576102196115f236611cc0565b906040519261160084611c14565b60008452612297565b346101d55760403660031901126101d557611622611be3565b336001600160a01b0382160361163e5761021990600435611f81565b60405163334bd91960e11b8152600490fd5b346101d55760003660031901126101d557604051806007549182815260208091019260076000527fa66cc928b5edb82af9bd49922954155ab7b0942694bea4ce44661d9a8736c688916000905b8282106116b4576103c88561059081890382611c2f565b83546001600160a01b03168652948501946001938401939091019061169d565b346101d55760403660031901126101d5576116ed611bcd565b602435906116fa81611ff8565b82101561172f576020916117219160018060a01b0316600052600b835260406000206124e2565b90546040519160031b1c8152f35b60405162461bcd60e51b815260206004820152602b60248201527f455243373231456e756d657261626c653a206f776e657220696e646578206f7560448201526a74206f6620626f756e647360a81b6064820152608490fd5b346101d55760403660031901126101d5576102196004356117a7611be3565b908060005260066020526117c2600160406000200154611dc9565b611e7e565b346101d55760203660031901126101d5576117e0611bcd565b6001600160a01b0316600090815260008051602061366f833981519152602090815260409182902054915160ff9092161515825290f35b346101d55760203660031901126101d55760043560005260066020526020600160406000200154604051908152f35b346101d55761021961185736611cc0565b91612111565b346101d55760203660031901126101d557610219611879611bcd565b611881611d39565b60008051602061368f83398151915260005260066020527f0c3bb05773fb95f6688e1e7d9c896674dccd66884026cf30a3d5e3a9bfecd812546118c390611dc9565b611ef9565b346101d55760603660031901126101d5576001600160401b036004358181116101d5576118f9903690600401611ca2565b906024358181116101d557611912903690600401611ca2565b916044359182116101d5576103c8926119326103f8933690600401611ca2565b9161285b565b346101d55760403660031901126101d557611951611bcd565b60243561195d816123ea565b33151580611a0c575b806119df575b6119c7576001600160a01b039283169282918491167f8c5be1e5ebec7d5bd14f71427d1e84f3dd0314c0f7b2291e5b200ac8c7c3b925600080a4600090815260046020526040902080546001600160a01b0319169091179055005b60405163a9fbf51f60e01b8152336004820152602490fd5b5060018060a01b038116600052600560205260406000203360005260205260ff604060002054161561196c565b506001600160a01b038116331415611966565b346101d55760203660031901126101d557600435611a3c816123ea565b506000526004602052602060018060a01b0360406000205416604051908152f35b346101d55760003660031901126101d55760405160008054611a7e81612031565b80845290600190818116908115610c705750600114611aa7576103c8846103f881860382611c2f565b600080805292507f290decd9548b62a8d60345a988386fc84ba6bc95484008f6362f93160ef3e5635b828410611ae85750505081016020016103f882610c07565b80546020858701810191909152909301928101611ad0565b346101d55760203660031901126101d5576004359063ffffffff60e01b82168092036101d557602091637965db0b60e01b8114908115611b42575b5015158152f35b6380ac58cd60e01b811491508115611b74575b8115611b63575b5083611b3b565b6301ffc9a760e01b14905083611b5c565b635b5e139f60e01b81149150611b55565b60005b838110611b985750506000910152565b8181015183820152602001611b88565b90602091611bc181518092818552858086019101611b85565b601f01601f1916010190565b600435906001600160a01b03821682036101d557565b602435906001600160a01b03821682036101d557565b606081019081106001600160401b038211176108a257604052565b602081019081106001600160401b038211176108a257604052565b90601f801991011681019081106001600160401b038211176108a257604052565b6001600160401b0381116108a257601f01601f191660200190565b929192611c7782611c50565b91611c856040519384611c2f565b8294818452818301116101d5578281602093846000960137010152565b9080601f830112156101d557816020611cbd93359101611c6b565b90565b60609060031901126101d5576001600160a01b039060043582811681036101d5579160243590811681036101d5579060443590565b6020908160408183019282815285518094520193019160005b828110611d1c575050505090565b83516001600160a01b031685529381019392810192600101611d0e565b3360009081527f54cdd369e4e8a8515e52ca72ec816c2101831ad1f18bf44102ed171459c9b4f8602052604081205460ff1615611d735750565b6044906040519063e2517d3f60e01b82523360048301526024820152fd5b33600090815260008051602061366f833981519152602052604090205460008051602061368f8339815191529060ff1615611d735750565b80600052600660205260406000203360005260205260ff6040600020541615611d735750565b6001600160a01b0316600081815260008051602061366f833981519152602052604081205490919060008051602061368f8339815191529060ff16611e795780835260066020526040832082845260205260408320600160ff198254161790557f2f8788117e7eff1d82e926ec794901d17c78024a50270940304540a733656f0d339380a4600190565b505090565b906000918083526006602052604083209160018060a01b03169182845260205260ff60408420541615600014611e795780835260066020526040832082845260205260408320600160ff198254161790557f2f8788117e7eff1d82e926ec794901d17c78024a50270940304540a733656f0d339380a4600190565b6001600160a01b0316600081815260008051602061366f833981519152602052604081205490919060008051602061368f8339815191529060ff1615611e79578083526006602052604083208284526020526040832060ff1981541690557ff6391f5c32d9c69d2a47ea670b442974b53935d1edc7fd64eb21e047a839171b339380a4600190565b906000918083526006602052604083209160018060a01b03169182845260205260ff604084205416600014611e79578083526006602052604083208284526020526040832060ff1981541690557ff6391f5c32d9c69d2a47ea670b442974b53935d1edc7fd64eb21e047a839171b339380a4600190565b6001600160a01b0316801561201857600052600360205260406000205490565b6040516322718ad960e21b815260006004820152602490fd5b90600182811c92168015612061575b602083101461204b57565b634e487b7160e01b600052602260045260246000fd5b91607f1691612040565b906040519182600082549261207f84612031565b9081845260019485811690816000146120ee57506001146120ab575b50506120a992500383611c2f565b565b9093915060005260209081600020936000915b8183106120d65750506120a99350820101388061209b565b855488840185015294850194879450918301916120be565b9150506120a994506020925060ff191682840152151560051b820101388061209b565b6001600160a01b039182169290918315610b6e57600092828452826020956002875260409684888820541696879133151580612201575b509060027fddf252ad1be2c89b69c2b068fc378daa952ba7f163c4a11628f55a4df523b3ef92846121ce575b858352600381528b8320805460010190558683525289812080546001600160a01b0319168517905580a416928383036121ad5750505050565b6064945051926364283d7b60e01b8452600484015260248301526044820152fd5b600087815260046020526040902080546001600160a01b0319169055848352600381528b83208054600019019055612174565b91939450915080612256575b1561221d57859291879138612148565b87868861223a576024915190637e27328960e01b82526004820152fd5b604491519063177e802f60e01b82523360048301526024820152fd5b50338714801561227b575b8061220d575085825260048152338589842054161461220d565b5086825260058152878220338352815260ff8883205416612261565b6122a2838383612111565b813b6122af575b50505050565b604051630a85bd0160e11b8082523360048301526001600160a01b039283166024830152604482019490945260806064820152602095929091169390929083906122fd906084830190611ba8565b039285816000958187895af18491816123a6575b50612371575050503d600014612369573d61232b81611c50565b906123396040519283611c2f565b81528091843d92013e5b8051928361236457604051633250574960e11b815260048101849052602490fd5b019050fd5b506060612343565b919450915063ffffffff60e01b160361238e5750388080806122a9565b60249060405190633250574960e11b82526004820152fd5b9091508681813d83116123e3575b6123be8183611c2f565b810103126123df57516001600160e01b0319811681036123df579038612311565b8480fd5b503d6123b4565b6000818152600260205260409020546001600160a01b031690811561240d575090565b60249060405190637e27328960e01b82526004820152fd5b604051906331a9108f60e11b82526004820152602081602481305afa9081612457575b5061245257600090565b600190565b6020813d821161248d575b8161246f60209383611c2f565b810103126101d557516001600160a01b038116036101d55738612448565b3d9150612462565b6007548110156124cc5760076000527fa66cc928b5edb82af9bd49922954155ab7b0942694bea4ce44661d9a8736c6880190600090565b634e487b7160e01b600052603260045260246000fd5b80548210156124cc5760005260206000200190600090565b6000818152600e602052604081205461258d57600d54600160401b811015612579576001810180600d558110156125655790826040927fd7b6990105719101dabeb77144f2a3385c8033acd3af97e9423a695e81ad1eb50155600d54928152600e6020522055600190565b634e487b7160e01b82526032600452602482fd5b634e487b7160e01b82526041600452602482fd5b905090565b9061259c82611c50565b6125a96040519182611c2f565b82815280926125ba601f1991611c50565b0190602036910137565b80511561270457604051906125d882611bf9565b604082527f4142434445464748494a4b4c4d4e4f505152535455565758595a61626364656660208301527f6768696a6b6c6d6e6f707172737475767778797a303132333435363738392b2f604083015280516002918282018092116108b8576003918290046001600160fe1b03811681036108b85761265a908495941b612592565b936020850193829183518401906020820192835194600085525b8381106126b35750505050525106806001146126a057600214612695575090565b603d90600019015390565b50603d9081600019820153600119015390565b87600491999293949901918251600190603f9082828260121c16880101518453828282600c1c16880101518385015382828260061c1688010151888501531685010151898201530197929190612674565b5060405161271181611c14565b6000815290565b806000917a184f03e93ff9f4daa797ed6e38ed64bf6a1f0100000000000000008082101561284d575b506d04ee2d6d415b85acef81000000008083101561283e575b50662386f26fc100008083101561282f575b506305f5e10080831015612820575b5061271080831015612811575b506064821015612801575b600a809210156127f7575b6001908160216127af828701612592565b95860101905b6127c1575b5050505090565b600019019083906f181899199a1a9b1b9c1cb0b131b232b360811b8282061a8353049182156127f2579190826127b5565b6127ba565b916001019161279e565b9190606460029104910191612793565b60049193920491019138612788565b6008919392049101913861277b565b6010919392049101913861276c565b6020919392049101913861275a565b604093508104915038612741565b90610c7c61035d91611cbd946040519485927f3c7376672077696474683d2237303022206865696768743d223730302220786d60208501527f6c6e733d22687474703a2f2f7777772e77332e6f72672f323030302f7376672260408501527f207374796c653d226261636b67726f756e642d636f6c6f723a20233137323835606085015263199d911f60e11b60808501527f3c7469746c653e456d706c6f7965654e46545f496d6167653c2f7469746c653e60848501527f3c74657874207472616e73666f726d3d226d617472697828312e31313137342060a48501527f30203020312e3337393635202d32312e31383431202d32382e3334363429222060c48501527f7374726f6b653d2223394143454536222066696c6c3d2223666666666666222060e48501527f7374726f6b652d77696474683d22302220783d223234322e35393739332220796101048501527f3d2237342e3832303631222069643d227376675f332220666f6e742d73697a656101248501527f3d2232342220666f6e742d66616d696c793d22274172696d6f272220746578746101448501527f2d616e63686f723d2273746172742220786d6c3a73706163653d2270726573656101648501527f7276652220666f6e742d7765696768743d22626f6c64223e4720436f6d70616e6101848501526b3c9027232a1e17ba32bc3a1f60a11b6101a48501527f3c72656374207374726f6b653d2223394143454536222069643d227376675f34806101b08601527f22206865696768743d223139222077696474683d223131352220793d2233382290816101d08701527f20783d2238312e303030323622207374726f6b652d77696474683d2230222066806101f08801526e34b6361e9111b3333333333311179f60891b92836102108901527f3c72656374207374726f6b653d2223394143454536222069643d227376675f36928361021f8a01527f22206865696768743d223139222077696474683d223131352220793d22363722928361023f8b015261025f8a01528461027f8a015261028e8901526102ae8801527f20783d223532362e3137373622207374726f6b652d77696474683d223022206691826102ce890152836102ee8901526102fd88015261031d87015261033d86015261035d8501527f3c70617468207374726f6b653d2223394143454536222069643d227376675f3161036c8501527f362220643d226d3237312e39383931342c3138312e35343136336c33342e393261038c8501527f3835382c2d36332e39393939396c39332e31343238362c306c33342e393238356103ac8501527f362c36332e39393939396c2d33342e39323835362c36332e39393939396c2d396103cc8501527f332e31343238362c306c2d33342e39323835382c2d36332e39393939397a22206103ec8501527f7374726f6b652d77696474683d2230222066696c6c3d2223306465383737222f61040c850152601f60f91b61042c8501527f3c74657874207472616e73666f726d3d226d617472697828312e39363830352061042d8501527f30203020312e3635363133202d3233322e393431202d3133342e33323629222061044d8501527f7374726f6b653d22233941434545362220786d6c3a73706163653d227072657361046d8501527f657276652220746578742d616e63686f723d2273746172742220666f6e742d6661048d8501527f616d696c793d22274172696d6f272220666f6e742d73697a653d2232342220696104ad8501527f643d227376675f31392220793d223139372e35373931322220783d223238372e6104cd8501527f3931363122207374726f6b652d77696474683d2230222066696c6c3d222330306104ed8501526d18181818111f239e17ba32bc3a1f60911b61050d8501527f3c7465787420786d6c3a73706163653d2270726573657276652220746578742d8061051b8601527f616e63686f723d2273746172742220666f6e742d66616d696c793d2227417269908161053b8701527f6d6f272220666f6e742d73697a653d223234222069643d227376675f3232222061055b8701527f793d223238382e30353837342220783d223239312e383234313722207374726f61057b8701527f6b652d77696474683d223022207374726f6b653d22233941434545362220666961059b8701527f6c6c3d2223666666666666223e596f7572204e616d653c2f746578743e0000006105bb8701527f3c72656374207374726f6b653d2223303030303030222069643d227376675f326105d88701527f3322206865696768743d223332222077696474683d223234382220793d2233306105f88701527f372e37363436352220783d223233322e303030363522207374726f6b652d77696106188701527f6474683d2232222066696c6c3d2223666666666666222f3e00000000000000006106388701526106508601526106708501527f6d6f272220666f6e742d73697a653d223234222069643d227376675f323422206106908501527f793d223430312e35383831372220783d223135332e333533343822207374726f6106b08501527f6b652d77696474683d223022207374726f6b653d22233030303030302220666991826106d08601526c36361e9111b33333333333111f60991b6106f0860152635465616d60e01b6106fd860152661e17ba32bc3a1f60c91b92836107018701527f3c726563742066696c6c3d222366666666666622207374726f6b652d776964746107088701527f683d22322220783d223235362e37303636392220793d223337332e36343734336107288701527f222077696474683d2232343822206865696768743d223332222069643d2273766107488701527f675f3522207374726f6b653d2223303030303030222f3e0000000000000000006107688701527f3c74657874207374796c653d22637572736f723a206d6f76653b22207374726f61077f8701527f6b653d22233030303030302220786d6c3a73706163653d22707265736572766561079f8701527f2220746578742d616e63686f723d2273746172742220666f6e742d66616d696c6107bf8701527f793d22274172696d6f272220666f6e742d73697a653d223234222069643d22736107df8701527f76675f33302220793d223435352e37303539312220783d223132362e363437346107ff8701527f3322207374726f6b652d77696474683d2230222066696c6c3d2223666666666661081f8701526233111f60e91b61083f870152664d65737361676560c81b610842870152836108498701527f3c72656374207374726f6b653d2223303030303030222066696c6c3d222366666108508701527f6666666622207374726f6b652d77696474683d22322220783d223235362e37306108708701527f3636392220793d223433312e3239343837222077696474683d223234382220686108908701527f65696768743d2233342e3335323935222069643d227376675f37222f3e0000006108b08701527f3c74657874207374796c653d22637572736f723a206d6f76653b2220786d6c3a6108cd8701527f73706163653d2270726573657276652220746578742d616e63686f723d2273746108ed8701527f6172742220666f6e742d66616d696c793d22274172696d6f272220666f6e742d61090d8701527f73697a653d223234222069643d227376675f33322220793d223538322e30353961092d8701527f2220783d223237342e333533343722207374726f6b652d77696474683d22302261094d8701527f207374726f6b653d2223303030303030222066696c6c3d22236666666666662261096d8701526d1f3c3c3c3c3c3c1e17ba32bc3a1f60911b61098d8701527f203c7465787420786d6c3a73706163653d22707265736572766522207465787461099b8701527f2d616e63686f723d2273746172742220666f6e742d66616d696c793d222741726109bb8701527f696d6f272220666f6e742d73697a653d223234222069643d227376675f3333226109db8701527f20793d223632342e363437332220783d223235372e313138313322207374726f6109fb870152610a1b8601527f6c6c3d2223666666666666223e7878782d787878782d7878783c2f746578743e610a3b8601527f3c746578742066696c6c3d222330303030303022207374726f6b653d2223666680610a5b8701527f6666666622207374726f6b652d77696474683d22302220783d223332342e3736610a7b8701527f3535352220793d223333332e3934313339222069643d227376675f3134222066610a9b87015283867f6f6e742d73697a653d2232342220666f6e742d66616d696c793d22274172696d9384610abb8301527f6f272220746578742d616e63686f723d2273746172742220786d6c3a7370616380610adb840152836c329e91383932b9b2b93b32911f60991b9283610afb860152613511815180926020610b088099019101611b85565b8b019384015284610b0f8401527f6666666622207374726f6b652d77696474683d22302220783d223237342e31379586610b2f8501527f3639392220793d223339382e3634373639222069643d227376675f3135222066610b4f850152610b6f840152610b8f830152610baf82015284519061359782610bbc9760208985019101611b85565b0193840152610bc3830152610be38201527f3639392220793d223435372e34373136222069643d227376675f31372220666f610c038201527f6e742d73697a653d2232342220666f6e742d66616d696c793d22274172696d6f610c238201527f272220746578742d616e63686f723d2273746172742220786d6c3a7370616365610c438201526b1e91383932b9b2b93b32911f60a11b610c6382015282519061364a82610c6f9560208785019101611b85565b0191820152651e17b9bb339f60d11b610c7682015203610c5c810184520182611c2f56fe0c3bb05773fb95f6688e1e7d9c896674dccd66884026cf30a3d5e3a9bfecd811a49807205ce4d355092ef5a8a18f56e8913cf4a201fbe287825b095693c21775a264697066735822122028b0b4a4b7b507b21ed40a98ac358351ffcfac9bd5f351d946510d9de4ccb35f64736f6c634300081300332f8788117e7eff1d82e926ec794901d17c78024a50270940304540a733656f0d",
  "linkReferences": {},
  "deployedLinkReferences": {}
}