{
  "_format": "hh-sol-artifact-1",
  "contractName": "EmployeeId",
  "sourceName": "contracts/EmployeeId.sol",
  "abi": [
    {
      "inputs": [],
      "stateMutability": "nonpayable",
      "type": "constructor"
    },
    {
      "inputs": [],
      "name": "AccessControlBadConfirmation",
      "type": "error"
    },
    {
      "inputs": [
        {
          "internalType": "address",
          "name": "account",
          "type": "address"
        },
        {
          "internalType": "bytes32",
          "name": "neededRole",
          "type": "bytes32"
        }
      ],
      "name": "AccessControlUnauthorizedAccount",
      "type": "error"
    },
    {
      "inputs": [
        {
          "internalType": "address",
          "name": "sender",
          "type": "address"
        },
        {
          "internalType": "uint256",
          "name": "tokenId",
          "type": "uint256"
        },
        {
          "internalType": "address",
          "name": "owner",
          "type": "address"
        }
      ],
      "name": "ERC721IncorrectOwner",
      "type": "error"
    },
    {
      "inputs": [
        {
          "internalType": "address",
          "name": "operator",
          "type": "address"
        },
        {
          "internalType": "uint256",
          "name": "tokenId",
          "type": "uint256"
        }
      ],
      "name": "ERC721InsufficientApproval",
      "type": "error"
    },
    {
      "inputs": [
        {
          "internalType": "address",
          "name": "approver",
          "type": "address"
        }
      ],
      "name": "ERC721InvalidApprover",
      "type": "error"
    },
    {
      "inputs": [
        {
          "internalType": "address",
          "name": "operator",
          "type": "address"
        }
      ],
      "name": "ERC721InvalidOperator",
      "type": "error"
    },
    {
      "inputs": [
        {
          "internalType": "address",
          "name": "owner",
          "type": "address"
        }
      ],
      "name": "ERC721InvalidOwner",
      "type": "error"
    },
    {
      "inputs": [
        {
          "internalType": "address",
          "name": "receiver",
          "type": "address"
        }
      ],
      "name": "ERC721InvalidReceiver",
      "type": "error"
    },
    {
      "inputs": [
        {
          "internalType": "address",
          "name": "sender",
          "type": "address"
        }
      ],
      "name": "ERC721InvalidSender",
      "type": "error"
    },
    {
      "inputs": [
        {
          "internalType": "uint256",
          "name": "tokenId",
          "type": "uint256"
        }
      ],
      "name": "ERC721NonexistentToken",
      "type": "error"
    },
    {
      "anonymous": false,
      "inputs": [
        {
          "indexed": true,
          "internalType": "address",
          "name": "newAdmin",
          "type": "address"
        }
      ],
      "name": "AdminAdded",
      "type": "event"
    },
    {
      "anonymous": false,
      "inputs": [
        {
          "indexed": true,
          "internalType": "address",
          "name": "removedAdmin",
          "type": "address"
        }
      ],
      "name": "AdminRemoved",
      "type": "event"
    },
    {
      "anonymous": false,
      "inputs": [
        {
          "indexed": true,
          "internalType": "address",
          "name": "owner",
          "type": "address"
        },
        {
          "indexed": true,
          "internalType": "address",
          "name": "approved",
          "type": "address"
        },
        {
          "indexed": true,
          "internalType": "uint256",
          "name": "tokenId",
          "type": "uint256"
        }
      ],
      "name": "Approval",
      "type": "event"
    },
    {
      "anonymous": false,
      "inputs": [
        {
          "indexed": true,
          "internalType": "address",
          "name": "owner",
          "type": "address"
        },
        {
          "indexed": true,
          "internalType": "address",
          "name": "operator",
          "type": "address"
        },
        {
          "indexed": false,
          "internalType": "bool",
          "name": "approved",
          "type": "bool"
        }
      ],
      "name": "ApprovalForAll",
      "type": "event"
    },
    {
      "anonymous": false,
      "inputs": [
        {
          "indexed": true,
          "internalType": "bytes32",
          "name": "role",
          "type": "bytes32"
        },
        {
          "indexed": true,
          "internalType": "bytes32",
          "name": "previousAdminRole",
          "type": "bytes32"
        },
        {
          "indexed": true,
          "internalType": "bytes32",
          "name": "newAdminRole",
          "type": "bytes32"
        }
      ],
      "name": "RoleAdminChanged",
      "type": "event"
    },
    {
      "anonymous": false,
      "inputs": [
        {
          "indexed": true,
          "internalType": "bytes32",
          "name": "role",
          "type": "bytes32"
        },
        {
          "indexed": true,
          "internalType": "address",
          "name": "account",
          "type": "address"
        },
        {
          "indexed": true,
          "internalType": "address",
          "name": "sender",
          "type": "address"
        }
      ],
      "name": "RoleGranted",
      "type": "event"
    },
    {
      "anonymous": false,
      "inputs": [
        {
          "indexed": true,
          "internalType": "bytes32",
          "name": "role",
          "type": "bytes32"
        },
        {
          "indexed": true,
          "internalType": "address",
          "name": "account",
          "type": "address"
        },
        {
          "indexed": true,
          "internalType": "address",
          "name": "sender",
          "type": "address"
        }
      ],
      "name": "RoleRevoked",
      "type": "event"
    },
    {
      "anonymous": false,
      "inputs": [
        {
          "indexed": true,
          "internalType": "address",
          "name": "from",
          "type": "address"
        },
        {
          "indexed": true,
          "internalType": "address",
          "name": "to",
          "type": "address"
        },
        {
          "indexed": true,
          "internalType": "uint256",
          "name": "tokenId",
          "type": "uint256"
        }
      ],
      "name": "Transfer",
      "type": "event"
    },
    {
      "inputs": [],
      "name": "ADMIN_ROLE",
      "outputs": [
        {
          "internalType": "bytes32",
          "name": "",
          "type": "bytes32"
        }
      ],
      "stateMutability": "view",
      "type": "function"
    },
    {
      "inputs": [],
      "name": "DEFAULT_ADMIN_ROLE",
      "outputs": [
        {
          "internalType": "bytes32",
          "name": "",
          "type": "bytes32"
        }
      ],
      "stateMutability": "view",
      "type": "function"
    },
    {
      "inputs": [
        {
          "internalType": "address",
          "name": "newAdmin",
          "type": "address"
        }
      ],
      "name": "addAdmin",
      "outputs": [],
      "stateMutability": "nonpayable",
      "type": "function"
    },
    {
      "inputs": [
        {
          "internalType": "address",
          "name": "to",
          "type": "address"
        },
        {
          "internalType": "uint256",
          "name": "tokenId",
          "type": "uint256"
        }
      ],
      "name": "approve",
      "outputs": [],
      "stateMutability": "nonpayable",
      "type": "function"
    },
    {
      "inputs": [
        {
          "internalType": "address",
          "name": "owner",
          "type": "address"
        }
      ],
      "name": "balanceOf",
      "outputs": [
        {
          "internalType": "uint256",
          "name": "",
          "type": "uint256"
        }
      ],
      "stateMutability": "view",
      "type": "function"
    },
    {
      "inputs": [
        {
          "internalType": "uint256",
          "name": "tokenId",
          "type": "uint256"
        }
      ],
      "name": "exists",
      "outputs": [
        {
          "internalType": "bool",
          "name": "",
          "type": "bool"
        }
      ],
      "stateMutability": "view",
      "type": "function"
    },
    {
      "inputs": [
        {
          "internalType": "string",
          "name": "employeeName",
          "type": "string"
        },
        {
          "internalType": "string",
          "name": "departmentName",
          "type": "string"
        },
        {
          "internalType": "string",
          "name": "message",
          "type": "string"
        }
      ],
      "name": "generateSVG",
      "outputs": [
        {
          "internalType": "string",
          "name": "svg",
          "type": "string"
        }
      ],
      "stateMutability": "pure",
      "type": "function"
    },
    {
      "inputs": [],
      "name": "getAdmins",
      "outputs": [
        {
          "internalType": "address[]",
          "name": "",
          "type": "address[]"
        }
      ],
      "stateMutability": "view",
      "type": "function"
    },
    {
      "inputs": [
        {
          "internalType": "uint256",
          "name": "tokenId",
          "type": "uint256"
        }
      ],
      "name": "getApproved",
      "outputs": [
        {
          "internalType": "address",
          "name": "",
          "type": "address"
        }
      ],
      "stateMutability": "view",
      "type": "function"
    },
    {
      "inputs": [
        {
          "internalType": "uint256",
          "name": "tokenId",
          "type": "uint256"
        }
      ],
      "name": "getCustomTokenURI",
      "outputs": [
        {
          "internalType": "string",
          "name": "",
          "type": "string"
        }
      ],
      "stateMutability": "view",
      "type": "function"
    },
    {
      "inputs": [
        {
          "internalType": "bytes32",
          "name": "role",
          "type": "bytes32"
        }
      ],
      "name": "getRoleAdmin",
      "outputs": [
        {
          "internalType": "bytes32",
          "name": "",
          "type": "bytes32"
        }
      ],
      "stateMutability": "view",
      "type": "function"
    },
    {
      "inputs": [
        {
          "internalType": "bytes32",
          "name": "role",
          "type": "bytes32"
        },
        {
          "internalType": "address",
          "name": "account",
          "type": "address"
        }
      ],
      "name": "grantRole",
      "outputs": [],
      "stateMutability": "nonpayable",
      "type": "function"
    },
    {
      "inputs": [
        {
          "internalType": "bytes32",
          "name": "role",
          "type": "bytes32"
        },
        {
          "internalType": "address",
          "name": "account",
          "type": "address"
        }
      ],
      "name": "hasRole",
      "outputs": [
        {
          "internalType": "bool",
          "name": "",
          "type": "bool"
        }
      ],
      "stateMutability": "view",
      "type": "function"
    },
    {
      "inputs": [
        {
          "internalType": "address",
          "name": "_address",
          "type": "address"
        }
      ],
      "name": "isAdmin",
      "outputs": [
        {
          "internalType": "bool",
          "name": "",
          "type": "bool"
        }
      ],
      "stateMutability": "view",
      "type": "function"
    },
    {
      "inputs": [
        {
          "internalType": "address",
          "name": "owner",
          "type": "address"
        },
        {
          "internalType": "address",
          "name": "operator",
          "type": "address"
        }
      ],
      "name": "isApprovedForAll",
      "outputs": [
        {
          "internalType": "bool",
          "name": "",
          "type": "bool"
        }
      ],
      "stateMutability": "view",
      "type": "function"
    },
    {
      "inputs": [
        {
          "internalType": "address",
          "name": "to",
          "type": "address"
        },
        {
          "internalType": "string",
          "name": "employeeName",
          "type": "string"
        },
        {
          "internalType": "string",
          "name": "departmentName",
          "type": "string"
        },
        {
          "internalType": "string",
          "name": "message",
          "type": "string"
        }
      ],
      "name": "mintEmployeeIdNFT",
      "outputs": [],
      "stateMutability": "nonpayable",
      "type": "function"
    },
    {
      "inputs": [],
      "name": "name",
      "outputs": [
        {
          "internalType": "string",
          "name": "",
          "type": "string"
        }
      ],
      "stateMutability": "view",
      "type": "function"
    },
    {
      "inputs": [
        {
          "internalType": "uint256",
          "name": "tokenId",
          "type": "uint256"
        }
      ],
      "name": "ownerOf",
      "outputs": [
        {
          "internalType": "address",
          "name": "",
          "type": "address"
        }
      ],
      "stateMutability": "view",
      "type": "function"
    },
    {
      "inputs": [
        {
          "internalType": "address",
          "name": "admin",
          "type": "address"
        }
      ],
      "name": "removeAdmin",
      "outputs": [],
      "stateMutability": "nonpayable",
      "type": "function"
    },
    {
      "inputs": [
        {
          "internalType": "address",
          "name": "admin",
          "type": "address"
        }
      ],
      "name": "removeAdminFromList",
      "outputs": [],
      "stateMutability": "nonpayable",
      "type": "function"
    },
    {
      "inputs": [
        {
          "internalType": "bytes32",
          "name": "role",
          "type": "bytes32"
        },
        {
          "internalType": "address",
          "name": "callerConfirmation",
          "type": "address"
        }
      ],
      "name": "renounceRole",
      "outputs": [],
      "stateMutability": "nonpayable",
      "type": "function"
    },
    {
      "inputs": [
        {
          "internalType": "bytes32",
          "name": "role",
          "type": "bytes32"
        },
        {
          "internalType": "address",
          "name": "account",
          "type": "address"
        }
      ],
      "name": "revokeRole",
      "outputs": [],
      "stateMutability": "nonpayable",
      "type": "function"
    },
    {
      "inputs": [
        {
          "internalType": "address",
          "name": "from",
          "type": "address"
        },
        {
          "internalType": "address",
          "name": "to",
          "type": "address"
        },
        {
          "internalType": "uint256",
          "name": "tokenId",
          "type": "uint256"
        }
      ],
      "name": "safeTransferFrom",
      "outputs": [],
      "stateMutability": "nonpayable",
      "type": "function"
    },
    {
      "inputs": [
        {
          "internalType": "address",
          "name": "from",
          "type": "address"
        },
        {
          "internalType": "address",
          "name": "to",
          "type": "address"
        },
        {
          "internalType": "uint256",
          "name": "tokenId",
          "type": "uint256"
        },
        {
          "internalType": "bytes",
          "name": "data",
          "type": "bytes"
        }
      ],
      "name": "safeTransferFrom",
      "outputs": [],
      "stateMutability": "nonpayable",
      "type": "function"
    },
    {
      "inputs": [
        {
          "internalType": "address",
          "name": "operator",
          "type": "address"
        },
        {
          "internalType": "bool",
          "name": "approved",
          "type": "bool"
        }
      ],
      "name": "setApprovalForAll",
      "outputs": [],
      "stateMutability": "nonpayable",
      "type": "function"
    },
    {
      "inputs": [
        {
          "internalType": "bytes4",
          "name": "interfaceId",
          "type": "bytes4"
        }
      ],
      "name": "supportsInterface",
      "outputs": [
        {
          "internalType": "bool",
          "name": "",
          "type": "bool"
        }
      ],
      "stateMutability": "view",
      "type": "function"
    },
    {
      "inputs": [],
      "name": "symbol",
      "outputs": [
        {
          "internalType": "string",
          "name": "",
          "type": "string"
        }
      ],
      "stateMutability": "view",
      "type": "function"
    },
    {
      "inputs": [
        {
          "internalType": "address",
          "name": "owner",
          "type": "address"
        },
        {
          "internalType": "uint256",
          "name": "index",
          "type": "uint256"
        }
      ],
      "name": "tokenOfOwnerByIndex",
      "outputs": [
        {
          "internalType": "uint256",
          "name": "",
          "type": "uint256"
        }
      ],
      "stateMutability": "view",
      "type": "function"
    },
    {
      "inputs": [
        {
          "internalType": "uint256",
          "name": "tokenId",
          "type": "uint256"
        }
      ],
      "name": "tokenURI",
      "outputs": [
        {
          "internalType": "string",
          "name": "",
          "type": "string"
        }
      ],
      "stateMutability": "view",
      "type": "function"
    },
    {
      "inputs": [
        {
          "internalType": "address",
          "name": "from",
          "type": "address"
        },
        {
          "internalType": "address",
          "name": "to",
          "type": "address"
        },
        {
          "internalType": "uint256",
          "name": "tokenId",
          "type": "uint256"
        }
      ],
      "name": "transferFrom",
      "outputs": [],
      "stateMutability": "nonpayable",
      "type": "function"
    },
    {
      "inputs": [
        {
          "internalType": "uint256",
          "name": "tokenId",
          "type": "uint256"
        },
        {
          "internalType": "string",
          "name": "newEmployeeName",
          "type": "string"
        },
        {
          "internalType": "string",
          "name": "newDepartmentName",
          "type": "string"
        },
        {
          "internalType": "string",
          "name": "newMessage",
          "type": "string"
        }
      ],
      "name": "updateEmployeeInfo",
      "outputs": [],
      "stateMutability": "nonpayable",
      "type": "function"
    }
  ],
  "bytecode": "0x6080346200032f576001600160401b03906040908082018381118282101762000319578252600b81526020906a115b5c1b1bde595953919560aa1b8282015282519383850185811082821117620003195784526005855264115413919560da1b83860152815181811162000319576000938454916001948584811c941680156200030e575b83851014620002fa578190601f94858111620002a7575b5083908583116001146200024357889262000237575b5050600019600383901b1c191690851b1785555b8651928311620002235783548481811c9116801562000218575b828210146200020457828111620001bc575b50809183116001146200015557508394958293949262000149575b5050600019600383901b1c191690821b1790555b6008556200012e3362000334565b506200013a33620003b5565b50516135d29081620004598239f35b0151905038806200010c565b90601f198316968486528286209286905b898210620001a45750508385969798106200018a575b505050811b01905562000120565b015160001960f88460031b161c191690553880806200017c565b80878596829496860151815501950193019062000166565b8486528186208380860160051c820192848710620001fa575b0160051c019085905b828110620001ee575050620000f1565b878155018590620001de565b92508192620001d5565b634e487b7160e01b86526022600452602486fd5b90607f1690620000df565b634e487b7160e01b85526041600452602485fd5b015190503880620000b1565b8880528489208894509190601f1984168a5b8782821062000290575050841162000276575b505050811b018555620000c5565b015160001960f88460031b161c1916905538808062000268565b8385015186558b9790950194938401930162000255565b9091508780528388208580850160051c820192868610620002f0575b918991869594930160051c01915b828110620002e15750506200009b565b8a8155859450899101620002d1565b92508192620002c3565b634e487b7160e01b87526022600452602487fd5b93607f169362000084565b634e487b7160e01b600052604160045260246000fd5b600080fd5b6001600160a01b031660008181527f54cdd369e4e8a8515e52ca72ec816c2101831ad1f18bf44102ed171459c9b4f8602052604081205490919060ff16620003b15781805260066020526040822081835260205260408220600160ff19825416179055339160008051602062003a2b8339815191528180a4600190565b5090565b6001600160a01b031660008181527f0c3bb05773fb95f6688e1e7d9c896674dccd66884026cf30a3d5e3a9bfecd81160205260408120549091907fa49807205ce4d355092ef5a8a18f56e8913cf4a201fbe287825b095693c217759060ff16620004535780835260066020526040832082845260205260408320600160ff1982541617905560008051602062003a2b833981519152339380a4600190565b50509056fe608080604052600436101561001357600080fd5b60003560e01c90816301ffc9a714611ab15750806306fdde0314611a0e578063081812fc146119d0578063095ea7b3146118e95780631222ed27146118795780631785f53c1461180e57806323b872dd146117f7578063248a9ca3146117c857806324d7806c146117785780632f2ff15d146117395780632f745c591461168557806331ae450b146115bd57806336568abe1461157657806342842e0e1461154e5780634f558e791461152657806354c103651461144557806356e496aa14610deb5780636352211e14610dbb5780637048027514610cc657806370a0823114610c9b57806375b238fc14610c7257806391d1485414610c2557806395d89b4114610b5a5780639847885114610521578063a217fddf14610505578063a22cb46514610460578063b88d4fde14610401578063bd45f0f5146103c1578063c87b56dd14610210578063d547741f146101cf5763e985e9c51461017457600080fd5b346101ca5760403660031901126101ca5761018d611b7e565b610195611b94565b9060018060a01b03809116600052600560205260406000209116600052602052602060ff604060002054166040519015158152f35b600080fd5b346101ca5760403660031901126101ca5761020e6004356101ee611b94565b90806000526006602052610209600160406000200154611d36565b611eee565b005b346101ca576020806003193601126101ca5761035760043580600052600a8352610352607361028f60406000206040519461024a86611baa565b61025382611fd8565b8652610283610276600261026960018601611fd8565b948b8a0195865201611fd8565b9160408801928352612606565b95519151905191612749565b92604051938491751ec89b985b59488e880891d7d0dbdb5c185b9e53919560521b888401526102c7815180928a603687019101611b36565b820161088b60f21b6036820152750899195cd8dc9a5c1d1a5bdb888e880895195cdd088b60521b60388201527f22696d616765223a22646174613a696d6167652f7376672b786d6c3b62617365604e820152620d8d0b60ea1b606e820152610338825180938a607185019101611b36565b0161227d60f01b6071820152036053810184520182611be0565b6124b2565b906103a9603d60405180947f646174613a6170706c69636174696f6e2f6a736f6e3b6261736536342c0000008583015261039981518092878686019101611b36565b810103601d810185520183611be0565b6103bd604051928284938452830190611b59565b0390f35b346101ca5760203660031901126101ca57600435600052600d6020526103bd6103ed6040600020611fd8565b604051918291602083526020830190611b59565b346101ca5760803660031901126101ca5761041a611b7e565b610422611b94565b606435916001600160401b0383116101ca57366023840112156101ca5761045661020e933690602481600401359101611c1c565b916044359161221d565b346101ca5760403660031901126101ca57610479611b7e565b602435908115158092036101ca576001600160a01b03169081156104ec57336000526005602052604060002082600052602052604060002060ff1981541660ff83161790556040519081527f17307eab39ab6107e8899845ad3d59bd9653f200f220920489ca2b5937696c3160203392a3005b604051630b61174360e31b815260048101839052602490fd5b346101ca5760003660031901126101ca57602060405160008152f35b346101ca5760803660031901126101ca5761053a611b7e565b60249081356001600160401b0381116101ca5761055b903690600401611c53565b6044356001600160401b0381116101ca5761057a903690600401611c53565b916064356001600160401b0381116101ca5761059a903690600401611c53565b916105a3611cfe565b60018060a01b0392838316600052600b602052604060002054610b16576008549484841615610afe578560005260026020528460406000205416868115159182610ac7575b878716600052600360205260406000206001815401905581600052600260205260406000208888166bffffffffffffffffffffffff60a01b825416179055878716907fddf252ad1be2c89b69c2b068fc378daa952ba7f163c4a11628f55a4df523b3ef600080a4610aaf576040519261066084611baa565b83526020830152604082015283600052600a60205260406000209080518051906001600160401b0382116109d357819061069a8554611f9e565b601f8111610a5f575b50602090601f83116001146109f3576000926109e8575b50508160011b916000199060031b1c19161782555b60208101518051906001600160401b0382116109d3576106f26001850154611f9e565b601f811161098c575b50602090601f83116001146109195760409392916000918361090e575b50508160011b916000199060031b1c19161760018401555b01518051906001600160401b0382116108f9576107506002840154611f9e565b601f81116108ae575b50602090601f8311600114610840576002929160009183610835575b50508160011b916000199060031b1c1916179101555b600854600181018091116108205760085582600052600c60205260406000208282166bffffffffffffffffffffffff60a01b82541617905516600052600b6020526040600020805490600160401b82101561080b57906107f091600182018155612468565b819291549060031b91821b91600019901b1916179055600080f35b83634e487b7160e01b60005260416004526000fd5b84634e487b7160e01b60005260116004526000fd5b015190508880610775565b90601f198316916002850160005260206000209260005b8181106108965750916001939185600296941061087d575b505050811b0191015561078b565b015160001960f88460031b161c1916905588808061086f565b92936020600181928786015181550195019301610857565b600284016000526020600020601f840160051c810191602085106108ef575b601f0160051c01905b8181106108e35750610759565b600081556001016108d6565b90915081906108cd565b86634e487b7160e01b60005260416004526000fd5b015190508980610718565b906001850160005260206000209160005b601f1985168110610974575091839160019360409695601f1981161061095b575b505050811b016001840155610730565b015160001960f88460031b161c1916905589808061094b565b9192602060018192868501518155019401920161092a565b600185016000526020600020601f840160051c8101602085106109cc575b601f830160051c820181106109c05750506106fb565b600081556001016109aa565b50806109aa565b87634e487b7160e01b60005260416004526000fd5b0151905088806106ba565b9250846000526020600020906000935b601f1984168510610a44576001945083601f19811610610a2b575b505050811b0182556106cf565b015160001960f88460031b161c19169055888080610a1e565b81810151835560209485019460019093019290910190610a03565b909150846000526020600020601f840160051c810160208510610aa8575b90849392915b601f830160051c82018110610a995750506106a3565b60008155859450600101610a83565b5080610a7d565b6040516339e3563760e11b8152600060048201528790fd5b600082815260046020526040902080546001600160a01b0319169055806000526003602052604060002060001981540190556105e8565b604051633250574960e11b8152600060048201528790fd5b60405162461bcd60e51b815260206004820152601e818801527f456d706c6f79656520616c72656164792068617320616e204944204e465400006044820152606490fd5b346101ca5760003660031901126101ca5760405160006001805490610b7e82611f9e565b80855291818116908115610bfe5750600114610ba5575b6103bd846103ed81860382611be0565b600081815292507fb10e2d527612073b26eecdfd717e6a320cf44b4afac2b0732d9fcbe2b7fa0cf65b828410610be65750505081016020016103ed82610b95565b80546020858701810191909152909301928101610bce565b60ff191660208087019190915292151560051b850190920192506103ed9150839050610b95565b346101ca5760403660031901126101ca57610c3e611b94565b600435600052600660205260406000209060018060a01b0316600052602052602060ff604060002054166040519015158152f35b346101ca5760003660031901126101ca57602060405160008051602061357d8339815191528152f35b346101ca5760203660031901126101ca576020610cbe610cb9611b7e565b611f65565b604051908152f35b346101ca5760203660031901126101ca57610cdf611b7e565b610ce7611ca6565b60008051602061357d83398151915260005260066020527f0c3bb05773fb95f6688e1e7d9c896674dccd66884026cf30a3d5e3a9bfecd81254610d2990611d36565b610d3281611d5c565b50600754600160401b811015610da55781610d56826001610d75940160075561241b565b90919082549060031b9160018060a01b03809116831b921b1916179055565b6001600160a01b03167f44d6d25963f097ad14f29f06854a01f575648a1ef82f30e562ccd3889717e339600080a2005b634e487b7160e01b600052604160045260246000fd5b346101ca5760203660031901126101ca576020610dd9600435612370565b6040516001600160a01b039091168152f35b346101ca5760803660031901126101ca576024356001600160401b0381116101ca57610e1b903690600401611c53565b6044356001600160401b0381116101ca57610e3a903690600401611c53565b6064356001600160401b0381116101ca57610e59903690600401611c53565b91610e62611cfe565b604051610e6e81611baa565b818152826020820152836040820152600435600052600a60205260406000209080518051906001600160401b038211610da5578190610ead8554611f9e565b601f81116113f5575b50602090601f831160011461138f57600092611384575b50508160011b916000199060031b1c19161782555b60208101518051906001600160401b038211610da557610f056001850154611f9e565b601f811161133d575b50602090601f83116001146112ca576040939291600091836112bf575b50508160011b916000199060031b1c19161760018401555b01518051906001600160401b038211610da557610f636002840154611f9e565b601f8111611274575b50602090601f83116001146111fc5782611084979593610fad9795936002936000926111f1575b50508160011b916000199060031b1c191617910155612749565b6103526075610fbd600435612606565b604051938491751ec89b985b59488e880891d7d0dbdb5c185b9e53919560521b6020840152610ff6815180926020603687019101611b36565b820161088b60f21b603682015275088b0899195cd8dc9a5c1d1a5bdb888e880895195cdd60521b60388201527f222c22696d616765223a22646174613a696d6167652f7376672b786d6c3b6261604e820152641cd94d8d0b60da1b606e82015261106a825180936020607385019101611b36565b0161227d60f01b6073820152036055810184520182611be0565b6110d7603d60405180937f646174613a6170706c69636174696f6e2f6a736f6e3b6261736536342c00000060208301526110c78151809260208686019101611b36565b810103601d810184520182611be0565b600435600052600d602052604060002081516001600160401b038111610da5576111018254611f9e565b601f81116111a9575b50602092601f8211600114611148579281929360009261113d575b5050600019600383901b1c191660019190911b179055005b015190508380611125565b601f198216938360005260206000209160005b8681106111915750836001959610611178575b505050811b019055005b015160001960f88460031b161c1916905583808061116e565b9192602060018192868501518155019401920161115b565b826000526020600020601f830160051c810191602084106111e7575b601f0160051c01905b8181106111db575061110a565b600081556001016111ce565b90915081906111c5565b015190508980610f93565b90601f198316916002850160005260206000209260005b81811061125c575093610fad979593600293600193836110849c9a9810611243575b505050811b01910155612749565b015160001960f88460031b161c19169055898080611235565b92936020600181928786015181550195019301611213565b600284016000526020600020601f840160051c810191602085106112b5575b601f0160051c01905b8181106112a95750610f6c565b6000815560010161129c565b9091508190611293565b015190508880610f2b565b906001850160005260206000209160005b601f1985168110611325575091839160019360409695601f1981161061130c575b505050811b016001840155610f43565b015160001960f88460031b161c191690558880806112fc565b919260206001819286850151815501940192016112db565b600185016000526020600020601f840160051c81016020851061137d575b601f830160051c82018110611371575050610f0e565b6000815560010161135b565b508061135b565b015190508780610ecd565b6000868152602081209350601f198516905b8181106113dd57509084600195949392106113c4575b505050811b018255610ee2565b015160001960f88460031b161c191690558780806113b7565b929360206001819287860151815501950193016113a1565b909150846000526020600020601f840160051c81016020851061143e575b90849392915b601f830160051c8201811061142f575050610eb6565b60008155859450600101611419565b5080611413565b346101ca5760203660031901126101ca5761145e611b7e565b60078054916001600160a01b039190821660005b84811061147b57005b83826114868361241b565b929054600393841b1c16146114bd575060001981146114a757600101611472565b634e487b7160e01b600052601160045260246000fd5b949293926000199250828101919082116114a757610d56846114e16114ee9461241b565b905490891b1c169161241b565b825480156115105701926115018461241b565b8154921b9290921b1916905555005b634e487b7160e01b600052603160045260246000fd5b346101ca5760203660031901126101ca5760206115446004356123ab565b6040519015158152f35b346101ca5761020e61155f36611c71565b906040519261156d84611bc5565b6000845261221d565b346101ca5760403660031901126101ca5761158f611b94565b336001600160a01b038216036115ab5761020e90600435611eee565b60405163334bd91960e11b8152600490fd5b346101ca5760003660031901126101ca57604051806007548083526020809301809160076000527fa66cc928b5edb82af9bd49922954155ab7b0942694bea4ce44661d9a8736c6889060005b8682821061166857868661161f82880383611be0565b604051928392818401908285525180915260408401929160005b82811061164857505050500390f35b83516001600160a01b031685528695509381019392810192600101611639565b83546001600160a01b031685529093019260019283019201611609565b346101ca5760403660031901126101ca5761169e611b7e565b602435906116ab81611f65565b8210156116e0576020916116d29160018060a01b0316600052600b83526040600020612468565b90546040519160031b1c8152f35b60405162461bcd60e51b815260206004820152602b60248201527f455243373231456e756d657261626c653a206f776e657220696e646578206f7560448201526a74206f6620626f756e647360a81b6064820152608490fd5b346101ca5760403660031901126101ca5761020e600435611758611b94565b90806000526006602052611773600160406000200154611d36565b611deb565b346101ca5760203660031901126101ca57611791611b7e565b6001600160a01b0316600090815260008051602061355d833981519152602090815260409182902054915160ff9092161515825290f35b346101ca5760203660031901126101ca5760043560005260066020526020600160406000200154604051908152f35b346101ca5761020e61180836611c71565b9161207e565b346101ca5760203660031901126101ca5761020e61182a611b7e565b611832611ca6565b60008051602061357d83398151915260005260066020527f0c3bb05773fb95f6688e1e7d9c896674dccd66884026cf30a3d5e3a9bfecd8125461187490611d36565b611e66565b346101ca5760603660031901126101ca576001600160401b036004358181116101ca576118aa903690600401611c53565b906024358181116101ca576118c3903690600401611c53565b916044359182116101ca576103bd926118e36103ed933690600401611c53565b91612749565b346101ca5760403660031901126101ca57611902611b7e565b60243561190e81612370565b331515806119bd575b80611990575b611978576001600160a01b039283169282918491167f8c5be1e5ebec7d5bd14f71427d1e84f3dd0314c0f7b2291e5b200ac8c7c3b925600080a4600090815260046020526040902080546001600160a01b0319169091179055005b60405163a9fbf51f60e01b8152336004820152602490fd5b5060018060a01b038116600052600560205260406000203360005260205260ff604060002054161561191d565b506001600160a01b038116331415611917565b346101ca5760203660031901126101ca576004356119ed81612370565b506000526004602052602060018060a01b0360406000205416604051908152f35b346101ca5760003660031901126101ca5760405160008054611a2f81611f9e565b80845290600190818116908115610bfe5750600114611a58576103bd846103ed81860382611be0565b600080805292507f290decd9548b62a8d60345a988386fc84ba6bc95484008f6362f93160ef3e5635b828410611a995750505081016020016103ed82610b95565b80546020858701810191909152909301928101611a81565b346101ca5760203660031901126101ca576004359063ffffffff60e01b82168092036101ca57602091637965db0b60e01b8114908115611af3575b5015158152f35b6380ac58cd60e01b811491508115611b25575b8115611b14575b5083611aec565b6301ffc9a760e01b14905083611b0d565b635b5e139f60e01b81149150611b06565b60005b838110611b495750506000910152565b8181015183820152602001611b39565b90602091611b7281518092818552858086019101611b36565b601f01601f1916010190565b600435906001600160a01b03821682036101ca57565b602435906001600160a01b03821682036101ca57565b606081019081106001600160401b03821117610da557604052565b602081019081106001600160401b03821117610da557604052565b90601f801991011681019081106001600160401b03821117610da557604052565b6001600160401b038111610da557601f01601f191660200190565b929192611c2882611c01565b91611c366040519384611be0565b8294818452818301116101ca578281602093846000960137010152565b9080601f830112156101ca57816020611c6e93359101611c1c565b90565b60609060031901126101ca576001600160a01b039060043582811681036101ca579160243590811681036101ca579060443590565b3360009081527f54cdd369e4e8a8515e52ca72ec816c2101831ad1f18bf44102ed171459c9b4f8602052604081205460ff1615611ce05750565b6044906040519063e2517d3f60e01b82523360048301526024820152fd5b33600090815260008051602061355d833981519152602052604090205460008051602061357d8339815191529060ff1615611ce05750565b80600052600660205260406000203360005260205260ff6040600020541615611ce05750565b6001600160a01b0316600081815260008051602061355d833981519152602052604081205490919060008051602061357d8339815191529060ff16611de65780835260066020526040832082845260205260408320600160ff198254161790557f2f8788117e7eff1d82e926ec794901d17c78024a50270940304540a733656f0d339380a4600190565b505090565b906000918083526006602052604083209160018060a01b03169182845260205260ff60408420541615600014611de65780835260066020526040832082845260205260408320600160ff198254161790557f2f8788117e7eff1d82e926ec794901d17c78024a50270940304540a733656f0d339380a4600190565b6001600160a01b0316600081815260008051602061355d833981519152602052604081205490919060008051602061357d8339815191529060ff1615611de6578083526006602052604083208284526020526040832060ff1981541690557ff6391f5c32d9c69d2a47ea670b442974b53935d1edc7fd64eb21e047a839171b339380a4600190565b906000918083526006602052604083209160018060a01b03169182845260205260ff604084205416600014611de6578083526006602052604083208284526020526040832060ff1981541690557ff6391f5c32d9c69d2a47ea670b442974b53935d1edc7fd64eb21e047a839171b339380a4600190565b6001600160a01b03168015611f8557600052600360205260406000205490565b6040516322718ad960e21b815260006004820152602490fd5b90600182811c92168015611fce575b6020831014611fb857565b634e487b7160e01b600052602260045260246000fd5b91607f1691611fad565b9060405191826000825492611fec84611f9e565b90818452600194858116908160001461205b5750600114612018575b505061201692500383611be0565b565b9093915060005260209081600020936000915b81831061204357505061201693508201013880612008565b8554888401850152948501948794509183019161202b565b91505061201694506020925060ff191682840152151560051b8201013880612008565b6001600160a01b0391821692909183156122045760009282845282602095600287526040968488882054169687913315158061216e575b509060027fddf252ad1be2c89b69c2b068fc378daa952ba7f163c4a11628f55a4df523b3ef928461213b575b858352600381528b8320805460010190558683525289812080546001600160a01b0319168517905580a4169283830361211a5750505050565b6064945051926364283d7b60e01b8452600484015260248301526044820152fd5b600087815260046020526040902080546001600160a01b0319169055848352600381528b832080546000190190556120e1565b919394509150806121c3575b1561218a578592918791386120b5565b8786886121a7576024915190637e27328960e01b82526004820152fd5b604491519063177e802f60e01b82523360048301526024820152fd5b5033871480156121e8575b8061217a575085825260048152338589842054161461217a565b5086825260058152878220338352815260ff88832054166121ce565b604051633250574960e11b815260006004820152602490fd5b61222883838361207e565b813b612235575b50505050565b604051630a85bd0160e11b8082523360048301526001600160a01b03928316602483015260448201949094526080606482015260209592909116939092908390612283906084830190611b59565b039285816000958187895af184918161232c575b506122f7575050503d6000146122ef573d6122b181611c01565b906122bf6040519283611be0565b81528091843d92013e5b805192836122ea57604051633250574960e11b815260048101849052602490fd5b019050fd5b5060606122c9565b919450915063ffffffff60e01b160361231457503880808061222f565b60249060405190633250574960e11b82526004820152fd5b9091508681813d8311612369575b6123448183611be0565b8101031261236557516001600160e01b031981168103612365579038612297565b8480fd5b503d61233a565b6000818152600260205260409020546001600160a01b0316908115612393575090565b60249060405190637e27328960e01b82526004820152fd5b604051906331a9108f60e11b82526004820152602081602481305afa90816123dd575b506123d857600090565b600190565b6020813d8211612413575b816123f560209383611be0565b810103126101ca57516001600160a01b038116036101ca57386123ce565b3d91506123e8565b6007548110156124525760076000527fa66cc928b5edb82af9bd49922954155ab7b0942694bea4ce44661d9a8736c6880190600090565b634e487b7160e01b600052603260045260246000fd5b80548210156124525760005260206000200190600090565b9061248a82611c01565b6124976040519182611be0565b82815280926124a8601f1991611c01565b0190602036910137565b8051156125f257604051906124c682611baa565b604082527f4142434445464748494a4b4c4d4e4f505152535455565758595a61626364656660208301527f6768696a6b6c6d6e6f707172737475767778797a303132333435363738392b2f604083015280516002918282018092116114a7576003918290046001600160fe1b03811681036114a757612548908495941b612480565b936020850193829183518401906020820192835194600085525b8381106125a157505050505251068060011461258e57600214612583575090565b603d90600019015390565b50603d9081600019820153600119015390565b87600491999293949901918251600190603f9082828260121c16880101518453828282600c1c16880101518385015382828260061c1688010151888501531685010151898201530197929190612562565b506040516125ff81611bc5565b6000815290565b806000917a184f03e93ff9f4daa797ed6e38ed64bf6a1f0100000000000000008082101561273b575b506d04ee2d6d415b85acef81000000008083101561272c575b50662386f26fc100008083101561271d575b506305f5e1008083101561270e575b50612710808310156126ff575b5060648210156126ef575b600a809210156126e5575b60019081602161269d828701612480565b95860101905b6126af575b5050505090565b600019019083906f181899199a1a9b1b9c1cb0b131b232b360811b8282061a8353049182156126e0579190826126a3565b6126a8565b916001019161268c565b9190606460029104910191612681565b60049193920491019138612676565b60089193920491019138612669565b6010919392049101913861265a565b60209193920491019138612648565b60409350810491503861262f565b90610c7c61035291611c6e946040519485927f3c7376672077696474683d2237303022206865696768743d223730302220786d60208501527f6c6e733d22687474703a2f2f7777772e77332e6f72672f323030302f7376672260408501527f207374796c653d226261636b67726f756e642d636f6c6f723a20233137323835606085015263199d911f60e11b60808501527f3c7469746c653e456d706c6f7965654e46545f496d6167653c2f7469746c653e60848501527f3c74657874207472616e73666f726d3d226d617472697828312e31313137342060a48501527f30203020312e3337393635202d32312e31383431202d32382e3334363429222060c48501527f7374726f6b653d2223394143454536222066696c6c3d2223666666666666222060e48501527f7374726f6b652d77696474683d22302220783d223234322e35393739332220796101048501527f3d2237342e3832303631222069643d227376675f332220666f6e742d73697a656101248501527f3d2232342220666f6e742d66616d696c793d22274172696d6f272220746578746101448501527f2d616e63686f723d2273746172742220786d6c3a73706163653d2270726573656101648501527f7276652220666f6e742d7765696768743d22626f6c64223e4720436f6d70616e6101848501526b3c9027232a1e17ba32bc3a1f60a11b6101a48501527f3c72656374207374726f6b653d2223394143454536222069643d227376675f34806101b08601527f22206865696768743d223139222077696474683d223131352220793d2233382290816101d08701527f20783d2238312e303030323622207374726f6b652d77696474683d2230222066806101f08801526e34b6361e9111b3333333333311179f60891b92836102108901527f3c72656374207374726f6b653d2223394143454536222069643d227376675f36928361021f8a01527f22206865696768743d223139222077696474683d223131352220793d22363722928361023f8b015261025f8a01528461027f8a015261028e8901526102ae8801527f20783d223532362e3137373622207374726f6b652d77696474683d223022206691826102ce890152836102ee8901526102fd88015261031d87015261033d86015261035d8501527f3c70617468207374726f6b653d2223394143454536222069643d227376675f3161036c8501527f362220643d226d3237312e39383931342c3138312e35343136336c33342e393261038c8501527f3835382c2d36332e39393939396c39332e31343238362c306c33342e393238356103ac8501527f362c36332e39393939396c2d33342e39323835362c36332e39393939396c2d396103cc8501527f332e31343238362c306c2d33342e39323835382c2d36332e39393939397a22206103ec8501527f7374726f6b652d77696474683d2230222066696c6c3d2223306465383737222f61040c850152601f60f91b61042c8501527f3c74657874207472616e73666f726d3d226d617472697828312e39363830352061042d8501527f30203020312e3635363133202d3233322e393431202d3133342e33323629222061044d8501527f7374726f6b653d22233941434545362220786d6c3a73706163653d227072657361046d8501527f657276652220746578742d616e63686f723d2273746172742220666f6e742d6661048d8501527f616d696c793d22274172696d6f272220666f6e742d73697a653d2232342220696104ad8501527f643d227376675f31392220793d223139372e35373931322220783d223238372e6104cd8501527f3931363122207374726f6b652d77696474683d2230222066696c6c3d222330306104ed8501526d18181818111f239e17ba32bc3a1f60911b61050d8501527f3c7465787420786d6c3a73706163653d2270726573657276652220746578742d8061051b8601527f616e63686f723d2273746172742220666f6e742d66616d696c793d2227417269908161053b8701527f6d6f272220666f6e742d73697a653d223234222069643d227376675f3232222061055b8701527f793d223238382e30353837342220783d223239312e383234313722207374726f61057b8701527f6b652d77696474683d223022207374726f6b653d22233941434545362220666961059b8701527f6c6c3d2223666666666666223e596f7572204e616d653c2f746578743e0000006105bb8701527f3c72656374207374726f6b653d2223303030303030222069643d227376675f326105d88701527f3322206865696768743d223332222077696474683d223234382220793d2233306105f88701527f372e37363436352220783d223233322e303030363522207374726f6b652d77696106188701527f6474683d2232222066696c6c3d2223666666666666222f3e00000000000000006106388701526106508601526106708501527f6d6f272220666f6e742d73697a653d223234222069643d227376675f323422206106908501527f793d223430312e35383831372220783d223135332e333533343822207374726f6106b08501527f6b652d77696474683d223022207374726f6b653d22233030303030302220666991826106d08601526c36361e9111b33333333333111f60991b6106f0860152635465616d60e01b6106fd860152661e17ba32bc3a1f60c91b92836107018701527f3c726563742066696c6c3d222366666666666622207374726f6b652d776964746107088701527f683d22322220783d223235362e37303636392220793d223337332e36343734336107288701527f222077696474683d2232343822206865696768743d223332222069643d2273766107488701527f675f3522207374726f6b653d2223303030303030222f3e0000000000000000006107688701527f3c74657874207374796c653d22637572736f723a206d6f76653b22207374726f61077f8701527f6b653d22233030303030302220786d6c3a73706163653d22707265736572766561079f8701527f2220746578742d616e63686f723d2273746172742220666f6e742d66616d696c6107bf8701527f793d22274172696d6f272220666f6e742d73697a653d223234222069643d22736107df8701527f76675f33302220793d223435352e37303539312220783d223132362e363437346107ff8701527f3322207374726f6b652d77696474683d2230222066696c6c3d2223666666666661081f8701526233111f60e91b61083f870152664d65737361676560c81b610842870152836108498701527f3c72656374207374726f6b653d2223303030303030222066696c6c3d222366666108508701527f6666666622207374726f6b652d77696474683d22322220783d223235362e37306108708701527f3636392220793d223433312e3239343837222077696474683d223234382220686108908701527f65696768743d2233342e3335323935222069643d227376675f37222f3e0000006108b08701527f3c74657874207374796c653d22637572736f723a206d6f76653b2220786d6c3a6108cd8701527f73706163653d2270726573657276652220746578742d616e63686f723d2273746108ed8701527f6172742220666f6e742d66616d696c793d22274172696d6f272220666f6e742d61090d8701527f73697a653d223234222069643d227376675f33322220793d223538322e30353961092d8701527f2220783d223237342e333533343722207374726f6b652d77696474683d22302261094d8701527f207374726f6b653d2223303030303030222066696c6c3d22236666666666662261096d8701526d1f3c3c3c3c3c3c1e17ba32bc3a1f60911b61098d8701527f203c7465787420786d6c3a73706163653d22707265736572766522207465787461099b8701527f2d616e63686f723d2273746172742220666f6e742d66616d696c793d222741726109bb8701527f696d6f272220666f6e742d73697a653d223234222069643d227376675f3333226109db8701527f20793d223632342e363437332220783d223235372e313138313322207374726f6109fb870152610a1b8601527f6c6c3d2223666666666666223e7878782d787878782d7878783c2f746578743e610a3b8601527f3c746578742066696c6c3d222330303030303022207374726f6b653d2223666680610a5b8701527f6666666622207374726f6b652d77696474683d22302220783d223332342e3736610a7b8701527f3535352220793d223333332e3934313339222069643d227376675f3134222066610a9b87015283867f6f6e742d73697a653d2232342220666f6e742d66616d696c793d22274172696d9384610abb8301527f6f272220746578742d616e63686f723d2273746172742220786d6c3a7370616380610adb840152836c329e91383932b9b2b93b32911f60991b9283610afb8601526133ff815180926020610b088099019101611b36565b8b019384015284610b0f8401527f6666666622207374726f6b652d77696474683d22302220783d223237342e31379586610b2f8501527f3639392220793d223339382e3634373639222069643d227376675f3135222066610b4f850152610b6f840152610b8f830152610baf82015284519061348582610bbc9760208985019101611b36565b0193840152610bc3830152610be38201527f3639392220793d223435372e34373136222069643d227376675f31372220666f610c038201527f6e742d73697a653d2232342220666f6e742d66616d696c793d22274172696d6f610c238201527f272220746578742d616e63686f723d2273746172742220786d6c3a7370616365610c438201526b1e91383932b9b2b93b32911f60a11b610c6382015282519061353882610c6f9560208785019101611b36565b0191820152651e17b9bb339f60d11b610c7682015203610c5c810184520182611be056fe0c3bb05773fb95f6688e1e7d9c896674dccd66884026cf30a3d5e3a9bfecd811a49807205ce4d355092ef5a8a18f56e8913cf4a201fbe287825b095693c21775a26469706673582212201a19d7dccac03909ed8a93392a3a10d86027e045dbceea4c0285b5a8e30d0c3764736f6c634300081300332f8788117e7eff1d82e926ec794901d17c78024a50270940304540a733656f0d",
  "linkReferences": {},
  "deployedLinkReferences": {}
}