{
  "_format": "hh-sol-artifact-1",
  "contractName": "EmployeeId",
  "sourceName": "contracts/EmployeeId.sol",
  "abi": [
    {
      "inputs": [],
      "stateMutability": "nonpayable",
      "type": "constructor"
    },
    {
      "inputs": [
        {
          "internalType": "address",
          "name": "sender",
          "type": "address"
        },
        {
          "internalType": "uint256",
          "name": "tokenId",
          "type": "uint256"
        },
        {
          "internalType": "address",
          "name": "owner",
          "type": "address"
        }
      ],
      "name": "ERC721IncorrectOwner",
      "type": "error"
    },
    {
      "inputs": [
        {
          "internalType": "address",
          "name": "operator",
          "type": "address"
        },
        {
          "internalType": "uint256",
          "name": "tokenId",
          "type": "uint256"
        }
      ],
      "name": "ERC721InsufficientApproval",
      "type": "error"
    },
    {
      "inputs": [
        {
          "internalType": "address",
          "name": "approver",
          "type": "address"
        }
      ],
      "name": "ERC721InvalidApprover",
      "type": "error"
    },
    {
      "inputs": [
        {
          "internalType": "address",
          "name": "operator",
          "type": "address"
        }
      ],
      "name": "ERC721InvalidOperator",
      "type": "error"
    },
    {
      "inputs": [
        {
          "internalType": "address",
          "name": "owner",
          "type": "address"
        }
      ],
      "name": "ERC721InvalidOwner",
      "type": "error"
    },
    {
      "inputs": [
        {
          "internalType": "address",
          "name": "receiver",
          "type": "address"
        }
      ],
      "name": "ERC721InvalidReceiver",
      "type": "error"
    },
    {
      "inputs": [
        {
          "internalType": "address",
          "name": "sender",
          "type": "address"
        }
      ],
      "name": "ERC721InvalidSender",
      "type": "error"
    },
    {
      "inputs": [
        {
          "internalType": "uint256",
          "name": "tokenId",
          "type": "uint256"
        }
      ],
      "name": "ERC721NonexistentToken",
      "type": "error"
    },
    {
      "anonymous": false,
      "inputs": [
        {
          "indexed": true,
          "internalType": "address",
          "name": "owner",
          "type": "address"
        },
        {
          "indexed": true,
          "internalType": "address",
          "name": "approved",
          "type": "address"
        },
        {
          "indexed": true,
          "internalType": "uint256",
          "name": "tokenId",
          "type": "uint256"
        }
      ],
      "name": "Approval",
      "type": "event"
    },
    {
      "anonymous": false,
      "inputs": [
        {
          "indexed": true,
          "internalType": "address",
          "name": "owner",
          "type": "address"
        },
        {
          "indexed": true,
          "internalType": "address",
          "name": "operator",
          "type": "address"
        },
        {
          "indexed": false,
          "internalType": "bool",
          "name": "approved",
          "type": "bool"
        }
      ],
      "name": "ApprovalForAll",
      "type": "event"
    },
    {
      "anonymous": false,
      "inputs": [
        {
          "indexed": true,
          "internalType": "address",
          "name": "from",
          "type": "address"
        },
        {
          "indexed": true,
          "internalType": "address",
          "name": "to",
          "type": "address"
        },
        {
          "indexed": true,
          "internalType": "uint256",
          "name": "tokenId",
          "type": "uint256"
        }
      ],
      "name": "Transfer",
      "type": "event"
    },
    {
      "inputs": [
        {
          "internalType": "address",
          "name": "to",
          "type": "address"
        },
        {
          "internalType": "uint256",
          "name": "tokenId",
          "type": "uint256"
        }
      ],
      "name": "approve",
      "outputs": [],
      "stateMutability": "nonpayable",
      "type": "function"
    },
    {
      "inputs": [
        {
          "internalType": "address",
          "name": "owner",
          "type": "address"
        }
      ],
      "name": "balanceOf",
      "outputs": [
        {
          "internalType": "uint256",
          "name": "",
          "type": "uint256"
        }
      ],
      "stateMutability": "view",
      "type": "function"
    },
    {
      "inputs": [
        {
          "internalType": "string",
          "name": "employeeName",
          "type": "string"
        },
        {
          "internalType": "string",
          "name": "departmentName",
          "type": "string"
        },
        {
          "internalType": "string",
          "name": "message",
          "type": "string"
        }
      ],
      "name": "generateSVG",
      "outputs": [
        {
          "internalType": "string",
          "name": "svg",
          "type": "string"
        }
      ],
      "stateMutability": "pure",
      "type": "function"
    },
    {
      "inputs": [
        {
          "internalType": "uint256",
          "name": "tokenId",
          "type": "uint256"
        }
      ],
      "name": "getApproved",
      "outputs": [
        {
          "internalType": "address",
          "name": "",
          "type": "address"
        }
      ],
      "stateMutability": "view",
      "type": "function"
    },
    {
      "inputs": [
        {
          "internalType": "uint256",
          "name": "tokenId",
          "type": "uint256"
        }
      ],
      "name": "getCustomTokenURI",
      "outputs": [
        {
          "internalType": "string",
          "name": "",
          "type": "string"
        }
      ],
      "stateMutability": "view",
      "type": "function"
    },
    {
      "inputs": [
        {
          "internalType": "address",
          "name": "owner",
          "type": "address"
        },
        {
          "internalType": "address",
          "name": "operator",
          "type": "address"
        }
      ],
      "name": "isApprovedForAll",
      "outputs": [
        {
          "internalType": "bool",
          "name": "",
          "type": "bool"
        }
      ],
      "stateMutability": "view",
      "type": "function"
    },
    {
      "inputs": [
        {
          "internalType": "address",
          "name": "to",
          "type": "address"
        },
        {
          "internalType": "string",
          "name": "employeeName",
          "type": "string"
        },
        {
          "internalType": "string",
          "name": "departmentName",
          "type": "string"
        },
        {
          "internalType": "string",
          "name": "message",
          "type": "string"
        }
      ],
      "name": "mintEmployeeIdNFT",
      "outputs": [],
      "stateMutability": "nonpayable",
      "type": "function"
    },
    {
      "inputs": [],
      "name": "name",
      "outputs": [
        {
          "internalType": "string",
          "name": "",
          "type": "string"
        }
      ],
      "stateMutability": "view",
      "type": "function"
    },
    {
      "inputs": [
        {
          "internalType": "uint256",
          "name": "tokenId",
          "type": "uint256"
        }
      ],
      "name": "ownerOf",
      "outputs": [
        {
          "internalType": "address",
          "name": "",
          "type": "address"
        }
      ],
      "stateMutability": "view",
      "type": "function"
    },
    {
      "inputs": [
        {
          "internalType": "address",
          "name": "from",
          "type": "address"
        },
        {
          "internalType": "address",
          "name": "to",
          "type": "address"
        },
        {
          "internalType": "uint256",
          "name": "tokenId",
          "type": "uint256"
        }
      ],
      "name": "safeTransferFrom",
      "outputs": [],
      "stateMutability": "nonpayable",
      "type": "function"
    },
    {
      "inputs": [
        {
          "internalType": "address",
          "name": "from",
          "type": "address"
        },
        {
          "internalType": "address",
          "name": "to",
          "type": "address"
        },
        {
          "internalType": "uint256",
          "name": "tokenId",
          "type": "uint256"
        },
        {
          "internalType": "bytes",
          "name": "data",
          "type": "bytes"
        }
      ],
      "name": "safeTransferFrom",
      "outputs": [],
      "stateMutability": "nonpayable",
      "type": "function"
    },
    {
      "inputs": [
        {
          "internalType": "address",
          "name": "operator",
          "type": "address"
        },
        {
          "internalType": "bool",
          "name": "approved",
          "type": "bool"
        }
      ],
      "name": "setApprovalForAll",
      "outputs": [],
      "stateMutability": "nonpayable",
      "type": "function"
    },
    {
      "inputs": [
        {
          "internalType": "bytes4",
          "name": "interfaceId",
          "type": "bytes4"
        }
      ],
      "name": "supportsInterface",
      "outputs": [
        {
          "internalType": "bool",
          "name": "",
          "type": "bool"
        }
      ],
      "stateMutability": "view",
      "type": "function"
    },
    {
      "inputs": [],
      "name": "symbol",
      "outputs": [
        {
          "internalType": "string",
          "name": "",
          "type": "string"
        }
      ],
      "stateMutability": "view",
      "type": "function"
    },
    {
      "inputs": [
        {
          "internalType": "uint256",
          "name": "tokenId",
          "type": "uint256"
        }
      ],
      "name": "tokenURI",
      "outputs": [
        {
          "internalType": "string",
          "name": "",
          "type": "string"
        }
      ],
      "stateMutability": "view",
      "type": "function"
    },
    {
      "inputs": [
        {
          "internalType": "address",
          "name": "from",
          "type": "address"
        },
        {
          "internalType": "address",
          "name": "to",
          "type": "address"
        },
        {
          "internalType": "uint256",
          "name": "tokenId",
          "type": "uint256"
        }
      ],
      "name": "transferFrom",
      "outputs": [],
      "stateMutability": "nonpayable",
      "type": "function"
    },
    {
      "inputs": [
        {
          "internalType": "uint256",
          "name": "tokenId",
          "type": "uint256"
        },
        {
          "internalType": "string",
          "name": "newEmployeeName",
          "type": "string"
        },
        {
          "internalType": "string",
          "name": "newDepartmentName",
          "type": "string"
        },
        {
          "internalType": "string",
          "name": "newMessage",
          "type": "string"
        }
      ],
      "name": "updateEmployeeInfo",
      "outputs": [],
      "stateMutability": "nonpayable",
      "type": "function"
    }
  ],
  "bytecode": "0x608060405260006006553480156200001657600080fd5b506040518060400160405280600b81526020017f456d706c6f7965654e46540000000000000000000000000000000000000000008152506040518060400160405280600581526020017f45504e4654000000000000000000000000000000000000000000000000000000815250816000908162000094919062000329565b508060019081620000a6919062000329565b50505062000410565b600081519050919050565b7f4e487b7100000000000000000000000000000000000000000000000000000000600052604160045260246000fd5b7f4e487b7100000000000000000000000000000000000000000000000000000000600052602260045260246000fd5b600060028204905060018216806200013157607f821691505b602082108103620001475762000146620000e9565b5b50919050565b60008190508160005260206000209050919050565b60006020601f8301049050919050565b600082821b905092915050565b600060088302620001b17fffffffffffffffffffffffffffffffffffffffffffffffffffffffffffffffff8262000172565b620001bd868362000172565b95508019841693508086168417925050509392505050565b6000819050919050565b6000819050919050565b60006200020a62000204620001fe84620001d5565b620001df565b620001d5565b9050919050565b6000819050919050565b6200022683620001e9565b6200023e620002358262000211565b8484546200017f565b825550505050565b600090565b6200025562000246565b620002628184846200021b565b505050565b5b818110156200028a576200027e6000826200024b565b60018101905062000268565b5050565b601f821115620002d957620002a3816200014d565b620002ae8462000162565b81016020851015620002be578190505b620002d6620002cd8562000162565b83018262000267565b50505b505050565b600082821c905092915050565b6000620002fe60001984600802620002de565b1980831691505092915050565b6000620003198383620002eb565b9150826002028217905092915050565b6200033482620000af565b67ffffffffffffffff81111562000350576200034f620000ba565b5b6200035c825462000118565b620003698282856200028e565b600060209050601f831160018114620003a157600084156200038c578287015190505b6200039885826200030b565b86555062000408565b601f198416620003b1866200014d565b60005b82811015620003db57848901518255600182019150602085019450602081019050620003b4565b86831015620003fb5784890151620003f7601f891682620002eb565b8355505b6001600288020188555050505b505050505050565b61444480620004206000396000f3fe608060405234801561001057600080fd5b506004361061010b5760003560e01c80636352211e116100a2578063a22cb46511610071578063a22cb465146102c8578063b88d4fde146102e4578063bd45f0f514610300578063c87b56dd14610330578063e985e9c5146103605761010b565b80636352211e1461022e57806370a082311461025e57806395d89b411461028e57806398478851146102ac5761010b565b80631222ed27116100de5780631222ed27146101aa57806323b872dd146101da57806342842e0e146101f657806356e496aa146102125761010b565b806301ffc9a71461011057806306fdde0314610140578063081812fc1461015e578063095ea7b31461018e575b600080fd5b61012a60048036038101906101259190611d29565b610390565b6040516101379190611d71565b60405180910390f35b610148610472565b6040516101559190611e1c565b60405180910390f35b61017860048036038101906101739190611e74565b610504565b6040516101859190611ee2565b60405180910390f35b6101a860048036038101906101a39190611f29565b610520565b005b6101c460048036038101906101bf919061209e565b610536565b6040516101d19190611e1c565b60405180910390f35b6101f460048036038101906101ef9190612145565b61056d565b005b610210600480360381019061020b9190612145565b61066f565b005b61022c60048036038101906102279190612198565b61068f565b005b61024860048036038101906102439190611e74565b610811565b6040516102559190611ee2565b60405180910390f35b61027860048036038101906102739190612253565b610823565b604051610285919061228f565b60405180910390f35b6102966108dd565b6040516102a39190611e1c565b60405180910390f35b6102c660048036038101906102c191906122aa565b61096f565b005b6102e260048036038101906102dd9190612391565b610a66565b005b6102fe60048036038101906102f99190612472565b610a7c565b005b61031a60048036038101906103159190611e74565b610a99565b6040516103279190611e1c565b60405180910390f35b61034a60048036038101906103459190611e74565b610b3e565b6040516103579190611e1c565b60405180910390f35b61037a600480360381019061037591906124f5565b610d8d565b6040516103879190611d71565b60405180910390f35b60007f80ac58cd000000000000000000000000000000000000000000000000000000007bffffffffffffffffffffffffffffffffffffffffffffffffffffffff1916827bffffffffffffffffffffffffffffffffffffffffffffffffffffffff1916148061045b57507f5b5e139f000000000000000000000000000000000000000000000000000000007bffffffffffffffffffffffffffffffffffffffffffffffffffffffff1916827bffffffffffffffffffffffffffffffffffffffffffffffffffffffff1916145b8061046b575061046a82610e21565b5b9050919050565b60606000805461048190612564565b80601f01602080910402602001604051908101604052809291908181526020018280546104ad90612564565b80156104fa5780601f106104cf576101008083540402835291602001916104fa565b820191906000526020600020905b8154815290600101906020018083116104dd57829003601f168201915b5050505050905090565b600061050f82610e8b565b5061051982610f13565b9050919050565b610532828261052d610f50565b610f58565b5050565b6060610564848484604051602001610550939291906139be565b604051602081830303815290604052610f6a565b90509392505050565b600073ffffffffffffffffffffffffffffffffffffffff168273ffffffffffffffffffffffffffffffffffffffff16036105df5760006040517f64a0ae920000000000000000000000000000000000000000000000000000000081526004016105d69190611ee2565b60405180910390fd5b60006105f383836105ee610f50565b6110dc565b90508373ffffffffffffffffffffffffffffffffffffffff168173ffffffffffffffffffffffffffffffffffffffff1614610669578382826040517f64283d7b00000000000000000000000000000000000000000000000000000000815260040161066093929190613b18565b60405180910390fd5b50505050565b61068a83838360405180602001604052806000815250610a7c565b505050565b3373ffffffffffffffffffffffffffffffffffffffff166106af85610811565b73ffffffffffffffffffffffffffffffffffffffff1614610705576040517f08c379a00000000000000000000000000000000000000000000000000000000081526004016106fc90613b9b565b60405180910390fd5b6040518060600160405280848152602001838152602001828152506007600086815260200190815260200160002060008201518160000190816107489190613d67565b50602082015181600101908161075e9190613d67565b5060408201518160020190816107749190613d67565b509050506000610785848484610536565b90506000610792866112f6565b826040516020016107a4929190613fdb565b604051602081830303815290604052905060006107c082610f6a565b90506000816040516020016107d59190614082565b604051602081830303815290604052905080600960008a815260200190815260200160002090816108069190613d67565b505050505050505050565b600061081c82610e8b565b9050919050565b60008073ffffffffffffffffffffffffffffffffffffffff168273ffffffffffffffffffffffffffffffffffffffff16036108965760006040517f89c62b6400000000000000000000000000000000000000000000000000000000815260040161088d9190611ee2565b60405180910390fd5b600360008373ffffffffffffffffffffffffffffffffffffffff1673ffffffffffffffffffffffffffffffffffffffff168152602001908152602001600020549050919050565b6060600180546108ec90612564565b80601f016020809104026020016040519081016040528092919081815260200182805461091890612564565b80156109655780601f1061093a57610100808354040283529160200191610965565b820191906000526020600020905b81548152906001019060200180831161094857829003601f168201915b5050505050905090565b6000600654905061098085826113c4565b6040518060600160405280858152602001848152602001838152506007600083815260200190815260200160002060008201518160000190816109c39190613d67565b5060208201518160010190816109d99190613d67565b5060408201518160020190816109ef9190613d67565b50905050600160066000828254610a0691906140d3565b92505081905550846008600083815260200190815260200160002060006101000a81548173ffffffffffffffffffffffffffffffffffffffff021916908373ffffffffffffffffffffffffffffffffffffffff1602179055505050505050565b610a78610a71610f50565b83836114bd565b5050565b610a8784848461056d565b610a938484848461162c565b50505050565b6060600960008381526020019081526020016000208054610ab990612564565b80601f0160208091040260200160405190810160405280929190818152602001828054610ae590612564565b8015610b325780601f10610b0757610100808354040283529160200191610b32565b820191906000526020600020905b815481529060010190602001808311610b1557829003601f168201915b50505050509050919050565b6060600060076000848152602001908152602001600020604051806060016040529081600082018054610b7090612564565b80601f0160208091040260200160405190810160405280929190818152602001828054610b9c90612564565b8015610be95780601f10610bbe57610100808354040283529160200191610be9565b820191906000526020600020905b815481529060010190602001808311610bcc57829003601f168201915b50505050508152602001600182018054610c0290612564565b80601f0160208091040260200160405190810160405280929190818152602001828054610c2e90612564565b8015610c7b5780601f10610c5057610100808354040283529160200191610c7b565b820191906000526020600020905b815481529060010190602001808311610c5e57829003601f168201915b50505050508152602001600282018054610c9490612564565b80601f0160208091040260200160405190810160405280929190818152602001828054610cc090612564565b8015610d0d5780601f10610ce257610100808354040283529160200191610d0d565b820191906000526020600020905b815481529060010190602001808311610cf057829003601f168201915b50505050508152505090506000610d62610d26856112f6565b610d3d846000015185602001518660400151610536565b604051602001610d4e9291906141c5565b604051602081830303815290604052610f6a565b905080604051602001610d759190614082565b60405160208183030381529060405292505050919050565b6000600560008473ffffffffffffffffffffffffffffffffffffffff1673ffffffffffffffffffffffffffffffffffffffff16815260200190815260200160002060008373ffffffffffffffffffffffffffffffffffffffff1673ffffffffffffffffffffffffffffffffffffffff16815260200190815260200160002060009054906101000a900460ff16905092915050565b60007f01ffc9a7000000000000000000000000000000000000000000000000000000007bffffffffffffffffffffffffffffffffffffffffffffffffffffffff1916827bffffffffffffffffffffffffffffffffffffffffffffffffffffffff1916149050919050565b600080610e97836117e3565b9050600073ffffffffffffffffffffffffffffffffffffffff168173ffffffffffffffffffffffffffffffffffffffff1603610f0a57826040517f7e273289000000000000000000000000000000000000000000000000000000008152600401610f01919061228f565b60405180910390fd5b80915050919050565b60006004600083815260200190815260200160002060009054906101000a900473ffffffffffffffffffffffffffffffffffffffff169050919050565b600033905090565b610f658383836001611820565b505050565b60606000825103610f8c576040518060200160405280600081525090506110d7565b60006040518060600160405280604081526020016143cf6040913990506000600360028551610fbb91906140d3565b610fc5919061424f565b6004610fd19190614280565b67ffffffffffffffff811115610fea57610fe9611f73565b5b6040519080825280601f01601f19166020018201604052801561101c5781602001600182028036833780820191505090505b50905060018201602082018586518701602081018051600082525b82841015611092576003840193508351603f8160121c168701518653600186019550603f81600c1c168701518653600186019550603f8160061c168701518653600186019550603f8116870151865360018601955050611037565b80825260038a5106600181146110af57600281146110c2576110ca565b603d6001870353603d60028703536110ca565b603d60018703535b5050505050505080925050505b919050565b6000806110e8846117e3565b9050600073ffffffffffffffffffffffffffffffffffffffff168373ffffffffffffffffffffffffffffffffffffffff161461112a576111298184866119e5565b5b600073ffffffffffffffffffffffffffffffffffffffff168173ffffffffffffffffffffffffffffffffffffffff16146111bb5761116c600085600080611820565b6001600360008373ffffffffffffffffffffffffffffffffffffffff1673ffffffffffffffffffffffffffffffffffffffff168152602001908152602001600020600082825403925050819055505b600073ffffffffffffffffffffffffffffffffffffffff168573ffffffffffffffffffffffffffffffffffffffff161461123e576001600360008773ffffffffffffffffffffffffffffffffffffffff1673ffffffffffffffffffffffffffffffffffffffff168152602001908152602001600020600082825401925050819055505b846002600086815260200190815260200160002060006101000a81548173ffffffffffffffffffffffffffffffffffffffff021916908373ffffffffffffffffffffffffffffffffffffffff160217905550838573ffffffffffffffffffffffffffffffffffffffff168273ffffffffffffffffffffffffffffffffffffffff167fddf252ad1be2c89b69c2b068fc378daa952ba7f163c4a11628f55a4df523b3ef60405160405180910390a4809150509392505050565b60606000600161130584611aa9565b01905060008167ffffffffffffffff81111561132457611323611f73565b5b6040519080825280601f01601f1916602001820160405280156113565781602001600182028036833780820191505090505b509050600082602001820190505b6001156113b9578080600190039150507f3031323334353637383961626364656600000000000000000000000000000000600a86061a8153600a85816113ad576113ac614220565b5b04945060008503611364575b819350505050919050565b600073ffffffffffffffffffffffffffffffffffffffff168273ffffffffffffffffffffffffffffffffffffffff16036114365760006040517f64a0ae9200000000000000000000000000000000000000000000000000000000815260040161142d9190611ee2565b60405180910390fd5b6000611444838360006110dc565b9050600073ffffffffffffffffffffffffffffffffffffffff168173ffffffffffffffffffffffffffffffffffffffff16146114b85760006040517f73c6ac6e0000000000000000000000000000000000000000000000000000000081526004016114af9190611ee2565b60405180910390fd5b505050565b600073ffffffffffffffffffffffffffffffffffffffff168273ffffffffffffffffffffffffffffffffffffffff160361152e57816040517f5b08ba180000000000000000000000000000000000000000000000000000000081526004016115259190611ee2565b60405180910390fd5b80600560008573ffffffffffffffffffffffffffffffffffffffff1673ffffffffffffffffffffffffffffffffffffffff16815260200190815260200160002060008473ffffffffffffffffffffffffffffffffffffffff1673ffffffffffffffffffffffffffffffffffffffff16815260200190815260200160002060006101000a81548160ff0219169083151502179055508173ffffffffffffffffffffffffffffffffffffffff168373ffffffffffffffffffffffffffffffffffffffff167f17307eab39ab6107e8899845ad3d59bd9653f200f220920489ca2b5937696c318360405161161f9190611d71565b60405180910390a3505050565b60008373ffffffffffffffffffffffffffffffffffffffff163b11156117dd578273ffffffffffffffffffffffffffffffffffffffff1663150b7a02611670610f50565b8685856040518563ffffffff1660e01b81526004016116929493929190614317565b6020604051808303816000875af19250505080156116ce57506040513d601f19601f820116820180604052508101906116cb9190614378565b60015b611752573d80600081146116fe576040519150601f19603f3d011682016040523d82523d6000602084013e611703565b606091505b50600081510361174a57836040517f64a0ae920000000000000000000000000000000000000000000000000000000081526004016117419190611ee2565b60405180910390fd5b805181602001fd5b63150b7a0260e01b7bffffffffffffffffffffffffffffffffffffffffffffffffffffffff1916817bffffffffffffffffffffffffffffffffffffffffffffffffffffffff1916146117db57836040517f64a0ae920000000000000000000000000000000000000000000000000000000081526004016117d29190611ee2565b60405180910390fd5b505b50505050565b60006002600083815260200190815260200160002060009054906101000a900473ffffffffffffffffffffffffffffffffffffffff169050919050565b80806118595750600073ffffffffffffffffffffffffffffffffffffffff168273ffffffffffffffffffffffffffffffffffffffff1614155b1561198d57600061186984610e8b565b9050600073ffffffffffffffffffffffffffffffffffffffff168373ffffffffffffffffffffffffffffffffffffffff16141580156118d457508273ffffffffffffffffffffffffffffffffffffffff168173ffffffffffffffffffffffffffffffffffffffff1614155b80156118e757506118e58184610d8d565b155b1561192957826040517fa9fbf51f0000000000000000000000000000000000000000000000000000000081526004016119209190611ee2565b60405180910390fd5b811561198b57838573ffffffffffffffffffffffffffffffffffffffff168273ffffffffffffffffffffffffffffffffffffffff167f8c5be1e5ebec7d5bd14f71427d1e84f3dd0314c0f7b2291e5b200ac8c7c3b92560405160405180910390a45b505b836004600085815260200190815260200160002060006101000a81548173ffffffffffffffffffffffffffffffffffffffff021916908373ffffffffffffffffffffffffffffffffffffffff16021790555050505050565b6119f0838383611bfc565b611aa457600073ffffffffffffffffffffffffffffffffffffffff168373ffffffffffffffffffffffffffffffffffffffff1603611a6557806040517f7e273289000000000000000000000000000000000000000000000000000000008152600401611a5c919061228f565b60405180910390fd5b81816040517f177e802f000000000000000000000000000000000000000000000000000000008152600401611a9b9291906143a5565b60405180910390fd5b505050565b600080600090507a184f03e93ff9f4daa797ed6e38ed64bf6a1f0100000000000000008310611b07577a184f03e93ff9f4daa797ed6e38ed64bf6a1f0100000000000000008381611afd57611afc614220565b5b0492506040810190505b6d04ee2d6d415b85acef81000000008310611b44576d04ee2d6d415b85acef81000000008381611b3a57611b39614220565b5b0492506020810190505b662386f26fc100008310611b7357662386f26fc100008381611b6957611b68614220565b5b0492506010810190505b6305f5e1008310611b9c576305f5e1008381611b9257611b91614220565b5b0492506008810190505b6127108310611bc1576127108381611bb757611bb6614220565b5b0492506004810190505b60648310611be45760648381611bda57611bd9614220565b5b0492506002810190505b600a8310611bf3576001810190505b80915050919050565b60008073ffffffffffffffffffffffffffffffffffffffff168373ffffffffffffffffffffffffffffffffffffffff1614158015611cb457508273ffffffffffffffffffffffffffffffffffffffff168473ffffffffffffffffffffffffffffffffffffffff161480611c755750611c748484610d8d565b5b80611cb357508273ffffffffffffffffffffffffffffffffffffffff16611c9b83610f13565b73ffffffffffffffffffffffffffffffffffffffff16145b5b90509392505050565b6000604051905090565b600080fd5b600080fd5b60007fffffffff0000000000000000000000000000000000000000000000000000000082169050919050565b611d0681611cd1565b8114611d1157600080fd5b50565b600081359050611d2381611cfd565b92915050565b600060208284031215611d3f57611d3e611cc7565b5b6000611d4d84828501611d14565b91505092915050565b60008115159050919050565b611d6b81611d56565b82525050565b6000602082019050611d866000830184611d62565b92915050565b600081519050919050565b600082825260208201905092915050565b60005b83811015611dc6578082015181840152602081019050611dab565b60008484015250505050565b6000601f19601f8301169050919050565b6000611dee82611d8c565b611df88185611d97565b9350611e08818560208601611da8565b611e1181611dd2565b840191505092915050565b60006020820190508181036000830152611e368184611de3565b905092915050565b6000819050919050565b611e5181611e3e565b8114611e5c57600080fd5b50565b600081359050611e6e81611e48565b92915050565b600060208284031215611e8a57611e89611cc7565b5b6000611e9884828501611e5f565b91505092915050565b600073ffffffffffffffffffffffffffffffffffffffff82169050919050565b6000611ecc82611ea1565b9050919050565b611edc81611ec1565b82525050565b6000602082019050611ef76000830184611ed3565b92915050565b611f0681611ec1565b8114611f1157600080fd5b50565b600081359050611f2381611efd565b92915050565b60008060408385031215611f4057611f3f611cc7565b5b6000611f4e85828601611f14565b9250506020611f5f85828601611e5f565b9150509250929050565b600080fd5b600080fd5b7f4e487b7100000000000000000000000000000000000000000000000000000000600052604160045260246000fd5b611fab82611dd2565b810181811067ffffffffffffffff82111715611fca57611fc9611f73565b5b80604052505050565b6000611fdd611cbd565b9050611fe98282611fa2565b919050565b600067ffffffffffffffff82111561200957612008611f73565b5b61201282611dd2565b9050602081019050919050565b82818337600083830152505050565b600061204161203c84611fee565b611fd3565b90508281526020810184848401111561205d5761205c611f6e565b5b61206884828561201f565b509392505050565b600082601f83011261208557612084611f69565b5b813561209584826020860161202e565b91505092915050565b6000806000606084860312156120b7576120b6611cc7565b5b600084013567ffffffffffffffff8111156120d5576120d4611ccc565b5b6120e186828701612070565b935050602084013567ffffffffffffffff81111561210257612101611ccc565b5b61210e86828701612070565b925050604084013567ffffffffffffffff81111561212f5761212e611ccc565b5b61213b86828701612070565b9150509250925092565b60008060006060848603121561215e5761215d611cc7565b5b600061216c86828701611f14565b935050602061217d86828701611f14565b925050604061218e86828701611e5f565b9150509250925092565b600080600080608085870312156121b2576121b1611cc7565b5b60006121c087828801611e5f565b945050602085013567ffffffffffffffff8111156121e1576121e0611ccc565b5b6121ed87828801612070565b935050604085013567ffffffffffffffff81111561220e5761220d611ccc565b5b61221a87828801612070565b925050606085013567ffffffffffffffff81111561223b5761223a611ccc565b5b61224787828801612070565b91505092959194509250565b60006020828403121561226957612268611cc7565b5b600061227784828501611f14565b91505092915050565b61228981611e3e565b82525050565b60006020820190506122a46000830184612280565b92915050565b600080600080608085870312156122c4576122c3611cc7565b5b60006122d287828801611f14565b945050602085013567ffffffffffffffff8111156122f3576122f2611ccc565b5b6122ff87828801612070565b935050604085013567ffffffffffffffff8111156123205761231f611ccc565b5b61232c87828801612070565b925050606085013567ffffffffffffffff81111561234d5761234c611ccc565b5b61235987828801612070565b91505092959194509250565b61236e81611d56565b811461237957600080fd5b50565b60008135905061238b81612365565b92915050565b600080604083850312156123a8576123a7611cc7565b5b60006123b685828601611f14565b92505060206123c78582860161237c565b9150509250929050565b600067ffffffffffffffff8211156123ec576123eb611f73565b5b6123f582611dd2565b9050602081019050919050565b6000612415612410846123d1565b611fd3565b90508281526020810184848401111561243157612430611f6e565b5b61243c84828561201f565b509392505050565b600082601f83011261245957612458611f69565b5b8135612469848260208601612402565b91505092915050565b6000806000806080858703121561248c5761248b611cc7565b5b600061249a87828801611f14565b94505060206124ab87828801611f14565b93505060406124bc87828801611e5f565b925050606085013567ffffffffffffffff8111156124dd576124dc611ccc565b5b6124e987828801612444565b91505092959194509250565b6000806040838503121561250c5761250b611cc7565b5b600061251a85828601611f14565b925050602061252b85828601611f14565b9150509250929050565b7f4e487b7100000000000000000000000000000000000000000000000000000000600052602260045260246000fd5b6000600282049050600182168061257c57607f821691505b60208210810361258f5761258e612535565b5b50919050565b600081905092915050565b7f3c7376672077696474683d2237303022206865696768743d223730302220786d60008201527f6c6e733d22687474703a2f2f7777772e77332e6f72672f323030302f7376672260208201527f207374796c653d226261636b67726f756e642d636f6c6f723a2023313732383560408201527f333b223e00000000000000000000000000000000000000000000000000000000606082015250565b6000612648606483612595565b9150612653826125a0565b606482019050919050565b7f3c7469746c653e456d706c6f7965654e46545f496d6167653c2f7469746c653e600082015250565b6000612694602083612595565b915061269f8261265e565b602082019050919050565b7f3c74657874207472616e73666f726d3d226d617472697828312e31313137342060008201527f30203020312e3337393635202d32312e31383431202d32382e3334363429222060208201527f7374726f6b653d2223394143454536222066696c6c3d2223666666666666222060408201527f7374726f6b652d77696474683d22302220783d223234322e353937393322207960608201527f3d2237342e3832303631222069643d227376675f332220666f6e742d73697a6560808201527f3d2232342220666f6e742d66616d696c793d22274172696d6f2722207465787460a08201527f2d616e63686f723d2273746172742220786d6c3a73706163653d22707265736560c08201527f7276652220666f6e742d7765696768743d22626f6c64223e4720436f6d70616e60e08201527f79204e46543c2f746578743e000000000000000000000000000000000000000061010082015250565b600061281261010c83612595565b915061281d826126aa565b61010c82019050919050565b7f3c72656374207374726f6b653d2223394143454536222069643d227376675f3460008201527f22206865696768743d223139222077696474683d223131352220793d2233382260208201527f20783d2238312e303030323622207374726f6b652d77696474683d223022206660408201527f696c6c3d2223666666666666222f3e0000000000000000000000000000000000606082015250565b60006128d1606f83612595565b91506128dc82612829565b606f82019050919050565b7f3c72656374207374726f6b653d2223394143454536222069643d227376675f3660008201527f22206865696768743d223139222077696474683d223131352220793d2236372260208201527f20783d2238312e303030323622207374726f6b652d77696474683d223022206660408201527f696c6c3d2223666666666666222f3e0000000000000000000000000000000000606082015250565b600061298f606f83612595565b915061299a826128e7565b606f82019050919050565b7f3c72656374207374726f6b653d2223394143454536222069643d227376675f3460008201527f22206865696768743d223139222077696474683d223131352220793d2233382260208201527f20783d223532362e3137373622207374726f6b652d77696474683d223022206660408201527f696c6c3d2223666666666666222f3e0000000000000000000000000000000000606082015250565b6000612a4d606f83612595565b9150612a58826129a5565b606f82019050919050565b7f3c72656374207374726f6b653d2223394143454536222069643d227376675f3660008201527f22206865696768743d223139222077696474683d223131352220793d2236372260208201527f20783d223532362e3137373622207374726f6b652d77696474683d223022206660408201527f696c6c3d2223666666666666222f3e0000000000000000000000000000000000606082015250565b6000612b0b606f83612595565b9150612b1682612a63565b606f82019050919050565b7f3c70617468207374726f6b653d2223394143454536222069643d227376675f3160008201527f362220643d226d3237312e39383931342c3138312e35343136336c33342e393260208201527f3835382c2d36332e39393939396c39332e31343238362c306c33342e3932383560408201527f362c36332e39393939396c2d33342e39323835362c36332e39393939396c2d3960608201527f332e31343238362c306c2d33342e39323835382c2d36332e39393939397a222060808201527f7374726f6b652d77696474683d2230222066696c6c3d2223306465383737222f60a08201527f3e0000000000000000000000000000000000000000000000000000000000000060c082015250565b6000612c3b60c183612595565b9150612c4682612b21565b60c182019050919050565b7f3c74657874207472616e73666f726d3d226d617472697828312e39363830352060008201527f30203020312e3635363133202d3233322e393431202d3133342e33323629222060208201527f7374726f6b653d22233941434545362220786d6c3a73706163653d227072657360408201527f657276652220746578742d616e63686f723d2273746172742220666f6e742d6660608201527f616d696c793d22274172696d6f272220666f6e742d73697a653d22323422206960808201527f643d227376675f31392220793d223139372e35373931322220783d223238372e60a08201527f3931363122207374726f6b652d77696474683d2230222066696c6c3d2223303060c08201527f30303030223e473c2f746578743e00000000000000000000000000000000000060e082015250565b6000612d9160ee83612595565b9150612d9c82612c51565b60ee82019050919050565b7f3c7465787420786d6c3a73706163653d2270726573657276652220746578742d60008201527f616e63686f723d2273746172742220666f6e742d66616d696c793d222741726960208201527f6d6f272220666f6e742d73697a653d223234222069643d227376675f3232222060408201527f793d223238382e30353837342220783d223239312e383234313722207374726f60608201527f6b652d77696474683d223022207374726f6b653d22233941434545362220666960808201527f6c6c3d2223666666666666223e596f7572204e616d653c2f746578743e00000060a082015250565b6000612e9b60bd83612595565b9150612ea682612da7565b60bd82019050919050565b7f3c72656374207374726f6b653d2223303030303030222069643d227376675f3260008201527f3322206865696768743d223332222077696474683d223234382220793d22333060208201527f372e37363436352220783d223233322e303030363522207374726f6b652d776960408201527f6474683d2232222066696c6c3d2223666666666666222f3e0000000000000000606082015250565b6000612f59607883612595565b9150612f6482612eb1565b607882019050919050565b7f3c7465787420786d6c3a73706163653d2270726573657276652220746578742d60008201527f616e63686f723d2273746172742220666f6e742d66616d696c793d222741726960208201527f6d6f272220666f6e742d73697a653d223234222069643d227376675f3234222060408201527f793d223430312e35383831372220783d223135332e333533343822207374726f60608201527f6b652d77696474683d223022207374726f6b653d22233030303030302220666960808201527f6c6c3d2223666666666666223e0000000000000000000000000000000000000060a082015250565b600061306360ad83612595565b915061306e82612f6f565b60ad82019050919050565b7f5465616d00000000000000000000000000000000000000000000000000000000600082015250565b60006130af600483612595565b91506130ba82613079565b600482019050919050565b7f3c2f746578743e00000000000000000000000000000000000000000000000000600082015250565b60006130fb600783612595565b9150613106826130c5565b600782019050919050565b7f3c726563742066696c6c3d222366666666666622207374726f6b652d7769647460008201527f683d22322220783d223235362e37303636392220793d223337332e363437343360208201527f222077696474683d2232343822206865696768743d223332222069643d22737660408201527f675f3522207374726f6b653d2223303030303030222f3e000000000000000000606082015250565b60006131b9607783612595565b91506131c482613111565b607782019050919050565b7f3c74657874207374796c653d22637572736f723a206d6f76653b22207374726f60008201527f6b653d22233030303030302220786d6c3a73706163653d22707265736572766560208201527f2220746578742d616e63686f723d2273746172742220666f6e742d66616d696c60408201527f793d22274172696d6f272220666f6e742d73697a653d223234222069643d227360608201527f76675f33302220793d223435352e37303539312220783d223132362e3634373460808201527f3322207374726f6b652d77696474683d2230222066696c6c3d2223666666666660a08201527f66223e000000000000000000000000000000000000000000000000000000000060c082015250565b60006132e960c383612595565b91506132f4826131cf565b60c382019050919050565b7f4d65737361676500000000000000000000000000000000000000000000000000600082015250565b6000613335600783612595565b9150613340826132ff565b600782019050919050565b7f3c72656374207374726f6b653d2223303030303030222066696c6c3d2223666660008201527f6666666622207374726f6b652d77696474683d22322220783d223235362e373060208201527f3636392220793d223433312e3239343837222077696474683d2232343822206860408201527f65696768743d2233342e3335323935222069643d227376675f37222f3e000000606082015250565b60006133f3607d83612595565b91506133fe8261334b565b607d82019050919050565b7f3c74657874207374796c653d22637572736f723a206d6f76653b2220786d6c3a60008201527f73706163653d2270726573657276652220746578742d616e63686f723d22737460208201527f6172742220666f6e742d66616d696c793d22274172696d6f272220666f6e742d60408201527f73697a653d223234222069643d227376675f33322220793d223538322e30353960608201527f2220783d223237342e333533343722207374726f6b652d77696474683d22302260808201527f207374726f6b653d2223303030303030222066696c6c3d22236666666666662260a08201527f3e7878787878783c2f746578743e00000000000000000000000000000000000060c082015250565b600061352360ce83612595565b915061352e82613409565b60ce82019050919050565b7f203c7465787420786d6c3a73706163653d22707265736572766522207465787460008201527f2d616e63686f723d2273746172742220666f6e742d66616d696c793d2227417260208201527f696d6f272220666f6e742d73697a653d223234222069643d227376675f33332260408201527f20793d223632342e363437332220783d223235372e313138313322207374726f60608201527f6b652d77696474683d223022207374726f6b653d22233030303030302220666960808201527f6c6c3d2223666666666666223e7878782d787878782d7878783c2f746578743e60a08201527f3c746578742066696c6c3d222330303030303022207374726f6b653d2223666660c08201527f6666666622207374726f6b652d77696474683d22302220783d223332342e373660e08201527f3535352220793d223333332e3934313339222069643d227376675f31342220666101008201527f6f6e742d73697a653d2232342220666f6e742d66616d696c793d22274172696d6101208201527f6f272220746578742d616e63686f723d2273746172742220786d6c3a737061636101408201527f653d227072657365727665223e0000000000000000000000000000000000000061016082015250565b600061371661016d83612595565b915061372182613539565b61016d82019050919050565b600061373882611d8c565b6137428185612595565b9350613752818560208601611da8565b80840191505092915050565b7f3c746578742066696c6c3d222330303030303022207374726f6b653d2223666660008201527f6666666622207374726f6b652d77696474683d22302220783d223237342e313760208201527f3639392220793d223339382e3634373639222069643d227376675f313522206660408201527f6f6e742d73697a653d2232342220666f6e742d66616d696c793d22274172696d60608201527f6f272220746578742d616e63686f723d2273746172742220786d6c3a7370616360808201527f653d227072657365727665223e0000000000000000000000000000000000000060a082015250565b600061385260ad83612595565b915061385d8261375e565b60ad82019050919050565b7f3c746578742066696c6c3d222330303030303022207374726f6b653d2223666660008201527f6666666622207374726f6b652d77696474683d22302220783d223237342e313760208201527f3639392220793d223435372e34373136222069643d227376675f31372220666f60408201527f6e742d73697a653d2232342220666f6e742d66616d696c793d22274172696d6f60608201527f272220746578742d616e63686f723d2273746172742220786d6c3a737061636560808201527f3d227072657365727665223e000000000000000000000000000000000000000060a082015250565b600061395c60ac83612595565b915061396782613868565b60ac82019050919050565b7f3c2f7376673e0000000000000000000000000000000000000000000000000000600082015250565b60006139a8600683612595565b91506139b382613972565b600682019050919050565b60006139c98261263b565b91506139d482612687565b91506139df82612804565b91506139ea826128c4565b91506139f582612982565b9150613a0082612a40565b9150613a0b82612afe565b9150613a1682612c2e565b9150613a2182612d84565b9150613a2c82612e8e565b9150613a3782612f4c565b9150613a4282613056565b9150613a4d826130a2565b9150613a58826130ee565b9150613a63826131ac565b9150613a6e826132dc565b9150613a7982613328565b9150613a84826130ee565b9150613a8f826133e6565b9150613a9a82613516565b9150613aa582613708565b9150613ab1828661372d565b9150613abc826130ee565b9150613ac782613845565b9150613ad3828561372d565b9150613ade826130ee565b9150613ae98261394f565b9150613af5828461372d565b9150613b00826130ee565b9150613b0b8261399b565b9150819050949350505050565b6000606082019050613b2d6000830186611ed3565b613b3a6020830185612280565b613b476040830184611ed3565b949350505050565b7f4552433732313a20596f7520617265206e6f7420746f6b656e206f776e657200600082015250565b6000613b85601f83611d97565b9150613b9082613b4f565b602082019050919050565b60006020820190508181036000830152613bb481613b78565b9050919050565b60008190508160005260206000209050919050565b60006020601f8301049050919050565b600082821b905092915050565b600060088302613c1d7fffffffffffffffffffffffffffffffffffffffffffffffffffffffffffffffff82613be0565b613c278683613be0565b95508019841693508086168417925050509392505050565b6000819050919050565b6000613c64613c5f613c5a84611e3e565b613c3f565b611e3e565b9050919050565b6000819050919050565b613c7e83613c49565b613c92613c8a82613c6b565b848454613bed565b825550505050565b600090565b613ca7613c9a565b613cb2818484613c75565b505050565b5b81811015613cd657613ccb600082613c9f565b600181019050613cb8565b5050565b601f821115613d1b57613cec81613bbb565b613cf584613bd0565b81016020851015613d04578190505b613d18613d1085613bd0565b830182613cb7565b50505b505050565b600082821c905092915050565b6000613d3e60001984600802613d20565b1980831691505092915050565b6000613d578383613d2d565b9150826002028217905092915050565b613d7082611d8c565b67ffffffffffffffff811115613d8957613d88611f73565b5b613d938254612564565b613d9e828285613cda565b600060209050601f831160018114613dd15760008415613dbf578287015190505b613dc98582613d4b565b865550613e31565b601f198416613ddf86613bbb565b60005b82811015613e0757848901518255600182019150602085019450602081019050613de2565b86831015613e245784890151613e20601f891682613d2d565b8355505b6001600288020188555050505b505050505050565b7f7b226e616d65223a2022475f436f6d70616e794e465400000000000000000000600082015250565b6000613e6f601683612595565b9150613e7a82613e39565b601682019050919050565b7f222c000000000000000000000000000000000000000000000000000000000000600082015250565b6000613ebb600283612595565b9150613ec682613e85565b600282019050919050565b7f222c226465736372697074696f6e223a20225465737400000000000000000000600082015250565b6000613f07601683612595565b9150613f1282613ed1565b601682019050919050565b7f222c22696d616765223a22646174613a696d6167652f7376672b786d6c3b626160008201527f736536342c000000000000000000000000000000000000000000000000000000602082015250565b6000613f79602583612595565b9150613f8482613f1d565b602582019050919050565b7f227d000000000000000000000000000000000000000000000000000000000000600082015250565b6000613fc5600283612595565b9150613fd082613f8f565b600282019050919050565b6000613fe682613e62565b9150613ff2828561372d565b9150613ffd82613eae565b915061400882613efa565b915061401382613f6c565b915061401f828461372d565b915061402a82613fb8565b91508190509392505050565b7f646174613a6170706c69636174696f6e2f6a736f6e3b6261736536342c000000600082015250565b600061406c601d83612595565b915061407782614036565b601d82019050919050565b600061408d8261405f565b9150614099828461372d565b915081905092915050565b7f4e487b7100000000000000000000000000000000000000000000000000000000600052601160045260246000fd5b60006140de82611e3e565b91506140e983611e3e565b9250828201905080821115614101576141006140a4565b5b92915050565b7f226465736372697074696f6e223a202254657374222c00000000000000000000600082015250565b600061413d601683612595565b915061414882614107565b601682019050919050565b7f22696d616765223a22646174613a696d6167652f7376672b786d6c3b6261736560008201527f36342c0000000000000000000000000000000000000000000000000000000000602082015250565b60006141af602383612595565b91506141ba82614153565b602382019050919050565b60006141d082613e62565b91506141dc828561372d565b91506141e782613eae565b91506141f282614130565b91506141fd826141a2565b9150614209828461372d565b915061421482613fb8565b91508190509392505050565b7f4e487b7100000000000000000000000000000000000000000000000000000000600052601260045260246000fd5b600061425a82611e3e565b915061426583611e3e565b92508261427557614274614220565b5b828204905092915050565b600061428b82611e3e565b915061429683611e3e565b92508282026142a481611e3e565b915082820484148315176142bb576142ba6140a4565b5b5092915050565b600081519050919050565b600082825260208201905092915050565b60006142e9826142c2565b6142f381856142cd565b9350614303818560208601611da8565b61430c81611dd2565b840191505092915050565b600060808201905061432c6000830187611ed3565b6143396020830186611ed3565b6143466040830185612280565b818103606083015261435881846142de565b905095945050505050565b60008151905061437281611cfd565b92915050565b60006020828403121561438e5761438d611cc7565b5b600061439c84828501614363565b91505092915050565b60006040820190506143ba6000830185611ed3565b6143c76020830184612280565b939250505056fe4142434445464748494a4b4c4d4e4f505152535455565758595a6162636465666768696a6b6c6d6e6f707172737475767778797a303132333435363738392b2fa2646970667358221220e3babf6ee3a4eebcabbc1ad3e7f3a85620da2f06f35743444a0d39e0c4ed115e64736f6c63430008130033",
  "linkReferences": {},
  "deployedLinkReferences": {}
}