{
  "_format": "hh-sol-artifact-1",
  "contractName": "EmployeeId",
  "sourceName": "contracts/EmployeeId.sol",
  "abi": [
    {
      "inputs": [],
      "stateMutability": "nonpayable",
      "type": "constructor"
    },
    {
      "inputs": [],
      "name": "AccessControlBadConfirmation",
      "type": "error"
    },
    {
      "inputs": [
        {
          "internalType": "address",
          "name": "account",
          "type": "address"
        },
        {
          "internalType": "bytes32",
          "name": "neededRole",
          "type": "bytes32"
        }
      ],
      "name": "AccessControlUnauthorizedAccount",
      "type": "error"
    },
    {
      "inputs": [
        {
          "internalType": "address",
          "name": "sender",
          "type": "address"
        },
        {
          "internalType": "uint256",
          "name": "tokenId",
          "type": "uint256"
        },
        {
          "internalType": "address",
          "name": "owner",
          "type": "address"
        }
      ],
      "name": "ERC721IncorrectOwner",
      "type": "error"
    },
    {
      "inputs": [
        {
          "internalType": "address",
          "name": "operator",
          "type": "address"
        },
        {
          "internalType": "uint256",
          "name": "tokenId",
          "type": "uint256"
        }
      ],
      "name": "ERC721InsufficientApproval",
      "type": "error"
    },
    {
      "inputs": [
        {
          "internalType": "address",
          "name": "approver",
          "type": "address"
        }
      ],
      "name": "ERC721InvalidApprover",
      "type": "error"
    },
    {
      "inputs": [
        {
          "internalType": "address",
          "name": "operator",
          "type": "address"
        }
      ],
      "name": "ERC721InvalidOperator",
      "type": "error"
    },
    {
      "inputs": [
        {
          "internalType": "address",
          "name": "owner",
          "type": "address"
        }
      ],
      "name": "ERC721InvalidOwner",
      "type": "error"
    },
    {
      "inputs": [
        {
          "internalType": "address",
          "name": "receiver",
          "type": "address"
        }
      ],
      "name": "ERC721InvalidReceiver",
      "type": "error"
    },
    {
      "inputs": [
        {
          "internalType": "address",
          "name": "sender",
          "type": "address"
        }
      ],
      "name": "ERC721InvalidSender",
      "type": "error"
    },
    {
      "inputs": [
        {
          "internalType": "uint256",
          "name": "tokenId",
          "type": "uint256"
        }
      ],
      "name": "ERC721NonexistentToken",
      "type": "error"
    },
    {
      "anonymous": false,
      "inputs": [
        {
          "indexed": true,
          "internalType": "address",
          "name": "newAdmin",
          "type": "address"
        }
      ],
      "name": "AdminAdded",
      "type": "event"
    },
    {
      "anonymous": false,
      "inputs": [
        {
          "indexed": true,
          "internalType": "address",
          "name": "removedAdmin",
          "type": "address"
        }
      ],
      "name": "AdminRemoved",
      "type": "event"
    },
    {
      "anonymous": false,
      "inputs": [
        {
          "indexed": true,
          "internalType": "address",
          "name": "owner",
          "type": "address"
        },
        {
          "indexed": true,
          "internalType": "address",
          "name": "approved",
          "type": "address"
        },
        {
          "indexed": true,
          "internalType": "uint256",
          "name": "tokenId",
          "type": "uint256"
        }
      ],
      "name": "Approval",
      "type": "event"
    },
    {
      "anonymous": false,
      "inputs": [
        {
          "indexed": true,
          "internalType": "address",
          "name": "owner",
          "type": "address"
        },
        {
          "indexed": true,
          "internalType": "address",
          "name": "operator",
          "type": "address"
        },
        {
          "indexed": false,
          "internalType": "bool",
          "name": "approved",
          "type": "bool"
        }
      ],
      "name": "ApprovalForAll",
      "type": "event"
    },
    {
      "anonymous": false,
      "inputs": [
        {
          "indexed": true,
          "internalType": "bytes32",
          "name": "role",
          "type": "bytes32"
        },
        {
          "indexed": true,
          "internalType": "bytes32",
          "name": "previousAdminRole",
          "type": "bytes32"
        },
        {
          "indexed": true,
          "internalType": "bytes32",
          "name": "newAdminRole",
          "type": "bytes32"
        }
      ],
      "name": "RoleAdminChanged",
      "type": "event"
    },
    {
      "anonymous": false,
      "inputs": [
        {
          "indexed": true,
          "internalType": "bytes32",
          "name": "role",
          "type": "bytes32"
        },
        {
          "indexed": true,
          "internalType": "address",
          "name": "account",
          "type": "address"
        },
        {
          "indexed": true,
          "internalType": "address",
          "name": "sender",
          "type": "address"
        }
      ],
      "name": "RoleGranted",
      "type": "event"
    },
    {
      "anonymous": false,
      "inputs": [
        {
          "indexed": true,
          "internalType": "bytes32",
          "name": "role",
          "type": "bytes32"
        },
        {
          "indexed": true,
          "internalType": "address",
          "name": "account",
          "type": "address"
        },
        {
          "indexed": true,
          "internalType": "address",
          "name": "sender",
          "type": "address"
        }
      ],
      "name": "RoleRevoked",
      "type": "event"
    },
    {
      "anonymous": false,
      "inputs": [
        {
          "indexed": true,
          "internalType": "address",
          "name": "from",
          "type": "address"
        },
        {
          "indexed": true,
          "internalType": "address",
          "name": "to",
          "type": "address"
        },
        {
          "indexed": true,
          "internalType": "uint256",
          "name": "tokenId",
          "type": "uint256"
        }
      ],
      "name": "Transfer",
      "type": "event"
    },
    {
      "inputs": [],
      "name": "ADMIN_ROLE",
      "outputs": [
        {
          "internalType": "bytes32",
          "name": "",
          "type": "bytes32"
        }
      ],
      "stateMutability": "view",
      "type": "function"
    },
    {
      "inputs": [],
      "name": "DEFAULT_ADMIN_ROLE",
      "outputs": [
        {
          "internalType": "bytes32",
          "name": "",
          "type": "bytes32"
        }
      ],
      "stateMutability": "view",
      "type": "function"
    },
    {
      "inputs": [
        {
          "internalType": "address",
          "name": "newAdmin",
          "type": "address"
        }
      ],
      "name": "addAdmin",
      "outputs": [],
      "stateMutability": "nonpayable",
      "type": "function"
    },
    {
      "inputs": [
        {
          "internalType": "address",
          "name": "to",
          "type": "address"
        },
        {
          "internalType": "uint256",
          "name": "tokenId",
          "type": "uint256"
        }
      ],
      "name": "approve",
      "outputs": [],
      "stateMutability": "nonpayable",
      "type": "function"
    },
    {
      "inputs": [
        {
          "internalType": "address",
          "name": "owner",
          "type": "address"
        }
      ],
      "name": "balanceOf",
      "outputs": [
        {
          "internalType": "uint256",
          "name": "",
          "type": "uint256"
        }
      ],
      "stateMutability": "view",
      "type": "function"
    },
    {
      "inputs": [
        {
          "internalType": "uint256",
          "name": "tokenId",
          "type": "uint256"
        }
      ],
      "name": "exists",
      "outputs": [
        {
          "internalType": "bool",
          "name": "",
          "type": "bool"
        }
      ],
      "stateMutability": "view",
      "type": "function"
    },
    {
      "inputs": [
        {
          "internalType": "string",
          "name": "employeeName",
          "type": "string"
        },
        {
          "internalType": "string",
          "name": "departmentName",
          "type": "string"
        },
        {
          "internalType": "string",
          "name": "message",
          "type": "string"
        }
      ],
      "name": "generateSVG",
      "outputs": [
        {
          "internalType": "string",
          "name": "svg",
          "type": "string"
        }
      ],
      "stateMutability": "pure",
      "type": "function"
    },
    {
      "inputs": [],
      "name": "getAdmins",
      "outputs": [
        {
          "internalType": "address[]",
          "name": "",
          "type": "address[]"
        }
      ],
      "stateMutability": "view",
      "type": "function"
    },
    {
      "inputs": [],
      "name": "getAllMinters",
      "outputs": [
        {
          "internalType": "address[]",
          "name": "",
          "type": "address[]"
        }
      ],
      "stateMutability": "view",
      "type": "function"
    },
    {
      "inputs": [
        {
          "internalType": "uint256",
          "name": "tokenId",
          "type": "uint256"
        }
      ],
      "name": "getApproved",
      "outputs": [
        {
          "internalType": "address",
          "name": "",
          "type": "address"
        }
      ],
      "stateMutability": "view",
      "type": "function"
    },
    {
      "inputs": [
        {
          "internalType": "uint256",
          "name": "tokenId",
          "type": "uint256"
        }
      ],
      "name": "getCustomTokenURI",
      "outputs": [
        {
          "internalType": "string",
          "name": "",
          "type": "string"
        }
      ],
      "stateMutability": "view",
      "type": "function"
    },
    {
      "inputs": [
        {
          "internalType": "bytes32",
          "name": "role",
          "type": "bytes32"
        }
      ],
      "name": "getRoleAdmin",
      "outputs": [
        {
          "internalType": "bytes32",
          "name": "",
          "type": "bytes32"
        }
      ],
      "stateMutability": "view",
      "type": "function"
    },
    {
      "inputs": [
        {
          "internalType": "uint256",
          "name": "tokenId",
          "type": "uint256"
        }
      ],
      "name": "getSVGData",
      "outputs": [
        {
          "internalType": "string",
          "name": "",
          "type": "string"
        }
      ],
      "stateMutability": "view",
      "type": "function"
    },
    {
      "inputs": [
        {
          "internalType": "bytes32",
          "name": "role",
          "type": "bytes32"
        },
        {
          "internalType": "address",
          "name": "account",
          "type": "address"
        }
      ],
      "name": "grantRole",
      "outputs": [],
      "stateMutability": "nonpayable",
      "type": "function"
    },
    {
      "inputs": [
        {
          "internalType": "bytes32",
          "name": "role",
          "type": "bytes32"
        },
        {
          "internalType": "address",
          "name": "account",
          "type": "address"
        }
      ],
      "name": "hasRole",
      "outputs": [
        {
          "internalType": "bool",
          "name": "",
          "type": "bool"
        }
      ],
      "stateMutability": "view",
      "type": "function"
    },
    {
      "inputs": [
        {
          "internalType": "address",
          "name": "_address",
          "type": "address"
        }
      ],
      "name": "isAdmin",
      "outputs": [
        {
          "internalType": "bool",
          "name": "",
          "type": "bool"
        }
      ],
      "stateMutability": "view",
      "type": "function"
    },
    {
      "inputs": [
        {
          "internalType": "address",
          "name": "owner",
          "type": "address"
        },
        {
          "internalType": "address",
          "name": "operator",
          "type": "address"
        }
      ],
      "name": "isApprovedForAll",
      "outputs": [
        {
          "internalType": "bool",
          "name": "",
          "type": "bool"
        }
      ],
      "stateMutability": "view",
      "type": "function"
    },
    {
      "inputs": [
        {
          "internalType": "address",
          "name": "to",
          "type": "address"
        },
        {
          "internalType": "string",
          "name": "employeeName",
          "type": "string"
        },
        {
          "internalType": "string",
          "name": "departmentName",
          "type": "string"
        },
        {
          "internalType": "string",
          "name": "message",
          "type": "string"
        }
      ],
      "name": "mintEmployeeIdNFT",
      "outputs": [],
      "stateMutability": "nonpayable",
      "type": "function"
    },
    {
      "inputs": [],
      "name": "name",
      "outputs": [
        {
          "internalType": "string",
          "name": "",
          "type": "string"
        }
      ],
      "stateMutability": "view",
      "type": "function"
    },
    {
      "inputs": [
        {
          "internalType": "uint256",
          "name": "tokenId",
          "type": "uint256"
        }
      ],
      "name": "ownerOf",
      "outputs": [
        {
          "internalType": "address",
          "name": "",
          "type": "address"
        }
      ],
      "stateMutability": "view",
      "type": "function"
    },
    {
      "inputs": [
        {
          "internalType": "address",
          "name": "admin",
          "type": "address"
        }
      ],
      "name": "removeAdmin",
      "outputs": [],
      "stateMutability": "nonpayable",
      "type": "function"
    },
    {
      "inputs": [
        {
          "internalType": "address",
          "name": "admin",
          "type": "address"
        }
      ],
      "name": "removeAdminFromList",
      "outputs": [],
      "stateMutability": "nonpayable",
      "type": "function"
    },
    {
      "inputs": [
        {
          "internalType": "bytes32",
          "name": "role",
          "type": "bytes32"
        },
        {
          "internalType": "address",
          "name": "callerConfirmation",
          "type": "address"
        }
      ],
      "name": "renounceRole",
      "outputs": [],
      "stateMutability": "nonpayable",
      "type": "function"
    },
    {
      "inputs": [
        {
          "internalType": "bytes32",
          "name": "role",
          "type": "bytes32"
        },
        {
          "internalType": "address",
          "name": "account",
          "type": "address"
        }
      ],
      "name": "revokeRole",
      "outputs": [],
      "stateMutability": "nonpayable",
      "type": "function"
    },
    {
      "inputs": [
        {
          "internalType": "address",
          "name": "from",
          "type": "address"
        },
        {
          "internalType": "address",
          "name": "to",
          "type": "address"
        },
        {
          "internalType": "uint256",
          "name": "tokenId",
          "type": "uint256"
        }
      ],
      "name": "safeTransferFrom",
      "outputs": [],
      "stateMutability": "nonpayable",
      "type": "function"
    },
    {
      "inputs": [
        {
          "internalType": "address",
          "name": "from",
          "type": "address"
        },
        {
          "internalType": "address",
          "name": "to",
          "type": "address"
        },
        {
          "internalType": "uint256",
          "name": "tokenId",
          "type": "uint256"
        },
        {
          "internalType": "bytes",
          "name": "data",
          "type": "bytes"
        }
      ],
      "name": "safeTransferFrom",
      "outputs": [],
      "stateMutability": "nonpayable",
      "type": "function"
    },
    {
      "inputs": [
        {
          "internalType": "address",
          "name": "operator",
          "type": "address"
        },
        {
          "internalType": "bool",
          "name": "approved",
          "type": "bool"
        }
      ],
      "name": "setApprovalForAll",
      "outputs": [],
      "stateMutability": "nonpayable",
      "type": "function"
    },
    {
      "inputs": [
        {
          "internalType": "bytes4",
          "name": "interfaceId",
          "type": "bytes4"
        }
      ],
      "name": "supportsInterface",
      "outputs": [
        {
          "internalType": "bool",
          "name": "",
          "type": "bool"
        }
      ],
      "stateMutability": "view",
      "type": "function"
    },
    {
      "inputs": [],
      "name": "symbol",
      "outputs": [
        {
          "internalType": "string",
          "name": "",
          "type": "string"
        }
      ],
      "stateMutability": "view",
      "type": "function"
    },
    {
      "inputs": [
        {
          "internalType": "address",
          "name": "owner",
          "type": "address"
        },
        {
          "internalType": "uint256",
          "name": "index",
          "type": "uint256"
        }
      ],
      "name": "tokenOfOwnerByIndex",
      "outputs": [
        {
          "internalType": "uint256",
          "name": "",
          "type": "uint256"
        }
      ],
      "stateMutability": "view",
      "type": "function"
    },
    {
      "inputs": [
        {
          "internalType": "uint256",
          "name": "tokenId",
          "type": "uint256"
        }
      ],
      "name": "tokenURI",
      "outputs": [
        {
          "internalType": "string",
          "name": "",
          "type": "string"
        }
      ],
      "stateMutability": "view",
      "type": "function"
    },
    {
      "inputs": [
        {
          "internalType": "address",
          "name": "from",
          "type": "address"
        },
        {
          "internalType": "address",
          "name": "to",
          "type": "address"
        },
        {
          "internalType": "uint256",
          "name": "tokenId",
          "type": "uint256"
        }
      ],
      "name": "transferFrom",
      "outputs": [],
      "stateMutability": "nonpayable",
      "type": "function"
    },
    {
      "inputs": [
        {
          "internalType": "uint256",
          "name": "tokenId",
          "type": "uint256"
        },
        {
          "internalType": "string",
          "name": "newEmployeeName",
          "type": "string"
        },
        {
          "internalType": "string",
          "name": "newDepartmentName",
          "type": "string"
        },
        {
          "internalType": "string",
          "name": "newMessage",
          "type": "string"
        }
      ],
      "name": "updateEmployeeInfo",
      "outputs": [],
      "stateMutability": "nonpayable",
      "type": "function"
    }
  ],
  "bytecode": "0x60803462000399576040906001600160401b038183018181118382101762000383578352600b82526020906a115b5c1b1bde595953919560aa1b8284015283519084820182811082821117620003835785526005825264115413919560da1b83830152835181811162000383576000928354916001968784811c9416801562000378575b8785101462000364578190601f9485811162000311575b508790858311600114620002ad578792620002a1575b5050600019600383901b1c191690871b1784555b80519283116200028d5785548681811c9116801562000282575b868210146200026e579081838594931162000219575b5085918311600114620001b5578492620001a9575b5050600019600383901b1c191690841b1783555b806008556200012c336200039e565b5062000138336200041f565b5060075492680100000000000000008410156200019557830180600755831015620001815760078152200180546001600160a01b03191633179055516137a99081620004c38239f35b634e487b7160e01b81526032600452602490fd5b634e487b7160e01b82526041600452602482fd5b01519050388062000109565b8685528585208794509190601f198416865b88828210620002025750508411620001e8575b505050811b0183556200011d565b015160001960f88460031b161c19169055388080620001da565b8385015186558a97909501949384019301620001c7565b909192508685528585208380860160051c82019288871062000264575b9186958a929594930160051c01915b82811062000255575050620000f4565b87815586955089910162000245565b9250819262000236565b634e487b7160e01b85526022600452602485fd5b90607f1690620000de565b634e487b7160e01b84526041600452602484fd5b015190503880620000b0565b8780528888208a94509190601f198416895b8b828210620002fa5750508411620002e0575b505050811b018455620000c4565b015160001960f88460031b161c19169055388080620002d2565b8385015186558d97909501949384019301620002bf565b9091508680528787208580850160051c8201928a86106200035a575b918b91869594930160051c01915b8281106200034b5750506200009a565b8981558594508b91016200033b565b925081926200032d565b634e487b7160e01b86526022600452602486fd5b93607f169362000083565b634e487b7160e01b600052604160045260246000fd5b600080fd5b6001600160a01b031660008181527f54cdd369e4e8a8515e52ca72ec816c2101831ad1f18bf44102ed171459c9b4f8602052604081205490919060ff166200041b5781805260066020526040822081835260205260408220600160ff19825416179055339160008051602062003c6c8339815191528180a4600190565b5090565b6001600160a01b031660008181527f0c3bb05773fb95f6688e1e7d9c896674dccd66884026cf30a3d5e3a9bfecd81160205260408120549091907fa49807205ce4d355092ef5a8a18f56e8913cf4a201fbe287825b095693c217759060ff16620004bd5780835260066020526040832082845260205260408320600160ff1982541617905560008051602062003c6c833981519152339380a4600190565b50509056fe608080604052600436101561001357600080fd5b60003560e01c90816301ffc9a714611bc75750806306fdde0314611b24578063081812fc14611ae6578063095ea7b3146119ff5780631222ed271461198f5780631785f53c1461192457806323b872dd1461190d578063248a9ca3146118de57806324d7806c1461188e5780632f2ff15d1461184f5780632f745c591461179b57806331ae450b1461171757806336568abe146116d057806342842e0e146116a85780634f558e791461168057806354c10365146115b557806356e496aa14610f5b5780636352211e14610f2b5780637048027514610dff57806370a0823114610dd457806375b238fc14610dab57806391d1485414610d5e57806395d89b4114610c93578063984788511461067a578063a045442c146105f3578063a217fddf146105d7578063a22cb46514610532578063b88d4fde146104d3578063bd45f0f514610493578063c87b56dd146102fa578063d547741f146102b9578063dc2ea810146101e55763e985e9c51461018a57600080fd5b346101e05760403660031901126101e0576101a3611c94565b6101ab611caa565b9060018060a01b03809116600052600560205260406000209116600052602052602060ff604060002054166040519015158152f35b600080fd5b346101e0576020806003193601126101e057600435600052600a815261024f60406000206040519061021682611cc0565b61021f81612132565b825261023f600261023260018401612132565b9286850193845201612132565b9182604082015251905190612922565b906102a1603a60405180947f646174613a696d6167652f7376672b786d6c3b6261736536342c0000000000008583015261029181518092878686019101611c4c565b810103601a810185520183611cf6565b6102b5604051928284938452830190611c6f565b0390f35b346101e05760403660031901126101e0576102f86004356102d8611caa565b908060005260066020526102f3600160406000200154611e90565b612048565b005b346101e0576020806003193601126101e05761044160043580600052600a835261043c607361037960406000206040519461033486611cc0565b61033d82612132565b865261036d610360600261035360018601612132565b948b8a0195865201612132565b91604088019283526127df565b95519151905191612922565b92604051938491751ec89b985b59488e880891d7d0dbdb5c185b9e53919560521b888401526103b1815180928a603687019101611c4c565b820161088b60f21b6036820152750899195cd8dc9a5c1d1a5bdb888e880895195cdd088b60521b60388201527f22696d616765223a22646174613a696d6167652f7376672b786d6c3b62617365604e820152620d8d0b60ea1b606e820152610422825180938a607185019101611c4c565b0161227d60f01b6071820152036053810184520182611cf6565b61268b565b906102a1603d60405180947f646174613a6170706c69636174696f6e2f6a736f6e3b6261736536342c0000008583015261048381518092878686019101611c4c565b810103601d810185520183611cf6565b346101e05760203660031901126101e057600435600052600f6020526102b56104bf6040600020612132565b604051918291602083526020830190611c6f565b346101e05760803660031901126101e0576104ec611c94565b6104f4611caa565b606435916001600160401b0383116101e057366023840112156101e0576105286102f8933690602481600401359101611d32565b916044359161235e565b346101e05760403660031901126101e05761054b611c94565b602435908115158092036101e0576001600160a01b03169081156105be57336000526005602052604060002082600052602052604060002060ff1981541660ff83161790556040519081527f17307eab39ab6107e8899845ad3d59bd9653f200f220920489ca2b5937696c3160203392a3005b604051630b61174360e31b815260048101839052602490fd5b346101e05760003660031901126101e057602060405160008152f35b346101e05760003660031901126101e05760405180600d5491828152602080910192600d6000527fd7b6990105719101dabeb77144f2a3385c8033acd3af97e9423a695e81ad1eb5916000905b828210610663576102b58561065781890382611cf6565b60405191829182611dbc565b835486529485019460019384019390910190610640565b346101e05760803660031901126101e057610693611c94565b6024356001600160401b0381116101e0576106b2903690600401611d69565b6044356001600160401b0381116101e0576106d1903690600401611d69565b916064356001600160401b0381116101e0576106f1903690600401611d69565b916106fa611e58565b60018060a01b0392838316600052600b602052604060002054610c4e576008549484841615610c35578560005260026020528460406000205416868115159182610bfe575b878716600052600360205260406000206001815401905581600052600260205260406000208888166bffffffffffffffffffffffff60a01b825416179055878716907fddf252ad1be2c89b69c2b068fc378daa952ba7f163c4a11628f55a4df523b3ef600080a4610be557604051926107b784611cc0565b83526020830152604082015283600052600a60205260406000209080518051906001600160401b0382116109695781906107f185546120f8565b601f8111610b95575b50602090601f8311600114610b2957600092610b1e575b50508160011b916000199060031b1c19161782555b60208101518051906001600160401b0382116109695761084960018501546120f8565b601f8111610ad7575b50602090601f8311600114610a6457604093929160009183610a59575b50508160011b916000199060031b1c19161760018401555b01518051906001600160401b038211610969576108a760028401546120f8565b601f8111610a0e575b50602090601f83116001146109a0576002929160009183610995575b50508160011b916000199060031b1c1916179101555b6008546001810180911161097f5760085582600052600c60205260406000208282166bffffffffffffffffffffffff60a01b825416179055818116600052600b602052604060002092835493600160401b851015610969578461094d9160016102f8970181556125a9565b819291549060031b91821b91600019901b1916179055166125c1565b634e487b7160e01b600052604160045260246000fd5b634e487b7160e01b600052601160045260246000fd5b0151905087806108cc565b90601f198316916002850160005260206000209260005b8181106109f6575091600193918560029694106109dd575b505050811b019101556108e2565b015160001960f88460031b161c191690558780806109cf565b929360206001819287860151815501950193016109b7565b600284016000526020600020601f840160051c81019160208510610a4f575b601f0160051c01905b818110610a4357506108b0565b60008155600101610a36565b9091508190610a2d565b01519050888061086f565b906001850160005260206000209160005b601f1985168110610abf575091839160019360409695601f19811610610aa6575b505050811b016001840155610887565b015160001960f88460031b161c19169055888080610a96565b91926020600181928685015181550194019201610a75565b600185016000526020600020601f840160051c810160208510610b17575b601f830160051c82018110610b0b575050610852565b60008155600101610af5565b5080610af5565b015190508780610811565b9250846000526020600020906000935b601f1984168510610b7a576001945083601f19811610610b61575b505050811b018255610826565b015160001960f88460031b161c19169055878080610b54565b81810151835560209485019460019093019290910190610b39565b909150846000526020600020601f840160051c810160208510610bde575b90849392915b601f830160051c82018110610bcf5750506107fa565b60008155859450600101610bb9565b5080610bb3565b6040516339e3563760e11b815260006004820152602490fd5b600082815260046020526040902080546001600160a01b03191690558060005260036020526040600020600019815401905561073f565b604051633250574960e11b815260006004820152602490fd5b60405162461bcd60e51b815260206004820152601e60248201527f456d706c6f79656520616c72656164792068617320616e204944204e465400006044820152606490fd5b346101e05760003660031901126101e05760405160006001805490610cb7826120f8565b80855291818116908115610d375750600114610cde575b6102b5846104bf81860382611cf6565b600081815292507fb10e2d527612073b26eecdfd717e6a320cf44b4afac2b0732d9fcbe2b7fa0cf65b828410610d1f5750505081016020016104bf82610cce565b80546020858701810191909152909301928101610d07565b60ff191660208087019190915292151560051b850190920192506104bf9150839050610cce565b346101e05760403660031901126101e057610d77611caa565b600435600052600660205260406000209060018060a01b0316600052602052602060ff604060002054166040519015158152f35b346101e05760003660031901126101e05760206040516000805160206137548339815191528152f35b346101e05760203660031901126101e0576020610df7610df2611c94565b6120bf565b604051908152f35b346101e0576020806003193601126101e057610e19611c94565b610e21611e00565b60008051602061375483398151915260008181526006845260408082206001600160a01b0385168084529086529120549093919060ff16610ee8579060069160005252610e75600160406000200154611e90565b610e7e81611eb6565b5060075490600160401b82101561096957610ea2826001610ec1940160075561255c565b90919082549060031b9160018060a01b03809116831b921b1916179055565b7f44d6d25963f097ad14f29f06854a01f575648a1ef82f30e562ccd3889717e339600080a2005b6064826040519062461bcd60e51b825280600483015260248201527f54686973206164647265737320697320616c726561647920616e2061646d696e6044820152fd5b346101e05760203660031901126101e0576020610f496004356124b1565b6040516001600160a01b039091168152f35b346101e05760803660031901126101e0576024356001600160401b0381116101e057610f8b903690600401611d69565b6044356001600160401b0381116101e057610faa903690600401611d69565b6064356001600160401b0381116101e057610fc9903690600401611d69565b91610fd2611e58565b604051610fde81611cc0565b818152826020820152836040820152600435600052600a60205260406000209080518051906001600160401b03821161096957819061101d85546120f8565b601f8111611565575b50602090601f83116001146114ff576000926114f4575b50508160011b916000199060031b1c19161782555b60208101518051906001600160401b0382116109695761107560018501546120f8565b601f81116114ad575b50602090601f831160011461143a5760409392916000918361142f575b50508160011b916000199060031b1c19161760018401555b01518051906001600160401b038211610969576110d360028401546120f8565b601f81116113e4575b50602090601f831160011461136c57826111f497959361111d979593600293600092611361575b50508160011b916000199060031b1c191617910155612922565b61043c607561112d6004356127df565b604051938491751ec89b985b59488e880891d7d0dbdb5c185b9e53919560521b6020840152611166815180926020603687019101611c4c565b820161088b60f21b603682015275088b0899195cd8dc9a5c1d1a5bdb888e880895195cdd60521b60388201527f222c22696d616765223a22646174613a696d6167652f7376672b786d6c3b6261604e820152641cd94d8d0b60da1b606e8201526111da825180936020607385019101611c4c565b0161227d60f01b6073820152036055810184520182611cf6565b611247603d60405180937f646174613a6170706c69636174696f6e2f6a736f6e3b6261736536342c00000060208301526112378151809260208686019101611c4c565b810103601d810184520182611cf6565b600435600052600f602052604060002081516001600160401b0381116109695761127182546120f8565b601f8111611319575b50602092601f82116001146112b857928192936000926112ad575b5050600019600383901b1c191660019190911b179055005b015190508380611295565b601f198216938360005260206000209160005b86811061130157508360019596106112e8575b505050811b019055005b015160001960f88460031b161c191690558380806112de565b919260206001819286850151815501940192016112cb565b826000526020600020601f830160051c81019160208410611357575b601f0160051c01905b81811061134b575061127a565b6000815560010161133e565b9091508190611335565b015190508980611103565b90601f198316916002850160005260206000209260005b8181106113cc57509361111d979593600293600193836111f49c9a98106113b3575b505050811b01910155612922565b015160001960f88460031b161c191690558980806113a5565b92936020600181928786015181550195019301611383565b600284016000526020600020601f840160051c81019160208510611425575b601f0160051c01905b81811061141957506110dc565b6000815560010161140c565b9091508190611403565b01519050888061109b565b906001850160005260206000209160005b601f1985168110611495575091839160019360409695601f1981161061147c575b505050811b0160018401556110b3565b015160001960f88460031b161c1916905588808061146c565b9192602060018192868501518155019401920161144b565b600185016000526020600020601f840160051c8101602085106114ed575b601f830160051c820181106114e157505061107e565b600081556001016114cb565b50806114cb565b01519050878061103d565b6000868152602081209350601f198516905b81811061154d5750908460019594939210611534575b505050811b018255611052565b015160001960f88460031b161c19169055878080611527565b92936020600181928786015181550195019301611511565b909150846000526020600020601f840160051c8101602085106115ae575b90849392915b601f830160051c8201811061159f575050611026565b60008155859450600101611589565b5080611583565b346101e05760203660031901126101e0576115ce611c94565b60078054916001600160a01b039190821660005b8481106115eb57005b83826115f68361255c565b929054600393841b1c16146116175750600019811461097f576001016115e2565b9492939260001992508281019190821161097f57610ea28461163b6116489461255c565b905490891b1c169161255c565b8254801561166a57019261165b8461255c565b8154921b9290921b1916905555005b634e487b7160e01b600052603160045260246000fd5b346101e05760203660031901126101e057602061169e6004356124ec565b6040519015158152f35b346101e0576102f86116b936611d87565b90604051926116c784611cdb565b6000845261235e565b346101e05760403660031901126101e0576116e9611caa565b336001600160a01b03821603611705576102f890600435612048565b60405163334bd91960e11b8152600490fd5b346101e05760003660031901126101e057604051806007549182815260208091019260076000527fa66cc928b5edb82af9bd49922954155ab7b0942694bea4ce44661d9a8736c688916000905b82821061177b576102b58561065781890382611cf6565b83546001600160a01b031686529485019460019384019390910190611764565b346101e05760403660031901126101e0576117b4611c94565b602435906117c1816120bf565b8210156117f6576020916117e89160018060a01b0316600052600b835260406000206125a9565b90546040519160031b1c8152f35b60405162461bcd60e51b815260206004820152602b60248201527f455243373231456e756d657261626c653a206f776e657220696e646578206f7560448201526a74206f6620626f756e647360a81b6064820152608490fd5b346101e05760403660031901126101e0576102f860043561186e611caa565b90806000526006602052611889600160406000200154611e90565b611f45565b346101e05760203660031901126101e0576118a7611c94565b6001600160a01b03166000908152600080516020613734833981519152602090815260409182902054915160ff9092161515825290f35b346101e05760203660031901126101e05760043560005260066020526020600160406000200154604051908152f35b346101e0576102f861191e36611d87565b916121d8565b346101e05760203660031901126101e0576102f8611940611c94565b611948611e00565b60008051602061375483398151915260005260066020527f0c3bb05773fb95f6688e1e7d9c896674dccd66884026cf30a3d5e3a9bfecd8125461198a90611e90565b611fc0565b346101e05760603660031901126101e0576001600160401b036004358181116101e0576119c0903690600401611d69565b906024358181116101e0576119d9903690600401611d69565b916044359182116101e0576102b5926119f96104bf933690600401611d69565b91612922565b346101e05760403660031901126101e057611a18611c94565b602435611a24816124b1565b33151580611ad3575b80611aa6575b611a8e576001600160a01b039283169282918491167f8c5be1e5ebec7d5bd14f71427d1e84f3dd0314c0f7b2291e5b200ac8c7c3b925600080a4600090815260046020526040902080546001600160a01b0319169091179055005b60405163a9fbf51f60e01b8152336004820152602490fd5b5060018060a01b038116600052600560205260406000203360005260205260ff6040600020541615611a33565b506001600160a01b038116331415611a2d565b346101e05760203660031901126101e057600435611b03816124b1565b506000526004602052602060018060a01b0360406000205416604051908152f35b346101e05760003660031901126101e05760405160008054611b45816120f8565b80845290600190818116908115610d375750600114611b6e576102b5846104bf81860382611cf6565b600080805292507f290decd9548b62a8d60345a988386fc84ba6bc95484008f6362f93160ef3e5635b828410611baf5750505081016020016104bf82610cce565b80546020858701810191909152909301928101611b97565b346101e05760203660031901126101e0576004359063ffffffff60e01b82168092036101e057602091637965db0b60e01b8114908115611c09575b5015158152f35b6380ac58cd60e01b811491508115611c3b575b8115611c2a575b5083611c02565b6301ffc9a760e01b14905083611c23565b635b5e139f60e01b81149150611c1c565b60005b838110611c5f5750506000910152565b8181015183820152602001611c4f565b90602091611c8881518092818552858086019101611c4c565b601f01601f1916010190565b600435906001600160a01b03821682036101e057565b602435906001600160a01b03821682036101e057565b606081019081106001600160401b0382111761096957604052565b602081019081106001600160401b0382111761096957604052565b90601f801991011681019081106001600160401b0382111761096957604052565b6001600160401b03811161096957601f01601f191660200190565b929192611d3e82611d17565b91611d4c6040519384611cf6565b8294818452818301116101e0578281602093846000960137010152565b9080601f830112156101e057816020611d8493359101611d32565b90565b60609060031901126101e0576001600160a01b039060043582811681036101e0579160243590811681036101e0579060443590565b6020908160408183019282815285518094520193019160005b828110611de3575050505090565b83516001600160a01b031685529381019392810192600101611dd5565b3360009081527f54cdd369e4e8a8515e52ca72ec816c2101831ad1f18bf44102ed171459c9b4f8602052604081205460ff1615611e3a5750565b6044906040519063e2517d3f60e01b82523360048301526024820152fd5b33600090815260008051602061373483398151915260205260409020546000805160206137548339815191529060ff1615611e3a5750565b80600052600660205260406000203360005260205260ff6040600020541615611e3a5750565b6001600160a01b0316600081815260008051602061373483398151915260205260408120549091906000805160206137548339815191529060ff16611f405780835260066020526040832082845260205260408320600160ff198254161790557f2f8788117e7eff1d82e926ec794901d17c78024a50270940304540a733656f0d339380a4600190565b505090565b906000918083526006602052604083209160018060a01b03169182845260205260ff60408420541615600014611f405780835260066020526040832082845260205260408320600160ff198254161790557f2f8788117e7eff1d82e926ec794901d17c78024a50270940304540a733656f0d339380a4600190565b6001600160a01b0316600081815260008051602061373483398151915260205260408120549091906000805160206137548339815191529060ff1615611f40578083526006602052604083208284526020526040832060ff1981541690557ff6391f5c32d9c69d2a47ea670b442974b53935d1edc7fd64eb21e047a839171b339380a4600190565b906000918083526006602052604083209160018060a01b03169182845260205260ff604084205416600014611f40578083526006602052604083208284526020526040832060ff1981541690557ff6391f5c32d9c69d2a47ea670b442974b53935d1edc7fd64eb21e047a839171b339380a4600190565b6001600160a01b031680156120df57600052600360205260406000205490565b6040516322718ad960e21b815260006004820152602490fd5b90600182811c92168015612128575b602083101461211257565b634e487b7160e01b600052602260045260246000fd5b91607f1691612107565b9060405191826000825492612146846120f8565b9081845260019485811690816000146121b55750600114612172575b505061217092500383611cf6565b565b9093915060005260209081600020936000915b81831061219d57505061217093508201013880612162565b85548884018501529485019487945091830191612185565b91505061217094506020925060ff191682840152151560051b8201013880612162565b6001600160a01b039182169290918315610c35576000928284528260209560028752604096848888205416968791331515806122c8575b509060027fddf252ad1be2c89b69c2b068fc378daa952ba7f163c4a11628f55a4df523b3ef9284612295575b858352600381528b8320805460010190558683525289812080546001600160a01b0319168517905580a416928383036122745750505050565b6064945051926364283d7b60e01b8452600484015260248301526044820152fd5b600087815260046020526040902080546001600160a01b0319169055848352600381528b8320805460001901905561223b565b9193945091508061231d575b156122e45785929187913861220f565b878688612301576024915190637e27328960e01b82526004820152fd5b604491519063177e802f60e01b82523360048301526024820152fd5b503387148015612342575b806122d457508582526004815233858984205416146122d4565b5086825260058152878220338352815260ff8883205416612328565b6123698383836121d8565b813b612376575b50505050565b604051630a85bd0160e11b8082523360048301526001600160a01b039283166024830152604482019490945260806064820152602095929091169390929083906123c4906084830190611c6f565b039285816000958187895af184918161246d575b50612438575050503d600014612430573d6123f281611d17565b906124006040519283611cf6565b81528091843d92013e5b8051928361242b57604051633250574960e11b815260048101849052602490fd5b019050fd5b50606061240a565b919450915063ffffffff60e01b1603612455575038808080612370565b60249060405190633250574960e11b82526004820152fd5b9091508681813d83116124aa575b6124858183611cf6565b810103126124a657516001600160e01b0319811681036124a65790386123d8565b8480fd5b503d61247b565b6000818152600260205260409020546001600160a01b03169081156124d4575090565b60249060405190637e27328960e01b82526004820152fd5b604051906331a9108f60e11b82526004820152602081602481305afa908161251e575b5061251957600090565b600190565b6020813d8211612554575b8161253660209383611cf6565b810103126101e057516001600160a01b038116036101e0573861250f565b3d9150612529565b6007548110156125935760076000527fa66cc928b5edb82af9bd49922954155ab7b0942694bea4ce44661d9a8736c6880190600090565b634e487b7160e01b600052603260045260246000fd5b80548210156125935760005260206000200190600090565b6000818152600e602052604081205461265457600d54600160401b811015612640576001810180600d5581101561262c5790826040927fd7b6990105719101dabeb77144f2a3385c8033acd3af97e9423a695e81ad1eb50155600d54928152600e6020522055600190565b634e487b7160e01b82526032600452602482fd5b634e487b7160e01b82526041600452602482fd5b905090565b9061266382611d17565b6126706040519182611cf6565b8281528092612681601f1991611d17565b0190602036910137565b8051156127cb576040519061269f82611cc0565b604082527f4142434445464748494a4b4c4d4e4f505152535455565758595a61626364656660208301527f6768696a6b6c6d6e6f707172737475767778797a303132333435363738392b2f6040830152805160029182820180921161097f576003918290046001600160fe1b038116810361097f57612721908495941b612659565b936020850193829183518401906020820192835194600085525b83811061277a5750505050525106806001146127675760021461275c575090565b603d90600019015390565b50603d9081600019820153600119015390565b87600491999293949901918251600190603f9082828260121c16880101518453828282600c1c16880101518385015382828260061c168801015188850153168501015189820153019792919061273b565b506040516127d881611cdb565b6000815290565b806000917a184f03e93ff9f4daa797ed6e38ed64bf6a1f01000000000000000080821015612914575b506d04ee2d6d415b85acef810000000080831015612905575b50662386f26fc10000808310156128f6575b506305f5e100808310156128e7575b50612710808310156128d8575b5060648210156128c8575b600a809210156128be575b600190816021612876828701612659565b95860101905b612888575b5050505090565b600019019083906f181899199a1a9b1b9c1cb0b131b232b360811b8282061a8353049182156128b95791908261287c565b612881565b9160010191612865565b919060646002910491019161285a565b6004919392049101913861284f565b60089193920491019138612842565b60109193920491019138612833565b60209193920491019138612821565b604093508104915038612808565b90610c7a61043c91611d84946040519485927f3c7376672077696474683d2237303022206865696768743d223730302220786d60208501527f6c6e733d22687474703a2f2f7777772e77332e6f72672f323030302f7376672260408501527f207374796c653d226261636b67726f756e642d636f6c6f723a20233137323835606085015263199d911f60e11b60808501527f3c7469746c653e456d706c6f7965654e46545f496d6167653c2f7469746c653e60848501527f3c74657874207472616e73666f726d3d226d617472697828312e31313137342060a48501527f30203020312e3337393635202d32312e31383431202d32382e3334363429222060c48501527f7374726f6b653d2223394143454536222066696c6c3d2223666666666666222060e48501527f7374726f6b652d77696474683d22302220783d223234322e35393739332220796101048501527f3d2237342e3832303631222069643d227376675f332220666f6e742d73697a656101248501527f3d2232342220666f6e742d66616d696c793d22274172696d6f272220746578746101448501527f2d616e63686f723d2273746172742220786d6c3a73706163653d2270726573656101648501527f7276652220666f6e742d7765696768743d22626f6c64223e456d706c6f796565610184850152691024a21e17ba32bc3a1f60b11b6101a48501527f3c72656374207374726f6b653d2223394143454536222069643d227376675f34806101ae8601527f22206865696768743d223139222077696474683d223131352220793d2233382290816101ce8701527f20783d2238312e303030323622207374726f6b652d77696474683d2230222066806101ee8801526e34b6361e9111b3333333333311179f60891b928361020e8901527f3c72656374207374726f6b653d2223394143454536222069643d227376675f36928361021d8a01527f22206865696768743d223139222077696474683d223131352220793d22363722928361023d8b015261025d8a01528461027d8a015261028c8901526102ac8801527f20783d223532362e3137373622207374726f6b652d77696474683d223022206691826102cc890152836102ec8901526102fb88015261031b87015261033b86015261035b8501527f3c70617468207374726f6b653d2223394143454536222069643d227376675f3161036a8501527f362220643d226d3237312e39383931342c3138312e35343136336c33342e393261038a8501527f3835382c2d36332e39393939396c39332e31343238362c306c33342e393238356103aa8501527f362c36332e39393939396c2d33342e39323835362c36332e39393939396c2d396103ca8501527f332e31343238362c306c2d33342e39323835382c2d36332e39393939397a22206103ea8501527f7374726f6b652d77696474683d2230222066696c6c3d2223306465383737222f61040a850152601f60f91b61042a8501527f3c74657874207472616e73666f726d3d226d617472697828312e39363830352061042b8501527f30203020312e3635363133202d3233322e393431202d3133342e33323629222061044b8501527f7374726f6b653d22233941434545362220786d6c3a73706163653d227072657361046b8501527f657276652220746578742d616e63686f723d2273746172742220666f6e742d6661048b8501527f616d696c793d22274172696d6f272220666f6e742d73697a653d2232342220696104ab8501527f643d227376675f31392220793d223139372e35373931322220783d223238372e6104cb8501527f3931363122207374726f6b652d77696474683d2230222066696c6c3d222330306104eb8501526d18181818111f239e17ba32bc3a1f60911b61050b8501527f3c7465787420786d6c3a73706163653d2270726573657276652220746578742d806105198601527f616e63686f723d2273746172742220666f6e742d66616d696c793d222741726990816105398701527f6d6f272220666f6e742d73697a653d223234222069643d227376675f323222206105598701527f793d223238382e30353837342220783d223239312e383234313722207374726f6105798701527f6b652d77696474683d223022207374726f6b653d2223394143454536222066696105998701527f6c6c3d2223666666666666223e596f7572204e616d653c2f746578743e0000006105b98701527f3c72656374207374726f6b653d2223303030303030222069643d227376675f326105d68701527f3322206865696768743d223332222077696474683d223234382220793d2233306105f68701527f372e37363436352220783d223233322e303030363522207374726f6b652d77696106168701527f6474683d2232222066696c6c3d2223666666666666222f3e000000000000000061063687015261064e86015261066e8501527f6d6f272220666f6e742d73697a653d223234222069643d227376675f3234222061068e8501527f793d223430312e35383831372220783d223135332e333533343822207374726f6106ae8501527f6b652d77696474683d223022207374726f6b653d22233030303030302220666991826106ce8601526c36361e9111b33333333333111f60991b6106ee860152635465616d60e01b6106fb860152661e17ba32bc3a1f60c91b92836106ff8701527f3c726563742066696c6c3d222366666666666622207374726f6b652d776964746107068701527f683d22322220783d223235362e37303636392220793d223337332e36343734336107268701527f222077696474683d2232343822206865696768743d223332222069643d2273766107468701527f675f3522207374726f6b653d2223303030303030222f3e0000000000000000006107668701527f3c74657874207374796c653d22637572736f723a206d6f76653b22207374726f61077d8701527f6b653d22233030303030302220786d6c3a73706163653d22707265736572766561079d8701527f2220746578742d616e63686f723d2273746172742220666f6e742d66616d696c6107bd8701527f793d22274172696d6f272220666f6e742d73697a653d223234222069643d22736107dd8701527f76675f33302220793d223435352e37303539312220783d223132362e363437346107fd8701527f3322207374726f6b652d77696474683d2230222066696c6c3d2223666666666661081d8701526233111f60e91b61083d870152664d65737361676560c81b610840870152836108478701527f3c72656374207374726f6b653d2223303030303030222066696c6c3d2223666661084e8701527f6666666622207374726f6b652d77696474683d22322220783d223235362e373061086e8701527f3636392220793d223433312e3239343837222077696474683d2232343822206861088e8701527f65696768743d2233342e3335323935222069643d227376675f37222f3e0000006108ae8701527f3c74657874207374796c653d22637572736f723a206d6f76653b2220786d6c3a6108cb8701527f73706163653d2270726573657276652220746578742d616e63686f723d2273746108eb8701527f6172742220666f6e742d66616d696c793d22274172696d6f272220666f6e742d61090b8701527f73697a653d223234222069643d227376675f33322220793d223538322e30353961092b8701527f2220783d223237342e333533343722207374726f6b652d77696474683d22302261094b8701527f207374726f6b653d2223303030303030222066696c6c3d22236666666666662261096b8701526d1f3c3c3c3c3c3c1e17ba32bc3a1f60911b61098b8701527f203c7465787420786d6c3a73706163653d2270726573657276652220746578746109998701527f2d616e63686f723d2273746172742220666f6e742d66616d696c793d222741726109b98701527f696d6f272220666f6e742d73697a653d223234222069643d227376675f3333226109d98701527f20793d223632342e363437332220783d223235372e313138313322207374726f6109f9870152610a198601527f6c6c3d2223666666666666223e7878782d787878782d7878783c2f746578743e610a398601527f3c746578742066696c6c3d222330303030303022207374726f6b653d2223666680610a598701527f6666666622207374726f6b652d77696474683d22302220783d223332342e3736610a798701527f3535352220793d223333332e3934313339222069643d227376675f3134222066610a9987015283867f6f6e742d73697a653d2232342220666f6e742d66616d696c793d22274172696d9384610ab98301527f6f272220746578742d616e63686f723d2273746172742220786d6c3a7370616380610ad9840152836c329e91383932b9b2b93b32911f60991b9283610af98601526135d6815180926020610b068099019101611c4c565b8b019384015284610b0d8401527f6666666622207374726f6b652d77696474683d22302220783d223237342e31379586610b2d8501527f3639392220793d223339382e3634373639222069643d227376675f3135222066610b4d850152610b6d840152610b8d830152610bad82015284519061365c82610bba9760208985019101611c4c565b0193840152610bc1830152610be18201527f3639392220793d223435372e34373136222069643d227376675f31372220666f610c018201527f6e742d73697a653d2232342220666f6e742d66616d696c793d22274172696d6f610c218201527f272220746578742d616e63686f723d2273746172742220786d6c3a7370616365610c418201526b1e91383932b9b2b93b32911f60a11b610c6182015282519061370f82610c6d9560208785019101611c4c565b0191820152651e17b9bb339f60d11b610c7482015203610c5a810184520182611cf656fe0c3bb05773fb95f6688e1e7d9c896674dccd66884026cf30a3d5e3a9bfecd811a49807205ce4d355092ef5a8a18f56e8913cf4a201fbe287825b095693c21775a2646970667358221220dc7f5f63f45be375dd695b15210dfd548d4aee9c76a82b71eff8f8a88dd69c0a64736f6c634300081300332f8788117e7eff1d82e926ec794901d17c78024a50270940304540a733656f0d",
  "linkReferences": {},
  "deployedLinkReferences": {}
}